:400000000080002011000000110600001106000080B500AF024A034B1B68136000F02AFBBC760040FA46004010B5054C237833B9044B13B10448AFF300800123237010BDC4
:400040007081FF1F00000000343D0000084B10B51BB108490848AFF300800848036803B910BD074B002BFBD0BDE81040184700BF000000007481FF1F343D0000C880FF1FD0
:400080000000000080B582B000AF002000F060FC0346FB80B7F90630184600F075FC03469AB2044B1A80044B01221A7000BF0837BD4680BD5C82FF1F9E81FF1F80B586B0F9
:4000C00000AF62B60121002000F02AFD124800F031F800F0E1FC114803F020F900F020FC0F4B1B78DBB2012BFAD10E4B1B889BB21A463B1D0C49184603F0F0F93B1D184678
:4001000000F018F8094800F015F8094800F012F8034B00221A70E3E7383D0000850000009E81FF1F5C82FF1F543D0000583D00005C3D000080B582B000AF786000BF01F0D2
:4001400005F80346002BFAD07B683F3300221A707B683E3321221A70786803F0E3F903469BB21946786800F0BBFF00BF0837BD4680BD00BF80B582B000AF786039603A68CE
:400180000021786803F0A1F900BF0837BD4680BD80B584B000AFF860B9607A607A68B968F86803F087F900BF1037BD4680BD00BF80B483B000AF0346FB71FEE780B487B01A
:4001C00000AF7860396000233B6100237B6127E07B699B007A6813441B68BB60BB68FB73BB6823F0FF03BB6014E03B695B003A6813441B781A46BB68134419463B695B0029
:400200003A6813445B780B703B6901333B61FB7B013BFB73FB7B002BE7D17B6901337B617B692B2BD4D900BF1C37BD4680BC704780B582B000AF3C4B04221A803B4B18228A
:400240001A703B4B25221A803A4B18221A703A4B3B221A80394B18221A70394B81221A80384B18221A70384B00221A80374B1B221A70374B06221A70364B52221A70364BBC
:40028000364A1278D2B21A70354B40F619121A80344B41F251221A800023FB7019237B6014E0FB785B00DAB22F4B1B78DBB203F00103DBB21343DBB203F00303FB704FF451
:4002C000F07003F079F87B68013B7B607B68002B02D0FB78032BE4D17B68002B02D10320FFF766FF214B4FF480721A801F4B07221A701F4B00221A701E4B48221A701B4B7A
:4003000000221A701C4B00221A701C4B02221A701B4A1B4B1B78DBB243F01F03DBB2137000BF0837BD4680BD80400040824000408440004086400040884000408A4000403D
:400340008C4000408E40004090400040924000400043004000420040A14600400F010049224200402042004025420040044000400640004008400040094000400140004033
:40038000A243004080B582B000AF1E4B1B78FB711D4B1B78BB711D4B1B787B711C4AFB7903F00703DBB213701A4AFB791B09DBB21370154ABB7943F00303DBB21370134A60
:4003C0007B7943F00303DBB21370134B20221A70124B80221A70124B20221A70114B20221A700A2002F0D8FE084A7B791370064ABB7913700C4B44221A7000BF0837BD46B2
:4004000080BD00BFCF010049F8460040F94600406E5800406F5800400D51004001590040205B0040235B00407658004080B586B000AF72B6584B61221A70FFF7F9FE564B5E
:4004400001221A70554A554B1B78DBB243F00403DBB213700023FB7513E0FA7D13465B0013445B004E4A13443B613B691A683B699B889BB219461046FFF77CFEFB7D01332D
:40048000FB75FB7D072BE8D90023FB751CE0FA7D13469B0013445B00424A1344FB60FB681B68BB60FB685B687B60FB681A7A5B7A1B0213437B807B881A467968B868FFF7E1
:4004C00067FEFB7D0133FB75FB7D012BDFD936494FF09040FFF772FE04213448FFF74AFE042233493348FFF753FE334B334A1A60334B344A1A60344A334B1B78DBB243F0AE
:400500000203DBB21370314A304B1B78DBB243F00203DBB213702E4A2D4B1B78DBB243F04003DBB213702B4A2A4B1B78DBB243F01003DBB21370082227492848FFF728FE2C
:40054000082227492748FFF723FE0A2226492748FFF71EFE082226492648FFF719FE0A2225492648FFF714FE082225492548FFF70FFE254A244B1B78DBB243F00803DBB24A
:400580001370FFF7FFFE0E2211492048FFF700FE00BF1837BD4680BD00480040E8460040603D0000903D0000B000004800760040E00E004808760040D8040140040400C4A6
:4005C000D8060140040404840350014013500140A0430040C2430040A80E004802510040B00E0048C2510040B80E0048F0510040C40E004812510040CC0E004820510040A3
:40060000D80E00483251004022430040B043004080B500AF02F022FF03461B680C2B00D1FEE7FEE780B584B000AF78600F4B1A687B6813441A460E4BD31A802B09DC0B4BCA
:400640001B68FB60094B1A687B681344074A136007E002F003FF02460C2313604FF0FF33FB60FB6818461037BD4680BDCC80FF1F9083FF1F80B586B000AF224B7B61224B84
:400680003B61204B7B6135E03B691B68FB603B695B68BB603B699B683B6000237B600CE0FB681A68BB681A60BB680433BB60FB680433FB607B6804337B607A683B689A42D0
:4006C000EED13B69DB683B6000237B6008E0BB6800221A60BB680433BB607B6804337B607A683B689A42F2D13B6910333B617B69013B7B617B69002BC6D102F0B5FEFFF7C6
:40070000DDFCFEE701000000B03F000080B582B000AF194B194A1A60194A194B1B6843F40073136000237B600FE07B68032B04D8144A7B6852F8233000E0134B13497A6819
:4007400041F822307B6801337B607B682F2BECD90F4B1B78DAB20F4B1A700F4B0B4A1A60FFF764FE02F0F0FA0C4B00221A6000BF0837BD4680BD00BF0CED00E00004FA0574
:4007800014ED00E000000000110600000080FF1FBC760040C480FF1F08ED00E0C080FF1F80B500AF41F6FF734FF480420121022002F032FA03461A460A4B1A7041F6FF7377
:4007C00041F6FF720121022002F058FA03461A46054B1A70054802F083FA002002F092FA00BF80BDA481FF1FA581FF1FA909000080B582B000AF414B1B78184602F018FB1F
:400800003F4B1B78184602F013FB3E4B1B78FF2B05D102F019FC03461A463A4B1A70394B1878384B1A780623022102F03BFC354B1B78354A92B245F6A031184602F072FC24
:400840002E4B1A782F4B1B781946104602F08EFB2E4B1B78FF2B05D102F0F6FB03461A462A4B1A70294B1878284B1A780723022102F018FC254B1B78234A91B2244A92B2D8
:40088000184602F04FFC1E4B1A78204B1B781946104602F06BFB194B1B780121184602F081FA174B1B780121184602F07BFA02F08BFD0346FB71174A164B1B78DBB243F093
:4008C0002003DBB21370FB79184602F081FD124A114B1B78DBB243F00103DBB213700E4A0D4B1B78DBB243F00203DBB213700B4B01221A6000BF0837BD4680BDA481FF1FD8
:40090000A581FF1FD080FF1FA881FF1FD180FF1FA082FF1F9A6400407F64004080E200E080B500AF084B1B68002B04D1FFF738FF054B01221A6002F037F8FFF759FF034BDB
:400940001B7800BF80BD00BFA081FF1F6B64004080B483B000AF0346FB80FB885B42084A32F913309AB2074B1B881BB29BB2D31A9BB21BB218460C37BD4680BC704700BF69
:40098000A082FF1F5A83FF1F80B582B000AF0346FB80B7F90630184602F0F8F8034618460837BD4680BD00BF80B400AF00BFBD4680BC704780B500AF214A214B1B78DBB2A4
:4009C00003F00103DBB213701E4A1E4B1B78DBB223F00303DBB213701B4A1B4B1B78DBB223F03003DBB21370174A174B1B78DBB243F03003DBB21370134A134B1B78DBB261
:400A000023F00F03DBB213700F4A0F4B1B78DBB243F00F03DBB213700C4A0C4B1B78DBB243F00103DBB21370092000F057F8092000F066F8002000F041F800BF80BD00BF62
:400A4000184F00401A4F0040234F0040194F004080B400AF0D4A0D4B1B78DBB243F00403DBB213700A4A0A4B1B78DBB243F00403DBB21370074A074B1B78DBB243F00103C3
:400A8000DBB2137000BFBD4680BC7047A3430040B3430040184F004080B500AF064B1B78002B04D1FFF786FF034B01221A70FFF7CFFF00BF80BD00BFAA81FF1F80B483B001
:400AC00000AF0346FB71044AFB79137000BF0C37BD4680BC704700BF1B4F004080B485B000AF0346FB71FB79FB81044AFB89138000BF1437BD4680BC704700BF1C4F004060
:400B000080B483B000AF0346FB71044BFA7992B21A8000BF0C37BD4680BC70471E4F004080B582B000AF03460A46FB711346BB71094B1B78002B04D100F010F8064B0122B2
:400B40001A70BA79FB791146184600F0D9F800BF0837BD4680BD00BFAB81FF1F80B582B000AF02F031FC0346FB71544A534B1B78DBB243F00103DBB21370514A504B1B7831
:400B8000DBB243F00103DBB213704E4B01221A704D4B02221A704D4A4C4B1B78DBB203F07F03DBB21370002002F0F6FA484A484B1B78DBB223F00603DBB21370454A454B70
:400BC0001B78DBB223F02003DBB21370404A404B1B78DBB243F00103DBB21370012002F0DBFA282002F0D8FA3B4A3B4B1B78DBB203F07F03DBB21370374A374B1B78DBB24C
:400C000023F04003DBB21370314A314B1B78DBB243F00203DBB21370022002F0BDFA2C4A2B4B1B78DBB243F00403DBB213702B4B00221A702A4B00221A70FB79184602F0C7
:400C4000C7FB0721172002F0E3FA2649172002F0B7FA0721182002F0DBFA2349182002F0AFFA0721152002F0D3FA2049152002F0A7FA0721012002F0CBFA1D49012002F00F
:400C80009FFA0721022002F0C3FA1A49022002F097FA0721032002F0BBFA1749032002F08FFA07210C2002F0B3FA14490C2002F087FA00BF0837BD4680BD00BFA543004096
:400CC000B54300409D60004009600040106000409443004012600040F8510040846000408560004019190000011200000D190000251800006D180000B9180000251900004F
:400D000080B582B000AF03460A46FB711346BB712E4AFB7913702E4B00221A702D4B00221A702D4B00221A702C4B00221A702C4B00221A702B4B00221A702B4B00221A70AD
:400D40002A4B4FF400021A60284B4FF080721A60264B4FF400121A60244B02221A60234B04221A60214B08221A60BB79002B02D0012B09D011E01E4A1D4B1B78DBB223F08C
:400D80000103DBB2137011E0194A194B1B78DBB243F00103DBB2137008E0154A144B1B78DBB243F00103DBB2137000BF114B03221A70114B80221A70012002F0FDFA0F4B3D
:400DC00004221A7000BF0837BD4680BDBD82FF1FC082FF1FDC82FF1FDF82FF1FD482FF1FDE82FF1FE182FF1FBC82FF1F00E100E009600040286000400860004012600040F2
:400E000080B400AF0F4B00221A700F4B00221A700E4B00221A700E4B00221A700D4B00221A700D4B00221A700C4B00221A700C4B03221A700B4B80221A7000BFBD4680BC28
:400E4000704700BFC082FF1FDC82FF1FDF82FF1FD482FF1FDE82FF1FE182FF1FBC82FF1F286000400860004080B483B000AF0346FB71FA79064913465B0013449B000B44E0
:400E800001331B78DBB218460C37BD4680BC7047E482FF1FB0B485B000AF03463960FB711346BB80FB79002B6DD0FB79082B6AD8B988FA79364813465B0013449B000344B5
:400EC00006331B889BB2C3F5007399420CD9FA792F4913465B0013449B000B4406331B889BB2C3F50073BB802A4CF979BB881B0A9BB2D8B2FA79264D13465B0013449B00BC
:400F00002B4403331B78DBB20343DAB20B0123441A70204AFB79B988C9B21B01134401330A461A703B68002B13D00023FB810CE01948FB79FA8939680A4412781B01034492
:400F400008331A70FB890133FB81FA89BB889A42EED3FA790E4913465B0013449B000B44013300221A700B48F979FA79084C13465B0013449B00234405331B78DAB20B017A
:400F8000034402331A7000BF1437BD46B0BC7047E482FF1FFC5F00407060004080B582B000AF0023FB71314B1B79DBB2184600F067F80346BB712D4B1B78DBB25BB2002B98
:400FC00015DA2A4B5B78DBB2212B00D048E0284B07221A80BA791346DB009B1A254A1344234A536000F086FA0346FB7138E01F4B5B78DBB2202B02D0222B1AD030E01C4BDF
:4010000007221A80BA791346DB009B1A194A1344174A5360BB79BA7917498A5CD2B242F00102D1B2144AD15400F0E2FA0346FB7116E0BB790D4A9278D2B291B20F4A22F851
:401040001310BB79BA790C498A5CD2B242F00202D1B2094AD15400F069FB0346FB7100BFFB7918460837BD4680BD00BF00600040C882FF1FD480FF1FA482FF1FB882FF1F08
:4010800080B485B000AF0346FB710023FB73FF23BB7317E0FB7B104AD35C7B737A7B0F4913465B0013449B000B440A331B78DBB2FA799A4203D1FB7BBB730223FB73FB7B2F
:4010C0000133FB73FB7B012BE4D9BB7B18461437BD4680BC704700BFAC82FF1FE482FF1F80B584B000AF78600B467B80144B1B781A46144B9B5CFB73FA7B134913465B00B4
:4011000013449B000B4408331B889BB27A889A420CD9FA7B0C4913465B0013449B000B4408331B887B80002002F02AF87A88FB7B79681846FFF7AEFE00BF1037BD4680BD15
:40114000AC81FF1FA882FF1FE482FF1F80B500AF054B1B781A46054B9B5CDBB21846FFF783FE0346184680BDAC81FF1FA882FF1F80B485B000AF78600B46FB701346BB70E1
:401180007B68DB7803F00303FB737B689B785BB2002B1ADAFB7B032B0AD0BB7803F001031449FA78CA54BB7843F00103BB701BE0BB789B08DBB203F001030F49FA78CA5409
:4011C000BB7843F00403BB700EE0FB7B032B0BD0BB785B08DBB203F001030849FA78CA54BB7843F00203BB70BB7818461437BD4680BC7047A882FF1FAC82FF1FB082FF1FA3
:4012000080B582B000AF374B1B78BB71BB7903F01003002B62D00123FB7197F90630002B12DABB7903F00F03012B02D00023FB711CE000F061F82C4B1B78DBB25BB2002B79
:4012400014DA0023FB7111E0BB7903F04003002B02D000F095F809E0BB7903F02003002B02D000F0B3F801E00023FB71FB79002B34D01C4B1B78BB7197F90630002B2DDB1F
:401280001A4B1B78DAB21A4B1B78DBB21343BB71184ABB791370174B1B78DBB2BA799A421CD1114B1B78FB710E4B1B78DBB223F07F03BB71BB79002B0AD10A4B0A4A12780A
:4012C000D2B21A70074B1B78DBB203F00F03FB71054B1B78DBB2FA799A42E2D100BF0837BD4680BD28600040DD82FF1F5283FF1FE082FF1F2960004080B582B000AF1D4B4E
:401300001B78FB711B4AFB7913701A4B1B78FB7197F90730002B03DA174AFB79137025E0022000F045FA154B1B78DBB203F06003202B08D0402B0BD0002B0ED100F0F8FA46
:401340000346FB710CE002F047F80346FB7107E001F000FB0346FB7102E00023FB7100BFFB79002B02D1044B03221A7000BF0837BD4680BD28600040DD82FF1F006000409B
:4013800080B500AF104B1B78DBB2062B19D801A252F823F0C3130000C3130000B1130000C3130000B7130000C3130000BD13000000F0F8F806E000F0A7F903E000F0D2F902
:4013C00000E000BF00BF80BDC082FF1F80B500AF124B1B78DBB2062B1DD801A252F823F01714000017140000FD1300001714000003140000171400000914000000F0D8F8BB
:401400000AE000F027F907E0032000F0D1F9044B03221A7000E000BF00BF80BDC082FF1FDD82FF1F80B483B000AF0023FB71294B1B78DBB29AB2284B1B889BB213449AB2ED
:40144000254B1A8015E02549FB79254A52681278D2B2CA54224B5B680133214A5360FB790133FB711E4B1B889BB2013B9AB21C4B1A801B4B1B889BB2002B02D0FB79072BC5
:40148000E1D9144B1B78DBB2082B02D0FB79002B0FD0144B1B78DBB283F07F03DB43DAB2104B1A70104B0F221A70104B02221A7005E00D4B02221A700C4B02221A700C4A08
:4014C000FB791370034AFB79137000BF0C37BD4680BC7047BC82FF1FBE82FF1F00600040C882FF1F5283FF1FDD82FF1FC082FF1FE082FF1F80B582B000AF164B1B889BB240
:40150000002B02D100F02EF81EE0134B02221A70124B00221A7000F06BF9114BDB79DBB29BB21B029AB20E4B9B79DBB29BB21343FB80084B1B889BB2FA889A4202D2054A61
:40154000FB881380FFF76EFF012318460837BD4680BD00BFC882FF1FC082FF1F5283FF1F0060004080B400AF094B02221A70094B80221A70084B0F221A70084B00221A7065
:40158000074B00221A7001231846BD4680BC7047C082FF1F5283FF1FDD82FF1FBC82FF1FE082FF1F80B500AFFFF73CFF00BF80BD80B500AF0A4B1B78DBB29AB2094B1B885C
:4015C0009BB213449AB2074B1A80074B00221A70012000F0EDF8054B03221A7000BF80BDBC82FF1FBE82FF1FC082FF1FDD82FF1F80B582B000AF124B04221A70114B802268
:401600001A7000F0F5F8104BDB79DBB29BB21B029AB20D4B9B79DBB29BB21343FB800B4B1B889BB2FA889A4202D2084AFB881380074B0B221A70012318460837BD4680BD50
:40164000C082FF1F5283FF1F00600040C882FF1FDD82FF1F80B483B000AF0023BB71234B1B78DBB203F00F03DBB2023BFB71FB799AB21F4B1B889BB213449AB21C4B1A80A6
:4016800018E01C4B5B681C49BA798A5CD2B21A70184B5B680133174A5360BB790133BB71FB79013BFB71134B1B889BB2013B9AB2104B1A800F4B1B889BB2002B02D0FB79D8
:4016C000002BDED10D4AFB7913700D4B1B78DBB283F07F03DB43DAB2094B1A70094B0B221A7000BF0C37BD4680BC704729600040BE82FF1FC882FF1F00600040E082FF1F1B
:401700005283FF1FDD82FF1F80B500AF054B00221A70012000F04CF8034B03221A7000BF80BD00BFC082FF1FDD82FF1F80B400AF084B06221A70084B06221A70074B80228E
:401740001A70074B00221A7001231846BD4680BC704700BFC082FF1FDD82FF1F5283FF1FE082FF1F80B500AF0D4B1B78DBB2002B0AD00C4A0A4B1B78DBB263F07F03DBB2CC
:401780001370074B00221A70074B00221A70012000F00EF8054B03221A7000BF80BD00BFDE82FF1F08600040C082FF1FDD82FF1F80B483B000AF0346FB710B4B9B68002B87
:4017C0000CD0094B9B68FA791A70074B9B68074A128892B25A80044B00229A6000BF0C37BD4680BC704700BFC882FF1FBE82FF1F80B400AF094B00221A80094B9B68002BFE
:4018000007D0074B9B6800221A70054B9B6800225A8000BFBD4680BC704700BFBE82FF1FC882FF1F80B400AF0D4B01221A700D4B9B7C0D4B1B7BDBB203F00303012B08D078
:40184000094BDB7BDBB283F07F03DB43DAB2064BDA73054B01225A7300BFBD4680BC70470B600040FC5F0040E482FF1F80B400AF0E4B02221A700E4B93F822300D4B1B7E24
:40188000DBB203F00303012B08D00A4BDB7EDBB283F07F03DB43DAB2064BDA76054B01225A7600BFBD4680BC704700BF0B600040FC5F0040E482FF1F80B400AF104B04223E
:4018C0001A70104B93F832300F4B93F82430DBB203F00303012B0AD00B4B93F82730DBB283F07F03DB43DAB2074B83F82720064B012283F8252000BFBD4680BC704700BF31
:401900000B600040FC5F0040E482FF1F80B400AF00BFBD4680BC704780B500AFFFF770FA00BF80BD80B500AF01F0FEF900BF80BD80B586B000AF0023FB759D4B1B78FB71A9
:4019400000233B619B4B00221A8097F90730002B80F20481964B5B78DBB20A2B00F21B8201A252F823F000BFB31A0000971D0000971D0000971D0000971D0000971D000008
:4019800095190000971D0000271B0000971D00003D1B0000864BDB78DBB2012B0ED100F049FEB860BB685B68824A5360814B12221A80FFF79FFD0346FB75EEE17C4BDB7839
:4019C000DBB2022B25D17A4B9B78DBB2184600F009FEB860BB68002B00F0DF81BB685B68744A5360734B5B6803331B78DBB29BB21B029AB26F4B5B6802331B78DBB29BB2C4
:401A000013439AB26B4B1A80FFF774FD0346FB75C3E1674BDB78DBB2032B45D10023FB73654B3B6109E03B691B78BB71BB793A6913443B61FB7B0133FB735D4B9B78DBB2C7
:401A4000FA7B9A4204D23B691B78DBB2002BEAD1574B9B78DBB2EE2B01D1584B3B61544B9B78DBB2002B0BD0514B9B78DAB2544B1B7C9A4204D1534800F0ACF9514B3B615A
:401A80003B691B78DBB2002B00F087813B691B78DBB29AB2474B1A80464A3B695360FFF729FD0346FB7578E101F096FC0346FB7573E1FB7903F00303002B20D0022B00D0D9
:401AC00030E03C4B02221A80394B1B79DBB203F07F023D4913465B0013449B000B4402331B78DAB2394B1A70384B00225A70314B364A5A60FFF7FEFC0346FB7512E02D4B63
:401B000002221A80324B1B78DAB2304B1A702F4B00225A70274B2D4A5A60FFF7EBFC0346FB7500BF40E1234B01221A80214B294A5A60FFF7DFFC0346FB7535E11D4B0122D8
:401B40001A801B4B1B79DBB21A46234B1344194A5360FFF7CFFC0346FB7525E1144B5B78DBB2013B0A2B00F21A8101A252F823F07B1C00009F1D0000091D00009F1D000097
:401B80009D1B00009F1D00009F1D00009F1D0000E11B00009F1D0000371C0000044B9B78DAB20E4B1A70FFF7C1FD0346FB75FBE000600040C882FF1F103E0000183F000068
:401BC000B83D00006483FF1FE482FF1FB081FF1FE182FF1FDF82FF1F5083FF1FDE82FF1F744B9B787B717B79002B06D07B79013BDBB2184600F0F6FCB8607B79002B02D0F0
:401C0000BB68002B03D17B79002B40F0CA806A4B1B78DBB27A799A4208D0674A7B791370664B01221A70012000F0DCF9FFF77EFD0346FB75B5E000F055FE0346002B00F09B
:401C4000B2805C4B1B793B715A4B1B79DAB25C4B1A703B795B4AD35CDAB23B795A49CB5CDBB29A4204D0554B01221A7000F08CFBFFF75CFD0346FB7595E0FB7903F00303D8
:401C8000012B20D0012B0CD3022B00D03BE0494B9B78DBB2002B31D100F078FD0346FB752CE0444B9B78DBB2012B29D1474B1B78DBB223F00203DAB2444B1A70FFF736FD6D
:401CC0000346FB751CE03B4B1B79DBB2012B19D8384B9B78DBB2DB43DBB2364A1279D2B2114610463A4A125CD2B21340DAB2384B5A54FFF71BFD0346FB7503E000BF53E03F
:401D000000BF51E000BF4FE0FB7903F00303012B20D0012B0CD3022B00D03BE0254B9B78DBB2002B31D100F0BDFC0346FB752CE0204B9B78DBB2012B29D1244B1B78DBB2AE
:401D400043F00203DAB2214B1A70FFF7EFFC0346FB751CE0174B1B79DBB2012B19D8154B9B78DBB2DB43DBB2124A1279D2B211461046174A125CD2B21340DAB2144B5A5471
:401D8000FFF7D4FC0346FB7503E000BF0CE000BF0AE000BF08E000BF06E000BF04E000BF02E000BF00E000BFFB7D18461837BD4680BD00BF00600040DF82FF1FDC82FF1FC0
:401DC000D482FF1FC482FF1F5083FF1FE182FF1F5483FF1FB0B58AB000AF7860324B07F114041D460FCD0FC42B682370002387F826307B68002B52D07B6822221A707B68FD
:401E0000013303221A7007F10C03184601F024FA022387F827303EE097F827307A68134497F8262007F128010A4412F81C2C1209D2B207F128010A4412F8142C1A7097F80C
:401E4000273001337A68134400221A7097F8273002337A68134497F8262007F128010A4412F81C2C02F00F0207F128010A4412F8142C1A7097F8273003337A68134400224B
:401E80001A7097F82630013387F8263097F82730043387F8273097F82730212BBCD900BF2837BD46B0BD00BFA43D000090B482B000AF0123FB7180E0464AFB791B01134436
:401EC0000C221A70FA79444913465B0013449B000B4405331B78DBB2002B1CD0FA793E4913465B0013449B000B4404331B78DBB25BB2002B07DA394AFB791B0113440233C8
:401F00000C221A700EE0354AFB791B011344023308221A7006E0314AFB791B011344023380221A702B48F979FA792B4C13465B0013449B00234406331B889BB2DAB20B0166
:401F4000034406331A702348F979FA79224C13465B0013449B00234406331B889BB21B0A9BB2DAB20B01034407331A701948F979FA79194C13465B0013449B00234406335D
:401F80001B889BB2DAB20B01034404331A701148F979FA79104C13465B0013449B00234406331B889BB21B0A9BB2DAB20B01034405331A70FB790133FB71FB79082B7FF67E
:401FC0007BAF074BFF221A7000BF0837BD4690BC704700BF70600040E482FF1FFC5F00400A60004080B58AB000AF0346FB7100237B84002387F8273050E097F82720B3492E
:4020000013465B0013449B000B4400221A7097F82720AE4913465B0013449B000B44023300221A7097F82720A84913465B0013449B000B44033300221A7097F82720A349FC
:4020400013465B0013449B000B44083300221A8097F827209D4913465B0013449B000B440A3300221A7097F82720984913465B0013449B000B44013300221A7097F8272078
:40208000924913465B0013449B000B44053300221A7097F82730013387F8273097F82730082BAAD9FB79002B16D0002387F825300EE097F82530864A0021D15497F8253098
:4020C000844A0021D15497F82530013387F8253097F82530012BECD97F4B1B78DBB2002B00F04A810023FB767B4B1B78DBB2013BDBB2184600F076FA78617B695B683B611E
:402100003B6907331B7803F04003002B08D0734B1B78DBB243F00103DAB2704B1A7007E06E4B1B78DBB223F00103DAB26B4B1A707B6908337B617B691B7887F82730012300
:4021400087F82530B6E07B695B68FB61002387F82630A3E097F82520FB699B7803F07F039A4240F0938097F82520584913465B0013449B000B4408331B889AB2FB699B887D
:402180009A420CD297F82520FB6998884F4913465B0013449B000B44083302461A80FB691B781A464A4B9B5CDAB2FB695B789A426CD197F82520FB699878444913465B001B
:4021C00013449B000B44043302461A7097F82520FB69D8783D4913465B0013449B000B4402461A70FB69DB7803F00303FB73FB699B785BB2002B1CDA97F82520FB7B012B87
:4022000001D1072000E00D20304913465B0013449B000B44053302461A7097F825202B4913465B0013449B000B44013301221A701BE097F82520FB7B012B01D1052000E0BA
:402240000920224913465B0013449B000B44053302461A7097F825201C4913465B0013449B000B44013300221A70FB699B790A2B03D0FB699B79022B08D1FA7E97F8253063
:402280001946F869FEF774FF0346FB76FB690833FB6197F82630013387F8263097F8262097F827309A42FFF455AF97F82530013387F8253097F82530082B7FF644AF7B6976
:4022C0005B68FB61002387F8253020E0E482FF1F5083FF1FC482FF1FDF82FF1FE182FF1FFB699B7803F07F02FB691878244913465B0013449B000B440A3302461A70FB693B
:402300000833FB6197F82530013387F8253097F8252097F827309A42E2D300F09DF90246184B1A6000237B84012387F827301DE097F82720124913465B0013449B000B44E5
:4023400006337A8C1A8097F827200D4913465B0013449B000B4408331B889AB27B8C13447B8497F82730013387F8273097F82730082BDDD9FFF79AFD00BF2837BD4680BD32
:40238000E482FF1FD882FF1F90B585B000AF8F4B1B78DBB2002B00F015818C4B1B78DBB2013BDBB2184600F01DF978607B6808337B607B681B78FB707B685B68BB60844BE7
:4023C0001B78BB700023FB73F7E0BB681B78BA789A4240F0EC80BB787E4AD35CDAB2BB685B789A4240F0E380BB689B7803F07F037B70BB68DB7803F003033B707A787649DB
:4024000013465B0013449B000B44033300221A707A78BB689878704913465B0013449B000B44043302461A707A78BB68D8786A4913465B0013449B000B4402461A707A7818
:40244000BB689888644913465B0013449B000B44083302461A80BB689B785BB2002B1ADA7A783B78012B01D1072000E00D205A4913465B0013449B000B44053302461A707F
:402480007A78554913465B0013449B000B44013301221A7019E07A783B78012B01D1052000E009204C4913465B0013449B000B44053302461A707A78474913465B001344CB
:4024C0009B000B44013300221A70444A7B781B011344023301221A70404879787A783E4C13465B0013449B00234408331B889BB21B0A9BB2DAB20B0103441A7037487978C4
:402500007A78354C13465B0013449B00234408331B889BB2DAB20B01034401331A70304879787A782C4C13465B0013449B00234406331B889BB2DAB20B01034406331A70A8
:40254000274879787A78244C13465B0013449B00234406331B889BB21B0A9BB2DAB20B01034407331A701E4879787A781A4C13465B0013449B00234406331B889BB2DAB2DD
:402580000B01034404331A70154879787A78124C13465B0013449B00234406331B889BB21B0A9BB2DAB20B01034405331A70BB680833BB60FB7B0133FB73FA7BFB789A42CB
:4025C000FFF403AF00BF1437BD4690BDDF82FF1FD482FF1F5083FF1FE482FF1FFC5F00407060004080B485B000AF0346FB710F4B1B78DBB20E4ADB0013445B68FB60FB6877
:402600001033FB60FB681B78FA799A4202D30023FB6005E0FB79DB00FA6813445B68FB60FB6818461437BD4680BC7047BD82FF1F103F000080B400AF054B1B78DBB2054A09
:40264000DB0013445B681846BD4680BC704700BFBD82FF1F103F000080B584B000AF104B1B78DBB2013BDBB21846FFF7BBFFB860BB68002B0DD0BB685B681B79FB71FB799F
:402680000233DB00BA681344BB60BB685B68FB6001E00023FB60FB6818461037BD4680BDDF82FF1F80B582B000AF0023FB71344B1B79DBB203F07F03BB71BB79002B5AD0A0
:4026C000BB79082B57D8BA79B9792E480B465B000B449B00034402331B78DBB243F00103D8B2284913465B0013449B000B44023302461A70BA79234913465B0013449B00C4
:402700000B44033300221A70BA79B9791D480B465B000B449B00034401331B78DBB243F00203D8B2174913465B0013449B000B44013302461A70BA79124913465B001344B7
:402740009B000B4404331B78DBB25BB2002B07DA0D4ABB791B01134402338D221A7006E0094ABB791B011344023389221A70FEF7DDFF0346FB71FB7918460837BD4680BD72
:4027800000600040E482FF1FFC5F004080B582B000AF0023FB71504B1B79DBB203F07F03BB71BB79002B00F09280BB79082B00F28E80BA79B97949480B465B000B449B0004
:4027C000034402331B78DBB223F00103D8B2434913465B0013449B000B44023302461A70BA793E4913465B0013449B000B44033300221A703A49BB793948BA7912010244BF
:402800001278D2B202F07F02D2B21B010B441A70BA79B97931480B465B000B449B00034401331B78DBB223F00203D8B22B4913465B0013449B000B44013302461A70BA794B
:40284000264913465B0013449B000B4404331B78DBB25BB2002B1BDABA79204913465B0013449B000B4401331B78DBB2012B07D11B4ABB791B01134402330C221A7022E08C
:40288000174ABB791B01134402330D221A701AE0BA79124913465B0013449B000B4401331B78DBB2012B07D10D4ABB791B011344023308221A7006E0094ABB791B01134486
:4028C000023309221A70FEF731FF0346FB71FB7918460837BD4680BD00600040E482FF1FFC5F004080B584B000AF0023FB73154B1B79BB73144B1B78DBB2013BDBB2184693
:40290000FFF770FEB860BB685B681B79FB71BA7BFB799A4202D9BB7B022B0ED8BB7BBA7B0A498A5CD1B20A4AD154BB7B054A9278D1B2064AD1540123FB73FB7B18461037B8
:40294000BD4680BD00600040DF82FF1F5083FF1FC482FF1F80B582B000AF0023FB710F4B1B78DBB25BB2002B12DA0C4B5B78DBB2012B00D00CE00A4B0A4A5A60094B1B7877
:402980009AB2074B1A80FEF7B5FD0346FB7100BFFB7918460837BD4680BD00BF00600040C882FF1F2C3F000080B500AF064B1B78002B04D100F00AF8034B01221A7000F09C
:4029C0001BF800BF80BD00BFB281FF1F80B500AF074A074B1B78DBB243F00603DBB213700C2000F06BF8034B00221A8000BF80BD015900406083FF1F80B582B000AF00F09F
:402A0000E3FC0346FB71254A244B1B78DBB243F00103DBB21370224A214B1B78DBB243F00103DBB213701F4B1B78BB71BB7943F00203BB71BB7943F00103BB71194ABB798F
:402A40001370194B18221A70184A184B1B78DBB243F04003DBB21370144A144B1B78DBB223F00303DBB21370114BCE221A70114B02221A70104A104B1B78DBB243F0080347
:402A8000DBB213700A2000F087FBFB79184600F09FFC00BF0837BD4680BD00BFAB430040BB4300400359004006590040055900400059004014460040275B004080B584B06D
:402AC00000AF0346FB71FB790A2B07D00C2B02D0082B06D008E0C223FB730BE08223FB7308E04223FB7305E0C223FB73002000F047FB00BF054AFB7B1370FB79184600F099
:402B000007F800BF1037BD4680BD00BF0259004080B584B000AF0346FB71FB790A2B08D00C2B02D0082B08D00BE04FF48053FB600DE04FF48063FB6009E04FF48073FB6050
:402B400005E00023FB60002000F01AFB00BF0C4B00221A80FB6842F2107202FB03F303F58063002B01DA03F2FF73DB121A46054B1A60054B00221A8000BF1037BD4680BD3E
:402B80005883FF1F5C83FF1F5A83FF1F80B485B000AF0346FB801D4B1B881BB2002B09D01A4B1B881BB21A4613469B0013445B00FB6002E0164B1B68FB60164B1B881BB244
:402BC000FA889BB2D31A9BB2FB80B7F9063042F2107202FB03F2B7F90630002B04DDFB68D90F0B445B1004E0FB68D90F0B445B105B421A44FB6892FBF3F37B81B7F90A302C
:402C000018461437BD4680BC704700BF5883FF1F5C83FF1F6083FF1F90B585B002AF0446084611461A462346FB710346BB710B46BB8013467B80104B01221A700E4B1878AA
:402C4000BA79F9790023019300230093012300F0ABF9094B1B787A88B988184600F04AF9054B1B780221184600F012F9024B1B7818460C37BD4690BDEE80FF1F90B585B099
:402C800002AF0446084611461A462346FB710346BB710B46BB8013467B80104B00221A700E4B1878BA79F9790023019300230093002300F079F9094B1B787A88B9881846DB
:402CC00000F018F9054B1B780221184600F0E0F8024B1B7818460C37BD4690BDEF80FF1F80B485B000AF7860054B1B68FB60FB6840337A681A6000BF1437BD4680BC7047F9
:402D000008ED00E080B483B000AF0346FB71054AFB795B01DBB2137000BF0C37BD4680BC704700BF00E400E080B400AF054B1B78DBB203F040039B09DBB21846BD4680BCF2
:402D4000704700BF8F45004080B483B000AF134B7F221A70124B80221A707F23FB710CE0FB79DB0003F1804303F5F043FA79013AD2B21A70FB79013BFB71FB79002BEFD13F
:402D8000FB79DB0003F1804303F5F04300221A7000BF0C37BD4680BC704700BFF180FF1FF080FF1F80B485B000AF03460A46FB711346BB710123FB60FB79172B2FD8BB7950
:402DC000002B0ED0FB791A01184B1344FA791101164A0A441278D2B242F02002D2B21A700DE0FB791A01114B1344FA7911010F4A0A441278D2B222F02002D2B21A70FB79BF
:402E00001A010A4B1344FA791101084A0A441278D2B242F00102D2B21A700023FB60FB6818461437BD4680BC704700BF1070004080B485B000AF0346FB710123FB60FB7996
:402E4000172B1DD8FB791A01104B1344FA7911010E4A0A441279D2B242F00402D2B21A71FB791A01094B1344FA791101074A0A441278D2B242F00102D2B21A700023FB602C
:402E8000FB6818461437BD4680BC70471070004080B485B000AF03460A46FB711346BB710123FB60FB79172B1BD8FB791A01104B13441B78DBB223F00E03FB72FB791A0105
:402EC0000B4B1344BA795200D2B252B202F00E0251B297F90B200A4352B2D2B21A700023FB60FB6818461437BD4680BC704700BF1070004080B485B000AF0346FB710B46DC
:402F0000BB8013467B800123FB60BB8841F6FF72934202D14FF40053BB807B8841F6FF72934202D14FF400537B80FB79172B17D8FB79DB0003F1804303F5EC430433BB6017
:402F4000BB68BA881A80FB79DB0003F1804303F5EC430633BB60BB687A881A800023FB60FB6818461437BD4680BC704780B485B000AF03460A46FB711346BB710123FB6071
:402F8000FB79172B07D8FB791A01064B1344BA795A720023FB60FB6818461437BD4680BC704700BF1070004090B484B000AF0446084611461A462346FB710346BB710B4636
:402FC0007B7113463B710123FB60FB79172B34D8FB79DB0003F1804303F5EC43BA7902F07F02D1B27A79D201D2B20A43D2B21A70FB79DB0003F1804303F5EC433A7E1201AC
:40300000D1B23A7902F00F02D2B20A43D2B25A70FB79DB0003F1804303F5EC433A7F02F00F02D2B29A70FB79DB0003F1804303F5EC430022DA700023FB60FB6818461037A2
:40304000BD4690BC704700BF80B582B000AFFF23FB7100F0B9F90346BB71104B1B78182B12D90F4B1B78FB710C4B1B78013BDAB20A4B1A70FB79DB0003F1804303F5F04399
:403080001B78DAB2064B1A70BB79184600F0A0F9FB7918460837BD4680BD00BFF080FF1FF180FF1F90B484B000AF0446084611461A462346FB710346BB800B46BB71134629
:4030C000FB700123FB6097F90730002B23DBBB8823F47F6323F00F039BB2002B1BD1FB79DB0003F1804303F5F043BB60BB68BA881A80FB79DB0003F1804303F5F043BA7982
:403100009A70FB79DB0003F1804303F5F043FA78DA700023FB60FB6818461037BD4690BC704700BF80B485B000AF0346FB710B46BB8013467B800123FB6097F90730002B2F
:4031400017DBFB79DB0003F1804303F5F0430433BB60BB68BA881A80FB79DB0003F1804303F5F0430633BB60BB687A881A800023FB60FB6818461437BD4680BC704700BF58
:4031800080B483B000AF0346FB7101BE00BF0C37BD4680BC704700BF80B582B000AF0346FB80FB88054A127802FB03F3184600F003F900BF0837BD4680BD00BF0081FF1FBF
:4031C00080B584B000AF03463960FB710F4B1B68FB60FB791F2B02D90020FFF7D1FFFB7903F01F0310339B00FA6813441B68BB60FB7903F01F0310339B00FA6813443A6832
:403200001A60BB6818461037BD4680BD08ED00E080B582B000AF03460A46FB711346BB71BB79072B02D90020FFF7AAFFFB791F2B02D90020FFF7A4FFFB7903F01F0303F1C8
:40324000604303F56443BA795201D2B21A7000BF0837BD4680BD00BF80B483B000AF7860264B1B78DBB21A467B681A60244B1B78DBB21B027A6812681A437B681A60214B11
:403280001B78DBB21B047A6812681A437B681A601D4B1B78DBB21B067A6812681A437B681A607B680433194A1278D2B21A60184B1B78DBB21A027B680433796804310968B5
:4032C0000A431A60134B1B78DBB21A047B6804337968043109680A431A600F4B1B78DBB21A067B6804337968043109680A431A6000BF0C37BD4680BC704700BF03010049FD
:4033000004010049EC460040020100490101004900010049050100490601004980B582B000AF786000F03CF8786800F009F8072000F018F800F028F800BF0837BD4680BDF5
:4033400080B485B000AF7860054B1B68FB60FB685C337A681A6000BF1437BD4680BC704708ED00E080B483B000AF0346FB71054AFB795B01DBB2137000BF0C37BD4680BCD1
:40338000704700BF07E400E080B400AF034B80221A6000BFBD4680BC704700BF00E100E080B400AF034B80221A6000BFBD4680BC704700BF80E100E00230800803D000BFFC
:4033C00001380046FCD17047EFF3108072B6704780F31088704700BF80B582B000AF0023BB711B4B1B78DBB203F00303012B02D0022B04D012E0164B1B79FB7111E0144B72
:403400001B79DBB203F07F02124913465B0013449B000B440A331B78FB7102E00023FB7100BFFB79022B0ED80B4B1A68FB7913441B78022B04D1FDF7B1FD0346BB7102E083
:403440000023BB7100BFBB7918460837BD4680BD00600040E482FF1FD882FF1F014B1868704700BF6881FF1F0E4B70B51E460E4C0025E41AA410A54204D056F825309847F8
:403480000135F8E700F082FD084B094C1E46E41AA4100025A54204D056F8253098470135F8E770BD983F0000983F0000983F0000A03F000010B5431E0A44914204D011F89E
:4034C000014B03F8014FF8E710BD03460244934202D003F8011BFAE7704700000EB400B54FF402719CB0ADF814106FF00041049107914FF6FF711DAB02900690084853F855
:40350000042BADF81610006802A9019300F06CF8029B00221A701CB05DF804EB03B070476881FF1F034613F8012B002AFBD1181A013870472DE9F0478E6882469E420C46F7
:40354000914698463ED88A8912F4906F3AD02568096902236F1A656905EB450595FBF3F57B1C43449D4238BF1D4653050FD5294600F040FB064698B13A462169FFF79AFFD6
:40358000A38923F4906343F08003A38113E02A4600F08EFB064670B92169504600F0DEFA0C23CAF80030A3894FF0FF3043F04003A381BDE8F08726613E4426604646656170
:4035C000ED1BA560464528BF464649463246206800F0A8FAA36800209B1BA36023681E442660BDE8F08700002DE9F04F9DB003938B8980461C060D4616460DD50B695BB9DF
:40360000402100F0F7FA2860286118B90C23C8F80030CDE040236B610023099320238DF82930DFF89CB130238DF82A3037463C4614F8013B1BB9B7EB060910D003E0252B56
:40364000F9D02746F3E74B46324629464046FFF771FF013000F0A780099B4B4409933B78002B00F0A08000234FF0FF3204930793059206938DF853301A9301260522217841
:403680004E4800F041FA671C049B38B14B4A3C46801A06FA00F018430490EFE7D90644BF20228DF853201A0744BF2B228DF8532022782A2A03D0079A00210A200BE0039A1E
:4036C000111D12680391002A10DA524243F00200079204900BE027463B780134303B092B03D800FB02320121F5E701B107923B782E2B1ED17B782A2B0AD1039B02371A1D26
:403700001B680392002BB8BF4FF0FF33059310E0002319460593781C0A2407463A780130303A092A03D804FB01210123F5E703B1059103223978224800F0E6F940B1402384
:40374000CBEB000003FA00F0049B013718430490397806221B487E1C8DF8281000F0D4F988B1194B33B9039B073323F007030833039314E003AB00932A46144B04A940460A
:40378000AFF3008007E003AB00932A460F4B04A9404600F093F8B0F1FF3F824603D0099B5344099342E7AB895B0601D4099801E04FF0FF301DB0BDE8F08F00BF563F00002E
:4037C0005C3F0000603F000000000000353500002DE9F04791461F460A698B6806469342B8BF1346C9F8003091F843200C46DDF8208012B10133C9F800302368990642BF8E
:40380000D9F800300233C9F80030256815F0060510D104F1190A07E00123524639463046C04701301AD00135E368D9F800209B1A9D42F1DB94F843302268003318BF012388
:4038400092060FD5E118302081F843005A1C94F845102244023382F8431003E04FF0FF30BDE8F08704F1430239463046C0470130F4D02268D9F80050E36802F00602042A52
:4038800008BF5D1B2269A3680CBF25EAE57500259342C4BF9B1AED184FF000091A344D4509D00123224639463046C0470130D5D009F10109F3E70020BDE8F0872DE9F04306
:4038C00017460A7E85B06E2A984606460C460C9B01F1430E00F0AE8011D8632A22D009D8002A00F0BB80582A40F0CA8081F84520834955E0642A1ED0692A1CD0C0E0732AE1
:4039000000F0B08009D86F2A2ED0702A40F0B8800A6842F020020A603EE0752A24D0782A3AD0ADE01A6801F14205111D1960136884F84230A8E021681A6811F0800F02D013
:40394000111D196008E011F0400F02F10401196002D0B2F9003000E01368002B3CDA2D225B4284F8432037E021681A6811F0800F02D0111D196007E011F0400F02F1040189
:40398000196001D0138800E01368227E5C496F2A14BF0A2208221BE078225A4984F845202268186812F0800F00F104051D6003D1550601D5038800E00368D00744BF42F0AE
:4039C000200222601BB9226822F0200222601022002084F8430001E049490A226568002DA56008DB206820F0040020602BB9002D7DD175460CE0002B79D07546B3FBF2F09C
:403A000002FB1033CB5C05F8013D03460028F5D1082A0BD12368DA0708D5236962689A42DEBF302305F8013C05F1FF35C5EB0E0323612EE008681A6810F0800F496903D077
:403A4000101D1860136808E010F0400F02F104001860136801D0198000E0196000232361754616E01A68111D1960156800216268284600F049F808B1401B6060636804E037
:403A800004F1420584F8422001232361002384F84330CDF800803B4603AA21463046FFF797FE013002D14FF0FF3026E023692A4639463046C0470130F5D023689B0710D5DF
:403AC000002504F1190907E001234A4639463046C0470130E7D00135E368039A9B1A9D42F2DBE068039B9842B8BF184605E00B7804F1420584F842308AE705B0BDE8F08327
:403B0000673F0000783F000010B5C9B202449042034605D01C7801308C42F8D1184610BD002010BD884210B501EB020301D8421E0BE09842FBD28118D21AD34204D013F87A
:403B4000014D01F8014DF8E710BD994204D011F8014B02F8014FF8E710BD000038B50546002944D051F8043C0C1F002BB8BFE41800F0D4F81E4A1368114613B9636014604A
:403B800030E0A3420DD92268A018834201BF18685B681218226063600C6023E0A24203D813465A68002AF9D118681918A1420BD12168014458188242196013D11068526873
:403BC000014419605A600DE002D90C232B6009E021686018824201BF106852680918216062605C602846BDE8384000F098B838BDB881FF1F70B5CD1C25F0030508350C2D53
:403C000038BF0C25002D064601DBA94202D90C23336046E000F082F8234B1C681A462146A1B10B685B1B0ED40B2B03D90B60CC18CD501EE08C420BBF63684B681360636051
:403C400018BF0C4615E00C464968E9E7174C23681BB9304600F052F820602946304600F04DF8431C18D0C41C24F00304A0420DD12560304600F053F804F10B00231D20F0BF
:403C80000700C31A0ED05A42E25070BD211A304600F034F80130EBD10C233360304600F03EF8002070BD00BFB881FF1FB481FF1FF8B5074615460E4621B91146BDE8F840C2
:403CC000FFF798BF1AB9FFF749FF2846F8BD00F027F885420ED929463846FFF78BFF044650B131462A46FFF7E5FB31463846FFF735FF01E03046F8BD2046F8BD38B5064C8C
:403D00000023054608462360FCF78CFC431C02D1236803B12B6038BD8883FF1F7047704751F8040C0028BEBF091851F8043CC01804387047000000002A2D2D2D20524F421A
:403D400045525420495320474159202D2D2D2D2A00000000256400000A0000000D000000004F00402400405100403000000001400010001401408004001901400003004082
:403D80000140000A004C0140000210500140100080180140180E0048800000500140980E004810003031323334353637383941424344454600000000120100020200000861
:403DC000B40432F2010001028001000009024300020101C032090400000102020103052400100104240202052406000105240100010705810308000A09040100020A00008B
:403E000004070582024000000705030240000000040309042C0343007900700072006500730073002000530065006D00690063006F006E0064007500630074006F007200B2
:403E4000100355005300420055004100520054003803430044004300200043006F006D006D0075006E00690063006100740069006F006E00200049006E007400650072006C
:403E80006600610063006500260343004400430020004400610074006100200049006E0074006500720066006100630065000000020300000000810308000200010082021D
:403EC00040000A000100030240000A00020A000001000000CC3D000003000000B43E00000000000000000000000000000000000000000000CC3E000001000000B83D00001D
:403F0000000000000000000001000000D03E000001000000F83E000012034D005300460054003100300030000100000028000000000104000100000000000000000143598F
:403F400055534200000030303030310000000000000000004300232D302B2000686C4C006566674546470030313233343536373839414243444546003031323334353637F6
:403F8000383961626364656600000000F8B500BFF8BC08BC9E4670474D0000000D070000F8B500BFF8BC08BC9E46704729000000C03F0000C880FF1FA80000002002000084
:403FC000000000009083FF1FFFFF000000C2010000000800C201000000080000A1200000000002000000FFFF807F0000030000000087930360EA00003C00000000003075F1
:404000000000000000000000000000000000000000000000000000000000000000000000543F000000000000000000000000000000000000000000000000000000000000ED
:4040400000000000000000000000000000000000000000000000000000000000000000000881FF1F0000000000000000000000000000000000000000000000000000000099
:404080000000000000000000000000000000000000000000000000000000000000000000000000000000000000000000000000000000000000000000000000000000000000
:4040C00000000000000000000000000000000000000000000000000000000000000000000000000000000000000000000000000000000000000000000000000000000000C0
:40410000000000000000000000000000000000000000000000000000000000000000000000000000000000000000000000000000000000000000000000000000000000007F
:40414000000000000000000000000000000000000000000000000000000000000000000000000000000000000000000000000000000000000000000000000000000000003F
:020000040003F7
:0200000480007A
:4000000001450040064F004008520040015B0040046400400365004038000140330101402E0201404D030140340401404C050140640601404F0701404A0801404D090140B8
:40004000230A01404F0B0140280C0140450D01402B0E01402D0F01406A140140431501404D1601404417014004180140461901404E1A0140481B0140104001401A41014069
:400080000C4201401343014005440140084501400D4601400C470140104801400B490140034C0140024D014005500140035101407E0201200A1B0D20161B1940221B002087
:4000C00001201108181019386004610C7C402784820F856F876F8C0F850F89388A72580459045C115F018001811082028320850A863C870588308A088C018E028F809110FB
:4001000092409320942295259605971A982C990F9A109E809F40A030A10CA204A303A41CA507A903AB0CAC01AD10AE02AF20B080B140B203B330B43CB50FB640B780BA088E
:40014000BB08D608D804D904DB04DD90DF0100800108048105100710080109800B080D200E621024150517451D141E651F0824C1252026282710280429082A202D052E4002
:400180002F08302131803580362939203B083C403E055C8065806C046D4081808C048D40C0F5C2FBC4B6CAF6CCFDCED6D610D810E248E603001003200404050606080A0102
:4001C0000B100D060E0212201308141C184019051C021F1021082210240425102608281C29032C022E1C2F08303C312032023310340135073640370839203E443F44540F61
:40020000580459045B045F01D804D904DC11DF0100800108049005840640080109800B080C080D0A0E010F041024154417111C021D011E201F22240425042640274429081F
:400240002C082D802E012F203005318034403501362039A03B083C513D043E04410843045C065EA079407B028260870488028A208B048C208D409001920495209708980427
:4002800099049C019D089E209F45A180A228A308A460A601A880C0F5C2FBC4F6CAF2CCBBCEFED6F0E2C7E460E60814081C011E0A26042801300132023408360438023E1061
:4002C0005608580459045B045C105D905F01830284FE85088601887F8CA38E5C8F1091089601970898C599089A3A9D01A096A268A80EA908AAF0AF05B0FFB102B318B501DE
:40030000B704BE01BF10D280D40FD804D904DB04DF0502200310044007150A200B020D080E04121415101640188019801A281E4024142508268128202D502F083005318070
:4003400036A8370139A03B083E443F024440468059105A805C845D015E20621063026608670476807F40840186488820890891A09284930894D0960198049B049C419D08B4
:400380009E409F11A001A184A228A30AA502A601B040B110C0E0C265C456CA32CCFBCEDED6FCD86CDE80E202E601059E0602076008020DCF0F30153017C919FD1B021C0138
:4003C000257329942B602E052F0F300131FF3402360438083E153F014036410449FF4AFF4BFF4DA04F015018580459045A045F016040628064406540668068406A806C4067
:400400006D206E808110840485109102930495109A069D049E019F02A102A304A901AD02AF0CB004B108B310B402B501B601B706B908BB80BE01BF14C063C104C502C6C40E
:40044000C73EC83DC9FFCAFFCBFFCDAFCE07CF01D018D40FD804D904DA04DB04DF05E040E280E440E540E680E840EA80EC40ED20EE8000040510062008100A020B080E01E2
:4004800015841704180419011B801C181E412114228123102502280829802B802D042E802F0A328133043628370839023A043B083C403E0441044302450446804B284F10EA
:4004C00051695301581059015A48612879447B017D087F1085109110920C944095419601978699809B149C809E0CA104A228A30AA502A610AC01B510C064C283C480CA7D15
:40050000CC6BCE53D0C3D224D60FD806DE02E84240364102450C460B47E0482549FF4AFF4BFF4EF04F44500C5608580459045A045B045C115D935F0166C06A406B028720A1
:400540008A088B038D148E089204996C9A019B119D5C9E029F02A109A201A310A570A70CA810AC02AD10B008B210B31FB401B606B760B980BE15BF40C005C740C9FFCA07D9
:40058000CBFFCC40CD20CEF0CF05D008D608D804D904DA04DB04DC39DD93DF01E040E1A8E240E320002001800522070108020A020B080D080F041180120813021408162054
:4005C0001720180419081A021B4120122208281029042B822C042D0232903310340835203701381039083A803D203E203F044410471048014C044F08500451045302550144
:4006000056805A405F40624064016802694092409304980299229B219C809D08A158A501A744A904AE10B348C0D3C26BC46BCAABCCECCE6ED060D228D618D818EC01020413
:40064000060808400A800B010E021001160118101A201C022004240828202A102C802E4030FF33013E0156025739580459045B0C5C105D105F01D401D804D904DB0CDC11A5
:40068000DD10DF01008401A2030105220721081109880A080BA00D080F44108A11041A8022042320281029A22D202F10310835023720388439103B403C803D203F044540BB
:4006C00047805A105F806208688A69147180728073087B027F02810882088440890290849250930495049688980299269C819E98A040A158A208A302A482A581A744A82834
:40070000AB04B108B640C0FFC27FC40FCA6FCCA2CE7ED614D802DE18E280E404E601EA01EE20010209010F0C1D082901310433013502370839083F14540156045804590C57
:400740005B045C115D305F01800486088C02921094019B019E02A204A408AE01B01FB501B802BE01D608D804D904DB04DC11DD90DF01008001260241031105220721099810
:400780000A800D080F04108111101304151018802004230425402608274829202A412C08310833103740388439103D023E113F8059805CA05E015F08600266027F0280041D
:4007C00084408550860488018C408D908E028F209210940499269C419E98A041A108A302A482A590C0FFC26FC44FCA2DCC16CEBED6F8D888DE10E2C1E440E6100104050440
:400800000B040D0415041F022104220229042E012F0130023102330134013704580459045C115F018008860C88108A019413962098229A119E02A001A433B004B203B43096
:40084000B608D203D302D80CD904DB04DC11DD10DF010084012005010618084009100A400E26108212081680170419221A401D051E2620C221082208284129202C402D2016
:40088000318835023608384439113C843D305D036E106F067F028120C077C2EBC43BCAADCCCACE7FDE10E010E208E6020096026804A305D1065C070409AD0B10160119D1F9
:4008C0001B081C0E1EF01F1D207F2101230424C5263A270228FE297C2A0131E032FF3303351D39023E044053410449FF4AFF4BFF4DA04F015018580459045A045F0160405B
:40090000628064406540668068406A806C406D206E80820485CF8730880489FD8B028C028D948E018F60930F960C9803999E9B609D309E039FC9A173B001B202B408B5FFC0
:40094000B604BE45BF10C053C104C53CC640C72EC83BC9FFCAFFCBFFCDAFCE07CF01D018D40FD804D904DA04DB04DF01E040E280E440E540E680E840EA80EC40ED20EE800D
:40098000000802800510074109400B100E0A0F1011111220150319081C021D101E602101222023102404280829082B402D0132A036A0370139143C083D9C3FA041084301F0
:4009C0004508470148014B404F465422562A5C085E605F02831294049502970498089B419E2AA10CA285A350A422A620A701A880AE12C0DCC2E5C40ECA87CCBCCE76D0C335
:400A0000D218D6F0EC20045806200708083809B70B400C600D010E100FF210061307146015C01608172419C11A011B121C061D841F1020042177244026082A7830783204D1
:400A400033F034013602370F38883E045280580459045B045F0182808410862088108A208B048C238E1C901092209302940C960398079C40A005A20AA40AA605A701A80F4A
:400A8000AE40B040B104B280B301B40FB630B702BA80BE01D608D804D904DB04DD90DF010090010802400440071409060A080B010C2A0F021002112012A014401512170862
:400AC000190C1A801B501C401D181E0A20102102230125042608270129042C402F40300236A8370138103C843D203FA05880624077407D017E4084488604911094409501BB
:400B000097849B1C9D109E28A008A280A610A701A818B08CB204C0EFC2FFC47FCA82CCF1CE74D608D808E204580459045C115F0100420522072108010A040C040D080F048E
:400B4000100211141240162019011A54212022012312282129012B082D2230AA3404372138083A413B103D203E203F04402042504314481049804B1053045A026004638271
:400B8000834090049148930496209708980199229A409B219C849D849F02A002A118A307A410A680A780B340C0F9C26AC42FCAAFCCEFCE6FD007D20CD601D80D0008032C63
:400BC000043C050106C109010AC30C040E081004130414CF15101630172A19101A0C1B261CFF1D2C1F122020210124102712283029012C7C2E82323F330134B0350E3670F1
:400C000037363A2A3BA03F0456025712580459045B045C335D305F0182088433850F860C890F8D058F0A9104930198039A149C0A9D039E349F0CA108A302A440A615A83349
:400C4000AA04B10FB20FB410B660B880BA08BE10D804D904DC33DF01000401410240030404010504084109200B100F0910A8134014101528180C19811B081C011D041F907F
:400C800021102294230124402780285029012A012B082D013104329033023401378038093B103D545A086801691470A881018310874888808B10914893109448951496201D
:400CC00098019A409B049C809D849E019F10A120A306A4A9A680A788C03FC2CFC46FCA87CC9FCE77D602EC201108168030223640370438083A203E80840286408F01C430C9
:400D0000CCF0CE70E210E64003400504321237806708810483048420860288408B048D048E10930294089E209F44A104A420AB40C030CC70D880E2C0E480EC8013805280AC
:400D400054408004930294089E209F80A440C440D460E6801B041C80632066086A808610930295409E20A440AE80AF80B540C630D8C0DA40E240E840EE10700487508C0476
:400D8000DC01E00801200904530181109750C002C208D4011904278081048301975299209F80A510AB80B504C608C801EE0209100B400F1040804401975098809920A51070
:400DC000A880C20ED0060140050420808220930295409A109E20A304AA48AB14C060C840E220EC20EE8053016308661093029A10A304A904B040D480D8C0EC809C01B1204D
:400E0000EA04B001EC04100B11011A011B011C0A00AB01FF100A000001670000000700600061000600003C1000081410000600000002C2000004000000212800310040217D
:400E400031068061140028080E200107F0180040008020080000010063020500040C000E11FFFFFF62A0F0410C000000180004000404040433330001000000000000400245
:400E80000010301000101012000000000000000000000000000000000B01000000000000030103010A010A01030000000020E000001C1C001C0000004000060000000000E9
:400EC000C0000000000B0B000000F4000800140A0A00080000000000007B7B00380000000001000000000000000000000000000000000000000000000000000000000000C1
:400F000000000000000000000000000000000000000000000000000000000000000000000000000000000000000000000000000000000000000000000000000000000000B1
:400F40000000000000000000000000000000000000000000000000000000000000000000000000000000000000000000000000000000000000000000000000000000000071
:400F80000000000000000000000000000000000000000000000000000000000000000000000000000000000000000000000000000000000000000000000000000000000031
:400FC00000000000000000000000000000000000000000000000000000000000000000000000000000000000000000000000000000000000000000000000000000000000F1
:0200000490006A
:0400000000004005B7
:0200000490105A
:04000000BC90ACAF55
:0200000490303A
:020000001DDD04
:0200000490402A
:4000000000000000000000000000000000000000000000000000000000000000000000000000000000000000000000000000000000000000000000000000000000000000C0
:400040000000000000000000000000000000000000000000000000000000000000000000000000000000000000000000000000000000000000000000000000000000000080
:400080000000000000000000000000000000000000000000000000000000000000000000000000000000000000000000000000000000000000000000000000000000000040
:4000C0000000000000000000000000000000000000000000000000000000000000000000000000000000000000000000000000000000000000000000000000000000000000
:0200000490501A
:0C00000000012E16106900012E322E4661
:00000001FF