:400000000080002011000000F5080000F508000080B500AF024A034B1B68136000F074FCBC760040FA46004010B5054C237833B9044B13B10448AFF300800123237010BDAD
:400040004881FF1F00000000001C0000084B10B51BB108490848AFF300800848036803B910BD074B002BFBD0BDE81040184700BF000000004C81FF1F001C0000C880FF1FCA
:400080000000000080B500AF0D4B1B78002B09D100F0D0FE0346DAB20A4B1A70084B01221A700BE000F0C6FE0346DAB2054B5A70034B00221A70044B01221A7000BF80BD7A
:4000C0007681FF1F5C82FF1F7781FF1F0000000090B583B000AF62B6012000F0D1FF00F0EBFC00F0B9FD964800F07CFF00F036FF0023FB710123FB700023BB70FB79322B91
:4001000000F2F48001A252F823F000BFD9010000F3010000ED020000ED0200000F02000097020000ED020000ED020000ED020000ED020000ED020000ED020000ED020000BB
:40014000ED020000ED020000ED020000ED020000ED020000ED020000ED020000ED020000ED020000ED020000ED020000ED020000ED020000ED020000ED020000ED0200008F
:40018000ED020000ED020000ED020000ED020000ED020000ED020000ED020000ED020000ED020000ED020000ED020000ED020000ED020000ED020000ED020000ED0200004F
:4001C000ED020000ED020000ED020000ED020000ED02000075020000FB78DBB2012B02D0022B03D005E00123FB7102E00223FB7100BFBB78DBB2002B05D0012B00D075E027
:400200000323FB7102E00423FB7100BF6EE06421642000F09BF800F06BFF0346002B04D000F086FF0346002B01D13223FB7100F04FFF0346002B06D000F06AFF0346002BAB
:4002400001D10323FB7100F035FF0346002B4AD000F03EFF0346002B45D000F079FF0346002B40D000F064FF0346002B3BD10A23FB7138E03221322000F068F800F038FF26
:400280000346002B04D000F053FF0346002B2CD10523FB7129E0FB78DBB2012B00D025E000F026FF0346002B02D1022000F0AEF800F03EFF0346002B02D1012000F0A6F86E
:4002C00000F006FF0346002B0BD100F041FF0346002B06D000F0EEFE0346002B01D03223FB7100BF02E000BF00E000BF154B1B78012B7FF403AF144B1B789AB2124B5B78AC
:400300009BB2D31ABB80BB88184601F0E1FB0346184601F0A1F808A3D3E9002301F01AFA03460C461846214601F0FCFA0346BB80044B00221A70E1E6F6285C8FC2F5F43F9A
:40034000850000007781FF1F5C82FF1FB0B584B000AF03460A46FB711346BB7100F070FC0346184601F0B4FB0346184601F074F804460D46FB79184601F05CF84FF0000278
:40038000214B01F0E7F902460B462046294601F0B7F803460C461846214601F0C3FA0346FB7300F01DFD0346184601F091FB0346184601F051F804460D46BB79184601F0FE
:4003C00039F84FF00002104B01F0C4F902460B462046294601F094F803460C461846214601F0A0FA0346BB73FB7B184600F008FCBB7B184600F0D4FC012000F0FDFC00BF50
:400400001037BD46B0BD00BF0000594080B582B000AF0346FB71FB79012B02D0022B05D009E032214B20FFF791FF04E04B213220FFF78CFF00BF00BF0837BD4680BD00BF62
:4004400080B582B000AF786039603A680021786801F0CDFB00BF0837BD4680BD80B584B000AFF860B9607A607A68B968F86801F0B3FB00BF1037BD4680BD00BF80B483B08A
:4004800000AF0346FB71FEE780B487B000AF7860396000233B6100237B6127E07B699B007A6813441B68BB60BB68FB73BB6823F0FF03BB6014E03B695B003A6813441B78EA
:4004C0001A46BB68134419463B695B003A6813445B780B703B6901333B61FB7B013BFB73FB7B002BE7D17B6901337B617B692B2BD4D900BF1C37BD4680BC704780B582B046
:4005000000AF404B04221A803F4B18221A703F4B14221A803E4B18221A703E4B3B221A803D4B18221A703D4B77221A803C4B1C221A703C4B81221A803B4B18221A703B4B62
:400540004FF6FF721A803A4B1B221A70394B06221A70394B52221A70384B394A1278D2B21A70384B40F619121A80374B41F251221A800023FB7019237B6014E0FB785B00E2
:40058000DAB2324B1B78DBB203F00103DBB21343DBB203F00303FB704FF4F07000F0E8FD7B68013B7B607B68002B02D0FB78032BE4D17B68002B02D10320FFF75FFF244BD8
:4005C0004FF480721A80224B07221A70214B00221A70214B48221A701D4B00221A701F4B00221A701E4B02221A701E4A1D4B1B78DBB243F03F03DBB2137000BF0837BD46DD
:4006000080BD00BF80400040824000408440004086400040884000408A4000408C4000408E400040904000409240004094400040964000400043004000420040A14600400E
:400640000F0100492242004020420040254200400440004006400040084000400940004001400040A243004080B582B000AF214B1B78FB71204B1B78BB71204B1B787B71DE
:400680001F4AFB7903F00703DBB213701D4AFB791B09DBB21370184ABB7943F00303DBB21370164A7B7943F00303DBB21370164B20221A70154B10221A70154B80221A70F0
:4006C000144B01221A70144B20221A70134B20221A700A2000F0DCF9084A7B791370064ABB7913700E4B44221A7000BF0837BD4680BD00BFCF010049F8460040F94600407E
:400700006E5800406F5800400D510040FD51004001590040805A0040205B0040235B00407658004080B586B000AF72B6544B61221A70FFF7E3FE524B01221A700023FB75A3
:4007400013E0FA7D13465B0013445B004D4A13443B613B691A683B699B889BB219461046FFF76EFEFB7D0133FB75FB7D062BE8D90023FB751CE0FA7D13469B0013445B009C
:40078000414A1344FB60FB681B68BB60FB685B687B60FB681A7A5B7A1B0213437B807B881A467968B868FFF759FEFB7D0133FB75FB7D002BDFD035494FF09040FFF764FEBC
:4007C00004213348FFF73CFE042232493248FFF745FE324B324A1A60324B334A1A60334A324B1B78DBB243F00203DBB21370304A2F4B1B78DBB243F00203DBB213702D4AB9
:400800002C4B1B78DBB243F04003DBB213702A4A294B1B78DBB243F01003DBB213700A2226492748FFF71AFE082226492648FFF715FE0A2225492648FFF710FE0822254971
:400840002548FFF70BFE0A2224492548FFF706FE082224492448FFF701FE244A234B1B78DBB243F00803DBB21370FFF7FDFE0E2210491F48FFF7F2FD00BF1837BD4680BDB6
:4008800000480040041C0000301C0000B000004800760040E80F004808760040D80E014004040484D81A0140040400840350014013500140A0430040C2430040AC0F004880
:4008C00000510040B80F0048C2510040C00F0048F0510040CC0F004812510040D40F004820510040E00F00483251004022430040B043004080B500AF01F042F903461B681D
:400900000C2B00D1FEE7FEE780B586B000AF224B7B61224B3B61204B7B6135E03B691B68FB603B695B68BB603B699B683B6000237B600CE0FB681A68BB681A60BB68043311
:40094000BB60FB680433FB607B6804337B607A683B689A42EED13B69DB683B6000237B6008E0BB6800221A60BB680433BB607B6804337B607A683B689A42F2D13B691033B6
:400980003B617B69013B7B617B69002BC6D101F0FDF8FFF79DFBFEE701000000601C000080B582B000AF194B194A1A60194A194B1B6843F40073136000237B600FE07B6895
:4009C000032B04D8144A7B6852F8233000E0134B13497A6841F822307B6801337B607B682F2BECD90F4B1B78DAB20F4B1A700F4B0B4A1A60FFF796FE00F01CF80C4B002287
:400A00001A6000BF0837BD4680BD00BF0CED00E00004FA0514ED00E000000000F50800000080FF1FBC760040C480FF1F08ED00E0C080FF1F80B483B000AF134B7F221A7041
:400A4000124B80221A707F23FB710CE0FB79DB0003F1804303F5F043FA79013AD2B21A70FB79013BFB71FB79002BEFD1FB79DB0003F1804303F5F04300221A7000BF0C37AC
:400A8000BD4680BC704700BFCD80FF1FCC80FF1F80B582B000AF0346FB80FB88054A127802FB03F3184600F063FB00BF0837BD4680BD00BFDC80FF1F80B500AF064B1B7898
:400AC000002B04D100F00AF8034B01221A7000F063F800BF80BD00BF7881FF1F80B582B000AF284A274B1B78DBB243F00203DBB21370254B1B78DBB223F07003FB71224A9C
:400B0000FB7943F01003DBB21370204A1F4B1B78DBB223F03003DBB213701C4A1B4B1B78DBB243F03003DBB21370184A174B1B78DBB223F00F03DBB21370144A134B1B78D7
:400B4000DBB243F00F03DBB21370FF2000F048F8322000F055F8002000F062F80C4A0C4B1B78DBB243F00103DBB21370094A094B1B78DBB243F00103DBB2137000BF08372B
:400B8000BD4680BD004F0040024F00400B4F0040A3430040014F004080B400AF0D4A0D4B1B78DBB243F00103DBB213700A4A0A4B1B78DBB243F00103DBB21370074A074BD9
:400BC0001B78DBB243F00103DBB2137000BFBD4680BC7047A3430040B3430040004F004080B483B000AF0346FB71044BFA7992B21A8000BF0C37BD4680BC7047044F0040F8
:400C000080B483B000AF0346FB71044BFA7992B21A8000BF0C37BD4680BC7047064F004080B483B000AF0346FB71044AFB79137000BF0C37BD4680BC704700BF034F004063
:400C400080B400AF034B1B889BB2DBB21846BD4680BC7047044F004080B500AF064B1B78002B04D100F00AF8034B01221A7000F063F800BF80BD00BF7981FF1F80B582B0A5
:400C800000AF284A274B1B78DBB243F00203DBB21370254B1B78DBB223F07003FB71224AFB7943F01003DBB21370204A1F4B1B78DBB223F03003DBB213701C4A1B4B1B78D8
:400CC000DBB243F03003DBB21370184A174B1B78DBB223F00F03DBB21370144A134B1B78DBB243F00F03DBB21370FF2000F048F8322000F055F8002000F062F80C4A0C4BB2
:400D00001B78DBB243F00203DBB21370094A094B1B78DBB243F00103DBB2137000BF0837BD4680BD0C4F00400E4F0040174F0040A34300400D4F004080B400AF0D4A0D4BCD
:400D40001B78DBB243F00203DBB213700A4A0A4B1B78DBB243F00203DBB21370074A074B1B78DBB243F00103DBB2137000BFBD4680BC7047A3430040B34300400C4F004044
:400D800080B483B000AF0346FB71044BFA7992B21A8000BF0C37BD4680BC7047104F004080B483B000AF0346FB71044BFA7992B21A8000BF0C37BD4680BC7047124F00402D
:400DC00080B483B000AF0346FB71044AFB79137000BF0C37BD4680BC704700BF0F4F004080B400AF034B1B889BB2DBB21846BD4680BC7047104F004080B485B000AF03468C
:400E0000FB710B4B1B78DBB223F00203FB730849FB795B00DBB203F00203DAB2FB7B1343DBB20B7000BF1437BD4680BC704700BF2051004080B582B000AF00F00DF8034681
:400E4000FB80FB88A3F500439BB2BB80B7F9043018460837BD4680BD80B400AF044B1B78044B1B889BB21846BD4680BC704700BF0E6400409C68004080B500AF214A214B88
:400E80001B78DBB203F00103DBB213701E4A1E4B1B78DBB223F00303DBB213701B4A1B4B1B78DBB223F03003DBB21370174A174B1B78DBB243F03003DBB21370134A134B9C
:400EC0001B78DBB223F00F03DBB213700F4A0F4B1B78DBB243F00F03DBB213700C4A0C4B1B78DBB243F00103DBB21370012000F057F8012000F066F8082000F041F800BF82
:400F000080BD00BF184F00401A4F0040234F0040194F004080B400AF0D4A0D4B1B78DBB243F00403DBB213700A4A0A4B1B78DBB243F00403DBB21370074A074B1B78DBB239
:400F400043F00103DBB2137000BFBD4680BC7047A3430040B3430040184F004080B500AF064B1B78002B04D1FFF786FF034B01221A70FFF7CFFF00BF80BD00BF7A81FF1F9C
:400F800080B483B000AF0346FB71044AFB79137000BF0C37BD4680BC704700BF1B4F004080B485B000AF0346FB71FB79FB81044AFB89138000BF1437BD4680BC704700BFDF
:400FC0001C4F004080B483B000AF0346FB71044BFA7992B21A8000BF0C37BD4680BC70471E4F004080B582B000AF786000F03CF8786800F009F8072000F018F800F028F81C
:4010000000BF0837BD4680BD80B485B000AF7860054B1B68FB60FB688C337A681A6000BF1437BD4680BC704708ED00E080B483B000AF0346FB71054AFB795B01DBB2137007
:4010400000BF0C37BD4680BC704700BF13E400E080B400AF034B4FF400221A6000BFBD4680BC704700E100E080B400AF034B4FF400221A6000BFBD4680BC704780E100E056
:4010800080B485B000AF0346FB71094B1B78DBB203F07F03FB730649FB79DB01DAB2FB7B1343DBB20B7000BF1437BD4680BC70473051004080B400AF044B1B78DBB203F007
:4010C0000103DBB21846BD4680BC70473151004080B400AF054B1B78DBB203F002035B08DBB21846BD4680BC704700BF3151004080B400AF054B1B78DBB203F00803DB0805
:40110000DBB21846BD4680BC704700BF0151004080B400AF054B1B78DBB203F08003DB09DBB21846BD4680BC704700BF2151004080B400AF054B1B78DBB203F040039B0951
:40114000DBB21846BD4680BC704700BF1151004080B400AF054B1B78DBB203F08003DB09DBB21846BD4680BC704700BF115100400230800803D000BF01380046FCD17047EF
:40118000EFF3108072B6704780F31088704700BF81F0004102E000BF83F0004330B54FEA41044FEA430594EA050F08BF90EA020F1FBF54EA000C55EA020C7FEA645C7FEA85
:4011C000655C00F0E2804FEA5454D4EB5555B8BF6D420CDD2C4480EA020281EA030382EA000083EA010180EA020281EA0303362D88BF30BD11F0004F4FEA01314FF4801C49
:401200004CEA113102D0404261EB410113F0004F4FEA03334CEA133302D0524263EB430394EA050F00F0A780A4F10104D5F1200E0DDB02FA0EFC22FA05F2801841F100011A
:4012400003FA0EF2801843FA05F359410EE0A5F120050EF1200E012A03FA0EFC28BF4CF0020C43FA05F3C01851EBE37101F0004507D54FF0000EDCF1000C7EEB00006EEB3A
:401280000101B1F5801F1BD3B1F5001F0CD349085FEA30004FEA3C0C04F101044FEA445212F5800F80F09A80BCF1004F08BF5FEA500C50F1000041EB045141EA050130BDD9
:4012C0005FEA4C0C404141EB010111F4801FA4F10104E9D191F0000F04BF01460020B1FA81F308BF2033A3F10B03B3F120020CDA0C3208DD02F1140CC2F10C0201FA0CF077
:4013000021FA02F10CE002F11402D8BFC2F1200C01FA02F120FA0CFCDCBF41EA0C019040E41AA2BF01EB0451294330BD6FEA04041F3C1CDA0C340EDC04F11404C4F12002C8
:4013400020FA04F001FA02F340EA030021FA04F345EA030130BDC4F10C04C4F1200220FA02F001FA04F340EA0300294630BD21FA04F0294630BD94F0000F83F4801306BF20
:4013800081F480110134013D4EE77FEA645C18BF7FEA655C29D094EA050F08BF90EA020F05D054EA000C04BF1946104630BD91EA030F1EBF0021002030BD5FEA545C05D18D
:4013C0004000494128BF41F0004130BD14F580043CBF01F5801130BD01F0004545F0FE4141F470014FF0000030BD7FEA645C1ABF194610467FEA655C1CBF0B46024650EAD6
:40140000013406BF52EA033591EA030F41F4002130BD00BF90F0000F04BF0021704730B54FF4806404F132044FF000054FF0000150E700BF90F0000F04BF0021704730B5C5
:401440004FF4806404F1320410F0004548BF40424FF000013EE700BF42004FEAE2014FEA31014FEA02701FBF12F07F4393F07F4F81F06051704792F0000F14BF93F07F4F33
:40148000704730B54FF4607401F0004521F0004120E700BF50EA010208BF704730B54FF000050AE050EA010208BF704730B511F0004502D5404261EB41014FF4806404F174
:4014C00032045FEA915C3FF4DCAE4FF003025FEADC0C18BF03325FEADC0C18BF033202EBDC02C2F1200300FA03FC20FA02F001FA03FE40EA0E0021FA02F11444C1E600BF5F
:4015000070B54FF0FF0C4CF4E06C1CEA11541DBF1CEA135594EA0C0F95EA0C0F00F0DEF82C4481EA030621EA4C5123EA4C5350EA013518BF52EA033541F4801143F480137F
:4015400038D0A0FB02CE4FF00005E1FB02E506F00042E0FB03E54FF00006E1FB03569CF0000F18BF4EF0010EA4F1FF04B6F5007F64F5407404D25FEA4E0E6D4146EB060688
:4015800042EAC62141EA55514FEAC52040EA5E504FEACE2EB4F1FD0C88BFBCF5E06F1ED8BEF1004F08BF5FEA500E50F1000041EB045170BD06F0004646EA010140EA02003C
:4015C00081EA0301B4EB5C04C2BFD4EB0C0541EA045170BD41F480114FF0000E013C00F3AB8014F1360FDEBF002001F0004170BDC4F10004203C35DA0C341BDC04F1140443
:40160000C4F1200500FA05F320FA04F001FA05F240EA020001F0004221F0004110EBD37021FA04F642EB06015EEA430E08BF20EAD37070BDC4F10C04C4F1200500FA04F33C
:4016400020FA05F001FA04F240EA020001F0004110EBD37041F100015EEA430E08BF20EAD37070BDC4F1200500FA05F24EEA020E20FA04F301FA05F243EA020321FA04F06A
:4016800001F0004121FA04F220EA020000EBD3705EEA430E08BF20EAD37070BD94F0000F0FD101F00046400041EB010111F4801F08BF013CF7D041EA060195F0000F18BFAF
:4016C000704703F00046520043EB030313F4801F08BF013DF7D043EA0603704794EA0C0F0CEA135518BF95EA0C0F0CD050EA410618BF52EA4306D1D181EA030101F00041B1
:401700004FF0000070BD50EA410606BF1046194652EA430619D094EA0C0F02D150EA013613D195EA0C0F05D152EA03361CBF104619460AD181EA030101F0004141F0FE41B2
:4017400041F470014FF0000070BD41F0FE4141F4780170BD70B54FF0FF0C4CF4E06C1CEA11541DBF1CEA135594EA0C0F95EA0C0F00F0A7F8A4EB050481EA030E52EA033512
:401780004FEA013100F088804FEA03334FF0805545EA131343EA12634FEA022245EA111545EA10654FEA00260EF000419D4208BF964244F1FD0404F5407402D25B084FEA87
:4017C0003202B61A65EB03055B084FEA32024FF480104FF4002CB6EB020E75EB030E22BFB61A754640EA0C005B084FEA3202B6EB020E75EB030E22BFB61A754640EA5C00D3
:401800005B084FEA3202B6EB020E75EB030E22BFB61A754640EA9C005B084FEA3202B6EB020E75EB030E22BFB61A754640EADC0055EA060E18D04FEA051545EA16754FEA9F
:4018400006164FEAC30343EA52734FEAC2025FEA1C1CC0D111F4801F0BD141EA00014FF000004FF0004CB6E711F4801F04BF01430020B4F1FD0C88BFBCF5E06F3FF6AFAEE7
:40188000B5EB030C04BFB6EB020C5FEA500C50F1000041EB045170BD0EF0004E4EEA113114EB5C04C2BFD4EB0C0541EA045170BD41F480114FF0000E013C90E645EA060E47
:4018C0008DE60CEA135594EA0C0F08BF95EA0C0F3FF43BAF94EA0C0F0AD150EA01347FF434AF95EA0C0F7FF425AF104619462CE795EA0C0F06D152EA03353FF4FDAE104605
:40190000194622E750EA410618BF52EA43067FF4C5AE50EA41047FF40DAF52EA43057FF4EBAE12E74A0011D212F5001211D20DD56FF47873B3EB62520ED44FEAC12343F068
:40194000004343EA505323FA02F070474FF00000704750EA013002D14FF0FF3070474FF00000704780F0004002E000BF81F0004142001FBF5FEA410392EA030F7FEA226C0A
:401980007FEA236C6AD04FEA1262D2EB1363C1BFD218414048404140B8BF5B42192B88BF704710F0004F40F4000020F07F4018BF404211F0004F41F4000121F07F4118BFF2
:4019C000494292EA030F3FD0A2F1010241FA03FC10EB0C00C3F1200301FA03F100F0004302D5494260EB4000B0F5000F13D3B0F1807F06D340084FEA310102F10102FE2A1E
:401A000051D2B1F1004F40EBC25008BF20F0010040EA03007047490040EB000010F4000FA2F10102EDD1B0FA80FCACF1080CB2EB0C0200FA0CF0AABF00EBC25052421843F1
:401A4000BCBFD0401843704792F0000F81F4000106BF80F400000132013BB5E74FEA41037FEA226C18BF7FEA236C21D092EA030F04D092F0000F08BF0846704790EA010F01
:401A80001CBF0020704712F07F4F04D1400028BF40F00040704712F100723CBF00F50000704700F0004343F0FE4040F4000070477FEA226216BF08467FEA2363014642024C
:401AC00006BF5FEA412390EA010F40F4800070474FF0000304E000BF10F0004348BF40425FEA000C08BF704743F0964301464FF000001CE050EA010208BF70474FF0000370
:401B00000AE000BF50EA010208BF704711F0004302D5404261EB41015FEA010C02BF84460146002043F0B64308BFA3F18053A3F50003BCFA8CF2083AA3EBC25310DB01FADA
:401B400002FC634400FA02FCC2F12002BCF1004F20FA02F243EB020008BF20F00100704702F1200201FA02FCC2F1200250EA4C0021FA02F243EB020008BF20EADC707047AE
:401B8000014B1868704700BF4481FF1F0E4B70B51E460E4C0025E41AA410A54204D056F8253098470135F8E700F048F8084B094C1E46E41AA4100025A54204D056F825302A
:401BC00098470135F8E770BD481C0000481C0000481C0000501C000010B5431E0A44914204D011F8014B03F8014FF8E710BD03460244934202D003F8011BFAE770470000E0
:401C000000000000004F0040300040510040300000000140001000140140000800400140000A004C014000021050014010000000005001409C0F004810004300F8B500BF28
:401C4000F8BC08BC9E4670474D000000A1090000F8B500BFF8BC08BC9E46704729000000701C0000C880FF1F800000001801000000000000807F0000030000000087930308
:401C800060EA00003C0000000000307500000000000000000000000000000000000000000000000000000000000000003A1C000000000000000000000000000000000000A3
:401CC0000000000000000000000000000000000000000000000000000000000000000000000000000000000000000000E480FF1F0000000000000000000000000000000062
:401D000000000000000000000000000000000000000000000000000000000000000000000000000000000000000000000000000000000000000000000000000000000000A3
:401D40000000000000000000000000000000000000000000000000000000000000000000000000000000000000000000000000000000000000000000000000000000000063
:401D80000000000000000000000000000000000000000000000000000000000000000000000000000000000000000000000000000000000000000000000000000000000023
:401DC00000000000000000000000000000000000000000000000000000000000000000000000000000000000000000000000000000000000000000000000000000000000E3
:020000040003F7
:0200000480007A
:4000000001450040084F00400A520040015B004004640040036500402D00014034010140470201404F0301402D0401404F0501405A0601404B070140450801404E090140B9
:40004000510A0140560B0140350C0140450D01405C0E0140390F01403C1401404F1501403216014053170140581801404E190140281A0140501B01400E4001401A410140DC
:40008000114201400F430140014401400C4501400C4601400F4701401E4801401A4901400E4C01400C4D014006500140035101407E0201200A360D201636195022362530BB
:4000C0002E360020082409201820192860066105780979037C40278483388B0F8C728F6F870F880F8B6F5608580459045B045C115D905F0180108104822086018701882068
:400100008A108B028D048E089040928095049604980899049C04A002A304A401A904AA02AC80AD04AE40B101B4FFB504B702BE10D602D739D804D904DB0CDC10DD10DF0187
:400140000390048A050106B2070409220C040D020E6A100411021210154217191E042482250126202B802E602F8030043102331034043710388A3D243E8259405D10624033
:4001800067106D646E0A6F44740277097D8081218220C0FCC2FAC4FECAB1CC67CEFBD628D848DE10E004E604010103040A010B1D0CC50E3A11D113081496157C166818A344
:4001C0001A5C1C0E1EF0247F25D127042B022CFE2DAD2E012F1031E032FF3503371D39023E0452035302580459045B045D105F01840189018A028E08900191049401950192
:4002000098029E10A204A610A706A801A908AE08B001B102B206B301B408B504B610B708B908BE51BF44D418D604D804D90FDB04DC19DD40DF0100900108060407010808AA
:4002400009200A010B400C200D040E080F2210041251140115801704181419441B021F042008212022412310240225102602270129042B042C212F043201330837053910FD
:400280003D803FA25802608461406D907B4082408305848086018A108B028E028F1C914692049408951097109AC29B489F10A002A404A542A610A780AC04AD40C0C7C2EFAC
:4002C000C4AFCA76CCC3CEA4D601D80DDE01E20BE401E604020212301410180A1A051C071E0820042201280F2C0130103220340C36035401580F59045B0F5C115D105F018C
:40030000820984048A028F0192049302940897049A20A610A802AC10B101B201B302B504B63EB880BE40D804D904DC11DF010102054007580AA90C010D010E2610021110F7
:4003400013011504168A19021A291D441E201FC424082502260127102B802E802F44310633103401371838083A8A3B043D603E023F045A407B408140840289028A108D089C
:400380008E209002915692449301940895889A829B4C9D089F10A002A340A440A502A614A781A80AA920AA40AC04AF40B202B404B510B605C0F8C2FFC4FBCAB1CCE7CEFB8B
:4003C000D608DE01E001E602EA08EE07009E0101026003F205C007240A0F0B071430157716C918CF1A301C941DC11E601F1220FD22022308247329842B102DB72F4033F000
:40040000350F36FF3E40580459045F0183018473852C875288CF8A308D028F849030910292C9930494949538966098FD9A029D509E0F9F28A09EA178A260A560A718A9026A
:40044000AB04AD18AF60B0FFB180B306B501B778BB08BE01C016C103C5E0C60CC70BC816C9FFCAFFCBFFCEF0CF44D00CD608D804D904DA04DB04DD94DF01E6C0EA40EB02CE
:400480000020010804020748080809800A840C080D040E080F0212801440170419011F802154221225142604270828402A082B052C082F8232023344374439083B413D285F
:4004C0003E083F024002422049225080520859406301784079807B0281208884900293849588980299049A229B149E01A604A701A912AA41AC40AE01C056C2EFC438CABF7E
:40050000CC5BCEEBD00AD204D608D808E080E601E808EA02EE04060108010C0E140118181A021C181E042220241026022A1E2C162E0830203201361E3E04405641024204E1
:40054000440145C0460E480649FF4AFF4BFF4C624DA04EF04F41500C5608580459045A045B045C105D945F016640670269106A306B106D106E106F12C003C704C9FFCA071E
:40058000CBFFCC40CD20CEF0CF05D008D804D904DA04DC11DD04DF01E040E1A8E240E320028003080424070208C50A040C100E020F2010801240150216261E121F81288555
:4005C00029082A082C802F083080311032043308348535103D083E0C41044522474049044C054D01510855405C405E206402670C6F038104880489408B40904A91089208A2
:4006000094019501978C98819B409C029D449E409F01A004A126A340A410A548A702AD40C0EAC2EFC4F8CAAFCCFECE40D0B2D230D630D830E080E480E808EE040133030C13
:400640000A1C0CA10D030E160F04128016081715181C192A1AA31B041CA11E0E2133230428402A832B082D40301A310F32603330340F35403680380839083A223B023E4093
:400680003F14580459045C445F018110830C851C870288F389148A048C518D0C8EA28F1193409430951096C398809A229BC09E0C9F03A320A4F3A509A608A710AB80AC4064
:4006C000AD40AE11AF80B1E0B2F0B60FB71FBAA0BF01D40FD804D904DB04DC44DF010080030805200701084409080A040B800E220F0412081402170419191A441B481D2050
:400700001E221FA02088210526802740284029412B082D082F86311432083406369039023A023B803C203E465D145F418301850188018A048D038F20904A91149340940107
:4007400095019608970C988099209B049C039D029E409F41A106A680A722A801A901AC10AD01AF10B040B140B210B440B638C0C3C2EFC4A2CAFDCCF6CEF9D6F0E080E2406D
:40078000E420E640E890EC10EE4000FF01060331050206C309060A0C0CCF0E300F11107C113112821306143C150816C1180819081C201D1120042104220824102537283040
:4007C00029072B302C042D083070311032B03320343F3508370739083A283B8056025713580459045B045C445D405F01D804D904DC11DF0102600428050206100702088965
:4008000009040A080C840D010F041040140217191C201D021F18240A25012608270228892B402C842E402F28304032243510374639063A463D803E2A49304A045E016E483C
:400840006F047480762877188280850189028A018E048F4090209110934094019504961097089C029E04A104A702C0FCC2FFC4F8CAFDCCFECEF8D680E213E4D1E620080220
:400880000B031102120216062201300131013204340237023E103F404023410149FF4AFF4BFF4DA04F0150185280580459045A045B045F01604062806440654066806840C9
:4008C0006A806C406D206E80811C8C018F0493019D109F08A318A40AA808AB02AC0AAD01AE05AF02B004B108B208B303B401B510B602B704B888BE14BF51C062C101C54CD3
:40090000C624C73EC83FC9FFCAFFCBFFCDAFCE07CF01D018D40FD804D904DA04DB04DC40DF05E040E280E440E540E680E840EA80EC40ED20EE80001004400A50108011301B
:4009400012021340162618141A081B011C401D081E041F40210223022420251026422F463004310A340237403A203B103F82400541084340440447404C804E044F04562A77
:4009800057405E845F126608670472407D048104C082C20CC4E8CAB0CC91CE94D03ED220D6F0D860DE40E604000201100201032004800640070F082809100B200C300D0CDF
:4009C0000F01101813801401150C160217021840190B1A801B041C011D281E021F11204021102284232024012602283029072C402E802F40300331403238330F34C035800D
:400A00003604373038083A223B80580459045B045F01D608D804D904DB04DC11DD90DF010044012206820704080209200A210F04100212A817191804190A1A021B09202070
:400A40002161224A28812B082E802F4130023110324935043714384439023B203C803E023F045D806401680169107C0C8080818084518711880289108A028B088C048D4012
:400A80008E80904092219386968099349A029B189C089D089F01A220A450A701A980B402B590B640C0DFC24FC47FCA9DCC6FCEDFD610D810E008E202E607EA01EC205608DB
:400AC000580459045B045C115D905F01802084078740880C8A038B018C0A8D028E058F049005920A93109403960C9708980F990E9D089E10A120A50EA640A902AB04AF0E7C
:400B0000B020B140B210B320B40FB501B640B71EBE01BF04D401D604D804D904DB04DD40DF0100600108020803800602070808080A840B010C400E08122015041711193080
:400B40001A051B06218022242340280A290A2F40311132483440350436843710384439203C803D043E023F044404472059025A485B205D8060046201630867018280830332
:400B800087048BC8904091209220938496849740980499079A029B109C089D089E01A410A580A705A840AA80AE08B140B510B602C0CFC2CFC474CA8FCC7FCEDED61FD81170
:400BC000E082E60CE888EE06040E06F0070108960A680B010C7F0D02130814A3165C18FE19011A011CC51E3A1F042302260127022D0830FF310233043508370138803E419D
:400C00003F514043410649FF4AFF4BFF4DA04F0150185280540F580459045A045B045F016040628064406540668068406A806C406D206E8091029B019D02B101B502B92055
:400C4000C043C102C50EC6C2C734C83DC9FFCAFFCBFFCDAFCE07CF01D018D804D904DA04DC01DF01E040E280E440E540E680E840EA80EC40ED20EE800108030106240702F1
:400C800008490A080E020F18108015041E401F8020842502264427082D062F2132823320368237103C843F204102420B43044502470449044F205004510152D253025E91B5
:400CC0005F04641067107502810884088781888089108A809218930294249502984999089C149E269F02A201A340A480A710AB80AC10AE10B409B510B680C0E5C2EFC42842
:400D0000CAD0CCBDCE70D0C7D220D6F0E480E840EC10EE0A5608580459045B045C115D905F0182018508861088108C0292049301940298019B029C029D08A208A304A40257
:400D4000AA02AD08B010B104B201B302B406B508B608B701B920BE05BF10D40FD804D904DB04DF05010804280642072008490A280E4A0F10108C162417011C601D801F605A
:400D800024222754284529082F42308032143402368037203D083E083F0458805C405D105E015F086002650466107D08834084018580871088108A098B038C818E249008FB
:400DC00091109248942097149849990C9A529B089C049E249F16A088A285A302A720B60AB754C0F4C2FFC47ACA9FCCBECE40D6F8D868DE40E0A0E240E470E604E850EA0184
:400E0000EC20EE401040168032223508364038013B403E8081088302C430CCF0CE70E6A00102060207100F083082374052085F02800186028740940197409B02A642AC40CD
:400E4000AE20C0B0C280CC70D420D680E2C0E640EC10EE400404120817405280570499029A029B109F40A304A480A648A802C020C4C0D460EA201B011E208A1090049902EB
:400E80009A029B10A640A880AA80AB40C630EA20EC80EE208301014008080F085004804484088E019702C002C209D404E20818802601948097029808A304A408A601B5404C
:400EC000C608C801EA020B420C084104440188108B01910897029808A408AB04AD04C20ED006E00520805004550856025B40670868016E20714082018401854086108704AE
:400F00008B0190049A029B10A301AE40B102C840D4E0D620D880DAC0DC20E220E610EE40034004085840630266017502800481028440900494089A019F40A301A908AB1090
:400F4000B040C030D480D640D880DE20E020E630E820EA8008200F0157206302641098109C01A301AC08AF40C203D402D602D801122080208B208E209820A720AB01B001E2
:400F8000C408E001E208EC04101311011A131B011C031D0100AB01FF100A0000130100000000000013011301130113000800830C04000420700000004837370007000000DB
:400FC0004800000F0F000F00F0000000C03F3F00340000000800940A0A0008006100000003F8F80038000400000100000000000000000000000000000000000000000000D1
:4010000000000000000000000000000000000000000000000000000000000000000000000000000000000000000000000000000000000000000000000000000000000000B0
:401040000000000000000000000000000000000000000000000000000000000000000000000000000000000000000000000000000000000000000000000000000000000070
:401080000000000000000000000000000000000000000000000000000000000000000000000000000000000000000000000000000000000000000000000000000000000030
:4010C00000000000000000000000000000000000000000000000000000000000000000000000000000000000000000000000000000000000000000000000000000000000F0
:0200000490006A
:0400000000004005B7
:0200000490105A
:04000000BC90ACAF55
:0200000490303A
:02000000DDF829
:0200000490402A
:4000000000000000000000000000000000000000000000000000000000000000000000000000000000000000000000000000000000000000000000000000000000000000C0
:400040000000000000000000000000000000000000000000000000000000000000000000000000000000000000000000000000000000000000000000000000000000000080
:400080000000000000000000000000000000000000000000000000000000000000000000000000000000000000000000000000000000000000000000000000000000000040
:4000C0000000000000000000000000000000000000000000000000000000000000000000000000000000000000000000000000000000000000000000000000000000000000
:0200000490501A
:0C00000000012E16106900012E25EE6193
:00000001FF