:400000000080002011000000D5050000D505000080B500AF024A034B1B68136000F0E4FABC760040FA46004010B5054C237833B9044B13B10448AFF300800123237010BD85
:400040004881FF1F0000000008180000084B10B51BB108490848AFF300800848036803B910BD074B002BFBD0BDE81040184700BF000000004C81FF1F08180000C880FF1FC2
:4000800000000000B0B584B000AF0346FB7100F0CBFC0346184601F0CBFA0346184600F08BFF04460D46FB79184600F073FF4FF000020F4B01F0FEF802460B46204629464D
:4000C00000F0CEFF03460C461846214601F0DAF90346FB73FB7B184600F086FCFB7B184600F052FDFB7B18461037BD46B0BD00BF0000594080B592B000AF00F0D1FB00F05A
:400100009FFC002387F8473097F847301846FFF7B9FF034687F8463097F84630391D0A22184601F020FB3B1D184600F009FB62B6FEE700BF80B582B000AF786039603A683B
:400140000021786801F01CFB00BF0837BD4680BD80B584B000AFF860B9607A607A68B968F86801F002FB00BF1037BD4680BD00BF80B483B000AF0346FB71FEE780B487B064
:4001800000AF7860396000233B6100237B6127E07B699B007A6813441B68BB60BB68FB73BB6823F0FF03BB6014E03B695B003A6813441B781A46BB68134419463B695B0069
:4001C0003A6813445B780B703B6901333B61FB7B013BFB73FB7B002BE7D17B6901337B617B692A2BD4D900BF1C37BD4680BC704780B582B000AF3C4B04221A803B4B1822CC
:400200001A703B4B14221A803A4B18221A703A4B3B221A80394B18221A70394B77221A80384B1C221A70384B81221A80374B18221A70374B06221A70364B52221A70364B95
:40024000364A1278D2B21A70354B40F619121A80344B41F251221A800023FB7019237B6014E0FB785B00DAB22F4B1B78DBB203F00103DBB21343DBB203F00303FB704FF491
:40028000F07000F0A1FC7B68013B7B607B68002B02D0FB78032BE4D17B68002B02D10320FFF766FF214B4FF480721A801F4B07221A701F4B00221A701E4B48221A701B4B91
:4002C00000221A701C4B00221A701C4B02221A701B4A1B4B1B78DBB243F01F03DBB2137000BF0837BD4680BD80400040824000408440004086400040884000408A4000407E
:400300008C4000408E40004090400040924000400043004000420040A14600400F010049224200402042004025420040044000400640004008400040094000400140004073
:40034000A243004080B582B000AF214B1B78FB71204B1B78BB71204B1B787B711F4AFB7903F00703DBB213701D4AFB791B09DBB21370184ABB7943F00303DBB21370164A8B
:400380007B7943F00303DBB21370164B20221A70154B80221A70154B80221A70144B01221A70144B20221A70134B20221A700A2000F062FA084A7B791370064ABB79137014
:4003C0000E4B44221A7000BF0837BD4680BD00BFCF010049F8460040F94600406E5800406F5800400D5100401C510040015900408B5A0040205B0040235B00407658004003
:4004000080B586B000AF72B6564B61221A70FFF7EFFE544B01221A70534A534B1B78DBB243F00403DBB213700023FB7513E0FA7D13465B0013445B004C4A13443B613B6968
:400440001A683B699B889BB219461046FFF772FEFB7D0133FB75FB7D072BE8D90023FB751CE0FA7D13469B0013445B00404A1344FB60FB681B68BB60FB685B687B60FB68F7
:400480001A7A5B7A1B0213437B807B881A467968B868FFF75DFEFB7D0133FB75FB7D002BDFD034494FF09040FFF768FE04213248FFF740FE042231493148FFF749FE314BB5
:4004C000314A1A60314B324A1A60324A314B1B78DBB243F00203DBB213702F4A2E4B1B78DBB243F00203DBB213702C4A2B4B1B78DBB243F04003DBB21370294A284B1B78D0
:40050000DBB243F01003DBB21370082225492648FFF71EFE0A2225492548FFF719FE082224492548FFF714FE0A2224492448FFF70FFE082223492448FFF70AFE234A234BBD
:400540001B78DBB243F00803DBB21370FFF7FAFE0E2212491E48FFF7FBFD00BF1837BD4680BD00BF00480040E84600400C1800003C180000AC00004800760040600F004864
:4005800008760040D818014004040444D81A0140040400840350014013500140A0430040C2430040300F004802510040380F0048F0510040440F0048125100404C0F004892
:4005C00020510040580F00483251004022430040B043004080B500AF01F082F803461B680C2B00D1FEE7FEE780B586B000AF224B7B61224B3B61204B7B6135E03B691B6824
:40060000FB603B695B68BB603B699B683B6000237B600CE0FB681A68BB681A60BB680433BB60FB680433FB607B6804337B607A683B689A42EED13B69DB683B6000237B6030
:4006400008E0BB6800221A60BB680433BB607B6804337B607A683B689A42F2D13B6910333B617B69013B7B617B69002BC6D101F03DF8FFF73FFDFEE7010000009418000036
:4006800080B582B000AF194B194A1A60194A194B1B6843F40073136000237B600FE07B68032B04D8144A7B6852F8233000E0134B13497A6841F822307B6801337B607B68E8
:4006C0002F2BECD90F4B1B78DAB20F4B1A700F4B0B4A1A60FFF794FE00F0A0F80C4B00221A6000BF0837BD4680BD00BF0CED00E00004FA0514ED00E000000000D5050000BE
:400700000080FF1FBC760040C480FF1F08ED00E0C080FF1F80B485B000AF78600023FB8102E0FB890133FB81FB897A6813441B78002BF6D1FB8918461437BD4680BC70470A
:4007400080B584B000AF78600023BB81304B1B781A46304B9B5CFB727868FFF7DBFF0346FB81FA7A2C4913465B0013449B000B4408331B889BB2FA899A420AD9FA7A26493A
:4007800013465B0013449B000B4408331B889BB200E0FB893B81BB897A68D1183A89FB7A184600F021FAFA893B89D31AFB81FB89002B0CD1FA7A184913465B0013449B0092
:4007C0000B4408331B889BB23A899A4219D1BA893B891344BB8100BFFA7A0F4913465B0013449B000B4401331B78DBB2002BF3D0FB89002B05D1FB7A00220021184600F00F
:40080000F3F9FB89002BACD100BF1037BD4680BD6481FF1F6C81FF1FA881FF1F80B483B000AF134B7F221A70124B80221A707F23FB710CE0FB79DB0003F1804303F5F043B2
:40084000FA79013AD2B21A70FB79013BFB71FB79002BEFD1FB79DB0003F1804303F5F04300221A7000BF0C37BD4680BC704700BFCD80FF1FCC80FF1F80B582B000AF034679
:40088000FB80FB88054A127802FB03F3184600F09BF900BF0837BD4680BD00BFDC80FF1F80B500AF064B1B78002B04D100F00AF8034B01221A7000F063F800BF80BD00BF5A
:4008C0006581FF1F80B582B000AF284A274B1B78DBB243F00203DBB21370254B1B78DBB223F07003FB71224AFB7943F01003DBB21370204A1F4B1B78DBB223F03003DBB213
:4009000013701C4A1B4B1B78DBB243F03003DBB21370184A174B1B78DBB223F00F03DBB21370144A134B1B78DBB243F00F03DBB21370FF2000F048F8322000F055F800208A
:4009400000F062F80C4A0C4B1B78DBB243F00103DBB21370094A094B1B78DBB243F00103DBB2137000BF0837BD4680BD004F0040024F00400B4F0040A3430040014F00405D
:4009800080B400AF0D4A0D4B1B78DBB243F00103DBB213700A4A0A4B1B78DBB243F00103DBB21370074A074B1B78DBB243F00103DBB2137000BFBD4680BC7047A343004049
:4009C000B3430040004F004080B483B000AF0346FB71044BFA7992B21A8000BF0C37BD4680BC7047044F004080B483B000AF0346FB71044BFA7992B21A8000BF0C37BD46CC
:400A000080BC7047064F004080B483B000AF0346FB71044AFB79137000BF0C37BD4680BC704700BF034F004080B400AF034B1B889BB2DBB21846BD4680BC7047044F004040
:400A400080B500AF064B1B78002B04D100F00AF8034B01221A7000F063F800BF80BD00BF6681FF1F80B582B000AF284A274B1B78DBB243F00203DBB21370254B1B78DBB2C4
:400A800023F07003FB71224AFB7943F01003DBB21370204A1F4B1B78DBB223F03003DBB213701C4A1B4B1B78DBB243F03003DBB21370184A174B1B78DBB223F00F03DBB2CC
:400AC0001370144A134B1B78DBB243F00F03DBB21370FF2000F048F8322000F055F8002000F062F80C4A0C4B1B78DBB243F00203DBB21370094A094B1B78DBB243F00103E7
:400B0000DBB2137000BF0837BD4680BD0C4F00400E4F0040174F0040A34300400D4F004080B400AF0D4A0D4B1B78DBB243F00203DBB213700A4A0A4B1B78DBB243F00203CC
:400B4000DBB21370074A074B1B78DBB243F00103DBB2137000BFBD4680BC7047A3430040B34300400C4F004080B483B000AF0346FB71044BFA7992B21A8000BF0C37BD463F
:400B800080BC7047104F004080B483B000AF0346FB71044BFA7992B21A8000BF0C37BD4680BC7047124F004080B483B000AF0346FB71044AFB79137000BF0C37BD4680BC4E
:400BC000704700BF0F4F00400230800803D000BF01380046FCD17047EFF3108072B6704780F31088704700BFB0B485B000AF03463960FB711346BB80FB79002B6DD0FB7946
:400C0000082B6AD8B988FA79364813465B0013449B00034406331B889BB2C3F5007399420CD9FA792F4913465B0013449B000B4406331B889BB2C3F50073BB802A4CF979B5
:400C4000BB881B0A9BB2D8B2FA79264D13465B0013449B002B4403331B78DBB20343DAB20B0123441A70204AFB79B988C9B21B01134401330A461A703B68002B13D0002326
:400C8000FB810CE01948FB79FA8939680A4412781B01034408331A70FB890133FB81FA89BB889A42EED3FA790E4913465B0013449B000B44013300221A700B48F979FA7965
:400CC000084C13465B0013449B00234405331B78DAB20B01034402331A7000BF1437BD46B0BC7047A881FF1FFC5F00407060004081F0004102E000BF83F0004330B54FEAE1
:400D000041044FEA430594EA050F08BF90EA020F1FBF54EA000C55EA020C7FEA645C7FEA655C00F0E2804FEA5454D4EB5555B8BF6D420CDD2C4480EA020281EA030382EADB
:400D4000000083EA010180EA020281EA0303362D88BF30BD11F0004F4FEA01314FF4801C4CEA113102D0404261EB410113F0004F4FEA03334CEA133302D0524263EB430363
:400D800094EA050F00F0A780A4F10104D5F1200E0DDB02FA0EFC22FA05F2801841F1000103FA0EF2801843FA05F359410EE0A5F120050EF1200E012A03FA0EFC28BF4CF0A1
:400DC000020C43FA05F3C01851EBE37101F0004507D54FF0000EDCF1000C7EEB00006EEB0101B1F5801F1BD3B1F5001F0CD349085FEA30004FEA3C0C04F101044FEA445261
:400E000012F5800F80F09A80BCF1004F08BF5FEA500C50F1000041EB045141EA050130BD5FEA4C0C404141EB010111F4801FA4F10104E9D191F0000F04BF01460020B1FA9D
:400E400081F308BF2033A3F10B03B3F120020CDA0C3208DD02F1140CC2F10C0201FA0CF021FA02F10CE002F11402D8BFC2F1200C01FA02F120FA0CFCDCBF41EA0C0190407C
:400E8000E41AA2BF01EB0451294330BD6FEA04041F3C1CDA0C340EDC04F11404C4F1200220FA04F001FA02F340EA030021FA04F345EA030130BDC4F10C04C4F1200220FA66
:400EC00002F001FA04F340EA0300294630BD21FA04F0294630BD94F0000F83F4801306BF81F480110134013D4EE77FEA645C18BF7FEA655C29D094EA050F08BF90EA020F03
:400F000005D054EA000C04BF1946104630BD91EA030F1EBF0021002030BD5FEA545C05D14000494128BF41F0004130BD14F580043CBF01F5801130BD01F0004545F0FE4110
:400F400041F470014FF0000030BD7FEA645C1ABF194610467FEA655C1CBF0B46024650EA013406BF52EA033591EA030F41F4002130BD00BF90F0000F04BF0021704730B504
:400F80004FF4806404F132044FF000054FF0000150E700BF90F0000F04BF0021704730B54FF4806404F1320410F0004548BF40424FF000013EE700BF42004FEAE2014FEA7B
:400FC00031014FEA02701FBF12F07F4393F07F4F81F06051704792F0000F14BF93F07F4F704730B54FF4607401F0004521F0004120E700BF50EA010208BF704730B54FF0B3
:4010000000050AE050EA010208BF704730B511F0004502D5404261EB41014FF4806404F132045FEA915C3FF4DCAE4FF003025FEADC0C18BF03325FEADC0C18BF033202EB04
:40104000DC02C2F1200300FA03FC20FA02F001FA03FE40EA0E0021FA02F11444C1E600BF70B54FF0FF0C4CF4E06C1CEA11541DBF1CEA135594EA0C0F95EA0C0F00F0DEF80E
:401080002C4481EA030621EA4C5123EA4C5350EA013518BF52EA033541F4801143F4801338D0A0FB02CE4FF00005E1FB02E506F00042E0FB03E54FF00006E1FB03569CF032
:4010C000000F18BF4EF0010EA4F1FF04B6F5007F64F5407404D25FEA4E0E6D4146EB060642EAC62141EA55514FEAC52040EA5E504FEACE2EB4F1FD0C88BFBCF5E06F1ED88E
:40110000BEF1004F08BF5FEA500E50F1000041EB045170BD06F0004646EA010140EA020081EA0301B4EB5C04C2BFD4EB0C0541EA045170BD41F480114FF0000E013C00F30B
:40114000AB8014F1360FDEBF002001F0004170BDC4F10004203C35DA0C341BDC04F11404C4F1200500FA05F320FA04F001FA05F240EA020001F0004221F0004110EBD370BB
:4011800021FA04F642EB06015EEA430E08BF20EAD37070BDC4F10C04C4F1200500FA04F320FA05F001FA04F240EA020001F0004110EBD37041F100015EEA430E08BF20EA43
:4011C000D37070BDC4F1200500FA05F24EEA020E20FA04F301FA05F243EA020321FA04F001F0004121FA04F220EA020000EBD3705EEA430E08BF20EAD37070BD94F0000F3E
:401200000FD101F00046400041EB010111F4801F08BF013CF7D041EA060195F0000F18BF704703F00046520043EB030313F4801F08BF013DF7D043EA0603704794EA0C0FAF
:401240000CEA135518BF95EA0C0F0CD050EA410618BF52EA4306D1D181EA030101F000414FF0000070BD50EA410606BF1046194652EA430619D094EA0C0F02D150EA0136F1
:4012800013D195EA0C0F05D152EA03361CBF104619460AD181EA030101F0004141F0FE4141F470014FF0000070BD41F0FE4141F4780170BD70B54FF0FF0C4CF4E06C1CEA8B
:4012C00011541DBF1CEA135594EA0C0F95EA0C0F00F0A7F8A4EB050481EA030E52EA03354FEA013100F088804FEA03334FF0805545EA131343EA12634FEA022245EA111566
:4013000045EA10654FEA00260EF000419D4208BF964244F1FD0404F5407402D25B084FEA3202B61A65EB03055B084FEA32024FF480104FF4002CB6EB020E75EB030E22BF29
:40134000B61A754640EA0C005B084FEA3202B6EB020E75EB030E22BFB61A754640EA5C005B084FEA3202B6EB020E75EB030E22BFB61A754640EA9C005B084FEA3202B6EB33
:40138000020E75EB030E22BFB61A754640EADC0055EA060E18D04FEA051545EA16754FEA06164FEAC30343EA52734FEAC2025FEA1C1CC0D111F4801F0BD141EA00014FF0B2
:4013C00000004FF0004CB6E711F4801F04BF01430020B4F1FD0C88BFBCF5E06F3FF6AFAEB5EB030C04BFB6EB020C5FEA500C50F1000041EB045170BD0EF0004E4EEA1131F8
:4014000014EB5C04C2BFD4EB0C0541EA045170BD41F480114FF0000E013C90E645EA060E8DE60CEA135594EA0C0F08BF95EA0C0F3FF43BAF94EA0C0F0AD150EA01347FF408
:4014400034AF95EA0C0F7FF425AF104619462CE795EA0C0F06D152EA03353FF4FDAE1046194622E750EA410618BF52EA43067FF4C5AE50EA41047FF40DAF52EA43057FF4F7
:40148000EBAE12E74A0011D212F5001211D20DD56FF47873B3EB62520ED44FEAC12343F0004343EA505323FA02F070474FF00000704750EA013002D14FF0FF3070474FF04C
:4014C0000000704780F0004002E000BF81F0004142001FBF5FEA410392EA030F7FEA226C7FEA236C6AD04FEA1262D2EB1363C1BFD218414048404140B8BF5B42192B88BF5B
:40150000704710F0004F40F4000020F07F4018BF404211F0004F41F4000121F07F4118BF494292EA030F3FD0A2F1010241FA03FC10EB0C00C3F1200301FA03F100F0004323
:4015400002D5494260EB4000B0F5000F13D3B0F1807F06D340084FEA310102F10102FE2A51D2B1F1004F40EBC25008BF20F0010040EA03007047490040EB000010F4000F06
:40158000A2F10102EDD1B0FA80FCACF1080CB2EB0C0200FA0CF0AABF00EBC25052421843BCBFD0401843704792F0000F81F4000106BF80F400000132013BB5E74FEA4103A5
:4015C0007FEA226C18BF7FEA236C21D092EA030F04D092F0000F08BF0846704790EA010F1CBF0020704712F07F4F04D1400028BF40F00040704712F100723CBF00F50000E1
:40160000704700F0004343F0FE4040F4000070477FEA226216BF08467FEA23630146420206BF5FEA412390EA010F40F4800070474FF0000304E000BF10F0004348BF4042C2
:401640005FEA000C08BF704743F0964301464FF000001CE050EA010208BF70474FF000030AE000BF50EA010208BF704711F0004302D5404261EB41015FEA010C02BF84469C
:401680000146002043F0B64308BFA3F18053A3F50003BCFA8CF2083AA3EBC25310DB01FA02FC634400FA02FCC2F12002BCF1004F20FA02F243EB020008BF20F00100704794
:4016C00002F1200201FA02FCC2F1200250EA4C0021FA02F243EB020008BF20EADC707047014B1868704700BF4481FF1F0E4B70B51E460E4C0025E41AA410A54204D056F82D
:40170000253098470135F8E700F0B2F8084B094C1E46E41AA4100025A54204D056F8253098470135F8E770BD7C1800007C1800007C18000084180000931E222B10B50C46F7
:4017400002D90020087010BD0A2A06D1002804DA2D230B704042012100E00021214400F017F8204610BDFFF7E7BF10B5431E0A44914204D011F8014B03F8014FF8E710BD0E
:4017800003460244934202D003F8011BFAE77047F0B58BB003460F466D461A4C04F1200E2E4620686168083403C674453546F7D1217920683171911E222930604FF0000037
:4017C00001D938701CE07D1EB3FBF2F402FB14330AAE334413F8283C411C05F8013F23460CB10846F0E77C543A18C11A8B4206DAF95C1478FC5402F801190133F5E73846F8
:401800000BB0F0BD4818000000000000004F00402400405100403000C0510040100000000140001000140140000800400140000A004C0140000210500140100000500140C1
:40184000200F004810004300303132333435363738396162636465666768696A6B6C6D6E6F707172737475767778797A00000000F8B500BFF8BC08BC9E4670474D000000A6
:4018800081060000F8B500BFF8BC08BC9E46704729000000A8180000C880FF1F80000000D80000000000000000000000807F0000030000000087930360EA00003C000000D6
:4018C00000003075000000000000000000000000000000000000000000000000000000000000000046180000000000000000000000000000000000000000000000000000E5
:40190000000000000000000000000000000000000000000000000000000000000000000000000000E480FF1F00000000000000000000000000000000000000000000000025
:401940000000000000000000000000000000000000000000000000000000000000000000000000000000000000000000000000000000000000000000000000000000000067
:401980000000000000000000000000000000000000000000000000000000000000000000000000000000000000000000000000000000000000000000000000000000000027
:4019C00000000000000000000000000000000000000000000000000000000000000000000000000000000000000000000000000000000000000000000000000000000000E7
:401A000000000000000000000000000000000000000000000000000000000000000000000000000000000000000000000000000000000000000000000000000000000000A6
:020000040003F7
:0200000480007A
:4000000001450040064F004006520040015B0040046400400365004050000140370101404902014043030140320401404905014041060140530701403F08014057090140B2
:40004000580A0140510B01404C0C0140500D01404C0E0140310F01402E1401404A1501401F1601404E170140491801405A190140341A0140571B01400F40014015410140EF
:4000800013420140164301400B45014009460140094701400D4801400A490140094C0140064D014005500140035101407E0201200A1B0D20164B1930224B0120092411086E
:4000C000182019087C4027848038830F8872890F896F8A0F8B6F01C5033A041006200701081009960A200B680D7F0E40100F141015A316A0175C1803190E1A0C1BF01C2093
:400100001E10200A22052405260A280C2A032C072DFE2F01300F3280343035FF36403A203F1054185604580459045B045D405F01810482048318850887048D048F089030CF
:40014000910193029430950297019A019C289D049F08A202A501A702A901AB02AC18B001B204B30CB402B503B638B710B880BB28D804D904DF0100880201030805010920EE
:400180000A600B020D090E080F02100411491580168019101A451B091C021D011E081F54211024202524268027082B012F1430043128350136803708382039CB3A203B8046
:4001C0003C803D083E015B0160086341840887408B01C017C2FFC49FCA68CCD6CEDFD601D80DE60901B70340060F0707089409840A600B100DC10F12109E1260147315C01A
:40020000172418CF19771A301CFD1E0223082430250126C927F233F0350F36FF3E40580459045F0181118308841C850187048A028B028C3C9030920C951C980C9A309D0DD3
:400240009E409F10A014A228A340A511A704AA01AB1DAC28AD20AE14B040B11DB202B303B401B540B63CB720BF40D280D40FD804D904DB04DF01019002100408060C070842
:400280000A860C440D010E280F02118112081620189019A01F40210522982340240C25082604288229042A202E082F4030443504361439223A043C043E213F425804595022
:4002C0005A017001830184858610880291209204950A962097019A209B089E81A001A301A404A508B510B701C067C2FBC42BCACFCC6ACEF7D60FE20BE601EA200308041075
:4003000006010708081909010D040E021306140215011A041E1129082A083006310232083304341035083601370139803E543F5054015804590C5B0C5C195D105F0188017A
:400340008F0198019C01A001A601A801AC01B401B501D608D804D904DB04DC11DD90DF010014030204080610070409080B060D200E01111014201608174119501B0A1E08DB
:40038000204021082294270429202C8030083302342035023745384239283E493F0858405C805F10668067046C026E2079408080812283148440860488288C828F049096D9
:4003C00091089511968299209D509E91A001A404A540AA80B180B404C047C2C7C4F2CA84CCF3CEDFD638D830DE08E011E204E644EC045608580459045B045C115D905F0173
:40040000856086028710880C89588B208C348D028F049038910293049420956097089B789C389D449F0AA201A502A784A938AA20AE40AF01B060B180B201B306B41CB5011A
:40044000B602B778B820BB08C006C540C9FFCA07CBFFCC40CD20CEF0CF05D008D203D302D804D904DA04DB04DD14DF01E040E1A8E240E320012002200302044008080940C5
:400480000A800C040D040E010F08124A1754180819251B402008224929642C043080310832013320375438803A083B103C403E013F0849104B0150025C806201638065409C
:4004C00069606A1080028301848089488B128C088F20908092049408956196C297029B149E019F40A001A104A290A404A540A704A804A904AA10AE05B110B318B604C087A5
:40050000C2EDC4EBCA2ECC7FCEDED204D610D810E005E202E408EA4CEC85050E07F00DC50F3A11A3135C15FE170121962368297F2F0131FF3F0156025711580459045B0499
:400540005C015D405F01821C83038570870C89148C808D1090219216960898409A039B209D099F10A15CA280A302A821A96CAA0EAB11AC1CAE23B00FB280B41AB560B6601A
:40058000B71FB880B920BA22BE04BF10D40FD804D904DB04DC44DF010040038004A0081009010A100E080F1210801110120114A019251B8020012210250229212A012C0224
:4005C0002F48301033B0340536013708380939A23C803F084D3059105A895E206C096D047580762077047E047F0880028144821083108408860288408A018B088D848F044D
:4006000090C89242930594269516979298049A089CA99E219F14A0C4A149A254A30CA418A504A620A781A910AB08AF10B001B240C0C9C2EEC43BCAB5CCCCCE5FD62FE240BC
:40064000E6A0E820EA84020805F306850704080309800A840B220C0A0D510E840FA2122015F317081A101D301E601FC32083220C2640270C28832A042C202D402E402F1106
:400680003080330F340F367037F03A203B083E414062410549FF4AFF4BFF4DA04F015018580459045A045C445F016040628064406540668068406A806C406D206E80C06211
:4006C000C105C52CC603C74EC837C9FFCAFFCBFFCDAFCE07CF01D018D804D904DA04DC11DF01E040E280E440E540E680E840EA80EC40ED20EE8000200201039004A00520B5
:40070000081209800A080E080F1210021112121014A0180819801A402180220428122D203008318034A0360439443A103E803F1240044120452049104A0B4C804E0A4F0465
:400740005401554056088074810182808B018E04904091409202930194A29506979298069A109CA99D809E209F04A046A108A211A304A488A504A624A709B004B601C0CF9B
:40078000C2EBC43FCA2ACC7ACEBED024D23CE040E280E620E810EC84010107021101170219011D01350137023F504026410442034405450C460E480549FF4AFF4BFF4C62B1
:4007C0004DA04EF04F41500C580459045A045C015D045F016640670269106A306B106D106E106F1281218608880789108B028E048F1E900491189304940195169602970825
:4008000099219B409E07A210A807A90FAC01AD18AE02AF02B010B11EB301B540B60FB720B988BF04D608D804D904DB04DD90DF010004030A04A00A220BA00E080F121084A0
:40084000120214A018401A022088210A220223012401261028012B0A300431023220350537583BA23D023E013F04450147184D804E044F04568058105A406002621068021B
:4008800069406B01800182408410890190049229940295449602978099059B509C0F9D809EB09F05A304A448A504A708B004B508B610B704C0C7C2EDC43BCA0CCCF7CECDCC
:4008C000D0E0D230D60CD80CE22EE603E840EA20010104940501066008730B080C9E0D040E600F08103012C915011E0F28FD29022A022CCF2E302F04310C330134FF350240
:4009000039803E103F50580459045C405F0180BC813782428430850488108B318E0C8F08903C910692C1933195029683982099319B069CFF9D079F30A004A208A408A708EE
:40094000A8CFA906AA30AC04AD11B03FB126B2B0B307B440B508B710B820BA82BB0ABF10D804D904DC44DF0100800108030804400501062007040A020B800D020E050F1067
:40098000100514021610171118041D051E011F20204822442310254226102750280A2D802E202F20300835013754380239443A103D083E853F10824086108940C0F7C2F9AD
:4009C000C4F3CA7CCCF2CEFFE620010406080708080409200B100C010F0110021180134014081540178019081D101E101F20210222242601270429012E022F0231FF322059
:400A0000361F38803E403F015608580459045B045C015D905F018B01A201B001B101D804D904DC11DF0100400358044007400820090A0A020B800D060E010F081008110158
:400A400012111480170419041A011B8C1D021F0222012740288029142A132B022F8A300A33543744384039193B043C403D103F0459205A8062608304842087808F039040F9
:400A8000911992809601978299309A029B149D049E409F40A002A108A502A620A784A920AE10B440B740C09FC2FFC43FCABFCC5FCE7FD60CD80CE40CEC28580459045C11EF
:400AC0005F01840A860588078A088B028E029001940F9A309B019C10A404A601B010B102B203B301B40CB620D602D731D80CD904DB0CDC11DD10DF01032A04400504074035
:400B00000A160B400D020E010F10110817041A021B2A2040210C231029042B802F40310233543744386039083C403E013F185A106280680269116A406B1070107110720287
:400B40007340794081018708880189048E4091409214944095089641970299019B049E409F40A001A104A290A620A704A911AA02AC80AD01AE08B648C0B7C2BFC424CA83BC
:400B8000CC5FCEFED604D808DE08E014E40AE80CEA01EE044023410549FF4AFF4BFF4DA04F015018580459045A045C115F016040628064406540668068406A806C406D2062
:400BC0006E80810284018E04930A940E9C089E02A20AA301A601AD04B002B108B201B304B408B501B604B702BE55BF44C023C105C543C6C0C72EC83BC9FFCAFFCBFFCDAF6C
:400C0000CE07CF01D018D40FD804D904DA04DB04DF05E040E280E440E540E680E840EA80EC40ED20EE8000880110030404800520062007010A220E080F121220130115400B
:400C400019941A8021012214230229012A402D213102342035023604370139023E203F024108431045084710484049014A204B404E014F4051025214530159845B22621402
:400C80007B08810683208602880C89018B109088911092429305942495209680971298029A089CA09D10A084A148A244A328A410A622A701A802A902AA10AF40B601C0E594
:400CC000C2E5C48CCAA9CCE1CEA1D066D218D60FD806DE04E080E48AE81040624103450C46BE480D49FF4AFF4BFF4EF04F44500C54015604580459045A045B045C115D4418
:400D00005F0166C06A406B02830287068C018D018F08910295019C02A002A101A204AC04B001B108B204B302B501B602B704B880B920BE05BF14D280D40FD804D904DB047F
:400D4000DF0501A2060208040C80114012801308168017401D061F802404275129AE2B012C803004328034083701382039403C223D883E90432448104A084C044E0851101C
:400D8000524058015A585C025D085E805F10620264016648670474017C0882808480871189028C108E208F88900891409248930494249520980E99229A0A9B049E609F1089
:400DC000A080A144A240A320A410A602A701B4A0B560C08BC284C49DCA8DCCCACEDCD006D204D6FFD861DE40E240E440E850EC2813081680314032023608374038043B2047
:400E00003E8083108710C430CCF0CE70E6C001040504302137806308640165408340860A94049B0A9D409F40A310A60AB302C030CC70D840E250E68013805C086008632089
:400E400085408F509104940499049B0A9D409F80A310A420A704C440D680D840E6101B011F046320842085048701910499049B129F40A310A420A804AF80B308B704C630E6
:400E8000D840E240E450E840EA2001800B20530181808240840886018710C002C208D4011820250289029681A408AB01C608C801E6040A810C08430844019681A408A81040
:400EC000C20ED00603080740208087048D04930899049B129F40A301C060C840E4105B105F0263029B12A301AB08B040D480D6C0EC8059406202630287099C01A708D4012C
:400F0000D602D8028A02A602AD40B001E404EC04101311011A021B011C1300AB01FF100A13010000000000001100130113001301030000000020F800400006000000000033
:400F4000C0000000003F3F003400C0000800140A0A00080021000000007B7B00380000000001000000000000000000000000000000000000000000000000000000000000B7
:400F80000000000000000000000000000000000000000000000000000000000000000000000000000000000000000000000000000000000000000000000000000000000031
:400FC00000000000000000000000000000000000000000000000000000000000000000000000000000000000000000000000000000000000000000000000000000000000F1
:4010000000000000000000000000000000000000000000000000000000000000000000000000000000000000000000000000000000000000000000000000000000000000B0
:401040000000000000000000000000000000000000000000000000000000000000000000000000000000000000000000000000000000000000000000000000000000000070
:0200000490006A
:0400000000004005B7
:0200000490105A
:04000000BC90ACAF55
:0200000490303A
:020000003BD0F3
:0200000490402A
:4000000000000000000000000000000000000000000000000000000000000000000000000000000000000000000000000000000000000000000000000000000000000000C0
:400040000000000000000000000000000000000000000000000000000000000000000000000000000000000000000000000000000000000000000000000000000000000080
:400080000000000000000000000000000000000000000000000000000000000000000000000000000000000000000000000000000000000000000000000000000000000040
:4000C0000000000000000000000000000000000000000000000000000000000000000000000000000000000000000000000000000000000000000000000000000000000000
:0200000490501A
:0C00000000012E16106900012E244C395E
:00000001FF