:400000000080002011000000D9050000D905000080B500AF024A034B1B68136000F0E6FABC760040FA46004010B5054C237833B9044B13B10448AFF300800123237010BD7B
:400040004881FF1F000000001C130000084B10B51BB108490848AFF300800848036803B910BD074B002BFBD0BDE81040184700BF000000004C81FF1F1C130000C880FF1FA4
:400080000000000090B585B000AF0346FB7100F0CDFC0346184600F0E5FE0446FB79104AA2FB03235B09DBB2184600F0DFFE03461946204600F02EFF0346184601F07AF803
:4000C0000346FB73FB7B184600F090FCFB7B184600F05CFDFB7B18461437BD4690BD00BF1F85EB5180B592B000AF00F0DBFB00F0A9FC322387F8473097F847301846FFF7A8
:40010000C1FF034687F8463097F84630391D0A22184601F0B2F83B1D184600F013FB62B6FEE700BF80B582B000AF786039603A680021786801F0AEF800BF0837BD4680BDD2
:4001400080B584B000AFF860B9607A607A68B968F86801F094F800BF1037BD4680BD00BF80B483B000AF0346FB71FEE780B487B000AF7860396000233B6100237B6127E037
:400180007B699B007A6813441B68BB60BB68FB73BB6823F0FF03BB6014E03B695B003A6813441B781A46BB68134419463B695B003A6813445B780B703B6901333B61FB7B1D
:4001C000013BFB73FB7B002BE7D17B6901337B617B692B2BD4D900BF1C37BD4680BC704780B582B000AF3C4B04221A803B4B18221A703B4B14221A803A4B18221A703A4B4E
:400200003B221A80394B18221A70394B77221A80384B1C221A70384B81221A80374B18221A70374B06221A70364B52221A70364B364A1278D2B21A70354B40F619121A80B0
:40024000344B41F251221A800023FB7019237B6014E0FB785B00DAB22F4B1B78DBB203F00103DBB21343DBB203F00303FB704FF4F07000F0ADFC7B68013B7B607B68002B23
:4002800002D0FB78032BE4D17B68002B02D10320FFF766FF214B4FF480721A801F4B07221A701F4B00221A701E4B48221A701B4B00221A701C4B00221A701C4B02221A70B2
:4002C0001B4A1B4B1B78DBB243F01F03DBB2137000BF0837BD4680BD80400040824000408440004086400040884000408A4000408C4000408E400040904000409240004016
:400300000043004000420040A14600400F0100492242004020420040254200400440004006400040084000400940004001400040A243004080B582B000AF224B1B78FB7108
:40034000214B1B78BB71214B1B787B71204AFB7903F00703DBB213701E4AFB791B09DBB21370194ABB7943F00303DBB21370174A7B7943F00303DBB21370174B20221A70C0
:40038000164B80221A70164B80221A70154B01221A70154B20221A70144B20221A70144B20221A700A2000F069FA084A7B791370054ABB7913700F4B44221A7000BF083700
:4003C000BD4680BDCF010049F8460040F94600406E5800406F5800400D5100401C510040095900409B5A0040285B00402B5B0040585B00407658004080B586B000AF72B6AC
:40040000584B61221A70FFF7EBFE564B01221A70554A554B1B78DBB243F00403DBB213700023FB7513E0FA7D13465B0013445B004E4A13443B613B691A683B699B889BB20E
:4004400019461046FFF76EFEFB7D0133FB75FB7D062BE8D90023FB751CE0FA7D13469B0013445B00424A1344FB60FB681B68BB60FB685B687B60FB681A7A5B7A1B021343B4
:400480007B807B881A467968B868FFF759FEFB7D0133FB75FB7D002BDFD036494FF09040FFF764FE04213448FFF73CFE042233493348FFF745FE334B334A1A60334B324AA6
:4004C0001A60334A324B1B78DBB243F00203DBB21370304A2F4B1B78DBB243F00203DBB213702D4A2C4B1B78DBB243F04003DBB213702A4A294B1B78DBB243F01003DBB255
:400500001370082226492748FFF71AFE082226492648FFF715FE0A2225492648FFF710FE082225492548FFF70BFE0A2224492548FFF706FE082224492448FFF701FE244A9C
:40054000234B1B78DBB243F00803DBB21370FFF7F1FE0E2210491F48FFF7F2FD00BF1837BD4680BD00480040E8460040201300004C130000B000004800760040CC0F00483E
:4005800008760040D802014004040044581401400350014013500140A0430040C2430040940F0048025100409C0F0048C2510040A40F0048F0510040B00F004812510040DF
:4005C000B80F004820510040C40F00483251004022430040B043004080B500AF00F00AFE03461B680C2B00D1FEE7FEE780B586B000AF224B7B61224B3B61204B7B6135E043
:400600003B691B68FB603B695B68BB603B699B683B6000237B600CE0FB681A68BB681A60BB680433BB60FB680433FB607B6804337B607A683B689A42EED13B69DB683B6007
:4006400000237B6008E0BB6800221A60BB680433BB607B6804337B607A683B689A42F2D13B6910333B617B69013B7B617B69002BC6D100F0C5FDFFF735FDFEE70100000062
:40068000A413000080B582B000AF194B194A1A60194A194B1B6843F40073136000237B600FE07B68032B04D8144A7B6852F8233000E0134B13497A6841F822307B680133EF
:4006C0007B607B682F2BECD90F4B1B78DAB20F4B1A700F4B0B4A1A60FFF78EFE00F0A0F80C4B00221A6000BF0837BD4680BD00BF0CED00E00004FA0514ED00E000000000E0
:40070000D90500000080FF1FBC760040C480FF1F08ED00E0C080FF1F80B485B000AF78600023FB8102E0FB890133FB81FB897A6813441B78002BF6D1FB8918461437BD461F
:4007400080BC704780B584B000AF78600023BB81304B1B781A46304B9B5CFB727868FFF7DBFF0346FB81FA7A2C4913465B0013449B000B4408331B889BB2FA899A420AD92A
:40078000FA7A264913465B0013449B000B4408331B889BB200E0FB893B81BB897A68D1183A89FB7A184600F023FAFA893B89D31AFB81FB89002B0CD1FA7A184913465B009F
:4007C00013449B000B4408331B889BB23A899A4219D1BA893B891344BB8100BFFA7A0F4913465B0013449B000B4401331B78DBB2002BF3D0FB89002B05D1FB7A002200216B
:40080000184600F0F5F9FB89002BACD100BF1037BD4680BD6481FF1F6C81FF1FA881FF1F80B483B000AF134B7F221A70124B80221A707F23FB710CE0FB79DB0003F180438D
:4008400003F5F043FA79013AD2B21A70FB79013BFB71FB79002BEFD1FB79DB0003F1804303F5F04300221A7000BF0C37BD4680BC704700BFCD80FF1FCC80FF1F80B582B046
:4008800000AF0346FB80FB88054A127802FB03F3184600F09DF900BF0837BD4680BD00BFDC80FF1F80B500AF064B1B78002B04D100F00AF8034B01221A7000F063F800BF5C
:4008C00080BD00BF6581FF1F80B582B000AF284A274B1B78DBB243F00203DBB21370254B1B78DBB223F07003FB71224AFB7943F01003DBB21370204A1F4B1B78DBB223F0D7
:400900003003DBB213701C4A1B4B1B78DBB243F03003DBB21370184A174B1B78DBB223F00F03DBB21370144A134B1B78DBB243F00F03DBB21370FF2000F048F8322000F037
:4009400055F8002000F062F80C4A0C4B1B78DBB243F00103DBB21370094A094B1B78DBB243F00103DBB2137000BF0837BD4680BD004F0040024F00400B4F0040A343004080
:40098000014F004080B400AF0D4A0D4B1B78DBB243F00103DBB213700A4A0A4B1B78DBB243F00103DBB21370074A074B1B78DBB243F00103DBB2137000BFBD4680BC7047DF
:4009C000A3430040B3430040004F004080B483B000AF0346FB71044BFA7992B21A8000BF0C37BD4680BC7047044F004080B483B000AF0346FB71044BFA7992B21A8000BFEC
:400A00000C37BD4680BC7047064F004080B483B000AF0346FB71044AFB79137000BF0C37BD4680BC704700BF034F004080B400AF034B1B889BB2DBB21846BD4680BC70478D
:400A4000044F004080B500AF064B1B78002B04D100F00AF8034B01221A7000F063F800BF80BD00BF6681FF1F80B582B000AF284A274B1B78DBB243F00203DBB21370254B51
:400A80001B78DBB223F07003FB71224AFB7943F01003DBB21370204A1F4B1B78DBB223F03003DBB213701C4A1B4B1B78DBB243F03003DBB21370184A174B1B78DBB223F04B
:400AC0000F03DBB21370144A134B1B78DBB243F00F03DBB21370FF2000F048F8322000F055F8002000F062F80C4A0C4B1B78DBB243F00203DBB21370094A094B1B78DBB27F
:400B000043F00103DBB2137000BF0837BD4680BD0C4F00400E4F0040174F0040A34300400D4F004080B400AF0D4A0D4B1B78DBB243F00203DBB213700A4A0A4B1B78DBB2CD
:400B400043F00203DBB21370074A074B1B78DBB243F00103DBB2137000BFBD4680BC7047A3430040B34300400C4F004080B483B000AF0346FB71044BFA7992B21A8000BF4D
:400B80000C37BD4680BC7047104F004080B483B000AF0346FB71044BFA7992B21A8000BF0C37BD4680BC7047124F004080B483B000AF0346FB71044AFB79137000BF0C3747
:400BC000BD4680BC704700BF0F4F0040000000000230800803D000BF01380046FCD17047EFF3108072B6704780F31088704700BFB0B485B000AF03463960FB711346BB8057
:400C0000FB79002B6DD0FB79082B6AD8B988FA79364813465B0013449B00034406331B889BB2C3F5007399420CD9FA792F4913465B0013449B000B4406331B889BB2C3F5FB
:400C40000073BB802A4CF979BB881B0A9BB2D8B2FA79264D13465B0013449B002B4403331B78DBB20343DAB20B0123441A70204AFB79B988C9B21B01134401330A461A7064
:400C80003B68002B13D00023FB810CE01948FB79FA8939680A4412781B01034408331A70FB890133FB81FA89BB889A42EED3FA790E4913465B0013449B000B440133002253
:400CC0001A700B48F979FA79084C13465B0013449B00234405331B78DAB20B01034402331A7000BF1437BD46B0BC7047A881FF1FFC5F00407060004080F0004002E000BFF5
:400D000081F0004142001FBF5FEA410392EA030F7FEA226C7FEA236C6AD04FEA1262D2EB1363C1BFD218414048404140B8BF5B42192B88BF704710F0004F40F4000020F0E0
:400D40007F4018BF404211F0004F41F4000121F07F4118BF494292EA030F3FD0A2F1010241FA03FC10EB0C00C3F1200301FA03F100F0004302D5494260EB4000B0F5000F94
:400D800013D3B0F1807F06D340084FEA310102F10102FE2A51D2B1F1004F40EBC25008BF20F0010040EA03007047490040EB000010F4000FA2F10102EDD1B0FA80FCACF158
:400DC000080CB2EB0C0200FA0CF0AABF00EBC25052421843BCBFD0401843704792F0000F81F4000106BF80F400000132013BB5E74FEA41037FEA226C18BF7FEA236C21D0CD
:400E000092EA030F04D092F0000F08BF0846704790EA010F1CBF0020704712F07F4F04D1400028BF40F00040704712F100723CBF00F50000704700F0004343F0FE4040F4D0
:400E4000000070477FEA226216BF08467FEA23630146420206BF5FEA412390EA010F40F4800070474FF0000304E000BF10F0004348BF40425FEA000C08BF704743F096433A
:400E800001464FF000001CE050EA010208BF70474FF000030AE000BF50EA010208BF704711F0004302D5404261EB41015FEA010C02BF84460146002043F0B64308BFA3F155
:400EC0008053A3F50003BCFA8CF2083AA3EBC25310DB01FA02FC634400FA02FCC2F12002BCF1004F20FA02F243EB020008BF20F00100704702F1200201FA02FCC2F1200267
:400F000050EA4C0021FA02F243EB020008BF20EADC7070474FF0FF0C1CEAD0521EBF1CEAD15392EA0C0F93EA0C0F6FD01A4480EA010C400218BF5FEA41211ED04FF0006308
:400F400043EA501043EA5111A0FB01310CF00040B1F5000F3EBF490041EAD3715B0040EA010062F17F02FD2A1DD8B3F1004F40EBC25008BF20F00100704790F0000F0CF022
:400F8000004C08BF49024CEA502040EA51207F3AC2BFD2F1FF0340EAC250704740F400004FF00003013A5DDC12F1190FDCBF00F000407047C2F10002410021FA02F1C2F152
:400FC000200200FA02FC5FEA310040F1000053EA4C0308BF20EADC70704792F0000F00F0004C02BF400010F4000F013AF9D040EA0C0093F0000F01F0004C02BF490011F4D3
:40100000000F013BF9D041EA0C018FE70CEAD15392EA0C0F18BF93EA0C0F0AD030F0004C18BF31F0004CD8D180EA010000F00040704790F0000F17BF90F0004F084691F046
:40104000000F91F0004F14D092EA0C0F01D142020FD193EA0C0F03D14B0218BF084608D180EA010000F0004040F0FE4040F40000704740F0FE4040F4400070474FF0FF0C92
:401080001CEAD0521EBF1CEAD15392EA0C0F93EA0C0F69D0A2EB030280EA010C49024FEA402037D04FF0805343EA111143EA10130CF000408B4238BF5B0042F17D024FF4A4
:4010C000000C8B4224BF5B1A40EA0C00B3EB510F24BFA3EB510340EA5C00B3EB910F24BFA3EB910340EA9C00B3EBD10F24BFA3EBD10340EADC001B0118BF5FEA1C1CE0D149
:40110000FD2A3FF650AF8B4240EBC25008BF20F0010070470CF0004C4CEA50207F32C2BFD2F1FF0340EAC250704740F400004FF00003013A37E792F0000F00F0004C02BF86
:40114000400010F4000F013AF9D040EA0C0093F0000F01F0004C02BF490011F4000F013BF9D041EA0C0195E70CEAD15392EA0C0F08D142027FF47DAF93EA0C0F7FF470AFA5
:40118000084676E793EA0C0F04D14B023FF44CAF08466EE730F0004C18BF31F0004CCAD130F000427FF45CAF31F000437FF43CAF5FE700BF42000ED2B2F1FE4F0BD34FF0D8
:4011C0009E03B3EB126209D44FEA002343F0004323FA02F070474FF00000704712F1610F01D1420202D14FF0FF3070474FF00000704700BF014B1868704700BF4481FF1F76
:401200000E4B70B51E460E4C0025E41AA410A54204D056F8253098470135F8E700F0B0F8084B094C1E46E41AA4100025A54204D056F8253098470135F8E770BD8C130000B0
:401240008C1300008C13000094130000931E222B10B50C4602D90020087010BD0A2A06D1002804DA2D230B704042012100E00021214400F017F8204610BDFFF7E7BF10B5BB
:40128000431E0A44914204D011F8014B03F8014FF8E710BD03460244934202D003F8011BFAE77047F0B58BB003460F466D461A4C04F1200E2E4620686168083403C674456A
:4012C0003546F7D1217920683171911E222930604FF0000001D938701CE07D1EB3FBF2F402FB14330AAE334413F8283C411C05F8013F23460CB10846F0E77C543A18C11AAD
:401300008B4206DAF95C1478FC5402F801190133F5E738460BB0F0BD5813000000000000004F0040240040510040300000000140001000140140000800400140000A004C21
:4013400001400002105001401000000000500140840F004810004300303132333435363738396162636465666768696A6B6C6D6E6F707172737475767778797A000000008E
:40138000F8B500BFF8BC08BC9E4670474D00000085060000F8B500BFF8BC08BC9E46704729000000B8130000C880FF1F80000000D80000000000000000000000807F0000A6
:4013C000030000000087930360EA00003C00000000003075000000000000000000000000000000000000000000000000000000000000000056130000000000000000000039
:4014000000000000000000000000000000000000000000000000000000000000000000000000000000000000000000000000000000000000E480FF1F00000000000000002A
:40144000000000000000000000000000000000000000000000000000000000000000000000000000000000000000000000000000000000000000000000000000000000006C
:40148000000000000000000000000000000000000000000000000000000000000000000000000000000000000000000000000000000000000000000000000000000000002C
:4014C00000000000000000000000000000000000000000000000000000000000000000000000000000000000000000000000000000000000000000000000000000000000EC
:4015000000000000000000000000000000000000000000000000000000000000000000000000000000000000000000000000000000000000000000000000000000000000AB
:020000040003F7
:0200000480007A
:4000000001450040064F004007520040015B0040056400400265004040000140300101404A02014051030140410401404E0501404E060140550701404E0801405909014085
:400040003E0A01404E0B0140510C0140490D0140300E01402C0F0140361401405915014054160140511701402E180140571901403B1A0140551B01401340014010410140FA
:400080001642014010430140044401400B450140084601400A4701400A480140124901400E4C0140084D014005500140035101407E0201200A4B0D20164B1930224B0120F2
:4000C000110818101918601861147C402F84810F8238836F8A0F8E72846F8B0F19021F03350137023F405401580459045B0F5C015D105F01803081018208830E843085225B
:4001000086048704882289228A058B048D088E808F20902C921093409401952096029708981C9B109C019D2E9E02A101A23CA480A50EA801AA42AB80AE80AF01B080B11ED8
:40014000B23CB380B403B560B640B701BA20BE01BF40D40FD804D904DB04DF01000401400401059006100B060E951012124016A017501C681D181E011F0421202302240A28
:40018000250127502D802E142F4030803120350136E037083C283D023E803F405B805C605E045F0178018384C0F5C2F3C4FDCAF0CCFCCEF0D6F8DE01E208E622030F05736B
:4001C0000601080E099E0AF00B600D300FC91096126814C515CF163A1730187F1CFE1DFD1E011F0224A32594265C276030FF35FF3E013F1054185604580459045B045D404D
:400200005F018001820C830189188B068D4A8F349120934094089514970A99069B189D209E029F40A001A11EA520A740A901AD0EB002B160B204B408B501B601B71EB880E7
:40024000BB02BE10BF10D40FD804D904DB04DF0500020408051006080A220D080E040F6110801610170819801AA81D012008228023412620284029082AA02E0831183241BA
:4002800034403680370838023A103B403D023E043F6858805A085B125C026124656066027B04800282028484868488028C049008930894049540961497C7980899109A209B
:4002C0009B029C119D819E509F0CA109A482A6A0A821AE20AF40B304B409B508C068C2F5C428CA4FCC5FCEFDD68FD8B6DE04E204E608010803010740090B0B04150C1702FC
:400300001907230F27202B102D0C2F013120330F35103740580459045C015F01802C82528402850E860488788C188D108E608F029301945095189628970498389B409C0211
:400340009D169E049F08A002A204A601A71EA918AB02AC60AE18AF20B006B140B201B301B478B51EB720BA02D608D804D904DB04DD90DF010110020203800511060207207E
:40038000081009400A080B020C200D040E021040124013041402162017011D111E101F30218C2211251026012729280229092B082E882F04302031083680372938083A0289
:4003C0003B203E043F405D6066A0830186048D409008934894029616978698099A089C109D4C9E409F0CA101A280A481A520A880AB10AC01B120B540C0FBC2E3C4BCCA7FE3
:40040000CCF6CE57D630D830E040E60DEA02EE014036410449FF4AFF4BFF4DA04F015018580459045A045C115F016040628064406540668068406A806C406D206E808001CF
:400440008608870888028E028F08910496089701980199019D089E04A001AF06B006B102B304B401B508B608B701B820BE50BF50C023C104C53EC6C2C740C82FC9FFCAFF54
:40048000CBFFCDAFCE07CF01D018D280D804D90FDA04DB04DC19DF01E040E280E440E540E680E840EA80EC40ED20EE80002A01020306070208080A150C400F851080155113
:4004C000174019401B1220202110224123082B022D512E202F8031803211330834403602370238083A803C103D803FA44010411043014501470949064F2050815120728011
:400500007801820183A08404850886018E1090089108922093089402951096049784980999019A029C429D4C9F04A1D1A280A320A4A1A520A602A788A920AA02C08FC2D71E
:40054000C4D8CAB8CC9FCE5AD0C7D220DE01E248E440E60EEE0409020B040D021F01260130013102330135043902403141064202440546E0470C481849FF4AFF4BFF4C620B
:400580004DA04EF04F41500C5608580459045A045B045C015D945F016640670269106A306B106D106E106F12821C846186969061928E9AA39C5C9E83A208A460A680B01AE5
:4005C000B4F0B60FBAA2C002C604C9FFCA07CBFFCC40CD20CEF0CF05D008D608D804D904DA04DB04DC14DD94DF01E040E1A8E240E32000040102051507200A810B040C088B
:400600000E200F0810A014011501162018041A811D021E4024082501260829142A8030083101368039053D043F9842044504460548104B044D204F4050C0572858905D8082
:4006400060026210664068026980811086448708882089028A028B208D808E14910192049361948495C096C1980199339A819C229E309F10A020A114A210A305A412A520C5
:40068000A605A720AA80B008B301B648C07CC26BC4BCCA0ECC13CE33D074D230D61CD81CE240E450030304170510070C080809140A110D1010171140138017C018201B200E
:4006C0001C021D1C1E141F0221092310250C261027112B802F40300C31E0322034033610371F38223E543F0140264105450C46B0470E481949FF4AFF4BFF4EF04F44500CEB
:4007000054015604580459045A045B045C445D445F0166C06A406B02D804D904DC11DF01002402080511084009040A810B980E600F0810301401150119461A042102234175
:40074000280229022A182C012E8230423214351138A43B013D013E403F08400448204A084B8050185304581059445B01608062806302808083048612871091019228931037
:4007800095C0964099319A819C229E309F10A110A290A304A402A522A605A720AF01B220B510C056C27BC494CA9FCCAFCEDFD004D20CD60FD801E602EA60EE010002060168
:4007C0000B0110011102130414041502171419021A101B0C1D041E441F022008262227012A883020310832403310341F35013680370638203B803E103F105203530258048E
:4008000059045B045C015D105F0183218480850686228B108D088F109040912192119521960C970698309AC39B089D04A106A321A4F3A502A604A8F3A927AA08AC51AD0784
:40084000AEA2AF20B20FB307B4F0B520B718B802BA08BB08BE01D804D904DC44DF0102100501062008020A280D210E620F80100211141420150117101A281B011C041D11E4
:400880001E21200A2208231026A2272029A22A082D012E012F2030903102320836863720380839803A113C206D206F0181018412870188048F40900891149404954296415F
:4008C000971099A29A899C029D019E10A090A304A403A618B102B280B611B708C034C2FEC477CA4FCCFFCE2FE220E640EA40EC20020C0408050108FF09010C3C0D010EC1DE
:40090000100414CF150616301AC31C7C1E822020210223042410283029062C042D022E082F04303F310232703304350136B039083AA23F0156025713580459045B045C44CF
:400940005D405F01AE01B401D804D904DC11DF01000201A0021004040501084209200B100D020E290F0810821324154219B21A201E082020212022012308284029922E80F7
:4009800032083501361439943C043E415A026994708472087324C03FC2FFC49FCA1DCCE2CEDED601E208E622000A04100530080609040D010E20120113011410180C19181C
:4009C0001F042010230324102528280C2D302E103030310432013301340E35383702382039203F055280540F580459045B045F0582018C968E6894FE9601A00EA2F0A4C537
:400A0000A63AA87FACA3AE5CB0FFBE01D804D904DC10DF0100400120028003200501060107010A500B080F2010401124120114421528181019211A041C40215022292802BF
:400A400029012B102D0230A232203782381039883D803E203F05410442105A8A5B1061046210700279208310840185048703880289048A048D088E20910892C0930D952082
:400A80009604984099069A309B919C029F02A081A150A280A330A420A508A608AB40AC10B244B480B640B710C09FC22EC4FFCA8BCC9DCEFED60FD806DE04E00AE401E60244
:400AC000E81CEA40EC28190135013F104064410349FF4AFF4BFF4DA04F015018580459045A045C115F016040628064406540668068406A806C406D206E8082028404859E30
:400B00008601876089738C0A8E05913093C99410970F98079A08A001A194A360A5FDA702A80FADCFAE30AF30B00CB220B3FFB403B610BF04C064C103C52EC6C3C704C81FD0
:400B4000C9FFCAFFCBFFCDAFCE07CF01D018D80FD904DA04DB04DC01DF01E040E280E440E540E680E840EA80EC40ED20EE80022003820502062007420A180F4510081101AC
:400B8000120117801A181B822020261028422A022B302D023109330137A239283D803E203F4540804108448045084640488049044A084E0852105348680578017B40822240
:400BC000838085038704880C8A108B408E108F01910892A0930896049705980199019A239B209C029F40A150A280A320A420A602A708B340B401B620C0BDC2D6C48BCA8BCC
:400C0000CCB3CEF6D0C3D224DE01E28BE440E60902020410062008200A100C800E401201160418401A801C042208240128082B012C02330134FF3E105602573E58045904BC
:400C40005B0C5C105D105F018404920194029802A008B002B208B401B604B802BE45D608D804D904DB04DC10DD90DF01032005050725080209100B240C180D020E220F4835
:400C8000130115011622171819021A081B881D202504272029042B042D10300931113220355539013A043D013F4858805F04600265026D506E026F157402760277087C014A
:400CC0007D017F028102820484028540861087208B148C098E4090089101932195409628971099119E229F10A113A210A305A520A605A740A880B010B208B501B680C0F48A
:400D0000C2FEC4F8CA26CCF7CED3D648D888DE10E060E4C0E631E840EEC10601100118012001240128012C0132015608580459045B045C115D905F018210833084208508FF
:400D400087018801890B8B048E08920E940195309620980899079C029D0C9E049F02A00FA30FA40EA802A90CAA04AB01AD20AE40AF10B01EB110B220B440B520B601B70F42
:400D8000B880BE44BF11D40FD804D904DB04DF01022004280640070108100A800B400D020E010F16100911091210148616201A201D021E081F462650278128102A102C0439
:400DC0002E012F023009326034083520364039013C103D023E203F04420C5A405E265F806002801082018404862087048A408B048C808D228E089028910192409350962083
:400E0000978098199A40A008A105A220A301A604AB0AAE40AF20B340B490B7C0C0F4C2FAC4FFCAB6CC7FCEE1D6F8D808E010E2A0E610E890EA40EC61EE8011081680300291
:400E40003310378238403A083E806B3080088320840287028B80C430CCF0CE70E290E6400340040830083240378063088040840894409E08A008A104C030CC70D840E63010
:400E800012081380510858085C08600882408C409008968098089B409F80A104A704AA08C440D420D6C0D840E680EE801B011D08810882088D048F0490089440A104A2087B
:400EC000A508A704AB40C630E0A0EC80860187108902E60400100B2023405A8096029710A502C002C208C802D40187409010936096829710A502A601AA0109020A020F1069
:400F00009010932096829710A502A601C20E00400710208089028F1090089440A301C060C8405840630266027502844099029A02A301AF01B040B404B602D480D640D880DB
:400F4000DE20E610EC101E0234013910820188049680A601A810B310C601CC01CE08E004EA047404A004AA40B001B110DE04E801EC04100311011A031C031D0100AB01FF03
:400F8000100A000013010000000000001300030113011300030000000020E400001C1C001C0000004000060000000000C0000000000B0B000000F4000800140A0A00080022
:400FC00000000000007B7B003800000000010000000000000000000000000000000000000000000000000000000000000000000000000000000000000000000000000000C2
:4010000000000000000000000000000000000000000000000000000000000000000000000000000000000000000000000000000000000000000000000000000000000000B0
:401040000000000000000000000000000000000000000000000000000000000000000000000000000000000000000000000000000000000000000000000000000000000070
:401080000000000000000000000000000000000000000000000000000000000000000000000000000000000000000000000000000000000000000000000000000000000030
:4010C00000000000000000000000000000000000000000000000000000000000000000000000000000000000000000000000000000000000000000000000000000000000F0
:0200000490006A
:0400000000004005B7
:0200000490105A
:04000000BC90ACAF55
:0200000490303A
:020000004E119F
:0200000490402A
:4000000000000000000000000000000000000000000000000000000000000000000000000000000000000000000000000000000000000000000000000000000000000000C0
:400040000000000000000000000000000000000000000000000000000000000000000000000000000000000000000000000000000000000000000000000000000000000080
:400080000000000000000000000000000000000000000000000000000000000000000000000000000000000000000000000000000000000000000000000000000000000040
:4000C0000000000000000000000000000000000000000000000000000000000000000000000000000000000000000000000000000000000000000000000000000000000000
:0200000490501A
:0C00000000012E16106900012E225E7A0D
:00000001FF