:400000000080002011000000BD090000BD09000080B500AF024A034B1B68136000F0D8FCBC760040FA46004010B5054C237833B9044B13B10448AFF300800123237010BDB7
:400040006881FF1F00000000F44A0000084B10B51BB108490848AFF300800848036803B910BD074B002BFBD0BDE81040184700BF000000006C81FF1FF44A0000C880FF1F46
:40008000000000000000000090B587B000AF78603960794B1B78DBB2002B00F0E180774B1B78012B02D1322000F030F9724B00221A70734B1B88184604F01CFA0346714950
:4000C000184604F023FB03461A466F4B1A606F4B1B88184604F00EFA03466A49184604F015FB03461A466A4B1A60674B1B68184603F074FE5CA3D3E9002303F0C3FE0346F3
:400100000C46184621465AA3D3E9002303F0E4FF03460C461846214604F0E6F802465A4B1A60594B1B685B49184604F03BFA03461A46554B1A60564B1B68184603F04EFE87
:4001400049A3D3E9002303F09DFE03460C461846214647A3D3E9002303F0BEFF03460C461846214604F0C0F80246494B1A60484B1B684849184604F015FA03461A46444BAB
:400180001A60414B1B681946786804F001F903467B613F4B1B681946386804F0F9F803463B6102F0D1FE0346184604F0A3F90246394B1A6002F0A4FF0346184604F09AF98D
:4001C0000246364B1A60344B1B687969184604F0E1F80346FB60314B1B683969184604F0D9F80346BB602E49F86804F097FB0346002B03D0FF2002F087FE12E02949F868E3
:4002000004F06EFB0346002B03D07D2002F07CFE07E0F86804F0B2FB0346DBB2184602F073FE1F49B86804F079FB0346002B03D0FF2002F045FF14E01A49B86804F050FB50
:400240000346002B03D07D2002F03AFF09E0B86804F094FB0346DBB2184602F031FF00E000BF1C37BD4690BD182D4454FB211940000000A09999A93FA181FF1FA681FF1FBA
:40028000A281FF1F000064439881FF1FA481FF1F9C81FF1F00005040B482FF1F2882FF1F00007F430000F44280B500AF044B01221A70044B01221A7000F004FD00BF80BD34
:4002C000A081FF1FA681FF1F80B500AF03F05EF803469AB20A4B1A8002F072FF03469AB2084B1A80002002F08FFF002003F072F8054B01221A7003F01FFB00BF80BD00BF02
:40030000A481FF1FA281FF1FA181FF1FB0B584B000AF0346FB7102F023FE0346184604F0E9F80346184603F059FD04460D46FB79184603F041FD4FF000020F4B03F0CCFE85
:4003400002460B462046294603F09CFD03460C461846214603F0A8FF0346FB73FB7B184602F0D2FDFB7B184602F0AAFEFB7B18461037BD46B0BD00BF0000594080B500AF08
:40038000FF2002F0B1FD02F01BFDAA2002F0BCFDFF2002F085FE02F0EFFDAA2002F090FE02F0F2FE02F0D6FF03F0A4FA064803F0F1FA312003F0CCFA002002F025FF00207D
:4003C00003F008F800BF80BDC902000080B594B000AF012003F02CFBFFF7D0FF334BFB64324BBB64642387F847300121002000F097FC2F4800F082FB00F042FC62B62D49C0
:400400002C48FFF741FE2C4B1B78012BF7D12B4800F066F82A4B1B68184604F089FA3B1D0A22194604F00DFB3B1D184600F058F8244800F055F8244B1B68184604F078FA53
:400440003B1D0A22194604F0FCFA3B1D184600F047F81E4800F044F81D4800F041F81D4B1B68184604F064FA3B1D0A22194604F0E8FA3B1D184600F033F8124800F030F813
:40048000154B1B68184604F053FA3B1D0A22194604F0D7FA3B1D184600F022F80F4800F01FF8054B00221A70A9E700BF00005C42A90200000000C841A081FF1FF84A0000D6
:4004C000B482FF1F004B00009881FF1F044B0000084B00002882FF1F9C81FF1F104B000080B582B000AF786000BF00F02FFF0346002BFAD07B683F3300221A707B683E33C8
:4005000021221A70786804F0B1FA03469BB21946786800F0E5FE00BF0837BD4680BD00BF80B582B000AF786039603A680021786804F094FA00BF0837BD4680BD80B584B077
:4005400000AFF860B9607A607A68B968F86804F07AFA00BF1037BD4680BD00BF80B483B000AF0346FB71FEE780B487B000AF7860396000233B6100237B6127E07B699B0032
:400580007A6813441B68BB60BB68FB73BB6823F0FF03BB6014E03B695B003A6813441B781A46BB68134419463B695B003A6813445B780B703B6901333B61FB7B013BFB73EE
:4005C000FB7B002BE7D17B6901337B617B692B2BD4D900BF1C37BD4680BC704780B582B000AF404B04221A803F4B18221A703F4B14221A803E4B18221A703E4B3B221A80E9
:400600003D4B18221A703D4B81221A803C4B18221A703C4B4EF65F221A803B4B18221A703A4B4EF65F221A80394B1C221A70394B06221A70384B52221A70384B384A1278B8
:40064000D2B21A70374B40F619121A80364B41F251221A800023FB7019237B6014E0FB785B00DAB2314B1B78DBB203F00103DBB21343DBB203F00303FB704FF4F07003F03E
:40068000F7F97B68013B7B607B68002B02D0FB78032BE4D17B68002B02D10320FFF75EFF234B4FF480721A80214B07221A70214B00221A70204B48221A701D4B00221A70DC
:4006C0001E4B00221A701E4B02221A701D4A1D4B1B78DBB243F03F03DBB2137000BF0837BD4680BD80400040824000408440004086400040884000408A4000408C400040F2
:400700008E400040904000409240004094400040964000400043004000420040A14600400F01004922420040204200402542004004400040064000400840004009400040D2
:4007400001400040A243004080B582B000AF1F4B1B78FB711E4B1B78BB711E4B1B787B711D4AFB7903F00703DBB213701B4AFB791B09DBB21370164ABB7943F00303DBB2F5
:400780001370144A7B7943F00303DBB21370144B21221A70134B80221A70134B10221A70124B20221A70124B20221A700A2002F045FA084A7B791370054ABB7913700D4B77
:4007C00044221A7000BF0837BD4680BDCF010049F8460040F94600406E5800406F5800400D51004001590040905A0040205B0040235B00407658004080B586B000AF72B67D
:40080000534B61221A70FFF7E9FE514B01221A700023FB7513E0FA7D13465B0013445B004C4A13443B613B691A683B699B889BB219461046FFF774FEFB7D0133FB75FB7D10
:40084000062BE8D90023FB751CE0FA7D13469B0013445B00404A1344FB60FB681B68BB60FB685B687B60FB681A7A5B7A1B0213437B807B881A467968B868FFF75FFEFB7D33
:400880000133FB75FB7D002BDFD034494FF09040FFF76AFE04213248FFF742FE042231493148FFF74BFE314B314A1A60314A314B1B78DBB243F00203DBB213702E4A2E4B6A
:4008C0001B78DBB243F00203DBB213702B4A2B4B1B78DBB243F04003DBB21370284A284B1B78DBB243F01003DBB21370082225492548FFF723FE082224492548FFF71EFE72
:400900000A2224492448FFF719FE082223492448FFF714FE0A2223492348FFF70FFE082222492348FFF70AFE224A224B1B78DBB243F00803DBB21370FFF706FF0E220F49CD
:400940001D48FFF7FBFD00BF1837BD4680BD00BF004800401C4B0000484B0000B000004800760040AC0F004808760040D8080140040404840350014013500140A04300401A
:40098000C2430040740F0048025100407C0F0048C2510040840F0048F0510040900F004812510040980F004820510040A40F00483251004022430040B043004080B500AF6E
:4009C00003F0FCFF03461B680C2B00D1FEE7FEE780B586B000AF224B7B61224B3B61204B7B6135E03B691B68FB603B695B68BB603B699B683B6000237B600CE0FB681A688E
:400A0000BB681A60BB680433BB60FB680433FB607B6804337B607A683B689A42EED13B69DB683B6000237B6008E0BB6800221A60BB680433BB607B6804337B607A683B6884
:400A40009A42F2D13B6910333B617B69013B7B617B69002BC6D103F0B7FFFFF7B7FCFEE701000000504D000080B582B000AF194B194A1A60194A194B1B6843F4007313601F
:400A800000237B600FE07B68032B04D8144A7B6852F8233000E0134B13497A6841F822307B6801337B607B682F2BECD90F4B1B78DAB20F4B1A700F4B0B4A1A60FFF79CFE6D
:400AC00002F082F80C4B00221A6000BF0837BD4680BD00BF0CED00E00004FA0514ED00E000000000BD0900000080FF1FBC760040C480FF1F08ED00E0C080FF1F80B582B00B
:400B000000AF786000F03CF8786800F009F8072000F018F800F028F800BF0837BD4680BD80B485B000AF7860054B1B68FB60FB6860337A681A6000BF1437BD4680BC704754
:400B400008ED00E080B483B000AF0346FB71054AFB795B01DBB2137000BF0C37BD4680BC704700BF08E400E080B400AF034B4FF480721A6000BFBD4680BC704700E100E0CD
:400B800080B400AF034B4FF480721A6000BFBD4680BC704780E100E080B500AF224A224B1B78DBB203F00103DBB213701F4A1F4B1B78DBB223F00303DBB213701C4A1C4B92
:400BC0001B78DBB223F03003DBB21370184A184B1B78DBB243F03003DBB21370144A144B1B78DBB223F00F03DBB21370104A104B1B78DBB243F00F03DBB213700D4A0D4B39
:400C00001B78DBB243F00103DBB2137040F69F7000F064F840F69F7000F072F8082000F041F800BF80BD00BF244F0040264F00402F4F0040254F004080B400AF0D4A0D4BA5
:400C40001B78DBB243F00803DBB213700A4A0A4B1B78DBB243F00803DBB21370074A074B1B78DBB243F00103DBB2137000BFBD4680BC7047A3430040B3430040244F004021
:400C800080B500AF064B1B78002B04D1FFF784FF034B01221A70FFF7CFFF00BF80BD00BFA781FF1F80B483B000AF0346FB71044AFB79137000BF0C37BD4680BC704700BF6C
:400CC000274F004080B400AF034B1B78DBB21846BD4680BC704700BF274F004080B485B000AF0346FB80FB88FB81044AFB89138000BF1437BD4680BC704700BF284F00406E
:400D000080B483B000AF0346FB80044AFB88138000BF0C37BD4680BC704700BF2A4F004080B582B000AF03460A46FB711346BB71094B1B78002B04D100F010F8064B012212
:400D40001A70BA79FB791146184600F0D9F800BF0837BD4680BD00BFA881FF1F80B582B000AF02F08DFE0346FB71544A534B1B78DBB243F00103DBB21370514A504B1B78D4
:400D8000DBB243F00103DBB213704E4B01221A704D4B02221A704D4A4C4B1B78DBB203F07F03DBB21370002001F048FF484A484B1B78DBB223F00603DBB21370454A454B18
:400DC0001B78DBB223F02003DBB21370404A404B1B78DBB243F00103DBB21370012001F02DFF282001F02AFF3B4A3B4B1B78DBB203F07F03DBB21370374A374B1B78DBB29E
:400E000023F04003DBB21370314A314B1B78DBB243F00203DBB21370022001F00FFF2C4A2B4B1B78DBB243F00403DBB213702B4B00221A702A4B00221A70FB79184602F06F
:400E400023FE0721172001F035FF2649172001F009FF0721182001F02DFF2349182001F001FF0721152001F025FF2049152001F0F9FE0721032001F01DFF1D49032001F052
:400E8000F1FE0721042001F015FF1A49042001F0E9FE0721052001F00DFF1749052001F0E1FE07210C2001F005FF14490C2001F0D9FE00BF0837BD4680BD00BFA543004035
:400EC000B54300409D60004009600040106000409443004012600040F85100408460004085600040191B0000011400000D1B0000251A00006D1A0000B91A0000251B00003F
:400F000080B582B000AF03460A46FB711346BB712E4AFB7913702E4B00221A702D4B00221A702D4B00221A702C4B00221A702C4B00221A702B4B00221A702B4B00221A70AB
:400F40002A4B4FF400021A60284B4FF080721A60264B4FF400121A60244B08221A60234B10221A60214B20221A60BB79002B02D0012B09D011E01E4A1D4B1B78DBB223F060
:400F80000103DBB2137011E0194A194B1B78DBB243F00103DBB2137008E0154A144B1B78DBB243F00103DBB2137000BF114B03221A70114B80221A70012002F059FD0F4BDC
:400FC00004221A7000BF0837BD4680BDD582FF1FD882FF1FF482FF1FF782FF1FEC82FF1FF682FF1FF982FF1FD482FF1F00E100E00960004028600040086000401260004030
:4010000080B400AF0F4B00221A700F4B00221A700E4B00221A700E4B00221A700D4B00221A700D4B00221A700C4B00221A700C4B03221A700B4B80221A7000BFBD4680BC26
:40104000704700BFD882FF1FF482FF1FF782FF1FEC82FF1FF682FF1FF982FF1FD482FF1F286000400860004080B483B000AF0346FB71FA79064913465B0013449B000B4436
:4010800001331B78DBB218460C37BD4680BC7047FC82FF1FB0B485B000AF03463960FB711346BB80FB79002B6DD0FB79082B6AD8B988FA79364813465B0013449B0003449B
:4010C00006331B889BB2C3F5007399420CD9FA792F4913465B0013449B000B4406331B889BB2C3F50073BB802A4CF979BB881B0A9BB2D8B2FA79264D13465B0013449B00BA
:401100002B4403331B78DBB20343DAB20B0123441A70204AFB79B988C9B21B01134401330A461A703B68002B13D00023FB810CE01948FB79FA8939680A4412781B01034490
:4011400008331A70FB890133FB81FA89BB889A42EED3FA790E4913465B0013449B000B44013300221A700B48F979FA79084C13465B0013449B00234405331B78DAB20B0178
:40118000034402331A7000BF1437BD46B0BC7047FC82FF1FFC5F00407060004080B582B000AF0023FB71314B1B79DBB2184600F067F80346BB712D4B1B78DBB25BB2002B7E
:4011C00015DA2A4B5B78DBB2212B00D048E0284B07221A80BA791346DB009B1A254A1344234A536000F086FA0346FB7138E01F4B5B78DBB2202B02D0222B1AD030E01C4BDD
:4012000007221A80BA791346DB009B1A194A1344174A5360BB79BA7917498A5CD2B242F00102D1B2144AD15400F0E2FA0346FB7116E0BB790D4A9278D2B291B20F4A22F84F
:401240001310BB79BA790C498A5CD2B242F00202D1B2094AD15400F069FB0346FB7100BFFB7918460837BD4680BD00BF00600040E082FF1FCC80FF1FBC82FF1FD082FF1FC6
:4012800080B485B000AF0346FB710023FB73FF23BB7317E0FB7B104AD35C7B737A7B0F4913465B0013449B000B440A331B78DBB2FA799A4203D1FB7BBB730223FB73FB7B2D
:4012C0000133FB73FB7B012BE4D9BB7B18461437BD4680BC704700BFC482FF1FFC82FF1F80B584B000AF78600B467B80144B1B781A46144B9B5CFB73FA7B134913465B0082
:4013000013449B000B4408331B889BB27A889A420CD9FA7B0C4913465B0013449B000B4408331B887B80002001F07CFC7A88FB7B79681846FFF7AEFE00BF1037BD4680BDBE
:40134000A981FF1FC082FF1FFC82FF1F80B500AF054B1B781A46054B9B5CDBB21846FFF783FE0346184680BDA981FF1FC082FF1F80B485B000AF78600B46FB701346BB709D
:401380007B68DB7803F00303FB737B689B785BB2002B1ADAFB7B032B0AD0BB7803F001031449FA78CA54BB7843F00103BB701BE0BB789B08DBB203F001030F49FA78CA5407
:4013C000BB7843F00403BB700EE0FB7B032B0BD0BB785B08DBB203F001030849FA78CA54BB7843F00203BB70BB7818461437BD4680BC7047C082FF1FC482FF1FC882FF1F59
:4014000080B582B000AF374B1B78BB71BB7903F01003002B62D00123FB7197F90630002B12DABB7903F00F03012B02D00023FB711CE000F061F82C4B1B78DBB25BB2002B77
:4014400014DA0023FB7111E0BB7903F04003002B02D000F095F809E0BB7903F02003002B02D000F0B3F801E00023FB71FB79002B34D01C4B1B78BB7197F90630002B2DDB1D
:401480001A4B1B78DAB21A4B1B78DBB21343BB71184ABB791370174B1B78DBB2BA799A421CD1114B1B78FB710E4B1B78DBB223F07F03BB71BB79002B0AD10A4B0A4A127808
:4014C000D2B21A70074B1B78DBB203F00F03FB71054B1B78DBB2FA799A42E2D100BF0837BD4680BD28600040F582FF1F6A83FF1FF882FF1F2960004080B582B000AF1D4B04
:401500001B78FB711B4AFB7913701A4B1B78FB7197F90730002B03DA174AFB79137025E0022000F045FA154B1B78DBB203F06003202B08D0402B0BD0002B0ED100F0F8FA44
:401540000346FB710CE002F0A3FA0346FB7107E001F000FB0346FB7102E00023FB7100BFFB79002B02D1044B03221A7000BF0837BD4680BD28600040F582FF1F0060004023
:4015800080B500AF104B1B78DBB2062B19D801A252F823F0C3150000C3150000B1150000C3150000B7150000C3150000BD15000000F0F8F806E000F0A7F903E000F0D2F9F2
:4015C00000E000BF00BF80BDD882FF1F80B500AF124B1B78DBB2062B1DD801A252F823F01716000017160000FD1500001716000003160000171600000916000000F0D8F893
:401600000AE000F027F907E0032000F0D1F9044B03221A7000E000BF00BF80BDD882FF1FF582FF1F80B483B000AF0023FB71294B1B78DBB29AB2284B1B889BB213449AB2BB
:40164000254B1A8015E02549FB79254A52681278D2B2CA54224B5B680133214A5360FB790133FB711E4B1B889BB2013B9AB21C4B1A801B4B1B889BB2002B02D0FB79072BC3
:40168000E1D9144B1B78DBB2082B02D0FB79002B0FD0144B1B78DBB283F07F03DB43DAB2104B1A70104B0F221A70104B02221A7005E00D4B02221A700C4B02221A700C4A06
:4016C000FB791370034AFB79137000BF0C37BD4680BC7047D482FF1FD682FF1F00600040E082FF1F6A83FF1FF582FF1FD882FF1FF882FF1F80B582B000AF164B1B889BB296
:40170000002B02D100F02EF81EE0134B02221A70124B00221A7000F06BF9114BDB79DBB29BB21B029AB20E4B9B79DBB29BB21343FB80084B1B889BB2FA889A4202D2054A5F
:40174000FB881380FFF76EFF012318460837BD4680BD00BFE082FF1FD882FF1F6A83FF1F0060004080B400AF094B02221A70094B80221A70084B0F221A70084B00221A701B
:40178000074B00221A7001231846BD4680BC7047D882FF1F6A83FF1FF582FF1FD482FF1FF882FF1F80B500AFFFF73CFF00BF80BD80B500AF0A4B1B78DBB29AB2094B1B88E2
:4017C0009BB213449AB2074B1A80074B00221A70012000F0EDF8054B03221A7000BF80BDD482FF1FD682FF1FD882FF1FF582FF1F80B582B000AF124B04221A70114B802206
:401800001A7000F0F5F8104BDB79DBB29BB21B029AB20D4B9B79DBB29BB21343FB800B4B1B889BB2FA889A4202D2084AFB881380074B0B221A70012318460837BD4680BD4E
:40184000D882FF1F6A83FF1F00600040E082FF1FF582FF1F80B483B000AF0023BB71234B1B78DBB203F00F03DBB2023BFB71FB799AB21F4B1B889BB213449AB21C4B1A8044
:4018800018E01C4B5B681C49BA798A5CD2B21A70184B5B680133174A5360BB790133BB71FB79013BFB71134B1B889BB2013B9AB2104B1A800F4B1B889BB2002B02D0FB79D6
:4018C000002BDED10D4AFB7913700D4B1B78DBB283F07F03DB43DAB2094B1A70094B0B221A7000BF0C37BD4680BC704729600040D682FF1FE082FF1F00600040F882FF1FD1
:401900006A83FF1FF582FF1F80B500AF054B00221A70012000F04CF8034B03221A7000BF80BD00BFD882FF1FF582FF1F80B400AF084B06221A70084B06221A70074B80222C
:401940001A70074B00221A7001231846BD4680BC704700BFD882FF1FF582FF1F6A83FF1FF882FF1F80B500AF0D4B1B78DBB2002B0AD00C4A0A4B1B78DBB263F07F03DBB26A
:401980001370074B00221A70074B00221A70012000F00EF8054B03221A7000BF80BD00BFF682FF1F08600040D882FF1FF582FF1F80B483B000AF0346FB710B4B9B68002B3D
:4019C0000CD0094B9B68FA791A70074B9B68074A128892B25A80044B00229A6000BF0C37BD4680BC704700BFE082FF1FD682FF1F80B400AF094B00221A80094B9B68002BCC
:401A000007D0074B9B6800221A70054B9B6800225A8000BFBD4680BC704700BFD682FF1FE082FF1F80B400AF0D4B01221A700D4B9B7C0D4B1B7BDBB203F00303012B08D046
:401A4000094BDB7BDBB283F07F03DB43DAB2064BDA73054B01225A7300BFBD4680BC70470B600040FC5F0040FC82FF1F80B400AF0E4B02221A700E4B93F822300D4B1B7E0A
:401A8000DBB203F00303012B08D00A4BDB7EDBB283F07F03DB43DAB2064BDA76054B01225A7600BFBD4680BC704700BF0B600040FC5F0040FC82FF1F80B400AF104B042224
:401AC0001A70104B93F832300F4B93F82430DBB203F00303012B0AD00B4B93F82730DBB283F07F03DB43DAB2074B83F82720064B012283F8252000BFBD4680BC704700BF2F
:401B00000B600040FC5F0040FC82FF1F80B400AF00BFBD4680BC704780B500AFFFF770FA00BF80BD80B500AF01F03EF800BF80BD80B586B000AF0023FB759D4B1B78FB7150
:401B400000233B619B4B00221A8097F90730002B80F20481964B5B78DBB20A2B00F21B8201A252F823F000BFB31C0000971F0000971F0000971F0000971F0000971F0000FA
:401B8000951B0000971F0000271D0000971F00003D1D0000864BDB78DBB2012B0ED100F049FEB860BB685B68824A5360814B12221A80FFF79FFD0346FB75EEE17C4BDB782D
:401BC000DBB2022B25D17A4B9B78DBB2184600F009FEB860BB68002B00F0DF81BB685B68744A5360734B5B6803331B78DBB29BB21B029AB26F4B5B6802331B78DBB29BB2C2
:401C000013439AB26B4B1A80FFF774FD0346FB75C3E1674BDB78DBB2032B45D10023FB73654B3B6109E03B691B78BB71BB793A6913443B61FB7B0133FB735D4B9B78DBB2C5
:401C4000FA7B9A4204D23B691B78DBB2002BEAD1574B9B78DBB2EE2B01D1584B3B61544B9B78DBB2002B0BD0514B9B78DAB2544B1B7C9A4204D1534800F0ACF9514B3B6158
:401C80003B691B78DBB2002B00F087813B691B78DBB29AB2474B1A80464A3B695360FFF729FD0346FB7578E101F0F2FE0346FB7573E1FB7903F00303002B20D0022B00D079
:401CC00030E03C4B02221A80394B1B79DBB203F07F023D4913465B0013449B000B4402331B78DAB2394B1A70384B00225A70314B364A5A60FFF7FEFC0346FB7512E02D4B61
:401D000002221A80324B1B78DAB2304B1A702F4B00225A70274B2D4A5A60FFF7EBFC0346FB7500BF40E1234B01221A80214B294A5A60FFF7DFFC0346FB7535E11D4B0122D6
:401D40001A801B4B1B79DBB21A46234B1344194A5360FFF7CFFC0346FB7525E1144B5B78DBB2013B0A2B00F21A8101A252F823F07B1E00009F1F0000091F00009F1F00008D
:401D80009D1D00009F1F00009F1F00009F1F0000E11D00009F1F0000371E0000044B9B78DAB20E4B1A70FFF7C1FD0346FB75FBE000600040E082FF1FC04B0000C84C0000C6
:401DC000684B00007083FF1FFC82FF1FAC81FF1FF982FF1FF782FF1F6883FF1FF682FF1F744B9B787B717B79002B06D07B79013BDBB2184600F0F6FCB8607B79002B02D0B0
:401E0000BB68002B03D17B79002B40F0CA806A4B1B78DBB27A799A4208D0674A7B791370664B01221A70012000F0DCF9FFF77EFD0346FB75B5E000F055FE0346002B00F099
:401E4000B2805C4B1B793B715A4B1B79DAB25C4B1A703B795B4AD35CDAB23B795A49CB5CDBB29A4204D0554B01221A7000F08CFBFFF75CFD0346FB7595E0FB7903F00303D6
:401E8000012B20D0012B0CD3022B00D03BE0494B9B78DBB2002B31D100F078FD0346FB752CE0444B9B78DBB2012B29D1474B1B78DBB223F00203DAB2444B1A70FFF736FD6B
:401EC0000346FB751CE03B4B1B79DBB2012B19D8384B9B78DBB2DB43DBB2364A1279D2B2114610463A4A125CD2B21340DAB2384B5A54FFF71BFD0346FB7503E000BF53E03D
:401F000000BF51E000BF4FE0FB7903F00303012B20D0012B0CD3022B00D03BE0254B9B78DBB2002B31D100F0BDFC0346FB752CE0204B9B78DBB2012B29D1244B1B78DBB2AC
:401F400043F00203DAB2214B1A70FFF7EFFC0346FB751CE0174B1B79DBB2012B19D8154B9B78DBB2DB43DBB2124A1279D2B211461046174A125CD2B21340DAB2144B5A546F
:401F8000FFF7D4FC0346FB7503E000BF0CE000BF0AE000BF08E000BF06E000BF04E000BF02E000BF00E000BFFB7D18461837BD4680BD00BF00600040F782FF1FF482FF1F8E
:401FC000EC82FF1FDC82FF1F6883FF1FF982FF1F6C83FF1FB0B58AB000AF7860324B07F114041D460FCD0FC42B682370002387F826307B68002B52D07B6822221A707B6883
:40200000013303221A7007F10C03184600F076FE022387F827303EE097F827307A68134497F8262007F128010A4412F81C2C1209D2B207F128010A4412F8142C1A7097F8B5
:40204000273001337A68134400221A7097F8273002337A68134497F8262007F128010A4412F81C2C02F00F0207F128010A4412F8142C1A7097F8273003337A681344002249
:402080001A7097F82630013387F8263097F82730043387F8273097F82730212BBCD900BF2837BD46B0BD00BF544B000090B482B000AF0123FB7180E0464AFB791B01134476
:4020C0000C221A70FA79444913465B0013449B000B4405331B78DBB2002B1CD0FA793E4913465B0013449B000B4404331B78DBB25BB2002B07DA394AFB791B0113440233C6
:402100000C221A700EE0354AFB791B011344023308221A7006E0314AFB791B011344023380221A702B48F979FA792B4C13465B0013449B00234406331B889BB2DAB20B0164
:40214000034406331A702348F979FA79224C13465B0013449B00234406331B889BB21B0A9BB2DAB20B01034407331A701948F979FA79194C13465B0013449B00234406335B
:402180001B889BB2DAB20B01034404331A701148F979FA79104C13465B0013449B00234406331B889BB21B0A9BB2DAB20B01034405331A70FB790133FB71FB79082B7FF67C
:4021C0007BAF074BFF221A7000BF0837BD4690BC704700BF70600040FC82FF1FFC5F00400A60004080B58AB000AF0346FB7100237B84002387F8273050E097F82720B34914
:4022000013465B0013449B000B4400221A7097F82720AE4913465B0013449B000B44023300221A7097F82720A84913465B0013449B000B44033300221A7097F82720A349FA
:4022400013465B0013449B000B44083300221A8097F827209D4913465B0013449B000B440A3300221A7097F82720984913465B0013449B000B44013300221A7097F8272076
:40228000924913465B0013449B000B44053300221A7097F82730013387F8273097F82730082BAAD9FB79002B16D0002387F825300EE097F82530864A0021D15497F8253096
:4022C000844A0021D15497F82530013387F8253097F82530012BECD97F4B1B78DBB2002B00F04A810023FB767B4B1B78DBB2013BDBB2184600F076FA78617B695B683B611C
:402300003B6907331B7803F04003002B08D0734B1B78DBB243F00103DAB2704B1A7007E06E4B1B78DBB223F00103DAB26B4B1A707B6908337B617B691B7887F827300123FE
:4023400087F82530B6E07B695B68FB61002387F82630A3E097F82520FB699B7803F07F039A4240F0938097F82520584913465B0013449B000B4408331B889AB2FB699B887B
:402380009A420CD297F82520FB6998884F4913465B0013449B000B44083302461A80FB691B781A464A4B9B5CDAB2FB695B789A426CD197F82520FB699878444913465B0019
:4023C00013449B000B44043302461A7097F82520FB69D8783D4913465B0013449B000B4402461A70FB69DB7803F00303FB73FB699B785BB2002B1CDA97F82520FB7B012B85
:4024000001D1072000E00D20304913465B0013449B000B44053302461A7097F825202B4913465B0013449B000B44013301221A701BE097F82520FB7B012B01D1052000E0B8
:402440000920224913465B0013449B000B44053302461A7097F825201C4913465B0013449B000B44013300221A70FB699B790A2B03D0FB699B79022B08D1FA7E97F8253061
:402480001946F869FEF774FF0346FB76FB690833FB6197F82630013387F8263097F8262097F827309A42FFF455AF97F82530013387F8253097F82530082B7FF644AF7B6974
:4024C0005B68FB61002387F8253020E0FC82FF1F6883FF1FDC82FF1FF782FF1FF982FF1FFB699B7803F07F02FB691878244913465B0013449B000B440A3302461A70FB69C1
:402500000833FB6197F82530013387F8253097F8252097F827309A42E2D300F09DF90246184B1A6000237B84012387F827301DE097F82720124913465B0013449B000B44E3
:4025400006337A8C1A8097F827200D4913465B0013449B000B4408331B889AB27B8C13447B8497F82730013387F8273097F82730082BDDD9FFF79AFD00BF2837BD4680BD30
:40258000FC82FF1FF082FF1F90B585B000AF8F4B1B78DBB2002B00F015818C4B1B78DBB2013BDBB2184600F01DF978607B6808337B607B681B78FB707B685B68BB60844BB5
:4025C0001B78BB700023FB73F7E0BB681B78BA789A4240F0EC80BB787E4AD35CDAB2BB685B789A4240F0E380BB689B7803F07F037B70BB68DB7803F003033B707A787649D9
:4026000013465B0013449B000B44033300221A707A78BB689878704913465B0013449B000B44043302461A707A78BB68D8786A4913465B0013449B000B4402461A707A7816
:40264000BB689888644913465B0013449B000B44083302461A80BB689B785BB2002B1ADA7A783B78012B01D1072000E00D205A4913465B0013449B000B44053302461A707D
:402680007A78554913465B0013449B000B44013301221A7019E07A783B78012B01D1052000E009204C4913465B0013449B000B44053302461A707A78474913465B001344C9
:4026C0009B000B44013300221A70444A7B781B011344023301221A70404879787A783E4C13465B0013449B00234408331B889BB21B0A9BB2DAB20B0103441A7037487978C2
:402700007A78354C13465B0013449B00234408331B889BB2DAB20B01034401331A70304879787A782C4C13465B0013449B00234406331B889BB2DAB20B01034406331A70A6
:40274000274879787A78244C13465B0013449B00234406331B889BB21B0A9BB2DAB20B01034407331A701E4879787A781A4C13465B0013449B00234406331B889BB2DAB2DB
:402780000B01034404331A70154879787A78124C13465B0013449B00234406331B889BB21B0A9BB2DAB20B01034405331A70BB680833BB60FB7B0133FB73FA7BFB789A42C9
:4027C000FFF403AF00BF1437BD4690BDF782FF1FEC82FF1F6883FF1FFC82FF1FFC5F00407060004080B485B000AF0346FB710F4B1B78DBB20E4ADB0013445B68FB60FB6815
:402800001033FB60FB681B78FA799A4202D30023FB6005E0FB79DB00FA6813445B68FB60FB6818461437BD4680BC7047D582FF1FC04C000080B400AF054B1B78DBB2054A32
:40284000DB0013445B681846BD4680BC704700BFD582FF1FC04C000080B584B000AF104B1B78DBB2013BDBB21846FFF7BBFFB860BB68002B0DD0BB685B681B79FB71FB79C8
:402880000233DB00BA681344BB60BB685B68FB6001E00023FB60FB6818461037BD4680BDF782FF1F80B582B000AF0023FB71344B1B79DBB203F07F03BB71BB79002B5AD086
:4028C000BB79082B57D8BA79B9792E480B465B000B449B00034402331B78DBB243F00103D8B2284913465B0013449B000B44023302461A70BA79234913465B0013449B00C2
:402900000B44033300221A70BA79B9791D480B465B000B449B00034401331B78DBB243F00203D8B2174913465B0013449B000B44013302461A70BA79124913465B001344B5
:402940009B000B4404331B78DBB25BB2002B07DA0D4ABB791B01134402338D221A7006E0094ABB791B011344023389221A70FEF7DDFF0346FB71FB7918460837BD4680BD70
:4029800000600040FC82FF1FFC5F004080B582B000AF0023FB71504B1B79DBB203F07F03BB71BB79002B00F09280BB79082B00F28E80BA79B97949480B465B000B449B00EA
:4029C000034402331B78DBB223F00103D8B2434913465B0013449B000B44023302461A70BA793E4913465B0013449B000B44033300221A703A49BB793948BA7912010244BD
:402A00001278D2B202F07F02D2B21B010B441A70BA79B97931480B465B000B449B00034401331B78DBB223F00203D8B22B4913465B0013449B000B44013302461A70BA7949
:402A4000264913465B0013449B000B4404331B78DBB25BB2002B1BDABA79204913465B0013449B000B4401331B78DBB2012B07D11B4ABB791B01134402330C221A7022E08A
:402A8000174ABB791B01134402330D221A701AE0BA79124913465B0013449B000B4401331B78DBB2012B07D10D4ABB791B011344023308221A7006E0094ABB791B01134484
:402AC000023309221A70FEF731FF0346FB71FB7918460837BD4680BD00600040FC82FF1FFC5F004080B584B000AF0023FB73154B1B79BB73144B1B78DBB2013BDBB2184679
:402B0000FFF770FEB860BB685B681B79FB71BA7BFB799A4202D9BB7B022B0ED8BB7BBA7B0A498A5CD1B20A4AD154BB7B054A9278D1B2064AD1540123FB73FB7B18461037B6
:402B4000BD4680BD00600040F782FF1F6883FF1FDC82FF1F80B582B000AF0023FB710F4B1B78DBB25BB2002B12DA0C4B5B78DBB2012B00D00CE00A4B0A4A5A60094B1B782D
:402B80009AB2074B1A80FEF7B5FD0346FB7100BFFB7918460837BD4680BD00BF00600040E082FF1FDC4C000080B400AF054B1B78DBB203F040039B09DBB21846BD4680BC13
:402BC000704700BF8F45004080B483B000AF134B7F221A70124B80221A707F23FB710CE0FB79DB0003F1804303F5F043FA79013AD2B21A70FB79013BFB71FB79002BEFD1C1
:402C0000FB79DB0003F1804303F5F04300221A7000BF0C37BD4680BC704700BFE980FF1FE880FF1F80B483B000AF0346FB7101BE00BF0C37BD4680BC704700BF80B582B04B
:402C400000AF0346FB80FB88054A127802FB03F3184600F00DFF00BF0837BD4680BD00BFF880FF1F80B584B000AF03463960FB710F4B1B68FB60FB791F2B02D90020FFF758
:402C8000D1FFFB7903F01F0310339B00FA6813441B68BB60FB7903F01F0310339B00FA6813443A681A60BB6818461037BD4680BD08ED00E080B582B000AF03460A46FB7152
:402CC0001346BB71BB79072B02D90020FFF7AAFFFB791F2B02D90020FFF7A4FFFB7903F01F0303F1604303F56443BA795201D2B21A7000BF0837BD4680BD00BF80B483B046
:402D000000AF7860264B1B78DBB21A467B681A60244B1B78DBB21B027A6812681A437B681A60214B1B78DBB21B047A6812681A437B681A601D4B1B78DBB21B067A68126836
:402D40001A437B681A607B680433194A1278D2B21A60184B1B78DBB21A027B6804337968043109680A431A60134B1B78DBB21A047B6804337968043109680A431A600F4B2F
:402D80001B78DBB21A067B6804337968043109680A431A6000BF0C37BD4680BC704700BF0301004904010049EC460040020100490101004900010049050100490601004927
:402DC00080B500AF064B1B78002B04D100F00AF8034B01221A7000F063F800BF80BD00BFAE81FF1F80B582B000AF284A274B1B78DBB243F00203DBB21370254B1B78DBB2D9
:402E000023F07003FB71224AFB7943F01003DBB21370204A1F4B1B78DBB223F03003DBB213701C4A1B4B1B78DBB243F03003DBB21370184A174B1B78DBB223F00F03DBB228
:402E40001370144A134B1B78DBB243F00F03DBB21370FF2000F048F8322000F055F8002000F062F80C4A0C4B1B78DBB243F00103DBB21370094A094B1B78DBB243F0010344
:402E8000DBB2137000BF0837BD4680BD004F0040024F00400B4F0040A3430040014F004080B400AF0D4A0D4B1B78DBB243F00103DBB213700A4A0A4B1B78DBB243F001035B
:402EC000DBB21370074A074B1B78DBB243F00103DBB2137000BFBD4680BC7047A3430040B3430040004F004080B483B000AF0346FB71044BFA7992B21A8000BF0C37BD46A8
:402F000080BC7047044F004080B483B000AF0346FB71044BFA7992B21A8000BF0C37BD4680BC7047064F004080B483B000AF0346FB71044AFB79137000BF0C37BD4680BCC2
:402F4000704700BF034F004080B400AF034B1B889BB2DBB21846BD4680BC7047064F004080B400AF034B1B889BB2DBB21846BD4680BC7047044F004080B500AF064B1B7855
:402F8000002B04D100F00AF8034B01221A7000F063F800BF80BD00BFAF81FF1F80B582B000AF284A274B1B78DBB243F00203DBB21370254B1B78DBB223F07003FB71224A80
:402FC000FB7943F01003DBB21370204A1F4B1B78DBB223F03003DBB213701C4A1B4B1B78DBB243F03003DBB21370184A174B1B78DBB223F00F03DBB21370144A134B1B78F3
:40300000DBB243F00F03DBB21370FF2000F048F8322000F055F8002000F062F80C4A0C4B1B78DBB243F00203DBB21370094A094B1B78DBB243F00103DBB2137000BF083745
:40304000BD4680BD0C4F00400E4F0040174F0040A34300400D4F004080B400AF0D4A0D4B1B78DBB243F00203DBB213700A4A0A4B1B78DBB243F00203DBB21370074A074BC2
:403080001B78DBB243F00103DBB2137000BFBD4680BC7047A3430040B34300400C4F004080B483B000AF0346FB71044BFA7992B21A8000BF0C37BD4680BC7047104F0040FB
:4030C00080B483B000AF0346FB71044BFA7992B21A8000BF0C37BD4680BC7047124F004080B483B000AF0346FB71044AFB79137000BF0C37BD4680BC704700BF0F4F004067
:4031000080B400AF034B1B889BB2DBB21846BD4680BC7047124F004080B500AF064B02221A6006490120FFF79DFD07210120FFF7C1FD00BF80BD00BF80E100E08532000069
:4031400080B582B000AF0F2000F088F800F078F800F096FC0346FB71094A094B1B78DBB243F01003DBB21370FB79184600F08CFC044B02221A6000BF0837BD4680BD00BFB2
:403180009765004000E100E080B500AF00F0E0F94FF4004000F00AFA074B00221A60074B1B78002B04D1FFF7B7FF044B01221A70FFF7C6FF00BF80BDB481FF1FB081FF1F1A
:4031C00080B582B000AF0D4B02221A6000F0FEF90346FB80FB88A3F500439BB2BB80B7F90420074B1B6813443B60064B02221A603B6818460837BD4680BD00BF80E100E028
:40320000B481FF1F00E100E080B582B000AF7860084B02221A604FF4004000F0C7F9064A7B681360054B02221A6000BF0837BD4680BD00BF80E100E0B481FF1F00E100E082
:4032400080B400AF044B1B78DBB203F00F03DBB21846BD4680BC70476765004080B483B000AF0346FB71FB7943F00703FB71044AFB79137000BF0C37BD4680BC704700BF26
:403280008765004080B483B000AF144B1B78FB71FB7903F00103002B07D0114B1B6803F5FF437F330E4A13600AE0FB7903F00203002B05D00A4B1B68A3F50043084A13609D
:4032C000FB7903F00403002B02D0054B00221A6000BF0C37BD4680BC704700BF67650040B481FF1F80B500AF064B04221A6006490220FFF7B7FC07210220FFF7DBFC00BF9C
:4033000080BD00BF80E100E05134000080B582B000AF0F2000F088F800F078F800F0B0FB0346FB71094A094B1B78DBB243F01003DBB21370FB79184600F0A6FB044B042271
:403340001A6000BF0837BD4680BD00BF9464004000E100E080B500AF00F0D2F94FF4004000F0FCF9074B00221A60074B1B78002B04D1FFF7B7FF044B01221A70FFF7C6FFA0
:4033800000BF80BDBC81FF1FB881FF1F80B582B000AF0D4B04221A6000F0F0F90346FB80FB88A3F500439BB2BB80B7F90420074B1B6813443B60064B04221A603B68184641
:4033C0000837BD4680BD00BF80E100E0BC81FF1F00E100E080B582B000AF7860084B04221A604FF4004000F0B9F9064A7B681360054B04221A6000BF0837BD4680BD00BF99
:4034000080E100E0BC81FF1F00E100E080B400AF044B1B78DBB203F00F03DBB21846BD4680BC70476464004080B483B000AF0346FB71FB7943F00703FB71044AFB791370C2
:4034400000BF0C37BD4680BC704700BF8464004080B483B000AF144B1B78FB71FB7903F00103002B07D0114B1B6803F5FF437F330E4A13600AE0FB7903F00203002B05D0A0
:403480000A4B1B68A3F50043084A1360FB7903F00403002B02D0054B00221A6000BF0C37BD4680BC704700BF64640040BC81FF1F80B582B000AF1C4B1B78DBB223F0070369
:4034C000FB71194AFB791370174B1B78DBB223F00303FB71144AFB79137000F0B3F84FF4004000F08FF84FF4004000F05FF8002000F040F800F04EF84FF4004000F092F8D0
:4035000000F0BEFA0346BB71084A084B1B78DBB243F01003DBB21370BB79184600F0B4FA00BF0837BD4680BD746400409465004080B400AF054A054B1B78DBB263F07F031D
:40354000DBB2137000BFBD4680BC70477464004080B500AF064B1B78002B04D1FFF7A8FF034B01221A70FFF7E3FF00BF80BD00BFC081FF1F80B483B000AF0346FB71044A03
:40358000FB79137000BF0C37BD4680BC704700BF8465004080B400AF034B1B78DBB21846BD4680BC704700BF6465004080B483B000AF0346FB80044AFB88138000BF0C3787
:4035C000BD4680BC704700BF146A004080B400AF044B1B78044B1B889BB21846BD4680BC704700BF0A650040946A004080B400AF034B1B889BB21846BD4680BC704700BF20
:40360000946A004080B483B000AF0346FB80044AFB88138000BF0C37BD4680BC704700BF546A004080B483B000AF0346FB80044AFB88138000BF0C37BD4680BC704700BF64
:40364000746A004080B500AF01E0FFF7CFFFFFF7A1FF034603F04003002BF6D100BF80BD80B582B000AF1C4B1B78DBB223F00703FB71194AFB791370174B1B78DBB223F08B
:403680000303FB71144AFB79137000F0B3F84FF4004000F08FF84FF4004000F05FF8002000F040F800F04EF84FF4004000F092F800F0E6F90346BB71084A084B1B78DBB260
:4036C00043F01003DBB21370BB79184600F0DCF900BF0837BD4680BD796400409964004080B400AF054A054B1B78DBB263F07F03DBB2137000BFBD4680BC7047796400402C
:4037000080B500AF064B1B78002B04D1FFF7A8FF034B01221A70FFF7E3FF00BF80BD00BFC181FF1F80B483B000AF0346FB71044AFB79137000BF0C37BD4680BC704700BF6F
:403740008964004080B400AF034B1B78DBB21846BD4680BC704700BF6964004080B483B000AF0346FB80044AFB88138000BF0C37BD4680BC704700BF106A004080B400AF19
:40378000044B1B78044B1B889BB21846BD4680BC704700BF08650040906A004080B400AF034B1B889BB21846BD4680BC704700BF906A004080B483B000AF0346FB80044A58
:4037C000FB88138000BF0C37BD4680BC704700BF506A004080B483B000AF0346FB80044AFB88138000BF0C37BD4680BC704700BF706A004080B500AF01E0FFF7CFFFFFF774
:40380000A1FF034603F04003002BF6D100BF80BD80B500AF214A214B1B78DBB203F00103DBB213701E4A1E4B1B78DBB223F00303DBB213701B4A1B4B1B78DBB223F030034E
:40384000DBB21370174A174B1B78DBB243F03003DBB21370134A134B1B78DBB223F00F03DBB213700F4A0F4B1B78DBB243F00F03DBB213700C4A0C4B1B78DBB243F00103A3
:40388000DBB21370312000F063F8312000F072F8082000F041F800BF80BD00BF184F00401A4F0040234F0040194F004080B400AF0D4A0D4B1B78DBB243F00403DBB21370FF
:4038C0000A4A0A4B1B78DBB243F00403DBB21370074A074B1B78DBB243F00103DBB2137000BFBD4680BC7047A3430040B3430040184F004080B500AF064B1B78002B04D12B
:40390000FFF786FF034B01221A70FFF7CFFF00BF80BD00BFC281FF1F80B483B000AF0346FB71044AFB79137000BF0C37BD4680BC704700BF1B4F004080B400AF034B1B78FC
:40394000DBB21846BD4680BC704700BF1B4F004080B485B000AF0346FB71FB79FB81044AFB89138000BF1437BD4680BC704700BF1C4F004080B483B000AF0346FB71044B57
:40398000FA7992B21A8000BF0C37BD4680BC70471E4F004080B582B000AF786000F03CF8786800F009F8072000F018F800F028F800BF0837BD4680BD80B485B000AF7860C9
:4039C000054B1B68FB60FB688C337A681A6000BF1437BD4680BC704708ED00E080B483B000AF0346FB71054AFB795B01DBB2137000BF0C37BD4680BC704700BF13E400E0BE
:403A000080B400AF034B4FF400221A6000BFBD4680BC704700E100E080B400AF034B4FF400221A6000BFBD4680BC704780E100E080B485B000AF0346FB710B4B1B78DBB2B7
:403A400023F00803FB730849FB79DB00DBB203F00803DAB2FB7B1343DBB20B7000BF1437BD4680BC704700BF10510040000000000230800803D000BF01380046FCD1704780
:403A8000EFF3108072B6704780F31088704700BF80B582B000AF0023BB711B4B1B78DBB203F00303012B02D0022B04D012E0164B1B79FB7111E0144B1B79DBB203F07F0219
:403AC000124913465B0013449B000B440A331B78FB7102E00023FB7100BFFB79022B0ED80B4B1A68FB7913441B78022B04D1FDF755FB0346BB7102E00023BB7100BFBB796E
:403B000018460837BD4680BD00600040FC82FF1FF082FF1F81F0004102E000BF83F0004330B54FEA41044FEA430594EA050F08BF90EA020F1FBF54EA000C55EA020C7FEA2D
:403B4000645C7FEA655C00F0E2804FEA5454D4EB5555B8BF6D420CDD2C4480EA020281EA030382EA000083EA010180EA020281EA0303362D88BF30BD11F0004F4FEA013155
:403B80004FF4801C4CEA113102D0404261EB410113F0004F4FEA03334CEA133302D0524263EB430394EA050F00F0A780A4F10104D5F1200E0DDB02FA0EFC22FA05F28018C5
:403BC00041F1000103FA0EF2801843FA05F359410EE0A5F120050EF1200E012A03FA0EFC28BF4CF0020C43FA05F3C01851EBE37101F0004507D54FF0000EDCF1000C7EEBB7
:403C000000006EEB0101B1F5801F1BD3B1F5001F0CD349085FEA30004FEA3C0C04F101044FEA445212F5800F80F09A80BCF1004F08BF5FEA500C50F1000041EB045141EAC9
:403C4000050130BD5FEA4C0C404141EB010111F4801FA4F10104E9D191F0000F04BF01460020B1FA81F308BF2033A3F10B03B3F120020CDA0C3208DD02F1140CC2F10C02D1
:403C800001FA0CF021FA02F10CE002F11402D8BFC2F1200C01FA02F120FA0CFCDCBF41EA0C019040E41AA2BF01EB0451294330BD6FEA04041F3C1CDA0C340EDC04F11404FF
:403CC000C4F1200220FA04F001FA02F340EA030021FA04F345EA030130BDC4F10C04C4F1200220FA02F001FA04F340EA0300294630BD21FA04F0294630BD94F0000F83F4F8
:403D0000801306BF81F480110134013D4EE77FEA645C18BF7FEA655C29D094EA050F08BF90EA020F05D054EA000C04BF1946104630BD91EA030F1EBF0021002030BD5FEA11
:403D4000545C05D14000494128BF41F0004130BD14F580043CBF01F5801130BD01F0004545F0FE4141F470014FF0000030BD7FEA645C1ABF194610467FEA655C1CBF0B4628
:403D8000024650EA013406BF52EA033591EA030F41F4002130BD00BF90F0000F04BF0021704730B54FF4806404F132044FF000054FF0000150E700BF90F0000F04BF002136
:403DC000704730B54FF4806404F1320410F0004548BF40424FF000013EE700BF42004FEAE2014FEA31014FEA02701FBF12F07F4393F07F4F81F06051704792F0000F14BF3F
:403E000093F07F4F704730B54FF4607401F0004521F0004120E700BF50EA010208BF704730B54FF000050AE050EA010208BF704730B511F0004502D5404261EB41014FF452
:403E4000806404F132045FEA915C3FF4DCAE4FF003025FEADC0C18BF03325FEADC0C18BF033202EBDC02C2F1200300FA03FC20FA02F001FA03FE40EA0E0021FA02F1144442
:403E8000C1E600BF70B54FF0FF0C4CF4E06C1CEA11541DBF1CEA135594EA0C0F95EA0C0F00F0DEF82C4481EA030621EA4C5123EA4C5350EA013518BF52EA033541F480113A
:403EC00043F4801338D0A0FB02CE4FF00005E1FB02E506F00042E0FB03E54FF00006E1FB03569CF0000F18BF4EF0010EA4F1FF04B6F5007F64F5407404D25FEA4E0E6D4152
:403F000046EB060642EAC62141EA55514FEAC52040EA5E504FEACE2EB4F1FD0C88BFBCF5E06F1ED8BEF1004F08BF5FEA500E50F1000041EB045170BD06F0004646EA010181
:403F400040EA020081EA0301B4EB5C04C2BFD4EB0C0541EA045170BD41F480114FF0000E013C00F3AB8014F1360FDEBF002001F0004170BDC4F10004203C35DA0C341BDC7A
:403F800004F11404C4F1200500FA05F320FA04F001FA05F240EA020001F0004221F0004110EBD37021FA04F642EB06015EEA430E08BF20EAD37070BDC4F10C04C4F1200577
:403FC00000FA04F320FA05F001FA04F240EA020001F0004110EBD37041F100015EEA430E08BF20EAD37070BDC4F1200500FA05F24EEA020E20FA04F301FA05F243EA0203DF
:4040000021FA04F001F0004121FA04F220EA020000EBD3705EEA430E08BF20EAD37070BD94F0000F0FD101F00046400041EB010111F4801F08BF013CF7D041EA060195F0DC
:40404000000F18BF704703F00046520043EB030313F4801F08BF013DF7D043EA0603704794EA0C0F0CEA135518BF95EA0C0F0CD050EA410618BF52EA4306D1D181EA030153
:4040800001F000414FF0000070BD50EA410606BF1046194652EA430619D094EA0C0F02D150EA013613D195EA0C0F05D152EA03361CBF104619460AD181EA030101F0004147
:4040C00041F0FE4141F470014FF0000070BD41F0FE4141F4780170BD70B54FF0FF0C4CF4E06C1CEA11541DBF1CEA135594EA0C0F95EA0C0F00F0A7F8A4EB050481EA030E6D
:4041000052EA03354FEA013100F088804FEA03334FF0805545EA131343EA12634FEA022245EA111545EA10654FEA00260EF000419D4208BF964244F1FD0404F5407402D205
:404140005B084FEA3202B61A65EB03055B084FEA32024FF480104FF4002CB6EB020E75EB030E22BFB61A754640EA0C005B084FEA3202B6EB020E75EB030E22BFB61A754613
:4041800040EA5C005B084FEA3202B6EB020E75EB030E22BFB61A754640EA9C005B084FEA3202B6EB020E75EB030E22BFB61A754640EADC0055EA060E18D04FEA051545EA34
:4041C00016754FEA06164FEAC30343EA52734FEAC2025FEA1C1CC0D111F4801F0BD141EA00014FF000004FF0004CB6E711F4801F04BF01430020B4F1FD0C88BFBCF5E06F0C
:404200003FF6AFAEB5EB030C04BFB6EB020C5FEA500C50F1000041EB045170BD0EF0004E4EEA113114EB5C04C2BFD4EB0C0541EA045170BD41F480114FF0000E013C90E64E
:4042400045EA060E8DE60CEA135594EA0C0F08BF95EA0C0F3FF43BAF94EA0C0F0AD150EA01347FF434AF95EA0C0F7FF425AF104619462CE795EA0C0F06D152EA03353FF419
:40428000FDAE1046194622E750EA410618BF52EA43067FF4C5AE50EA41047FF40DAF52EA43057FF4EBAE12E74A0011D212F5001211D20DD56FF47873B3EB62520ED44FEAD5
:4042C000C12343F0004343EA505323FA02F070474FF00000704750EA013002D14FF0FF3070474FF0000070474FEA4102B2F1E04324BFB3F5001CDCF1FE5C0DD901F0004C4C
:404300004FEAC0024CEA5070B2F1004F40EB830008BF20F00100704711F0804F21D113F13872BCBF01F00040704741F480114FEA5252C2F11802C2F1200C10FA0CF320FA18
:4043400002F018BF40F001004FEAC1234FEAD32303FA0CFC40EA0C0023FA02F34FEA4303CCE77FEA625307D150EA01331EBF4FF0FE4040F44000704701F0004040F0FE40F0
:4043800040F40000704700BF80F0004002E000BF81F0004142001FBF5FEA410392EA030F7FEA226C7FEA236C6AD04FEA1262D2EB1363C1BFD218414048404140B8BF5B4204
:4043C000192B88BF704710F0004F40F4000020F07F4018BF404211F0004F41F4000121F07F4118BF494292EA030F3FD0A2F1010241FA03FC10EB0C00C3F1200301FA03F1DD
:4044000000F0004302D5494260EB4000B0F5000F13D3B0F1807F06D340084FEA310102F10102FE2A51D2B1F1004F40EBC25008BF20F0010040EA03007047490040EB0000F7
:4044400010F4000FA2F10102EDD1B0FA80FCACF1080CB2EB0C0200FA0CF0AABF00EBC25052421843BCBFD0401843704792F0000F81F4000106BF80F400000132013BB5E720
:404480004FEA41037FEA226C18BF7FEA236C21D092EA030F04D092F0000F08BF0846704790EA010F1CBF0020704712F07F4F04D1400028BF40F00040704712F100723CBF6A
:4044C00000F50000704700F0004343F0FE4040F4000070477FEA226216BF08467FEA23630146420206BF5FEA412390EA010F40F4800070474FF0000304E000BF10F0004368
:4045000048BF40425FEA000C08BF704743F0964301464FF000001CE050EA010208BF70474FF000030AE000BF50EA010208BF704711F0004302D5404261EB41015FEA010CAF
:4045400002BF84460146002043F0B64308BFA3F18053A3F50003BCFA8CF2083AA3EBC25310DB01FA02FC634400FA02FCC2F12002BCF1004F20FA02F243EB020008BF20F0D2
:404580000100704702F1200201FA02FCC2F1200250EA4C0021FA02F243EB020008BF20EADC7070474FF0FF0C1CEAD0521EBF1CEAD15392EA0C0F93EA0C0F6FD01A4480EA18
:4045C000010C400218BF5FEA41211ED04FF0006343EA501043EA5111A0FB01310CF00040B1F5000F3EBF490041EAD3715B0040EA010062F17F02FD2A1DD8B3F1004F40EB37
:40460000C25008BF20F00100704790F0000F0CF0004C08BF49024CEA502040EA51207F3AC2BFD2F1FF0340EAC250704740F400004FF00003013A5DDC12F1190FDCBF00F01D
:4046400000407047C2F10002410021FA02F1C2F1200200FA02FC5FEA310040F1000053EA4C0308BF20EADC70704792F0000F00F0004C02BF400010F4000F013AF9D040EA58
:404680000C0093F0000F01F0004C02BF490011F4000F013BF9D041EA0C018FE70CEAD15392EA0C0F18BF93EA0C0F0AD030F0004C18BF31F0004CD8D180EA010000F0004060
:4046C000704790F0000F17BF90F0004F084691F0000F91F0004F14D092EA0C0F01D142020FD193EA0C0F03D14B0218BF084608D180EA010000F0004040F0FE4040F40000BC
:40470000704740F0FE4040F4400070474FF0FF0C1CEAD0521EBF1CEAD15392EA0C0F93EA0C0F69D0A2EB030280EA010C49024FEA402037D04FF0805343EA111143EA1013A3
:404740000CF000408B4238BF5B0042F17D024FF4000C8B4224BF5B1A40EA0C00B3EB510F24BFA3EB510340EA5C00B3EB910F24BFA3EB910340EA9C00B3EBD10F24BFA3EB41
:40478000D10340EADC001B0118BF5FEA1C1CE0D1FD2A3FF650AF8B4240EBC25008BF20F0010070470CF0004C4CEA50207F32C2BFD2F1FF0340EAC250704740F400004FF0BB
:4047C0000003013A37E792F0000F00F0004C02BF400010F4000F013AF9D040EA0C0093F0000F01F0004C02BF490011F4000F013BF9D041EA0C0195E70CEAD15392EA0C0FEB
:4048000008D142027FF47DAF93EA0C0F7FF470AF084676E793EA0C0F04D14B023FF44CAF08466EE730F0004C18BF31F0004CCAD130F000427FF45CAF31F000437FF43CAF6F
:404840005FE700BF4FF0FF3C06E000BF4FF0010C02E000BF4FF0010C4DF804CD4FEA40024FEA41037FEA226C18BF7FEA236C11D001B052EA530C18BF90EA010F58BFB2EBC5
:40488000030088BFC81738BF6FEAE17018BF40F0010070477FEA226C02D15FEA402C05D17FEA236CE4D15FEA412CE1D05DF8040B704700BF844608466146FFE70FB5FFF7CD
:4048C000C9FF002848BF10F1000F0FBD4DF808EDFFF7F4FF0CBF012000205DF808FB00BF4DF808EDFFF7EAFF34BF012000205DF808FB00BF4DF808EDFFF7E0FF94BF0120B8
:4049000000205DF808FB00BF4DF808EDFFF7D2FF94BF012000205DF808FB00BF4DF808EDFFF7C8FF34BF012000205DF808FB00BF4FEA4002B2F1FE4F0FD34FF09E03B3EB87
:4049400012620DD94FEA002343F0004310F0004F23FA02F018BF404270474FF00000704712F1610F01D1420205D110F0004008BF6FF0004070474FF00000704742000ED2D3
:40498000B2F1FE4F0BD34FF09E03B3EB126209D44FEA002343F0004323FA02F070474FF00000704712F1610F01D1420202D14FF0FF3070474FF00000704700BF014B1868CA
:4049C000704700BF6081FF1F0E4B70B51E460E4C0025E41AA410A54204D056F8253098470135F8E700F0A2F9084B094C1E46E41AA4100025A54204D056F8253098470135FC
:404A0000F8E770BD384D0000384D0000384D0000404D0000931E222B10B50C4602D90020087010BD0A2A06D1002804DA2D230B704042012100E00021214400F01FF82046A6
:404A400010BDFFF7E7BF10B5431E0A44914204D011F8014B03F8014FF8E710BD03460244934202D003F8011BFAE77047034613F8012B002AFBD1181A01387047F0B58BB009
:404A800003460F466D461A4C04F1200E2E4620686168083403C674453546F7D1217920683171911E222930604FF0000001D938701CE07D1EB3FBF2F402FB14330AAE3344A9
:404AC00013F8283C411C05F8013F23460CB10846F0E77C543A18C11A8B4206DAF95C1478FC5402F801190133F5E738460BB0F0BD064D0000000000000D0A204D313A00003B
:404B00002D0000000D0A00000D0A204D323A00000D0A20656E64200D0A000000004F0040300040510040300000000140001000140140000800400140000A004C0140000214
:404B4000105001401000000000500140640F00481000000030313233343536373839414243444546000000001201000202000008B40432F2010001028001000009024300B8
:404B8000020101C032090400000102020103052400100104240202052406000105240100010705810308000A09040100020A00000407058202400000070503024000000047
:404BC000040309042C0343007900700072006500730073002000530065006D00690063006F006E0064007500630074006F00720010035500530042005500410052005400D1
:404C00003803430044004300200043006F006D006D0075006E00690063006100740069006F006E00200049006E007400650072006600610063006500260343004400430055
:404C400020004400610074006100200049006E00740065007200660061006300650000000203000000008103080002000100820240000A000100030240000A00020A00002B
:404C8000010000007C4B000003000000644C000000000000000000000000000000000000000000007C4C000001000000684B0000000000000000000001000000804C000030
:404CC00001000000A84C000012034D005300460054003100300030000100000028000000000104000100000000000000000143595553420000003030303031000000000038
:404D0000000000004300303132333435363738396162636465666768696A6B6C6D6E6F707172737475767778797A0000F8B500BFF8BC08BC9E4670474D000000690A0000C5
:404D4000F8B500BFF8BC08BC9E46704729000000604D0000C880FF1FA0000000300200000000000000C2010000000800C201000000080000A120000000000200000000004D
:404D8000807F0000030000000087930360EA00003C000000000030750000000000000000000000000000000000000000000000000000000000000000044D00000000000058
:404DC00000000000000000000000000000000000000000000000000000000000000000000000000000000000000000000000000000000000000000000081FF1F0000000014
:404E00000000000000000000000000000000000000000000000000000000000000000000000000000000000000000000000000000000000000000000000000000000000072
:404E40000000000000000000000000000000000000000000000000000000000000000000000000000000000000000000000000000000000000000000000000000000000032
:404E800000000000000000000000000000000000000000000000000000000000000000000000000000000000000000000000000000000000000000000000000000000000F2
:404EC00000000000000000000000000000000000000000000000000000000000000000000000000000000000000000000000000000000000000000000000000000000000B2
:020000040003F7
:0200000480007A
:4000000001450040084F004007520040015B0040056400400265004025000140360101402A02014044030140210401404B05014043060140470701402B0801404E0901402F
:400040004A0A0140530B0140430C0140570D0140590E0140370F01403B1401404F1501404D160140501701406618014052190140631A01404B1B01400E4001401641014070
:400080001C4201400F430140044401400945014013460140124701400B4801400C4901400F4C0140044D014006500140045101407E0201200A4B0D20164B1940224B25507E
:4000C0002E4B0020012008140910182819387C4027848072840F8838896F8D0F846F870F040A06700A600C600E1A124014041618180A1A30240128012C013001320636789F
:4001000038083A8056025713580459045B045C135D305F0182028A04AA01B202B401B604D804D904DB04DC11DF01018403080502070409150D060E05102211101410168156
:40014000179019881A401B081E051F6428102A802F2531023320341037A039083A013B883E815802683269106C086D807080710473088104824084028550881089088C0832
:400180008F08C057C2FEC4F7CA7ACC35CE9BD601E004E409E6020110032004010508080809200B100D02100211801340140415011A101B011D401E041F8021042202260137
:4001C00027082A082B042F02301F33FF38023E013F0456025739580459045B0C5C015D105F01D804D904DC11DF0100100180032005410608072009020B080C080E4A10017F
:4002000011021602171A1D031F01260428012B202C092D032EC82F24314235C0361037A938103A023B083C803D223E073F015D2066046D616E066F1574C1770A7F0292016A
:40024000930897029D029E809FB4A320A502A915AD80B080B104B720C0F7C2FAC4F9CAFACCF9CEF7D620D840DE10E20AE808EA05EE015280540F5604580459045B045C11E1
:400280005F01811089028A018D288F14910493109720993C9D349E049F08A303AE02B004B130B201B302B501B602B70CD804D90CDC11DF0100900320068107080820090273
:4002C0000C800E200F041102130414201540160817011C901D401E602550260427402A802F4031423321340235203604374038103A013B0D3C023DA0589059045B026202B3
:4003000073407F02841086028710882089409140930B9410964098029A889B089D609E04A081A103A320A610A702A802AB01C0D7C2EAC4FCCA88CCFDCEB7D60FD801DE10F2
:40034000E220E602EA20EC04EE0900FD01020202049E066007400B100D040F081094111C126014CF15101630183019041AC91B081E0F1F1C2073211C272029022F01310104
:40038000334034FF3502373C39203E103F105608580459045B045D905F0183018B028D088E0592029308960299049C019F08A101A402B001B103B304B402B604B708BE10F2
:4003C000BF44D401D80CD904DB0CDC91DD10DF010080050207200A210B400C010D800E280F801108170119011A051F2020A021012240240225D42682284029012D222E807D
:400400002F28319032013684372139823A103D103F8944804511460458405F9066907B028B808C128D108E4090109240935A9A089B409D249E049F02A101A340A702A8809D
:40044000AB40AF40C031C2FDC414CAF1CCFDCEFDD638D830DE08E040E281EA04EE0154185604580459045B045C115D305F0185088D0493049B059F08AF02B101B308B50464
:40048000B702BF14C031C106C50EC6C0C7B0C829C9FFCAFFCBFFCEF0CF44D00CD280D40FD804D904DA04DB04DC01DD03DF05E6C0EA40EB020188034004A005880805090112
:4004C0000C45104011081540174020402244230828022C042D9030803102322034413508384039083DC84140421048144C084D205020530259215A485C016104621065106F
:4005000066026702710279048A028C148D0590019198925093029420968499989C41A004A301A4F8A545A722A804AA01AF50C0EDC2BCC48CCA38CCDDCE5AD00AD204D68FDF
:40054000D8B6DE02E010E281E440E620EA08EE0203010410060809010E040F02100812121408150816101C081D081E111F0424042501300431083201330434183502360245
:40058000370139023A203E013F40580459045F0186028E0292019601A204A604A804B001B402B604BE51C035C106C204C402C6C0C7E0C828C9FFCAFFCBFFCC62CDA0CEF010
:4005C000CF41D00CD608D804D904DA04DB04DC10DD93DF01E640E702E910EA30EB10ED10EE10EF1200840140040806020AA50B080D020E800F2012201420152218041A61CB
:400600001D101E021F0121152220230228202B202C402D10308834013588368039623D88452247044E084F80560257105F50654066506F018702880889108B098F409009F6
:40064000918092109420970899089B449C489D409E509F01A004A120A2C8A348A430A545A702A908AC51AE01B001B210C0A5C23DC474CAA2CCDACE5DD0E0D230D630D8301B
:40068000E080E220E802EA20EE0101150241032A05080682072209400C410D030E820F0C12C313401540162C1810190F1D041F112003210F2204240326082B403010310F47
:4006C000320F34E0354036E0373039203A083B083E51580459045C335F018703880189DC8B228F20950997D0990C9B71A510A740A910ABACAD14B31FB401B5E0BB20BE10E2
:40070000D401D604D804D904DB04DC31DD30DF01002001080280038004040652070108480D020E200F4411CA142015011A041C801D201E201F4020082104221024182582E7
:40074000260C29042B062C342D013214342035403601370439883B143C143E023F4058105A4562027D027E40860290019181925893109420954096809788982499049B4465
:400780009C499D089E409F01A001A241A3CCA424A580A604A880A904AA10AE08AF10B004B221B610B780C0BEC275C43DCAAECCF6CEFED60FD801E208E840EA20EC800473A6
:4007C0000604087309010A0C0D0119011A081D0121012235240326142701284A29012A143010320F3460370138203A083E114002450449FF4A074BFF4C404D204EF04F05E1
:400800005008580459045A045C135D035F01604061A862406320800481048410850688CF89078A308B308CFC8E028F3191069243933194BC95319641970698FF99029E0C5A
:40084000A004A111A208A420A537A830A908AC08B070B108B326B480B507B63FB710B808BA80BB28BE14BF01D804D904DC33DF0100180540064007140A080C040D880E0C97
:400880000FA010A0120814011628170118141A501B041D401E821F182002240125082744284829082E042F44325036013714382039403E093FA040044904508051408208CF
:4008C00083408420871089018A048F10C0F6C2F2C4FECAE7CCECCEFCD004E080E4D0000A040C0705080C0C070D04121013021D02242028012A202C01300E31023201330489
:40090000342036103701380A3E143F05540F580459045B045F05823C8420860488018A028C1C9430960898029A019C019E42A02CA210A401A682A830AA04B003B23CB4400B
:40094000B680BA02D203D302D804D904DB04DC10DD10DF010060010202600301044005100680071009020D100E2210081203130416501720184019081A041B811CA01D1076
:400980001E22214422012E022F05318032023482380439803E4859805A1661246F0A7B0180C881088586878089208C048D048E1291209240930E94809580988299029A9AAF
:4009C0009B309E019F01A180A220A440A610A70AAC10AE06AF03C0FFC2E8C477CAB0CC99CE5AD60FD806DE08E203E40DE840EC20EE0A000202040701080209A30A050B5C0B
:400A00000C020D0E0E140FF0117F15961768180419C51A021B3A1E0821FE230130103208340635FF36013A203F105608580459045B045D905F01810183028414862988403D
:400A40008C1C8D018F04900D913892309560971098319A0C9B789D589E409F20A03DA140A308A560A602A708A829AA14AC40B03CB101B203B378B440B504B702B902BE1028
:400A8000D40FD604D804D904DB04DF0103250410054108210A020E080F0110401180132819121A201B041C101D411E081F20218022052324270828202B402C402D02304099
:400AC000320433313624372138803A013D103E803F8859125A845C605D105E206340670180408144830486128740884089108B0492C0930A9590962298839A089D069F23A1
:400B0000A010A140A202A340A614A70EAB40AC40B204B401B701C0D7C2CBC40FCA83CCEFCE79D61FD811E605E802EC0100B701FD0240030204C1057306120A070DCF0F30D1
:400B400010C011941224136014841530161017C91877199E1B60270F2A082C012EF230F033FF340F3F044036410249FF4AFF4BFF4DA04F015018580459045A045F016040D6
:400B8000628064406540668068406A806C406D206E808414860A88208C068E1890189206940A9614984E9C1EA040A840AA21B020B201B440B61EB820BE11C032C106C54EEA
:400BC000C6C3C702C81FC9FFCAFFCBFFCDAFCE07CF01D018D608D804D904DA04DB04DC10DD90DF01E040E280E440E540E680E840EA80EC40ED20EE80001002020310040135
:400C000005100710080409020A060C040E44108814011720181519011A021B101C081D321E401F20272029282B012F203204334034043616371038A03C013D043E4C4024B2
:400C4000442045204708484449044F205088521059806002820888418A0690A89504980899089B089C429D059E109F40A108A301A4C8A620A720AE04B108B408C077C27F15
:400C8000C4CACA4ECCEACEDCD066D224D608D808E080E420E604E842EC21EE1000FE02010C0E0EF010A3125C14961668187F260128C52A3A36FF3E404034410249FF4AFF55
:400CC0004BFF4DA04F015018580459045A045C105F016040628064406540668068406A806C406D206E80805D81088220867889018B028D08906691019208930294669502BE
:400D000096109709983B9D019F06A108A280A908AC40AE08AF10B080B278B303B407B518B704B820BB08C034C102C523C640C7CEC83BC9FFCAFFCBFFCDAFCE07CF01D018EB
:400D4000D608D804D904DA04DB04DD90DF01E040E280E440E540E680E840EA80EC40ED20EE80000102020401071009060A040C040D020E24100412201401168219801EA48B
:400D800025442624271129082B012C042D802E02320433403644370138A83C013D103E4040C84108448845084C204F01540256285D40668080608340855088028E288F01D6
:400DC00090A9914092489604980999089F40A10AA202A301A634AE01AF01B404B5E0C039C27EC496CABACCDACEBED0E7D610D810E210E6D0E840EC201308168031403301DB
:400E00003402364038083B103E808720C430CCF0CE70E2403020320234243880520867086C40754086028710940897109B289C029D409F01A640CCF0CE10D420D880E2500A
:400E40000402120814045A025D04634064108709881089048A018B409B289C249D409F01A420A648A804AF04B002C020C4C0D6C0D8C0E010E240EE901B041D0280208820F0
:400E80008F0490029B209C209D40A420A640AC04C630E280E81013048E04C408E40801200B805210840293049A04C002C208D404032007101B0825028F02938497209920E5
:400EC0009A04A402A708AB08AE10B310C00CC608C801E008EA040B210C024308440183018B04930497209A049B12A102A320A402AD20AF40C20ED006E604208086409002CC
:400F00009B20A304A640AD42C840E640E840EE105F206308671093109B20A304AF10B040B401D620D8C0EA1056045B02661083209A149B129C01A320AB08AE10B502D4024B
:400F4000D602D801EE08B001B710EC04EE02100311011A031B011C031D0100BF01FA020F100A00000B010000000000000A0003010B010A000004040004203100180000004D
:400F8000000000004000300000000000C0000000003F3F00340000000800140A0A0008000000000000FBFB00380000000001000000000000000000000000000000000000E8
:400FC00000000000000000000000000000000000000000000000000000000000000000000000000000000000000000000000000000000000000000000000000000000000F1
:4010000000000000000000000000000000000000000000000000000000000000000000000000000000000000000000000000000000000000000000000000000000000000B0
:401040000000000000000000000000000000000000000000000000000000000000000000000000000000000000000000000000000000000000000000000000000000000070
:401080000000000000000000000000000000000000000000000000000000000000000000000000000000000000000000000000000000000000000000000000000000000030
:0200000490006A
:0400000000004005B7
:0200000490105A
:04000000BC90ACAF55
:0200000490303A
:020000008E3838
:0200000490402A
:4000000000000000000000000000000000000000000000000000000000000000000000000000000000000000000000000000000000000000000000000000000000000000C0
:400040000000000000000000000000000000000000000000000000000000000000000000000000000000000000000000000000000000000000000000000000000000000080
:400080000000000000000000000000000000000000000000000000000000000000000000000000000000000000000000000000000000000000000000000000000000000040
:4000C0000000000000000000000000000000000000000000000000000000000000000000000000000000000000000000000000000000000000000000000000000000000000
:0200000490501A
:0C00000000012E16106900012E389EA190
:00000001FF