:400000000080002011000000310800003108000080B500AF024A034B1B68136000F012FCBC760040FA46004010B5054C237833B9044B13B10448AFF300800123237010BD97
:400040006881FF1F00000000AC460000084B10B51BB108490848AFF300800848036803B910BD074B002BFBD0BDE81040184700BF000000006C81FF1FAC460000C880FF1FDE
:400080000000000080B500AF034B01221A7000F051FD00BF80BD00BF9781FF1F80B500AF154B1B78002B0FD102F092FF03469AB2124B1A8002F0F8FF03469AB2104B1A80CE
:4000C0000D4B01221A7013E002F082FF03469AB20A4B5A8002F0E8FF03469AB2084B5A80054B00221A70074B01221A7003F02EFA03F04EFA00BF80BD9681FF1FA881FF1F6D
:400100000C82FF1F9881FF1FB0B584B000AF0346FB7102F051FE0346184603F0C7FF0346184603F087FC04460D46FB79184603F06FFC4FF000020F4B03F0FAFD02460B4636
:400140002046294603F0CAFC03460C461846214603F0D6FE0346FB73FB7B184602F00CFEFB7B184602F0D8FEFB7B18461037BD46B0BD00BF0000594080B596B000AF012079
:4001800003F082FA4FF46B73A7F84E3002F050FD02F01EFE642387F8573097F857301846FFF7B2FF0121002000F0F2FC0023A7F84C300023A7F84A304FF000033B654FF0E2
:4001C00000037B6402F0ECFE02F056FF524803F00DFA524800F0CCFB00F08AFC03F0B6F962B64F4B1B78012B7DD14E4B5A884D4B1B88D31AA7F84C304B4B5A884A4B1B88D0
:40020000D31AA7F84A30B7F84C30184603F04EFF03464649184604F055F803467B644449786C04F04FF803463B654249386D04F051F90346002B26D03E49386D03F084FE42
:400240000346184604F076F90346A7F84230B7F842300A2B05D997F857300A3B87F8573004E097F85730053B87F8573097F85730322B02D8372387F8573097F85730184624
:40028000FFF742FF2CE02B49386D04F005F90346002B25D0396D274803F056FE0346184604F048F90346A7F84030B7F840300A2B05D997F857300A3387F8573004E097F8F9
:4002C0005730053387F8573097F85730632B02D95F2387F8573097F857301846FFF714FF0F4B00221A70144B1B78012B7FF479AF386D04F0F9F83B460A22194604F07DF9F6
:400300003B46184600F01CF80C4800F019F80A4B00221A7065E700BF9D000000850000009881FF1FA881FF1F0C82FF1FDCAF9C448FC2F53C0000C8419781FF1FB04600000B
:4003400080B582B000AF786000BF00F037FF0346002BFAD07B683F3300221A707B683E3321221A70786804F05DF903469BB21946786800F0EDFE00BF0837BD4680BD00BF73
:4003800080B582B000AF786039603A680021786804F040F900BF0837BD4680BD80B584B000AFF860B9607A607A68B968F86804F026F900BF1037BD4680BD00BF80B483B063
:4003C00000AF0346FB71FEE780B487B000AF7860396000233B6100237B6127E07B699B007A6813441B68BB60BB68FB73BB6823F0FF03BB6014E03B695B003A6813441B78AB
:400400001A46BB68134419463B695B003A6813445B780B703B6901333B61FB7B013BFB73FB7B002BE7D17B6901337B617B692B2BD4D900BF1C37BD4680BC704780B582B006
:4004400000AF404B04221A803F4B18221A703F4B14221A803E4B18221A703E4B3B221A803D4B18221A703D4B81221A803C4B18221A703C4B4EF65F221A803B4B18221A7081
:400480003A4B4EF65F221A80394B1C221A70394B06221A70384B52221A70384B384A1278D2B21A70374B40F619121A80364B41F251221A800023FB7019237B6014E0FB786E
:4004C0005B00DAB2314B1B78DBB203F00103DBB21343DBB203F00303FB704FF4F07003F0F3F87B68013B7B607B68002B02D0FB78032BE4D17B68002B02D10320FFF75EFFA6
:40050000234B4FF480721A80214B07221A70214B00221A70204B48221A701D4B00221A701E4B00221A701E4B02221A701D4A1D4B1B78DBB243F03F03DBB2137000BF083736
:40054000BD4680BD80400040824000408440004086400040884000408A4000408C4000408E400040904000409240004094400040964000400043004000420040A14600408B
:400580000F0100492242004020420040254200400440004006400040084000400940004001400040A243004080B582B000AF214B1B78FB71204B1B78BB71204B1B787B719F
:4005C0001F4AFB7903F00703DBB213701D4AFB791B09DBB21370184ABB7943F00303DBB21370164A7B7943F00303DBB21370164B20221A70154B01221A70154B80221A70C0
:40060000144B01221A70144B20221A70134B20221A700A2002F04AFA084A7B791370064ABB7913700E4B44221A7000BF0837BD4680BD00BFCF010049F8460040F9460040CD
:400640006E5800406F5800400D5100402D51004001590040805A0040205B0040235B00407658004080B586B000AF72B6544B61221A70FFF7E3FE524B01221A700023FB7534
:4006800013E0FA7D13465B0013445B004D4A13443B613B691A683B699B889BB219461046FFF76EFEFB7D0133FB75FB7D062BE8D90023FB751CE0FA7D13469B0013445B005D
:4006C000414A1344FB60FB681B68BB60FB685B687B60FB681A7A5B7A1B0213437B807B881A467968B868FFF759FEFB7D0133FB75FB7D002BDFD035494FF09040FFF764FE7D
:4007000004213348FFF73CFE042232493248FFF745FE324B324A1A60324B314A1A60324A314B1B78DBB243F00203DBB213702F4A2E4B1B78DBB243F00203DBB213702C4A80
:400740002B4B1B78DBB243F04003DBB21370294A284B1B78DBB243F01003DBB21370082225492648FFF71AFE082225492548FFF715FE0A2224492548FFF710FE082224493E
:400780002448FFF70BFE0A2223492448FFF706FE082223492348FFF701FE234A224B1B78DBB243F00803DBB21370FFF7FDFE0E220F491E48FFF7F2FD00BF1837BD4680BD80
:4007C00000480040BC460000E8460000B000004800760040600F0048087600405800014004040084580201400350014013500140A0430040C2430040280F004802510040AC
:40080000300F0048C2510040380F0048F0510040440F0048125100404C0F004820510040580F00483251004022430040B043004080B500AF03F09EFE03461B680C2B00D1AB
:40084000FEE7FEE780B586B000AF224B7B61224B3B61204B7B6135E03B691B68FB603B695B68BB603B699B683B6000237B600CE0FB681A68BB681A60BB680433BB60FB685C
:400880000433FB607B6804337B607A683B689A42EED13B69DB683B6000237B6008E0BB6800221A60BB680433BB607B6804337B607A683B689A42F2D13B6910333B617B6975
:4008C000013B7B617B69002BC6D103F059FEFFF753FCFEE701000000F048000080B582B000AF194B194A1A60194A194B1B6843F40073136000237B600FE07B68032B04D8F5
:40090000144A7B6852F8233000E0134B13497A6841F822307B6801337B607B682F2BECD90F4B1B78DAB20F4B1A700F4B0B4A1A60FFF798FE02F080F80C4B00221A6000BFB0
:400940000837BD4680BD00BF0CED00E00004FA0514ED00E000000000310800000080FF1FBC760040C480FF1F08ED00E0C080FF1F80B582B000AF786000F03CF8786800F0BC
:4009800009F8072000F018F800F028F800BF0837BD4680BD80B485B000AF7860054B1B68FB60FB6858337A681A6000BF1437BD4680BC704708ED00E080B483B000AF034625
:4009C000FB71054AFB795B01DBB2137000BF0C37BD4680BC704700BF06E400E080B400AF034B40221A6000BFBD4680BC704700BF00E100E080B400AF034B40221A6000BFCD
:400A0000BD4680BC704700BF80E100E080B500AF214A214B1B78DBB203F00103DBB213701E4A1E4B1B78DBB223F00303DBB213701B4A1B4B1B78DBB223F03003DBB2137083
:400A4000174A174B1B78DBB243F03003DBB21370134A134B1B78DBB223F00F03DBB213700F4A0F4B1B78DBB243F00F03DBB213700C4A0C4B1B78DBB243F00103DBB21370D1
:400A8000C72000F063F8C72000F072F8002000F041F800BF80BD00BF244F0040264F00402F4F0040254F004080B400AF0D4A0D4B1B78DBB243F00803DBB213700A4A0A4B3C
:400AC0001B78DBB243F00803DBB21370074A074B1B78DBB243F00103DBB2137000BFBD4680BC7047A3430040B3430040244F004080B500AF064B1B78002B04D1FFF786FF77
:400B0000034B01221A70FFF7CFFF00BF80BD00BF9981FF1F80B483B000AF0346FB71044AFB79137000BF0C37BD4680BC704700BF274F004080B400AF034B1B78DBB21846D7
:400B4000BD4680BC704700BF274F004080B485B000AF0346FB71FB79FB81044AFB89138000BF1437BD4680BC704700BF284F004080B483B000AF0346FB71044BFA7992B2A1
:400B80001A8000BF0C37BD4680BC70472A4F004080B582B000AF03460A46FB711346BB71094B1B78002B04D100F010F8064B01221A70BA79FB791146184600F0D9F800BF91
:400BC0000837BD4680BD00BF9A81FF1F80B582B000AF02F081FD0346FB71544A534B1B78DBB243F00103DBB21370514A504B1B78DBB243F00103DBB213704E4B01221A70BD
:400C00004D4B02221A704D4A4C4B1B78DBB203F07F03DBB21370002001F048FF484A484B1B78DBB223F00603DBB21370454A454B1B78DBB223F02003DBB21370404A404B38
:400C40001B78DBB243F00103DBB21370012001F02DFF282001F02AFF3B4A3B4B1B78DBB203F07F03DBB21370374A374B1B78DBB223F04003DBB21370314A314B1B78DBB21D
:400C800043F00203DBB21370022001F00FFF2C4A2B4B1B78DBB243F00403DBB213702B4B00221A702A4B00221A70FB79184602F017FD0721172001F035FF2649172001F03F
:400CC00009FF0721182001F02DFF2349182001F001FF0721152001F025FF2049152001F0F9FE0721012001F01DFF1D49012001F0F1FE0721022001F015FF1A49022001F060
:400D0000E9FE0721032001F00DFF1749032001F0E1FE07210C2001F005FF14490C2001F0D9FE00BF0837BD4680BD00BFA5430040B54300409D6000400960004010600040A4
:400D40009443004012600040F8510040846000408560004089190000711200007D19000095180000DD180000291900009519000080B582B000AF03460A46FB711346BB71EB
:400D80002E4AFB7913702E4B00221A702D4B00221A702D4B00221A702C4B00221A702C4B00221A702B4B00221A702B4B00221A702A4B4FF400021A60284B4FF080721A607B
:400DC000264B4FF400121A60244B02221A60234B04221A60214B08221A60BB79002B02D0012B09D011E01E4A1D4B1B78DBB223F00103DBB2137011E0194A194B1B78DBB272
:400E000043F00103DBB2137008E0154A144B1B78DBB243F00103DBB2137000BF114B03221A70114B80221A70012002F04DFC0F4B04221A7000BF0837BD4680BDA982FF1F1F
:400E4000AC82FF1FC882FF1FCB82FF1FC082FF1FCA82FF1FCD82FF1FA882FF1F00E100E00960004028600040086000401260004080B400AF0F4B00221A700F4B00221A7059
:400E80000E4B00221A700E4B00221A700D4B00221A700D4B00221A700C4B00221A700C4B03221A700B4B80221A7000BFBD4680BC704700BFAC82FF1FC882FF1FCB82FF1F02
:400EC000C082FF1FCA82FF1FCD82FF1FA882FF1F286000400860004080B483B000AF0346FB71FA79064913465B0013449B000B4401331B78DBB218460C37BD4680BC704796
:400F0000D082FF1FB0B485B000AF03463960FB711346BB80FB79002B6DD0FB79082B6AD8B988FA79364813465B0013449B00034406331B889BB2C3F5007399420CD9FA79AC
:400F40002F4913465B0013449B000B4406331B889BB2C3F50073BB802A4CF979BB881B0A9BB2D8B2FA79264D13465B0013449B002B4403331B78DBB20343DAB20B012344B8
:400F80001A70204AFB79B988C9B21B01134401330A461A703B68002B13D00023FB810CE01948FB79FA8939680A4412781B01034408331A70FB890133FB81FA89BB889A4281
:400FC000EED3FA790E4913465B0013449B000B44013300221A700B48F979FA79084C13465B0013449B00234405331B78DAB20B01034402331A7000BF1437BD46B0BC70475F
:40100000D082FF1FFC5F00407060004080B582B000AF0023FB71314B1B79DBB2184600F067F80346BB712D4B1B78DBB25BB2002B15DA2A4B5B78DBB2212B00D048E0284BE6
:4010400007221A80BA791346DB009B1A254A1344234A536000F086FA0346FB7138E01F4B5B78DBB2202B02D0222B1AD030E01C4B07221A80BA791346DB009B1A194A134440
:40108000174A5360BB79BA7917498A5CD2B242F00102D1B2144AD15400F0E2FA0346FB7116E0BB790D4A9278D2B291B20F4A22F81310BB79BA790C498A5CD2B242F00202EB
:4010C000D1B2094AD15400F069FB0346FB7100BFFB7918460837BD4680BD00BF00600040B482FF1FCC80FF1F9082FF1FA482FF1F80B485B000AF0346FB710023FB73FF23CB
:40110000BB7317E0FB7B104AD35C7B737A7B0F4913465B0013449B000B440A331B78DBB2FA799A4203D1FB7BBB730223FB73FB7B0133FB73FB7B012BE4D9BB7B184614374E
:40114000BD4680BC704700BF9882FF1FD082FF1F80B584B000AF78600B467B80144B1B781A46144B9B5CFB73FA7B134913465B0013449B000B4408331B889BB27A889A42F1
:401180000CD9FA7B0C4913465B0013449B000B4408331B887B80002001F07CFC7A88FB7B79681846FFF7AEFE00BF1037BD4680BD9B81FF1F9482FF1FD082FF1F80B500AFC8
:4011C000054B1B781A46054B9B5CDBB21846FFF783FE0346184680BD9B81FF1F9482FF1F80B485B000AF78600B46FB701346BB707B68DB7803F00303FB737B689B785BB2E1
:40120000002B1ADAFB7B032B0AD0BB7803F001031449FA78CA54BB7843F00103BB701BE0BB789B08DBB203F001030F49FA78CA54BB7843F00403BB700EE0FB7B032B0BD023
:40124000BB785B08DBB203F001030849FA78CA54BB7843F00203BB70BB7818461437BD4680BC70479482FF1F9882FF1F9C82FF1F80B582B000AF374B1B78BB71BB7903F0E5
:401280001003002B62D00123FB7197F90630002B12DABB7903F00F03012B02D00023FB711CE000F061F82C4B1B78DBB25BB2002B14DA0023FB7111E0BB7903F04003002B74
:4012C00002D000F095F809E0BB7903F02003002B02D000F0B3F801E00023FB71FB79002B34D01C4B1B78BB7197F90630002B2DDB1A4B1B78DAB21A4B1B78DBB21343BB7117
:40130000184ABB791370174B1B78DBB2BA799A421CD1114B1B78FB710E4B1B78DBB223F07F03BB71BB79002B0AD10A4B0A4A1278D2B21A70074B1B78DBB203F00F03FB7123
:40134000054B1B78DBB2FA799A42E2D100BF0837BD4680BD28600040C982FF1F3E83FF1FCC82FF1F2960004080B582B000AF1D4B1B78FB711B4AFB7913701A4B1B78FB713B
:4013800097F90730002B03DA174AFB79137025E0022000F045FA154B1B78DBB203F06003202B08D0402B0BD0002B0ED100F0F8FA0346FB710CE002F097F90346FB7107E0C6
:4013C00001F000FB0346FB7102E00023FB7100BFFB79002B02D1044B03221A7000BF0837BD4680BD28600040C982FF1F0060004080B500AF104B1B78DBB2062B19D801A279
:4014000052F823F03314000033140000211400003314000027140000331400002D14000000F0F8F806E000F0A7F903E000F0D2F900E000BF00BF80BDAC82FF1F80B500AFC3
:40144000124B1B78DBB2062B1DD801A252F823F087140000871400006D1400008714000073140000871400007914000000F0D8F80AE000F027F907E0032000F0D1F9044BFB
:4014800003221A7000E000BF00BF80BDAC82FF1FC982FF1F80B483B000AF0023FB71294B1B78DBB29AB2284B1B889BB213449AB2254B1A8015E02549FB79254A526812780E
:4014C000D2B2CA54224B5B680133214A5360FB790133FB711E4B1B889BB2013B9AB21C4B1A801B4B1B889BB2002B02D0FB79072BE1D9144B1B78DBB2082B02D0FB79002BFC
:401500000FD0144B1B78DBB283F07F03DB43DAB2104B1A70104B0F221A70104B02221A7005E00D4B02221A700C4B02221A700C4AFB791370034AFB79137000BF0C37BD4624
:4015400080BC7047A882FF1FAA82FF1F00600040B482FF1F3E83FF1FC982FF1FAC82FF1FCC82FF1F80B582B000AF164B1B889BB2002B02D100F02EF81EE0134B02221A706D
:40158000124B00221A7000F06BF9114BDB79DBB29BB21B029AB20E4B9B79DBB29BB21343FB80084B1B889BB2FA889A4202D2054AFB881380FFF76EFF012318460837BD46C2
:4015C00080BD00BFB482FF1FAC82FF1F3E83FF1F0060004080B400AF094B02221A70094B80221A70084B0F221A70084B00221A70074B00221A7001231846BD4680BC7047E8
:40160000AC82FF1F3E83FF1FC982FF1FA882FF1FCC82FF1F80B500AFFFF73CFF00BF80BD80B500AF0A4B1B78DBB29AB2094B1B889BB213449AB2074B1A80074B00221A70DB
:40164000012000F0EDF8054B03221A7000BF80BDA882FF1FAA82FF1FAC82FF1FC982FF1F80B582B000AF124B04221A70114B80221A7000F0F5F8104BDB79DBB29BB21B0204
:401680009AB20D4B9B79DBB29BB21343FB800B4B1B889BB2FA889A4202D2084AFB881380074B0B221A70012318460837BD4680BDAC82FF1F3E83FF1F00600040B482FF1FBE
:4016C000C982FF1F80B483B000AF0023BB71234B1B78DBB203F00F03DBB2023BFB71FB799AB21F4B1B889BB213449AB21C4B1A8018E01C4B5B681C49BA798A5CD2B21A70E7
:40170000184B5B680133174A5360BB790133BB71FB79013BFB71134B1B889BB2013B9AB2104B1A800F4B1B889BB2002B02D0FB79002BDED10D4AFB7913700D4B1B78DBB265
:4017400083F07F03DB43DAB2094B1A70094B0B221A7000BF0C37BD4680BC704729600040AA82FF1FB482FF1F00600040CC82FF1F3E83FF1FC982FF1F80B500AF054B0022D8
:401780001A70012000F04CF8034B03221A7000BF80BD00BFAC82FF1FC982FF1F80B400AF084B06221A70084B06221A70074B80221A70074B00221A7001231846BD4680BCB3
:4017C000704700BFAC82FF1FC982FF1F3E83FF1FCC82FF1F80B500AF0D4B1B78DBB2002B0AD00C4A0A4B1B78DBB263F07F03DBB21370074B00221A70074B00221A70012045
:4018000000F00EF8054B03221A7000BF80BD00BFCA82FF1F08600040AC82FF1FC982FF1F80B483B000AF0346FB710B4B9B68002B0CD0094B9B68FA791A70074B9B68074A0C
:40184000128892B25A80044B00229A6000BF0C37BD4680BC704700BFB482FF1FAA82FF1F80B400AF094B00221A80094B9B68002B07D0074B9B6800221A70054B9B6800222E
:401880005A8000BFBD4680BC704700BFAA82FF1FB482FF1F80B400AF0D4B01221A700D4B9B7C0D4B1B7BDBB203F00303012B08D0094BDB7BDBB283F07F03DB43DAB2064B46
:4018C000DA73054B01225A7300BFBD4680BC70470B600040FC5F0040D082FF1F80B400AF0E4B02221A700E4B93F822300D4B1B7EDBB203F00303012B08D00A4BDB7EDBB21A
:4019000083F07F03DB43DAB2064BDA76054B01225A7600BFBD4680BC704700BF0B600040FC5F0040D082FF1F80B400AF104B04221A70104B93F832300F4B93F82430DBB2FE
:4019400003F00303012B0AD00B4B93F82730DBB283F07F03DB43DAB2074B83F82720064B012283F8252000BFBD4680BC704700BF0B600040FC5F0040D082FF1F80B400AFAF
:4019800000BFBD4680BC704780B500AFFFF770FA00BF80BD80B500AF01F03EF800BF80BD80B586B000AF0023FB759D4B1B78FB7100233B619B4B00221A8097F90730002B44
:4019C00080F20481964B5B78DBB20A2B00F21B8201A252F823F000BF231B0000071E0000071E0000071E0000071E0000071E0000051A0000071E0000971B0000071E00001A
:401A0000AD1B0000864BDB78DBB2012B0ED100F049FEB860BB685B68824A5360814B12221A80FFF79FFD0346FB75EEE17C4BDB78DBB2022B25D17A4B9B78DBB2184600F03D
:401A400009FEB860BB68002B00F0DF81BB685B68744A5360734B5B6803331B78DBB29BB21B029AB26F4B5B6802331B78DBB29BB213439AB26B4B1A80FFF774FD0346FB7594
:401A8000C3E1674BDB78DBB2032B45D10023FB73654B3B6109E03B691B78BB71BB793A6913443B61FB7B0133FB735D4B9B78DBB2FA7B9A4204D23B691B78DBB2002BEAD188
:401AC000574B9B78DBB2EE2B01D1584B3B61544B9B78DBB2002B0BD0514B9B78DAB2544B1B7C9A4204D1534800F0ACF9514B3B613B691B78DBB2002B00F087813B691B788D
:401B0000DBB29AB2474B1A80464A3B695360FFF729FD0346FB7578E101F0E6FD0346FB7573E1FB7903F00303002B20D0022B00D030E03C4B02221A80394B1B79DBB203F038
:401B40007F023D4913465B0013449B000B4402331B78DAB2394B1A70384B00225A70314B364A5A60FFF7FEFC0346FB7512E02D4B02221A80324B1B78DAB2304B1A702F4BF6
:401B800000225A70274B2D4A5A60FFF7EBFC0346FB7500BF40E1234B01221A80214B294A5A60FFF7DFFC0346FB7535E11D4B01221A801B4B1B79DBB21A46234B1344194A88
:401BC0005360FFF7CFFC0346FB7525E1144B5B78DBB2013B0A2B00F21A8101A252F823F0EB1C00000F1E0000791D00000F1E00000D1C00000F1E00000F1E00000F1E00004E
:401C0000511C00000F1E0000A71C0000044B9B78DAB20E4B1A70FFF7C1FD0346FB75FBE000600040B482FF1F6047000068480000084700004483FF1FD082FF1F9C81FF1F04
:401C4000CD82FF1FCB82FF1F3C83FF1FCA82FF1F744B9B787B717B79002B06D07B79013BDBB2184600F0F6FCB8607B79002B02D0BB68002B03D17B79002B40F0CA806A4B1C
:401C80001B78DBB27A799A4208D0674A7B791370664B01221A70012000F0DCF9FFF77EFD0346FB75B5E000F055FE0346002B00F0B2805C4B1B793B715A4B1B79DAB25C4B06
:401CC0001A703B795B4AD35CDAB23B795A49CB5CDBB29A4204D0554B01221A7000F08CFBFFF75CFD0346FB7595E0FB7903F00303012B20D0012B0CD3022B00D03BE0494B0A
:401D00009B78DBB2002B31D100F078FD0346FB752CE0444B9B78DBB2012B29D1474B1B78DBB223F00203DAB2444B1A70FFF736FD0346FB751CE03B4B1B79DBB2012B19D846
:401D4000384B9B78DBB2DB43DBB2364A1279D2B2114610463A4A125CD2B21340DAB2384B5A54FFF71BFD0346FB7503E000BF53E000BF51E000BF4FE0FB7903F00303012BC0
:401D800020D0012B0CD3022B00D03BE0254B9B78DBB2002B31D100F0BDFC0346FB752CE0204B9B78DBB2012B29D1244B1B78DBB243F00203DAB2214B1A70FFF7EFFC0346C1
:401DC000FB751CE0174B1B79DBB2012B19D8154B9B78DBB2DB43DBB2124A1279D2B211461046174A125CD2B21340DAB2144B5A54FFF7D4FC0346FB7503E000BF0CE000BF09
:401E00000AE000BF08E000BF06E000BF04E000BF02E000BF00E000BFFB7D18461837BD4680BD00BF00600040CB82FF1FC882FF1FC082FF1FB082FF1F3C83FF1FCD82FF1F39
:401E40004083FF1FB0B58AB000AF7860324B07F114041D460FCD0FC42B682370002387F826307B68002B52D07B6822221A707B68013303221A7007F10C03184600F076FE2E
:401E8000022387F827303EE097F827307A68134497F8262007F128010A4412F81C2C1209D2B207F128010A4412F8142C1A7097F8273001337A68134400221A7097F827308D
:401EC00002337A68134497F8262007F128010A4412F81C2C02F00F0207F128010A4412F8142C1A7097F8273003337A68134400221A7097F82630013387F8263097F82730C3
:401F0000043387F8273097F82730212BBCD900BF2837BD46B0BD00BFF446000090B482B000AF0123FB7180E0464AFB791B0113440C221A70FA79444913465B0013449B005C
:401F40000B4405331B78DBB2002B1CD0FA793E4913465B0013449B000B4404331B78DBB25BB2002B07DA394AFB791B01134402330C221A700EE0354AFB791B011344023364
:401F800008221A7006E0314AFB791B011344023380221A702B48F979FA792B4C13465B0013449B00234406331B889BB2DAB20B01034406331A702348F979FA79224C134606
:401FC0005B0013449B00234406331B889BB21B0A9BB2DAB20B01034407331A701948F979FA79194C13465B0013449B00234406331B889BB2DAB20B01034404331A70114815
:40200000F979FA79104C13465B0013449B00234406331B889BB21B0A9BB2DAB20B01034405331A70FB790133FB71FB79082B7FF67BAF074BFF221A7000BF0837BD4690BC72
:40204000704700BF70600040D082FF1FFC5F00400A60004080B58AB000AF0346FB7100237B84002387F8273050E097F82720B34913465B0013449B000B4400221A7097F805
:402080002720AE4913465B0013449B000B44023300221A7097F82720A84913465B0013449B000B44033300221A7097F82720A34913465B0013449B000B44083300221A80C0
:4020C00097F827209D4913465B0013449B000B440A3300221A7097F82720984913465B0013449B000B44013300221A7097F82720924913465B0013449B000B4405330022BA
:402100001A7097F82730013387F8273097F82730082BAAD9FB79002B16D0002387F825300EE097F82530864A0021D15497F82530844A0021D15497F82530013387F8253041
:4021400097F82530012BECD97F4B1B78DBB2002B00F04A810023FB767B4B1B78DBB2013BDBB2184600F076FA78617B695B683B613B6907331B7803F04003002B08D0734B35
:402180001B78DBB243F00103DAB2704B1A7007E06E4B1B78DBB223F00103DAB26B4B1A707B6908337B617B691B7887F82730012387F82530B6E07B695B68FB61002387F8D9
:4021C0002630A3E097F82520FB699B7803F07F039A4240F0938097F82520584913465B0013449B000B4408331B889AB2FB699B889A420CD297F82520FB6998884F49134609
:402200005B0013449B000B44083302461A80FB691B781A464A4B9B5CDAB2FB695B789A426CD197F82520FB699878444913465B0013449B000B44043302461A7097F825207F
:40224000FB69D8783D4913465B0013449B000B4402461A70FB69DB7803F00303FB73FB699B785BB2002B1CDA97F82520FB7B012B01D1072000E00D20304913465B0013449A
:402280009B000B44053302461A7097F825202B4913465B0013449B000B44013301221A701BE097F82520FB7B012B01D1052000E00920224913465B0013449B000B44053303
:4022C00002461A7097F825201C4913465B0013449B000B44013300221A70FB699B790A2B03D0FB699B79022B08D1FA7E97F825301946F869FEF774FF0346FB76FB69083323
:40230000FB6197F82630013387F8263097F8262097F827309A42FFF455AF97F82530013387F8253097F82530082B7FF644AF7B695B68FB61002387F8253020E0D082FF1FF0
:402340003C83FF1FB082FF1FCB82FF1FCD82FF1FFB699B7803F07F02FB691878244913465B0013449B000B440A3302461A70FB690833FB6197F82530013387F8253097F892
:40238000252097F827309A42E2D300F09DF90246184B1A6000237B84012387F827301DE097F82720124913465B0013449B000B4406337A8C1A8097F827200D4913465B00BE
:4023C00013449B000B4408331B889AB27B8C13447B8497F82730013387F8273097F82730082BDDD9FFF79AFD00BF2837BD4680BDD082FF1FC482FF1F90B585B000AF8F4B94
:402400001B78DBB2002B00F015818C4B1B78DBB2013BDBB2184600F01DF978607B6808337B607B681B78FB707B685B68BB60844B1B78BB700023FB73F7E0BB681B78BA7857
:402440009A4240F0EC80BB787E4AD35CDAB2BB685B789A4240F0E380BB689B7803F07F037B70BB68DB7803F003033B707A78764913465B0013449B000B44033300221A7091
:402480007A78BB689878704913465B0013449B000B44043302461A707A78BB68D8786A4913465B0013449B000B4402461A707A78BB689888644913465B0013449B000B448A
:4024C000083302461A80BB689B785BB2002B1ADA7A783B78012B01D1072000E00D205A4913465B0013449B000B44053302461A707A78554913465B0013449B000B4401332B
:4025000001221A7019E07A783B78012B01D1052000E009204C4913465B0013449B000B44053302461A707A78474913465B0013449B000B44013300221A70444A7B781B019C
:402540001344023301221A70404879787A783E4C13465B0013449B00234408331B889BB21B0A9BB2DAB20B0103441A70374879787A78354C13465B0013449B0023440833EF
:402580001B889BB2DAB20B01034401331A70304879787A782C4C13465B0013449B00234406331B889BB2DAB20B01034406331A70274879787A78244C13465B0013449B007B
:4025C000234406331B889BB21B0A9BB2DAB20B01034407331A701E4879787A781A4C13465B0013449B00234406331B889BB2DAB20B01034404331A70154879787A78124C13
:4026000013465B0013449B00234406331B889BB21B0A9BB2DAB20B01034405331A70BB680833BB60FB7B0133FB73FA7BFB789A42FFF403AF00BF1437BD4690BDCB82FF1F92
:40264000C082FF1F3C83FF1FD082FF1FFC5F00407060004080B485B000AF0346FB710F4B1B78DBB20E4ADB0013445B68FB60FB681033FB60FB681B78FA799A4202D30023D5
:40268000FB6005E0FB79DB00FA6813445B68FB60FB6818461437BD4680BC7047A982FF1F6048000080B400AF054B1B78DBB2054ADB0013445B681846BD4680BC704700BF17
:4026C000A982FF1F6048000080B584B000AF104B1B78DBB2013BDBB21846FFF7BBFFB860BB68002B0DD0BB685B681B79FB71FB790233DB00BA681344BB60BB685B68FB60FD
:4027000001E00023FB60FB6818461037BD4680BDCB82FF1F80B582B000AF0023FB71344B1B79DBB203F07F03BB71BB79002B5AD0BB79082B57D8BA79B9792E480B465B00FB
:402740000B449B00034402331B78DBB243F00103D8B2284913465B0013449B000B44023302461A70BA79234913465B0013449B000B44033300221A70BA79B9791D480B4614
:402780005B000B449B00034401331B78DBB243F00203D8B2174913465B0013449B000B44013302461A70BA79124913465B0013449B000B4404331B78DBB25BB2002B07DA29
:4027C0000D4ABB791B01134402338D221A7006E0094ABB791B011344023389221A70FEF7DDFF0346FB71FB7918460837BD4680BD00600040D082FF1FFC5F004080B582B03A
:4028000000AF0023FB71504B1B79DBB203F07F03BB71BB79002B00F09280BB79082B00F28E80BA79B97949480B465B000B449B00034402331B78DBB223F00103D8B24349E0
:4028400013465B0013449B000B44023302461A70BA793E4913465B0013449B000B44033300221A703A49BB793948BA79120102441278D2B202F07F02D2B21B010B441A700D
:40288000BA79B97931480B465B000B449B00034401331B78DBB223F00203D8B22B4913465B0013449B000B44013302461A70BA79264913465B0013449B000B4404331B7897
:4028C000DBB25BB2002B1BDABA79204913465B0013449B000B4401331B78DBB2012B07D11B4ABB791B01134402330C221A7022E0174ABB791B01134402330D221A701AE04A
:40290000BA79124913465B0013449B000B4401331B78DBB2012B07D10D4ABB791B011344023308221A7006E0094ABB791B011344023309221A70FEF731FF0346FB71FB79BD
:4029400018460837BD4680BD00600040D082FF1FFC5F004080B584B000AF0023FB73154B1B79BB73144B1B78DBB2013BDBB21846FFF770FEB860BB685B681B79FB71BA7BC7
:40298000FB799A4202D9BB7B022B0ED8BB7BBA7B0A498A5CD1B20A4AD154BB7B054A9278D1B2064AD1540123FB73FB7B18461037BD4680BD00600040CB82FF1F3C83FF1FA7
:4029C000B082FF1F80B582B000AF0023FB710F4B1B78DBB25BB2002B12DA0C4B5B78DBB2012B00D00CE00A4B0A4A5A60094B1B789AB2074B1A80FEF7B5FD0346FB7100BF08
:402A0000FB7918460837BD4680BD00BF00600040B482FF1F7C48000080B400AF054B1B78DBB203F040039B09DBB21846BD4680BC704700BF8F45004080B483B000AF134B79
:402A40007F221A70124B80221A707F23FB710CE0FB79DB0003F1804303F5F043FA79013AD2B21A70FB79013BFB71FB79002BEFD1FB79DB0003F1804303F5F04300221A7063
:402A800000BF0C37BD4680BC704700BFE980FF1FE880FF1F80B483B000AF0346FB7101BE00BF0C37BD4680BC704700BF80B582B000AF0346FB80FB88054A127802FB03F3E8
:402AC000184600F001FE00BF0837BD4680BD00BFF880FF1F80B584B000AF03463960FB710F4B1B68FB60FB791F2B02D90020FFF7D1FFFB7903F01F0310339B00FA681344B9
:402B00001B68BB60FB7903F01F0310339B00FA6813443A681A60BB6818461037BD4680BD08ED00E080B582B000AF03460A46FB711346BB71BB79072B02D90020FFF7AAFF3E
:402B4000FB791F2B02D90020FFF7A4FFFB7903F01F0303F1604303F56443BA795201D2B21A7000BF0837BD4680BD00BF80B483B000AF7860264B1B78DBB21A467B681A6077
:402B8000244B1B78DBB21B027A6812681A437B681A60214B1B78DBB21B047A6812681A437B681A601D4B1B78DBB21B067A6812681A437B681A607B680433194A1278D2B248
:402BC0001A60184B1B78DBB21A027B6804337968043109680A431A60134B1B78DBB21A047B6804337968043109680A431A600F4B1B78DBB21A067B68043379680431096815
:402C00000A431A6000BF0C37BD4680BC704700BF0301004904010049EC460040020100490101004900010049050100490601004980B500AF064B1B78002B04D100F00AF8CF
:402C4000034B01221A7000F063F800BF80BD00BF9E81FF1F80B582B000AF284A274B1B78DBB243F00203DBB21370254B1B78DBB223F07003FB71224AFB7943F01003DBB27F
:402C80001370204A1F4B1B78DBB223F03003DBB213701C4A1B4B1B78DBB243F03003DBB21370184A174B1B78DBB223F00F03DBB21370144A134B1B78DBB243F00F03DBB21E
:402CC0001370FF2000F048F8322000F055F8002000F062F80C4A0C4B1B78DBB243F00103DBB21370094A094B1B78DBB243F00103DBB2137000BF0837BD4680BD004F00401A
:402D0000024F00400B4F0040A3430040014F004080B400AF0D4A0D4B1B78DBB243F00103DBB213700A4A0A4B1B78DBB243F00103DBB21370074A074B1B78DBB243F00103AF
:402D4000DBB2137000BFBD4680BC7047A3430040B3430040004F004080B483B000AF0346FB71044BFA7992B21A8000BF0C37BD4680BC7047044F004080B483B000AF03464E
:402D8000FB71044BFA7992B21A8000BF0C37BD4680BC7047064F004080B483B000AF0346FB71044AFB79137000BF0C37BD4680BC704700BF034F004080B400AF034B1B884D
:402DC0009BB2DBB21846BD4680BC7047044F004080B500AF064B1B78002B04D100F00AF8034B01221A7000F063F800BF80BD00BF9F81FF1F80B582B000AF284A274B1B788C
:402E0000DBB243F00203DBB21370254B1B78DBB223F07003FB71224AFB7943F01003DBB21370204A1F4B1B78DBB223F03003DBB213701C4A1B4B1B78DBB243F03003DBB2DC
:402E40001370184A174B1B78DBB223F00F03DBB21370144A134B1B78DBB243F00F03DBB21370FF2000F048F8322000F055F8002000F062F80C4A0C4B1B78DBB243F0020338
:402E8000DBB21370094A094B1B78DBB243F00103DBB2137000BF0837BD4680BD0C4F00400E4F0040174F0040A34300400D4F004080B400AF0D4A0D4B1B78DBB243F002032C
:402EC000DBB213700A4A0A4B1B78DBB243F00203DBB21370074A074B1B78DBB243F00103DBB2137000BFBD4680BC7047A3430040B34300400C4F004080B483B000AF03469C
:402F0000FB71044BFA7992B21A8000BF0C37BD4680BC7047104F004080B483B000AF0346FB71044BFA7992B21A8000BF0C37BD4680BC7047124F004080B483B000AF03468B
:402F4000FB71044AFB79137000BF0C37BD4680BC704700BF0F4F004080B400AF00BFBD4680BC704780B582B000AF0F2000F050F800F040F800F0B0FB0346FB71074A074B1B
:402F80001B78DBB243F01003DBB21370FB79184600F0A6FB00BF0837BD4680BD9364004080B500AF00F000F94FF4004000F02AF9064B1B78002B04D1FFF7CEFF034B012248
:402FC0001A70FFF7CFFF00BF80BD00BFA081FF1F80B582B000AF00F025F90346FB80FB88A3F500439BB2BB80B7F9043018460837BD4680BD80B400AF044B1B78DBB203F0B5
:403000000F03DBB21846BD4680BC70476364004080B483B000AF0346FB71044AFB79137000BF0C37BD4680BC704700BF8364004080B400AF00BFBD4680BC704780B582B0A9
:4030400000AF0F2000F050F800F040F800F044FB0346FB71074A074B1B78DBB243F01003DBB21370FB79184600F03AFB00BF0837BD4680BD9464004080B500AF00F06CF96F
:403080004FF4004000F096F9064B1B78002B04D1FFF7CEFF034B01221A70FFF7CFFF00BF80BD00BFA181FF1F80B582B000AF00F091F90346FB80FB88A3F500439BB2BB8073
:4030C000B7F9043018460837BD4680BD80B400AF044B1B78DBB203F00F03DBB21846BD4680BC70476464004080B483B000AF0346FB71044AFB79137000BF0C37BD4680BC7E
:40310000704700BF8464004080B582B000AF1C4B1B78DBB223F00703FB71194AFB791370174B1B78DBB223F00303FB71144AFB79137000F0B3F84FF4004000F08FF84FF43D
:40314000004000F05FF8002000F040F800F04EF84FF4004000F092F800F0BEFA0346BB71084A084B1B78DBB243F01003DBB21370BB79184600F0B4FA00BF0837BD4680BDA7
:40318000716400409064004080B400AF054A054B1B78DBB263F07F03DBB2137000BFBD4680BC70477164004080B500AF064B1B78002B04D1FFF7A8FF034B01221A70FFF71F
:4031C000E3FF00BF80BD00BFA281FF1F80B483B000AF0346FB71044AFB79137000BF0C37BD4680BC704700BF8064004080B400AF034B1B78DBB21846BD4680BC704700BFA2
:403200006064004080B483B000AF0346FB80044AFB88138000BF0C37BD4680BC704700BF0C68004080B400AF044B1B78044B1B889BB21846BD4680BC704700BF0664004020
:403240008C68004080B400AF034B1B889BB21846BD4680BC704700BF8C68004080B483B000AF0346FB80044AFB88138000BF0C37BD4680BC704700BF4C68004080B483B062
:4032800000AF0346FB80044AFB88138000BF0C37BD4680BC704700BF6C68004080B500AF01E0FFF7CFFFFFF7A1FF034603F04003002BF6D100BF80BD80B582B000AF1C4B63
:4032C0001B78DBB223F00703FB71194AFB791370174B1B78DBB223F00303FB71144AFB79137000F0B3F84FF4004000F08FF84FF4004000F05FF8002000F040F800F04EF892
:403300004FF4004000F092F800F0E6F90346BB71084A084B1B78DBB243F01003DBB21370BB79184600F0DCF900BF0837BD4680BD736400409264004080B400AF054A054BCD
:403340001B78DBB263F07F03DBB2137000BFBD4680BC70477364004080B500AF064B1B78002B04D1FFF7A8FF034B01221A70FFF7E3FF00BF80BD00BFA381FF1F80B483B0E0
:4033800000AF0346FB71044AFB79137000BF0C37BD4680BC704700BF8264004080B400AF034B1B78DBB21846BD4680BC704700BF6264004080B483B000AF0346FB80044AF5
:4033C000FB88138000BF0C37BD4680BC704700BF0868004080B400AF044B1B78044B1B889BB21846BD4680BC704700BF046400408868004080B400AF034B1B889BB21846E2
:40340000BD4680BC704700BF8868004080B483B000AF0346FB80044AFB88138000BF0C37BD4680BC704700BF4868004080B483B000AF0346FB80044AFB88138000BF0C3782
:40344000BD4680BC704700BF6868004080B500AF01E0FFF7CFFFFFF7A1FF034603F04003002BF6D100BF80BD80B500AF214A214B1B78DBB203F00103DBB213701E4A1E4B48
:403480001B78DBB223F00303DBB213701B4A1B4B1B78DBB223F03003DBB21370174A174B1B78DBB243F03003DBB21370134A134B1B78DBB223F00F03DBB213700F4A0F4B66
:4034C0001B78DBB243F00F03DBB213700C4A0C4B1B78DBB243F00103DBB213701D2000F063F81D2000F072F8082000F041F800BF80BD00BF184F00401A4F0040234F004016
:40350000194F004080B400AF0D4A0D4B1B78DBB243F00403DBB213700A4A0A4B1B78DBB243F00403DBB21370074A074B1B78DBB243F00103DBB2137000BFBD4680BC704715
:40354000A3430040B3430040184F004080B500AF064B1B78002B04D1FFF786FF034B01221A70FFF7CFFF00BF80BD00BFA481FF1F80B483B000AF0346FB71044AFB79137038
:4035800000BF0C37BD4680BC704700BF1B4F004080B400AF034B1B78DBB21846BD4680BC704700BF1B4F004080B485B000AF0346FB71FB79FB81044AFB89138000BF143770
:4035C000BD4680BC704700BF1C4F004080B483B000AF0346FB71044BFA7992B21A8000BF0C37BD4680BC70471E4F004080B582B000AF786000F03CF8786800F009F8072051
:4036000000F018F800F028F800BF0837BD4680BD80B485B000AF7860054B1B68FB60FB688C337A681A6000BF1437BD4680BC704708ED00E080B483B000AF0346FB71054AB1
:40364000FB795B01DBB2137000BF0C37BD4680BC704700BF13E400E080B400AF034B4FF400221A6000BFBD4680BC704700E100E080B400AF034B4FF400221A6000BFBD4684
:4036800080BC704780E100E080B485B000AF0346FB710B4B1B78DBB223F00803FB730849FB79DB00DBB203F00803DAB2FB7B1343DBB20B7000BF1437BD4680BC704700BFBD
:4036C00010510040000000000230800803D000BF01380046FCD17047EFF3108072B6704780F31088704700BF80B582B000AF0023BB711B4B1B78DBB203F00303012B02D026
:40370000022B04D012E0164B1B79FB7111E0144B1B79DBB203F07F02124913465B0013449B000B440A331B78FB7102E00023FB7100BFFB79022B0ED80B4B1A68FB7913446A
:403740001B78022B04D1FDF761FC0346BB7102E00023BB7100BFBB7918460837BD4680BD00600040D082FF1FC482FF1F81F0004102E000BF83F0004330B54FEA41044FEAD4
:40378000430594EA050F08BF90EA020F1FBF54EA000C55EA020C7FEA645C7FEA655C00F0E2804FEA5454D4EB5555B8BF6D420CDD2C4480EA020281EA030382EA000083EA42
:4037C000010180EA020281EA0303362D88BF30BD11F0004F4FEA01314FF4801C4CEA113102D0404261EB410113F0004F4FEA03334CEA133302D0524263EB430394EA050F94
:4038000000F0A780A4F10104D5F1200E0DDB02FA0EFC22FA05F2801841F1000103FA0EF2801843FA05F359410EE0A5F120050EF1200E012A03FA0EFC28BF4CF0020C43FA3D
:4038400005F3C01851EBE37101F0004507D54FF0000EDCF1000C7EEB00006EEB0101B1F5801F1BD3B1F5001F0CD349085FEA30004FEA3C0C04F101044FEA445212F5800F6B
:4038800080F09A80BCF1004F08BF5FEA500C50F1000041EB045141EA050130BD5FEA4C0C404141EB010111F4801FA4F10104E9D191F0000F04BF01460020B1FA81F308BF4E
:4038C0002033A3F10B03B3F120020CDA0C3208DD02F1140CC2F10C0201FA0CF021FA02F10CE002F11402D8BFC2F1200C01FA02F120FA0CFCDCBF41EA0C019040E41AA2BFAE
:4039000001EB0451294330BD6FEA04041F3C1CDA0C340EDC04F11404C4F1200220FA04F001FA02F340EA030021FA04F345EA030130BDC4F10C04C4F1200220FA02F001FA2D
:4039400004F340EA0300294630BD21FA04F0294630BD94F0000F83F4801306BF81F480110134013D4EE77FEA645C18BF7FEA655C29D094EA050F08BF90EA020F05D054EA32
:40398000000C04BF1946104630BD91EA030F1EBF0021002030BD5FEA545C05D14000494128BF41F0004130BD14F580043CBF01F5801130BD01F0004545F0FE4141F47001D3
:4039C0004FF0000030BD7FEA645C1ABF194610467FEA655C1CBF0B46024650EA013406BF52EA033591EA030F41F4002130BD00BF90F0000F04BF0021704730B54FF48064D9
:403A000004F132044FF000054FF0000150E700BF90F0000F04BF0021704730B54FF4806404F1320410F0004548BF40424FF000013EE700BF42004FEAE2014FEA31014FEA8C
:403A400002701FBF12F07F4393F07F4F81F06051704792F0000F14BF93F07F4F704730B54FF4607401F0004521F0004120E700BF50EA010208BF704730B54FF000050AE084
:403A800050EA010208BF704730B511F0004502D5404261EB41014FF4806404F132045FEA915C3FF4DCAE4FF003025FEADC0C18BF03325FEADC0C18BF033202EBDC02C2F1B8
:403AC000200300FA03FC20FA02F001FA03FE40EA0E0021FA02F11444C1E600BF70B54FF0FF0C4CF4E06C1CEA11541DBF1CEA135594EA0C0F95EA0C0F00F0DEF82C4481EA1A
:403B0000030621EA4C5123EA4C5350EA013518BF52EA033541F4801143F4801338D0A0FB02CE4FF00005E1FB02E506F00042E0FB03E54FF00006E1FB03569CF0000F18BF7C
:403B40004EF0010EA4F1FF04B6F5007F64F5407404D25FEA4E0E6D4146EB060642EAC62141EA55514FEAC52040EA5E504FEACE2EB4F1FD0C88BFBCF5E06F1ED8BEF1004FCB
:403B800008BF5FEA500E50F1000041EB045170BD06F0004646EA010140EA020081EA0301B4EB5C04C2BFD4EB0C0541EA045170BD41F480114FF0000E013C00F3AB8014F12F
:403BC000360FDEBF002001F0004170BDC4F10004203C35DA0C341BDC04F11404C4F1200500FA05F320FA04F001FA05F240EA020001F0004221F0004110EBD37021FA04F62C
:403C000042EB06015EEA430E08BF20EAD37070BDC4F10C04C4F1200500FA04F320FA05F001FA04F240EA020001F0004110EBD37041F100015EEA430E08BF20EAD37070BD3D
:403C4000C4F1200500FA05F24EEA020E20FA04F301FA05F243EA020321FA04F001F0004121FA04F220EA020000EBD3705EEA430E08BF20EAD37070BD94F0000F0FD101F032
:403C80000046400041EB010111F4801F08BF013CF7D041EA060195F0000F18BF704703F00046520043EB030313F4801F08BF013DF7D043EA0603704794EA0C0F0CEA135578
:403CC00018BF95EA0C0F0CD050EA410618BF52EA4306D1D181EA030101F000414FF0000070BD50EA410606BF1046194652EA430619D094EA0C0F02D150EA013613D195EA42
:403D00000C0F05D152EA03361CBF104619460AD181EA030101F0004141F0FE4141F470014FF0000070BD41F0FE4141F4780170BD70B54FF0FF0C4CF4E06C1CEA11541DBF02
:403D40001CEA135594EA0C0F95EA0C0F00F0A7F8A4EB050481EA030E52EA03354FEA013100F088804FEA03334FF0805545EA131343EA12634FEA022245EA111545EA106558
:403D80004FEA00260EF000419D4208BF964244F1FD0404F5407402D25B084FEA3202B61A65EB03055B084FEA32024FF480104FF4002CB6EB020E75EB030E22BFB61A754698
:403DC00040EA0C005B084FEA3202B6EB020E75EB030E22BFB61A754640EA5C005B084FEA3202B6EB020E75EB030E22BFB61A754640EA9C005B084FEA3202B6EB020E75EBA4
:403E0000030E22BFB61A754640EADC0055EA060E18D04FEA051545EA16754FEA06164FEAC30343EA52734FEAC2025FEA1C1CC0D111F4801F0BD141EA00014FF000004FF038
:403E4000004CB6E711F4801F04BF01430020B4F1FD0C88BFBCF5E06F3FF6AFAEB5EB030C04BFB6EB020C5FEA500C50F1000041EB045170BD0EF0004E4EEA113114EB5C042D
:403E8000C2BFD4EB0C0541EA045170BD41F480114FF0000E013C90E645EA060E8DE60CEA135594EA0C0F08BF95EA0C0F3FF43BAF94EA0C0F0AD150EA01347FF434AF95EA5B
:403EC0000C0F7FF425AF104619462CE795EA0C0F06D152EA03353FF4FDAE1046194622E750EA410618BF52EA43067FF4C5AE50EA41047FF40DAF52EA43057FF4EBAE12E71D
:403F00004A0011D212F5001211D20DD56FF47873B3EB62520ED44FEAC12343F0004343EA505323FA02F070474FF00000704750EA013002D14FF0FF3070474FF0000070477C
:403F400080F0004002E000BF81F0004142001FBF5FEA410392EA030F7FEA226C7FEA236C6AD04FEA1262D2EB1363C1BFD218414048404140B8BF5B42192B88BF704710F0B0
:403F8000004F40F4000020F07F4018BF404211F0004F41F4000121F07F4118BF494292EA030F3FD0A2F1010241FA03FC10EB0C00C3F1200301FA03F100F0004302D54942CE
:403FC00060EB4000B0F5000F13D3B0F1807F06D340084FEA310102F10102FE2A51D2B1F1004F40EBC25008BF20F0010040EA03007047490040EB000010F4000FA2F1010228
:40400000EDD1B0FA80FCACF1080CB2EB0C0200FA0CF0AABF00EBC25052421843BCBFD0401843704792F0000F81F4000106BF80F400000132013BB5E74FEA41037FEA226C99
:4040400018BF7FEA236C21D092EA030F04D092F0000F08BF0846704790EA010F1CBF0020704712F07F4F04D1400028BF40F00040704712F100723CBF00F50000704700F086
:40408000004343F0FE4040F4000070477FEA226216BF08467FEA23630146420206BF5FEA412390EA010F40F4800070474FF0000304E000BF10F0004348BF40425FEA000C6A
:4040C00008BF704743F0964301464FF000001CE050EA010208BF70474FF000030AE000BF50EA010208BF704711F0004302D5404261EB41015FEA010C02BF844601460020E0
:4041000043F0B64308BFA3F18053A3F50003BCFA8CF2083AA3EBC25310DB01FA02FC634400FA02FCC2F12002BCF1004F20FA02F243EB020008BF20F00100704702F120023B
:4041400001FA02FCC2F1200250EA4C0021FA02F243EB020008BF20EADC7070474FF0FF0C1CEAD0521EBF1CEAD15392EA0C0F93EA0C0F6FD01A4480EA010C400218BF5FEABA
:4041800041211ED04FF0006343EA501043EA5111A0FB01310CF00040B1F5000F3EBF490041EAD3715B0040EA010062F17F02FD2A1DD8B3F1004F40EBC25008BF20F0010000
:4041C000704790F0000F0CF0004C08BF49024CEA502040EA51207F3AC2BFD2F1FF0340EAC250704740F400004FF00003013A5DDC12F1190FDCBF00F000407047C2F10002A0
:40420000410021FA02F1C2F1200200FA02FC5FEA310040F1000053EA4C0308BF20EADC70704792F0000F00F0004C02BF400010F4000F013AF9D040EA0C0093F0000F01F0B9
:40424000004C02BF490011F4000F013BF9D041EA0C018FE70CEAD15392EA0C0F18BF93EA0C0F0AD030F0004C18BF31F0004CD8D180EA010000F00040704790F0000F17BF17
:4042800090F0004F084691F0000F91F0004F14D092EA0C0F01D142020FD193EA0C0F03D14B0218BF084608D180EA010000F0004040F0FE4040F40000704740F0FE4040F4C3
:4042C000400070474FF0FF0C1CEAD0521EBF1CEAD15392EA0C0F93EA0C0F69D0A2EB030280EA010C49024FEA402037D04FF0805343EA111143EA10130CF000408B4238BF41
:404300005B0042F17D024FF4000C8B4224BF5B1A40EA0C00B3EB510F24BFA3EB510340EA5C00B3EB910F24BFA3EB910340EA9C00B3EBD10F24BFA3EBD10340EADC001B018F
:4043400018BF5FEA1C1CE0D1FD2A3FF650AF8B4240EBC25008BF20F0010070470CF0004C4CEA50207F32C2BFD2F1FF0340EAC250704740F400004FF00003013A37E792F017
:40438000000F00F0004C02BF400010F4000F013AF9D040EA0C0093F0000F01F0004C02BF490011F4000F013BF9D041EA0C0195E70CEAD15392EA0C0F08D142027FF47DAF51
:4043C00093EA0C0F7FF470AF084676E793EA0C0F04D14B023FF44CAF08466EE730F0004C18BF31F0004CCAD130F000427FF45CAF31F000437FF43CAF5FE700BF4FF0FF3CF1
:4044000006E000BF4FF0010C02E000BF4FF0010C4DF804CD4FEA40024FEA41037FEA226C18BF7FEA236C11D001B052EA530C18BF90EA010F58BFB2EB030088BFC81738BF68
:404440006FEAE17018BF40F0010070477FEA226C02D15FEA402C05D17FEA236CE4D15FEA412CE1D05DF8040B704700BF844608466146FFE70FB5FFF7C9FF002848BF10F139
:40448000000F0FBD4DF808EDFFF7F4FF0CBF012000205DF808FB00BF4DF808EDFFF7EAFF34BF012000205DF808FB00BF4DF808EDFFF7E0FF94BF012000205DF808FB00BFBD
:4044C0004DF808EDFFF7D2FF94BF012000205DF808FB00BF4DF808EDFFF7C8FF34BF012000205DF808FB00BF4FEA4002B2F1FE4F0FD34FF09E03B3EB12620DD94FEA00234D
:4045000043F0004310F0004F23FA02F018BF404270474FF00000704712F1610F01D1420205D110F0004008BF6FF0004070474FF00000704742000ED2B2F1FE4F0BD34FF0C0
:404540009E03B3EB126209D44FEA002343F0004323FA02F070474FF00000704712F1610F01D1420202D14FF0FF3070474FF00000704700BF014B1868704700BF6081FF1FA6
:404580000E4B70B51E460E4C0025E41AA410A54204D056F8253098470135F8E700F096F9084B094C1E46E41AA4100025A54204D056F8253098470135F8E770BDD848000095
:4045C000D8480000D8480000E0480000931E222B10B50C4602D90020087010BD0A2A06D1002804DA2D230B704042012100E00021214400F01FF8204610BDFFF7E7BF10B57D
:40460000431E0A44914204D011F8014B03F8014FF8E710BD03460244934202D003F8011BFAE77047034613F8012B002AFBD1181A01387047F0B58BB003460F466D461A4CC4
:4046400004F1200E2E4620686168083403C674453546F7D1217920683171911E222930604FF0000001D938701CE07D1EB3FBF2F402FB14330AAE334413F8283C411C05F8DB
:40468000013F23460CB10846F0E77C543A18C11A8B4206DAF95C1478FC5402F801190133F5E738460BB0F0BDA6480000000000000D0A20656E64200D0A000000004F004068
:4046C000300040510040300000000140001000140140000800400140000A004C01400002105001401000000000500140180F00481000000030313233343536373839414270
:4047000043444546000000001201000202000008B40432F2010001028001000009024300020101C032090400000102020103052400100104240202052406000105240100CD
:40474000010705810308000A09040100020A000004070582024000000705030240000000040309042C0343007900700072006500730073002000530065006D00690063001A
:404780006F006E0064007500630074006F007200100355005300420055004100520054003803430044004300200043006F006D006D0075006E0069006300610074006900B4
:4047C0006F006E00200049006E007400650072006600610063006500260343004400430020004400610074006100200049006E0074006500720066006100630065000000ED
:404800000203000000008103080002000100820240000A000100030240000A00020A0000010000001C47000003000000044800000000000000000000000000000000000007
:40484000000000001C480000010000000847000000000000000000000100000020480000010000004848000012034D00530046005400310030003000010000002800000081
:404880000001040001000000000000000001435955534200000030303030310000000000000000004300303132333435363738396162636465666768696A6B6C6D6E6F70A2
:4048C0007172737475767778797A0000F8B500BFF8BC08BC9E4670474D000000DD080000F8B500BFF8BC08BC9E4670472900000000490000C880FF1FA00000000002000077
:404900000000000000C2010000000800C201000000080000A12000000000020000000000807F0000030000000087930360EA00003C000000000030750000000000000000D4
:40494000000000000000000000000000000000000000000000000000A44800000000000000000000000000000000000000000000000000000000000000000000000000004B
:404980000000000000000000000000000000000000000000000000000081FF1F00000000000000000000000000000000000000000000000000000000000000000000000058
:4049C00000000000000000000000000000000000000000000000000000000000000000000000000000000000000000000000000000000000000000000000000000000000B7
:404A00000000000000000000000000000000000000000000000000000000000000000000000000000000000000000000000000000000000000000000000000000000000076
:404A40000000000000000000000000000000000000000000000000000000000000000000000000000000000000000000000000000000000000000000000000000000000036
:404A800000000000000000000000000000000000000000000000000000000000000000000000000000000000000000000000000000000000000000000000000000000000F6
:020000040003F7
:0200000480007A
:4000000001450040084F004005520040015B004006640040016500403B0001403001014037020140450301405D040140500501406E0601404F0701403A0801405709014087
:40004000340A0140510B0140500C0140440D01403D0E0140370F0140341401404E1501404416014049170140301801404A190140281A01404B1B01400C4001401241014041
:400080001142014013430140044401400A45014011460140164701400948014010490140154C0140064D014005500140035101407E0201200A4B0D20164B1940221B2550AA
:4000C0002E4B08300924182019187C402784806F826F830F840F89388E728A0F0102080809080B010C010E0C0F0210021109170420012A022B0930083104320433023401B6
:4001000035083602370138203E413F54540F580459045B045F0580028302872089188C088F019118950C96099A029D149E04A102A202B001B120B202B302B408B51CB60405
:40014000B701B920BE14BF04D280D804D904DB04DF010010014002010440078009020E040F2212481680181019911C401E181F40210222542401261027A429102F403102D5
:4001800032083601374438213A403B403D203E043F42582059815A08612476807A108C04C093C2E8C41ACA84CCD3CEFDD60FD806DE02041106040701081C09A30B5C0C20DC
:4001C00011C51220133A157F161D19961B681C111DFE1E081F01210E220223F0240126042C0D2E1030203403361D37FF3E013F40540F580459045B045F0586038802900C9B
:4002000094089604A60CAE02B002B201B408B604BE51D280D40FD804D904DB04DC10DF010108030804800620070409090D020E22100213081421174119A01A401B081E86F5
:40024000270128122F803080320436313744380839213B103D203E2458015AA05B045D105E885F016604670470027F2084208510878088408A0492B09301942896049B0455
:400280009D049E419F40A204A530A609A711A820A940AB21C0E6C2BCC4B5CA8ACCFACE67D6FFD860DE40E202E6460308050107F209C00B24170719841B1021C123122577BE
:4002C00029B72B40330F35F04042410349FF4AFF4BFF4DA04F015018540F580459045A045B045C015F016040628064406540668068406A806C406D206E80809E8103826082
:4003000084948660870488FD89038A02960F98309AC9A308A473A501A8CFAA30B0FFB108B301B502B704B820B928BE11BF04C042C103C52CC630C74EC83BC9FFCAFFCBFF15
:40034000CDAFCE07CF01D018D804D904DA04DF01E040E280E440E540E680E840EA80EC40ED20EE80030204040511060808420A080C200D080E0810101101131015241F11F1
:40038000211824822501271829112B202D142E162F2030203108380439203B023D083E203F02410842C043104508468047104F0655025626571059A05A045B028080830291
:4003C00085018B108D409250931094A895019704984299A09B049C109D0C9E459F48A201A480A53BA628A7B1AC82AD10AF01C071C26BC46ECAC7CC06CEE7D0E7D60FE22896
:40040000E888EE0200FD020205C0060F072408CF09840A300B100D010FF2109411C1126013121430157716C91B071C9E1E60247327082DB72F40330F34FF35F03E104063D4
:40044000410249FF4AFF4BFF4DA04F015018580459045A045F016040628064406540668068406A806C406D206E80847C850E87F089A38A1D8B5C90D191C59208933A94D191
:40048000959696049768997FA401A604A701A8ADA9FEAA10AB01AE02B01DB1FFB203B4E0B820BF01C063C102C50EC6C3C724C83DC9FFCAFFCBFFCDAFCE07CF01D018D4018E
:4004C000D804D904DA04DB0EDD10DF01E040E280E440E540E680E840EA80EC40ED20EE800328068807680A400B100E220FA01004110412021704188019091A401B201F1003
:400500002202242025102738280429182BC02E802F103101332836013724380439243B103E083FA0422043104620472049244D3051205249594079087A047B088240854038
:4005400090029171942C96089B049C109D1D9E419F40A201A480A534A62CA7A0AE08AF02C076C2BCC427CA56CCE7CE76D066D224D608DE02E040E205E649E802EA010D01ED
:40058000130619011D04210822022A0131023301340135083602370439083F145804590C5B045C115F0180C0823086808701880F89018C0F9004910192019403960C9901DA
:4005C0009AC09C109D019E60A230A408A501A602A810A901AAE0AC05AE0AB0F0B20FB701BA02D418D604D804D904DB04DC13DD30DF01019A05200620088209200A100C402A
:400600000E050F20108411401210140115241701188019021A101D101E052140240226842748281029202B102E023041311035043616374039043A203C805A02600462012E
:4006400063016C046F027D8081408302868088C08A088C048E028F089004915492029305948295019615980699809A389B209C419D289E019F02A010A122A222A301A4803A
:40068000AF05B110B320C06FC2EFC4FFCA86CCBDCE16D601D80DDE10E040E641EA01EE08010205010B010F01130215011B101F01231027082B082F0431063301350837106E
:4006C0003F54401641044202440345C0470E481249FF4AFF4BFF4C624DA04EF04F41500C5608580459045A045B045C915D935F016640670269106A306B106D106E106F12C3
:40070000D804D904DC11DF010120031005200620071008800A040E051041110413081481170A20242202230129022A402B182C01308431083212332035203610370A388212
:4007400039283A083E2540504140432049024A04530858105A4060026290680169406B01860188108D10905091B8926294809501961599909A609B089C019D089E119F03B0
:40078000A12AA224A310A481A690AE20AF02B040B640C066C2C3C4BDCA1FCCEFCEEFD00FD204D60CD80CE240E880041006400A030CDC0E22140C167118091AD01E20241000
:4007C00026AC281432E0341F3A08580459045C135F018041828285D38682870C89038B048D8A8E108F14901095D396C397049A109B089C109D209F45A241A403A604A8031C
:40080000AA08AE2CB1C0B2E0B30FB410B530B60FB820B922BA82BB08BE04BF01C061C103C50EC6C0C70BC819C9FFCAFFCBFFCEF0CF44D00CD608D804D904DA04DB04DC3369
:40084000DD93DF01E6C0EA40EB02000202100302048005180A980B010C800D281154128015081604185019041A801B511D18212622082C01308031A8350136103742388080
:4008800039283D403E253F8041884A28511052045840624084018A108E019194922A93019501960599809B489C019D059E309F01A204A302A690A701B184C0EDC2EFC46F20
:4008C000CA10CCBECEEED00AD204D608D808E280E646003C010402C1047C05060682080809020C040D610E080F0610CF11081230131016C3172119461A0C1B211CFF1F0890
:400900002004214723202410252128302B102C202D6730B0312032703340343F351837073A223B803F0456025711580459045B045C335D305F018101850289029102B3022D
:40094000B501BF10D804D904DC31DF01000401220301041005010620070809A80A800E251180128013141401180419121A281B0221602241232125082604270429262A102C
:400980002B013118328033013702382839803A023D15454046025B2061806302691C6B027014720273148C108F44C07FC2EFC48FCA0FCC8FCEEFD604E010580459045C116A
:4009C0005F0180208240830486108702880F8C0A8E058F01904091509220932894059538960A982099289A409B509C079D78A020A118A240A360A403A560A60CA718A80CF6
:400A0000AA03AE80B010B178B280B301B40FB504B660B702BA80D608D804D904DB04DD90DF01017102100482051408020A080C400D080E080F8010801524160217011D1554
:400A40001F80255426042741280229202BC02E082F80308032143621374439013A103D803F055C205E405F0865086705814082108308850C86028A048E409082913592081D
:400A80009508962098629A189B049D159F40A080A108A221A514A780A880A980B080B110B298B302C0FFC2FAC4F8CACCCCFECED5D670D870E208E606E801EA04EE010001F5
:400AC0000102020603040401060209020B240C080D080F10100111021202130515101708180219041A011B021E10200821082310240829082B1030043101320833183403E6
:400B000035063610372038083A203B283E04580459045F01820186808A028E40904096089A109E20A008A410A820AC04B002B201B4F8B604B820BE50D608D804D904DB04D1
:400B4000DC10DD90DF010001018003180505060108820B140D020E040F021010114012981640170418081A481B491C041D021E141F402509263427022B022F4832953624FB
:400B8000370239013A103D223E4042305A806001831084428601873488208F40908291659280940C950896089A499B049C109D109E209F40A201A320A480A504A634A7803B
:400BC000C0BFC2DFC43FCAA8CCEFCEB5D608D808E20EE602EA04EC8001400380070209200B100D0211801340150119081D04230427082B012D102E012F2033FF36013F04ED
:400C000056025739580459045B0C5C015D105F01C004C504C9FFCA07CBFFCC40CD20CEF0CF05D008D804D904DA04DC11DD03DF01E040E1A8E240E3200120024006600A0446
:400C40000BA00C010E0510011101145017401E021F402504284029202C512D202E202F5530013420375939013A483B203C803D213E0D4102490850805E2065046D306F519D
:400C80007440768077087D80810484408510871A92059304952099049B209C119D289F03A010A102A220A301A480A540A610B101C03AC2DEC4B9CAF5CCF1CEFFD001D620EF
:400CC000D840DE10E280E440EA04EC80040132013E0454015604580459045B045C115D305F018104830187308A028B028D10910A930595079708990FA601AA04AD01B00430
:400D0000B120B202B310B401B503B70CD203D302D804D90CDB04DC11DD10DF010082026003080404050107080BA00C100D080E021010110114201511160219041C841D09B8
:400D40001F1D2450270628102A0A2E8031093610370639013BA03C503F06580259845B2063406D806E206F027F028002822083058742881189808A0291119384972A982042
:400D80009A889B289E40A010A221A301A540A610AB50B204B344C07FC2ECC4FCCA13CCE3CEFDD60FD801DE10E081E640E801EA80EEA01040168032803308358036023820E6
:400DC0003B023E80C430CCF0CE703224378052085B047E84830187088C109420970298409D80A682A708CC70D420D640E6600501120817805A025D046410881089048A0156
:400E00009D809F84A6AAB040C020C4C0D6C0D8801B041F026904831486808F0C910499019D809F04A6A0AA02AF80C630DA40E2A0E610E840EA8011028E04C408E4080180F3
:400E40000B205010810885019A04A101C002C208D40403800501190827808B109320942095029A049D08A101B580C00CC608C801E204EE0209100A400D014102472081015A
:400E80008B808F409420950299019A049B80A101A380A510A910AD08C20ED006E008E604238099019B18A304A620A980B302C840EA205B105F0863088101862099019B185B
:400EC000A304A620AB80D480D680D840E020E640E8805B405E0166048B808C109201942099019A049B409F20A380A502AA40B201D401D601D801E201E402EC0181028D0133
:400F00009901A502AB20E602100B11011A031B011C0A00AB01FF100A0B01000000000000030003000A010A01000404000420F00018000000000000004000300000000000A0
:400F4000C2000000003F3F00340040000800140A0A0008006100000000FBFB00380000000001000000000000000000000000000000000000000000000000000000000000F5
:400F80000000000000000000000000000000000000000000000000000000000000000000000000000000000000000000000000000000000000000000000000000000000031
:400FC00000000000000000000000000000000000000000000000000000000000000000000000000000000000000000000000000000000000000000000000000000000000F1
:4010000000000000000000000000000000000000000000000000000000000000000000000000000000000000000000000000000000000000000000000000000000000000B0
:401040000000000000000000000000000000000000000000000000000000000000000000000000000000000000000000000000000000000000000000000000000000000070
:0200000490006A
:0400000000004005B7
:0200000490105A
:04000000BC90ACAF55
:0200000490303A
:02000000AAF85C
:0200000490402A
:4000000000000000000000000000000000000000000000000000000000000000000000000000000000000000000000000000000000000000000000000000000000000000C0
:400040000000000000000000000000000000000000000000000000000000000000000000000000000000000000000000000000000000000000000000000000000000000080
:400080000000000000000000000000000000000000000000000000000000000000000000000000000000000000000000000000000000000000000000000000000000000040
:4000C0000000000000000000000000000000000000000000000000000000000000000000000000000000000000000000000000000000000000000000000000000000000000
:0200000490501A
:0C00000000012E16106900012E36BB61B5
:00000001FF