:4000000000800020110000006D1700006D17000080B500AF024A034B1B68136001F0D8FBBC760040FA46004010B5054C237833B9044B13B10448AFF300800123237010BD3B
:40004000F082FF1F0000000058620000084B10B51BB108490848AFF300800848036803B910BD074B002BFBD0BDE81040184700BF00000000F482FF1F58620000C880FF1F3C
:400080000000000080B500AF034B01221A7001F019FD00BF80BD00BFD087FF1F80B500AF04F074F803469AB20A4B1A8003F088FF03469AB2084B1A80002003F0A5FF00208F
:4000C00004F088F8054B01221A7004F035FB00BF80BD00BF3083FF1F2E83FF1F2D83FF1F90B587B000AF78603960A14B1B78DBB2002B00F030819F4B1B78012B03D13220FF
:4001000000F058F928E19A4B00221A709A4B1B88184605F00BF903469849184605F012FA03461A46964B1A60964B1B88184605F0FDF803469149184605F004FA03461A468F
:40014000914B1A608E4B1B68184604F063FD84A3D3E9002304F0B2FD03460C461846214681A3D3E9002304F0D3FE03460C461846214604F0D5FF0246814B1A60804B1B6846
:400180008249184605F02AF903461A467C4B1A607D4B1B68184604F03DFD71A3D3E9002304F08CFD03460C46184621466EA3D3E9002304F0ADFE03460C461846214604F08A
:4001C000AFFF0246704B1A606F4B1B686F49184605F004F903461A466B4B1A606C4B1B78012B47D1664B1B686A49184605F0F6F803461A46684B1B681946104604F0E6FF93
:4002000003461A46644B1A605F4B1B686149184605F0E4F803461A46604B1B681946104604F0D4FF03461A465C4B1A605A4B1A685A4B1B681946104604F0C8FF03464FF082
:400240008041184605F07EF903461A46544B1A60534B1A68534B1B681946104605F070FA0346002B06D0434B01221A70322000F0A1F871E0424B1B681946786804F0A4FF45
:4002800003467B61404B1B681946386804F09CFF03463B6103F058FD0346184605F046F80246414B1A6003F02BFE0346184605F03DF802463D4B1A603B4B1B6879691846A8
:4002C00004F084FF0346FB60384B1B683969184604F07CFF0346BB603549F86805F03AFA0346002B03D0FF2003F00EFD13E04FF00001F86805F010FA0346002B03D00020A6
:4003000003F002FD07E0F86805F054FA0346DBB2184603F0F9FC2649B86805F01BFA0346002B03D0FF2003F0CBFD15E04FF00001B86805F0F1F90346002B03D0002003F0DD
:40034000BFFD09E0B86805F035FA0346DBB2184603F0B6FD00E000BF1C37BD4690BD00BF182D4454FB211940000000A09999A93F2D83FF1F3283FF1F2E83FF1F0000644396
:400380002083FF1F3083FF1F2483FF1F000050402C83FF1FCDCC4C3DCC87FF1F8887FF1F2883FF1F5082FF1FD487FF1F4487FF1F00007F43B0B584B000AF0346FB7103F0FC
:4003C000CFFC0346184604F0B1FF0346184604F021FC04460D46FB79184604F009FC4FF000020F4B04F094FD02460B462046294604F064FC03460C461846214604F070FE23
:400400000346FB73FB7B184603F07EFCFB7B184603F056FDFB7B18461037BD46B0BD00BF0000594080B500AFFF2003F05DFC03F0C7FBAA2003F068FCFF2003F031FD03F06F
:400440009BFCAA2003F03CFD03F09EFD03F082FE04F050F9064804F09DF9312004F078F9002003F0D1FD002003F0B4FE00BF80BD9D00000080B596B002AF0121002001F085
:400480004FFB012004F0D4F92D4A2E4B0193052300932D4B06CA2D4800F0E0FEF864FFF7C1FF2B4800F05CF8F86C04F03FFF0346184605F059F93B1D0A22194605F0DDF94B
:4004C0003B1D184600F04CF8224BBB64214B7B64214801F013FA01F0D3FAC82001F0FEFA002001F00DFB62B6796CB86CFFF7F8FD1BE004F0C9F90346002B08D11749786CDE
:4005000004F062FE03461946B86CFFF7E9FD04F0ADF90346002B08D11049B86C04F054FE0346796C1846FFF7DBFD04F09FF90346002BDED004F0A8F90346002BD9D0D3E7A1
:40054000C46200003483FF1FEC81FF1FCC80FF1FB46200000000C841850000000000A04080B582B000AF786000BF01F0EFFD0346002BFAD07B683F3300221A707B683E33EA
:4005800021221A70786805F0EFF903469BB21946786801F0A5FD00BF0837BD4680BD00BF80B485B000AF07F1080383E803007A603B7A122B11D87B7A0E2B0ED87B7A1A46A5
:4005C0001346DB0013445B0013447A6813443A7A9B5C002B01D1012300E0002303F00103DBB218461437BD4680BC704780B400AF054B1B68002B0CBF01230023DBB21846B5
:40060000BD4680BC704700BFBC86FF1F80B400AF064B1B6840F21D1293420CBF01230023DBB21846BD4680BC704700BFBC86FF1F90B583B000AF3B4683E80300FFF7E6FFB5
:40064000034683F00103DBB2002B24D0144B1A6814491346DB009B1A0B441A463B461868106099889B79918093710D4B1B685A1C0D4BA2FB0334111B49080B191B0A40F208
:400680001D1101FB03F3D31A054A1360074B1B680133064A136000BF0C37BD4690BD00BFB886FF1FD887FF1F61D9E6CBBC86FF1F90B585B000AF786007F1080300221A60CA
:4006C000C3F80320FFF792FF034683F00103DBB2002B24D0194B1A6819491346DB009B1ACA1807F10803106818609188927999809A71124B1B685A1C124BA2FB0334111B28
:4007000049080B191B0A40F21D1101FB03F3D31A0A4A13600C4B1B68013B0B4A13607B681A4607F108031868106099889B799180937178681437BD4690BD00BFB486FF1F29
:40074000D887FF1F61D9E6CBBC86FF1F90B5ADF5895D81B000AF07F12004143C206007F120001C3880E806003A46136007F63813184640F2CB731A46002105F08BF8002319
:4007800007F5885202F11F0213704DE0002307F5885202F11E02137034E007F5885303F11F031A7807F5885303F11E03187807F5885303F11F0319780B46DB000B445B00AD
:4007C000194407F12003143B1B68194407F5885303F11E031B78CC5C07F618011346DB0013445B0013440B44034422461A7007F5885303F11E031B78013307F5885202F154
:400800001E02137007F5885303F11E031B78122BC3D907F5885303F11F031B78013307F5885202F11F02137007F5885303F11F031B780E2BAAD9002307F5885202F103026F
:400840001370002307F5885202F118021360002307F5885202F11702137007F5016307F120021C3A92E8030018600433198002330A0C1A7007F120031C3B93E80300FFF7A4
:40088000D7FE00F0D5BC07F608031846FFF710FF07F500631A4600231360C2F8033007F608031B78013BDAB207F500631A7007F608035A7807F500635A7007F5FF631A4628
:4008C00000231360C2F8033007F608031B780133DAB207F5FF631A7007F608035A7807F5FF635A7007F5FE631A4600231360C2F8033007F608031A7807F5FE631A7007F672
:4009000008035B78013BDAB207F5FE635A7007F5FD631A4600231360C2F8033007F608031A7807F5FD631A7007F608035B780133DAB207F5FD635A7007F5885303F1170385
:400940001A781346DB009B1A3A461268134407F608011A68002414461A795879000202439B791B041A43002362F31703224603C900F08CFC0346002B00F01583002307F511
:40098000885202F11002136007F5FC6307F6080292E8030018600433198002330A0C1A7007F5FC6301225A71002307F5885202F10F021370002307F5885202F10E021370A1
:4009C00090E007F5FC63DB78012B18D107F5885303F10F031B78002B11D107F5FC6307F5885202F10E0212789A7107F5FC6301221A71012307F5885202F10F02137007F5F8
:400A0000885303F10F031B78002B30D107F5885303F10E031B78013307F5885202F10E02137007F5FC6307F608010CCB03C900F02DFC0346002B39D007F5885303F110039F
:400A400019684B1C07F5885202F11002136007F120020C3A0B46DB005B1A134407F5FC62106818609188927999809A711EE007F5FC63DB78012B19D107F5885303F11003B6
:400A800019684B1C07F5885202F11002136007F120020C3A0B46DB005B1A134407F5FC62106818609188927999809A7107F5FC635B78194607F5FC631B7807F5FC6407F642
:400AC00038101A46D200D21A0B465B010B449B000B441344C2182346106818609188927999809A7107F5016307F5FC610CCB03C900F0CCFB0346002B3FF463AF07F5885335
:400B000003F1100319684B1C07F5885202F11002136007F120020C3A0B46DB005B1A134407F50162106818609188927999809A7107F5885303F110031B68013B07F5885216
:400B400002F1080213607BE1002307F5885202F10702137007F5885303F108031B68002B00F03C8107F5885303F108031B68591E07F120020C3A0B46DB005B1A13440233A3
:400B80001B78032B3FD1B94804F0E6FE07F120020C3A07F5885303F1080319680B46DB005B1A134402331B78042B25D007F120020C3A07F5885303F1080319680B46DB000D
:400BC0005B1A134402331B78032B13D007F120020C3A07F5885303F1080319680B46DB005B1A134402331B78012B01D1032304E0042302E0012300E0022307F5885202F1D6
:400C000007021370D7E007F5885303F108031B68591E07F120020C3A0B46DB005B1A134402331B78042B3CD107F120020C3A07F5885303F1080319680B46DB005B1A134496
:400C400002331B78042B25D007F120020C3A07F5885303F1080319680B46DB005B1A134402331B78032B13D007F120020C3A07F5885303F1080319680B46DB005B1A134451
:400C800002331B78012B01D1042304E0032302E0022300E0012307F5885202F10702137089E007F5885303F108031B68591E07F120020C3A0B46DB005B1A134402331B7884
:400CC000012B3CD107F120020C3A07F5885303F1080319680B46DB005B1A134402331B78042B25D007F120020C3A07F5885303F1080319680B46DB005B1A134402331B78A9
:400D0000032B13D007F120020C3A07F5885303F1080319680B46DB005B1A134402331B78012B01D1012304E0022302E0042300E0032307F5885202F1070213703BE007F189
:400D400020020C3A07F5885303F1080319680B46DB005B1A134402331B78042B25D007F120020C3A07F5885303F1080319680B46DB005B1A134402331B78032B13D007F150
:400D800020020C3A07F5885303F1080319680B46DB005B1A134402331B78012B01D1022304E0012302E0032300E0042307F5885202F10702137007F120020C3A07F58853EE
:400DC00003F1080319680B46DB005B1A1344023307F5885202F1070212781A7007F5885303F118031B685A1C07F5885101F118010A601A46D200D31A07F5895202F1140238
:400E00001268D01807F120020C3A07F5885303F1080319680B46DB005B1A1A440346116819609188927999809A7107F5885303F108031B68013B07F5885202F1080213603C
:400E400007F5885303F108031B68002BBFF67CAE002307F5885202F1060213706AE0002307F5885202F10502137051E0CC62000007F5885303F10603197807F5885303F149
:400E800005031B7807F638101A46D200D21A0B465B010B449B000B44134403441A4600231360C2F8033007F5885303F106031A7807F5885303F10503187807F5885303F139
:400EC000060319780B46DB000B445B00194407F12003143B1B68194407F5885303F105031B78CC5C07F618011346DB0013445B0013440B44034422461A7007F5885303F1A7
:400F000005031B78013307F5885202F10502137007F5885303F105031B78122BA8D907F5885303F106031B78013307F5885202F10602137007F5885303F106031B780E2BDC
:400F40008DD9C34B00221A60C24B00221A60C24B00221A6007F5016307F6080292E8030018600433198002330A0C1A7007F5885303F117031B78013307F5885202F1170280
:400F8000137007F5885303F117031A7807F5895303F110031B689A4205D107F5885303F118031B684EE107F608035B781A4607F608031B78184607F618011346DB001344B6
:400FC0005B0013440B44034401221A70002307F5885202F10402137007F6180207F5006393E80300FFF7DCFA0346002B3FD007F5006303229A7007F5885303F104031B7851
:40100000013307F5885202F10402137007F5006393E80300FFF70CFB07F5885303F104031B78012B04D807F608039B78032B03D007F608030122DA7007F500635B781946C1
:4010400007F500631B7807F638101A46D200D21A0B465B010B449B000B441344034407F60802106818609188927999809A7107F6180207F5FF6393E80300FFF791FA03469B
:40108000002B3FD007F5FF6304229A7007F5885303F104031B78013307F5885202F10402137007F5885303F104031B78012B04D807F608039B78042B03D007F608030122C8
:4010C000DA7007F5FF6393E80300FFF7B1FA07F5FF635B78194607F5FF631B7807F638101A46D200D21A0B465B010B449B000B441344034407F608021068186091889279A6
:4011000099809A7107F6180207F5FE6393E80300FFF746FA0346002B3FD007F5FE6301229A7007F5885303F104031B78013307F5885202F10402137007F5885303F1040399
:401140001B78012B04D807F608039B78012B03D007F608030122DA7007F5FE6393E80300FFF766FA07F5FE635B78194607F5FE631B7807F638101A46D200D21A0B465B0185
:401180000B449B000B441344034407F60802106818609188927999809A7107F6180207F5FD6393E80300FFF7FBF90346002B3FD007F5FD6302229A7007F5885303F104035F
:4011C0001B78013307F5885202F10402137007F5885303F104031B78012B04D807F608039B78022B03D007F608030122DA7007F5FD6393E80300FFF71BFA07F5FD635B78C5
:40120000194607F5FD631B7807F638101A46D200D21A0B465B010B449B000B441344034407F60802106818609188927999809A71FFF7DCF9034683F00103DBB2002B7FF484
:4012400022AB0023184607F589570437BD4690BDB486FF1FB886FF1FBC86FF1F80B586B002AFF860381D80E806003B60FB690193BB6900933B683A1D06CAF868FFF766FAA4
:40128000034618461037BD4680BD00BF90B484B000AF07F1080484E80300394681E80C003A7A3B789A4205D17A7A7B789A4201D1012300E00023DBB218461037BD4690BC5D
:4012C000704700BF80B582B000AF786039603A680021786804F0DEFA00BF0837BD4680BD80B584B000AFF860B9607A607A68B968F86804F0C4FA00BF1037BD4680BD00BFC7
:4013000080B483B000AF0346FB71FEE780B487B000AF7860396000233B6100237B6127E07B699B007A6813441B68BB60BB68FB73BB6823F0FF03BB6014E03B695B003A68DE
:4013400013441B781A46BB68134419463B695B003A6813445B780B703B6901333B61FB7B013BFB73FB7B002BE7D17B6901337B617B692B2BD4D900BF1C37BD4680BC704734
:4013800080B582B000AF404B04221A803F4B18221A703F4B14221A803E4B18221A703E4B3B221A803D4B18221A703D4B81221A803C4B18221A703C4B4EF65F221A803B4B8F
:4013C00018221A703A4B4EF65F221A80394B1C221A70394B06221A70384B52221A70384B384A1278D2B21A70374B40F619121A80364B41F251221A800023FB7019237B60C2
:4014000014E0FB785B00DAB2314B1B78DBB203F00103DBB21343DBB203F00303FB704FF4F07003F041FA7B68013B7B607B68002B02D0FB78032BE4D17B68002B02D10320F2
:40144000FFF75EFF234B4FF480721A80214B07221A70214B00221A70204B48221A701D4B00221A701E4B00221A701E4B02221A701D4A1D4B1B78DBB243F03F03DBB2137092
:4014800000BF0837BD4680BD80400040824000408440004086400040884000408A4000408C4000408E40004090400040924000409440004096400040004300400042004065
:4014C000A14600400F0100492242004020420040254200400440004006400040084000400940004001400040A243004080B582B000AF1F4B1B78FB711E4B1B78BB711E4BAE
:401500001B787B711D4AFB7903F00703DBB213701B4AFB791B09DBB21370164ABB7943F00303DBB21370144A7B7943F00303DBB21370144B21221A70134B80221A70134BAB
:4015400010221A70124B20221A70124B20221A700A2002F073FA084A7B791370054ABB7913700D4B44221A7000BF0837BD4680BDCF010049F8460040F94600406E58004063
:401580006F5800400D51004001590040905A0040205B0040235B00407658004080B586B000AF72B6544B61221A70FFF7E9FE524B01221A700023FB7513E0FA7D13465B0075
:4015C00013445B004D4A13443B613B691A683B699B889BB219461046FFF774FEFB7D0133FB75FB7D062BE8D90023FB751CE0FA7D13469B0013445B00414A1344FB60FB6886
:401600001B68BB60FB685B687B60FB681A7A5B7A1B0213437B807B881A467968B868FFF75FFEFB7D0133FB75FB7D002BDFD035494FF09040FFF76AFE04213348FFF742FEEB
:40164000042232493248FFF74BFE324B324A1A60324B334A1A60334A324B1B78DBB243F00203DBB21370304A2F4B1B78DBB243F00203DBB213702D4A2C4B1B78DBB243F02A
:401680004003DBB213702A4A294B1B78DBB243F01003DBB213700A2226492748FFF720FE082226492648FFF71BFE0A2225492648FFF716FE082225492548FFF711FE0A22FD
:4016C00024492548FFF70CFE082224492448FFF707FE244A234B1B78DBB243F00803DBB21370FFF703FF0E2210491F48FFF7F8FD00BF1837BD4680BD00480040D4620000E9
:4017000000630000B0000048007600407810004808760040D800014004040484D8060140040400840350014013500140A0430040C24300403C100048005100404810004851
:40174000C251004050100048F05100405C100048125100406410004820510040701000483251004022430040B043004080B500AF04F040F803461B680C2B00D1FEE7FEE718
:4017800080B584B000AF78600F4B1A687B6813441A460E4BD31A802B09DC0B4B1B68FB60094B1A687B681344074A136007E004F021F802460C2313604FF0FF33FB60FB68D8
:4017C00018461037BD4680BD5482FF1F8090FF1F80B586B000AF224B7B61224B3B61204B7B6135E03B691B68FB603B695B68BB603B699B683B6000237B600CE0FB681A6805
:40180000BB681A60BB680433BB60FB680433FB607B6804337B607A683B689A42EED13B69DB683B6000237B6008E0BB6800221A60BB680433BB607B6804337B607A683B6876
:401840009A42F2D13B6910333B617B69013B7B617B69002BC6D103F0D3FFFEF70BFEFEE7010000007065000080B582B000AF194B194A1A60194A194B1B6843F40073136068
:4018800000237B600FE07B68032B04D8144A7B6852F8233000E0134B13497A6841F822307B6801337B607B682F2BECD90F4B1B78DAB20F4B1A700F4B0B4A1A60FFF76EFE8D
:4018C00002F082F80C4B00221A6000BF0837BD4680BD00BF0CED00E00004FA0514ED00E0000000006D1700000080FF1FBC760040C480FF1F08ED00E0C080FF1F80B582B03F
:4019000000AF786000F03CF8786800F009F8072000F018F800F028F800BF0837BD4680BD80B485B000AF7860054B1B68FB60FB6860337A681A6000BF1437BD4680BC704746
:4019400008ED00E080B483B000AF0346FB71054AFB795B01DBB2137000BF0C37BD4680BC704700BF08E400E080B400AF034B4FF480721A6000BFBD4680BC704700E100E0BF
:4019800080B400AF034B4FF480721A6000BFBD4680BC704780E100E080B500AF224A224B1B78DBB203F00103DBB213701F4A1F4B1B78DBB223F00303DBB213701C4A1C4B84
:4019C0001B78DBB223F03003DBB21370184A184B1B78DBB243F03003DBB21370144A144B1B78DBB223F00F03DBB21370104A104B1B78DBB243F00F03DBB213700D4A0D4B2B
:401A00001B78DBB243F00103DBB2137040F69F7000F064F840F69F7000F072F8082000F041F800BF80BD00BF244F0040264F00402F4F0040254F004080B400AF0D4A0D4B97
:401A40001B78DBB243F00803DBB213700A4A0A4B1B78DBB243F00803DBB21370074A074B1B78DBB243F00103DBB2137000BFBD4680BC7047A3430040B3430040244F004013
:401A800080B500AF064B1B78002B04D1FFF784FF034B01221A70FFF7CFFF00BF80BD00BFC086FF1F80B483B000AF0346FB71044AFB79137000BF0C37BD4680BC704700BF40
:401AC000274F004080B400AF034B1B78DBB21846BD4680BC704700BF274F004080B485B000AF0346FB80FB88FB81044AFB89138000BF1437BD4680BC704700BF284F004060
:401B000080B483B000AF0346FB80044AFB88138000BF0C37BD4680BC704700BF2A4F004080B582B000AF03460A46FB711346BB71094B1B78002B04D100F010F8064B012204
:401B40001A70BA79FB791146184600F0D9F800BF0837BD4680BD00BFC186FF1F80B582B000AF02F0A9FE0346FB71544A534B1B78DBB243F00103DBB21370514A504B1B788C
:401B8000DBB243F00103DBB213704E4B01221A704D4B02221A704D4A4C4B1B78DBB203F07F03DBB21370002001F048FF484A484B1B78DBB223F00603DBB21370454A454B0A
:401BC0001B78DBB223F02003DBB21370404A404B1B78DBB243F00103DBB21370012001F02DFF282001F02AFF3B4A3B4B1B78DBB203F07F03DBB21370374A374B1B78DBB290
:401C000023F04003DBB21370314A314B1B78DBB243F00203DBB21370022001F00FFF2C4A2B4B1B78DBB243F00403DBB213702B4B00221A702A4B00221A70FB79184602F061
:401C40003FFE0721172001F035FF2649172001F009FF0721182001F02DFF2349182001F001FF0721152001F025FF2049152001F0F9FE0721032001F01DFF1D49032001F028
:401C8000F1FE0721042001F015FF1A49042001F0E9FE0721052001F00DFF1749052001F0E1FE07210C2001F005FF14490C2001F0D9FE00BF0837BD4680BD00BFA543004027
:401CC000B54300409D60004009600040106000409443004012600040F8510040846000408560004019290000012200000D290000252800006D280000B928000025290000CF
:401D000080B582B000AF03460A46FB711346BB712E4AFB7913702E4B00221A702D4B00221A702D4B00221A702C4B00221A702C4B00221A702B4B00221A702B4B00221A709D
:401D40002A4B4FF400021A60284B4FF080721A60264B4FF400121A60244B08221A60234B10221A60214B20221A60BB79002B02D0012B09D011E01E4A1D4B1B78DBB223F052
:401D80000103DBB2137011E0194A194B1B78DBB243F00103DBB2137008E0154A144B1B78DBB243F00103DBB2137000BF114B03221A70114B80221A70012002F075FD0F4BB2
:401DC00004221A7000BF0837BD4680BDBD8FFF1FC08FFF1FDC8FFF1FDF8FFF1FD48FFF1FDE8FFF1FE18FFF1FBC8FFF1F00E100E0096000402860004008600040126000407A
:401E000080B400AF0F4B00221A700F4B00221A700E4B00221A700E4B00221A700D4B00221A700D4B00221A700C4B00221A700C4B03221A700B4B80221A7000BFBD4680BC18
:401E4000704700BFC08FFF1FDC8FFF1FDF8FFF1FD48FFF1FDE8FFF1FE18FFF1FBC8FFF1F286000400860004080B483B000AF0346FB71FA79064913465B0013449B000B4475
:401E800001331B78DBB218460C37BD4680BC7047E48FFF1FB0B485B000AF03463960FB711346BB80FB79002B6DD0FB79082B6AD8B988FA79364813465B0013449B00034498
:401EC00006331B889BB2C3F5007399420CD9FA792F4913465B0013449B000B4406331B889BB2C3F50073BB802A4CF979BB881B0A9BB2D8B2FA79264D13465B0013449B00AC
:401F00002B4403331B78DBB20343DAB20B0123441A70204AFB79B988C9B21B01134401330A461A703B68002B13D00023FB810CE01948FB79FA8939680A4412781B01034482
:401F400008331A70FB890133FB81FA89BB889A42EED3FA790E4913465B0013449B000B44013300221A700B48F979FA79084C13465B0013449B00234405331B78DAB20B016A
:401F8000034402331A7000BF1437BD46B0BC7047E48FFF1FFC5F00407060004080B582B000AF0023FB71314B1B79DBB2184600F067F80346BB712D4B1B78DBB25BB2002B7B
:401FC00015DA2A4B5B78DBB2212B00D048E0284B07221A80BA791346DB009B1A254A1344234A536000F086FA0346FB7138E01F4B5B78DBB2202B02D0222B1AD030E01C4BCF
:4020000007221A80BA791346DB009B1A194A1344174A5360BB79BA7917498A5CD2B242F00102D1B2144AD15400F0E2FA0346FB7116E0BB790D4A9278D2B291B20F4A22F841
:402040001310BB79BA790C498A5CD2B242F00202D1B2094AD15400F069FB0346FB7100BFFB7918460837BD4680BD00BF00600040C88FFF1F5882FF1FA48FFF1FB88FFF1F4B
:4020800080B485B000AF0346FB710023FB73FF23BB7317E0FB7B104AD35C7B737A7B0F4913465B0013449B000B440A331B78DBB2FA799A4203D1FB7BBB730223FB73FB7B1F
:4020C0000133FB73FB7B012BE4D9BB7B18461437BD4680BC704700BFAC8FFF1FE48FFF1F80B584B000AF78600B467B80144B1B781A46144B9B5CFB73FA7B134913465B008A
:4021000013449B000B4408331B889BB27A889A420CD9FA7B0C4913465B0013449B000B4408331B887B80002001F07CFC7A88FB7B79681846FFF7AEFE00BF1037BD4680BDB0
:40214000C286FF1FA88FFF1FE48FFF1F80B500AF054B1B781A46054B9B5CDBB21846FFF783FE0346184680BDC286FF1FA88FFF1F80B485B000AF78600B46FB701346BB7074
:402180007B68DB7803F00303FB737B689B785BB2002B1ADAFB7B032B0AD0BB7803F001031449FA78CA54BB7843F00103BB701BE0BB789B08DBB203F001030F49FA78CA54F9
:4021C000BB7843F00403BB700EE0FB7B032B0BD0BB785B08DBB203F001030849FA78CA54BB7843F00203BB70BB7818461437BD4680BC7047A88FFF1FAC8FFF1FB08FFF1F6C
:4022000080B582B000AF374B1B78BB71BB7903F01003002B62D00123FB7197F90630002B12DABB7903F00F03012B02D00023FB711CE000F061F82C4B1B78DBB25BB2002B69
:4022400014DA0023FB7111E0BB7903F04003002B02D000F095F809E0BB7903F02003002B02D000F0B3F801E00023FB71FB79002B34D01C4B1B78BB7197F90630002B2DDB0F
:402280001A4B1B78DAB21A4B1B78DBB21343BB71184ABB791370174B1B78DBB2BA799A421CD1114B1B78FB710E4B1B78DBB223F07F03BB71BB79002B0AD10A4B0A4A1278FA
:4022C000D2B21A70074B1B78DBB203F00F03FB71054B1B78DBB2FA799A42E2D100BF0837BD4680BD28600040DD8FFF1F5290FF1FE08FFF1F2960004080B582B000AF1D4B17
:402300001B78FB711B4AFB7913701A4B1B78FB7197F90730002B03DA174AFB79137025E0022000F045FA154B1B78DBB203F06003202B08D0402B0BD0002B0ED100F0F8FA36
:402340000346FB710CE002F0BFFA0346FB7107E001F000FB0346FB7102E00023FB7100BFFB79002B02D1044B03221A7000BF0837BD4680BD28600040DD8FFF1F0060004004
:4023800080B500AF104B1B78DBB2062B19D801A252F823F0C3230000C3230000B1230000C3230000B7230000C3230000BD23000000F0F8F806E000F0A7F903E000F0D2F982
:4023C00000E000BF00BF80BDC08FFF1F80B500AF124B1B78DBB2062B1DD801A252F823F01724000017240000FD2300001724000003240000172400000924000000F0D8F82E
:402400000AE000F027F907E0032000F0D1F9044B03221A7000E000BF00BF80BDC08FFF1FDD8FFF1F80B483B000AF0023FB71294B1B78DBB29AB2284B1B889BB213449AB2C3
:40244000254B1A8015E02549FB79254A52681278D2B2CA54224B5B680133214A5360FB790133FB711E4B1B889BB2013B9AB21C4B1A801B4B1B889BB2002B02D0FB79072BB5
:40248000E1D9144B1B78DBB2082B02D0FB79002B0FD0144B1B78DBB283F07F03DB43DAB2104B1A70104B0F221A70104B02221A7005E00D4B02221A700C4B02221A700C4AF8
:4024C000FB791370034AFB79137000BF0C37BD4680BC7047BC8FFF1FBE8FFF1F00600040C88FFF1F5290FF1FDD8FFF1FC08FFF1FE08FFF1F80B582B000AF164B1B889BB2D5
:40250000002B02D100F02EF81EE0134B02221A70124B00221A7000F06BF9114BDB79DBB29BB21B029AB20E4B9B79DBB29BB21343FB80084B1B889BB2FA889A4202D2054A51
:40254000FB881380FFF76EFF012318460837BD4680BD00BFC88FFF1FC08FFF1F5290FF1F0060004080B400AF094B02221A70094B80221A70084B0F221A70084B00221A702E
:40258000074B00221A7001231846BD4680BC7047C08FFF1F5290FF1FDD8FFF1FBC8FFF1FE08FFF1F80B500AFFFF73CFF00BF80BD80B500AF0A4B1B78DBB29AB2094B1B880B
:4025C0009BB213449AB2074B1A80074B00221A70012000F0EDF8054B03221A7000BF80BDBC8FFF1FBE8FFF1FC08FFF1FDD8FFF1F80B582B000AF124B04221A70114B802224
:402600001A7000F0F5F8104BDB79DBB29BB21B029AB20D4B9B79DBB29BB21343FB800B4B1B889BB2FA889A4202D2084AFB881380074B0B221A70012318460837BD4680BD40
:40264000C08FFF1F5290FF1F00600040C88FFF1FDD8FFF1F80B483B000AF0023BB71234B1B78DBB203F00F03DBB2023BFB71FB799AB21F4B1B889BB213449AB21C4B1A8062
:4026800018E01C4B5B681C49BA798A5CD2B21A70184B5B680133174A5360BB790133BB71FB79013BFB71134B1B889BB2013B9AB2104B1A800F4B1B889BB2002B02D0FB79C8
:4026C000002BDED10D4AFB7913700D4B1B78DBB283F07F03DB43DAB2094B1A70094B0B221A7000BF0C37BD4680BC704729600040BE8FFF1FC88FFF1F00600040E08FFF1FE4
:402700005290FF1FDD8FFF1F80B500AF054B00221A70012000F04CF8034B03221A7000BF80BD00BFC08FFF1FDD8FFF1F80B400AF084B06221A70084B06221A70074B80224A
:402740001A70074B00221A7001231846BD4680BC704700BFC08FFF1FDD8FFF1F5290FF1FE08FFF1F80B500AF0D4B1B78DBB2002B0AD00C4A0A4B1B78DBB263F07F03DBB288
:402780001370074B00221A70074B00221A70012000F00EF8054B03221A7000BF80BD00BFDE8FFF1F08600040C08FFF1FDD8FFF1F80B483B000AF0346FB710B4B9B68002B50
:4027C0000CD0094B9B68FA791A70074B9B68074A128892B25A80044B00229A6000BF0C37BD4680BC704700BFC88FFF1FBE8FFF1F80B400AF094B00221A80094B9B68002BD4
:4028000007D0074B9B6800221A70054B9B6800225A8000BFBD4680BC704700BFBE8FFF1FC88FFF1F80B400AF0D4B01221A700D4B9B7C0D4B1B7BDBB203F00303012B08D04E
:40284000094BDB7BDBB283F07F03DB43DAB2064BDA73054B01225A7300BFBD4680BC70470B600040FC5F0040E48FFF1F80B400AF0E4B02221A700E4B93F822300D4B1B7E07
:40288000DBB203F00303012B08D00A4BDB7EDBB283F07F03DB43DAB2064BDA76054B01225A7600BFBD4680BC704700BF0B600040FC5F0040E48FFF1F80B400AF104B042221
:4028C0001A70104B93F832300F4B93F82430DBB203F00303012B0AD00B4B93F82730DBB283F07F03DB43DAB2074B83F82720064B012283F8252000BFBD4680BC704700BF21
:402900000B600040FC5F0040E48FFF1F80B400AF00BFBD4680BC704780B500AFFFF770FA00BF80BD80B500AF01F03EF800BF80BD80B586B000AF0023FB759D4B1B78FB714D
:4029400000233B619B4B00221A8097F90730002B80F20481964B5B78DBB20A2B00F21B8201A252F823F000BFB32A0000972D0000972D0000972D0000972D0000972D000098
:4029800095290000972D0000272B0000972D00003D2B0000864BDB78DBB2012B0ED100F049FEB860BB685B68824A5360814B12221A80FFF79FFD0346FB75EEE17C4BDB78D9
:4029C000DBB2022B25D17A4B9B78DBB2184600F009FEB860BB68002B00F0DF81BB685B68744A5360734B5B6803331B78DBB29BB21B029AB26F4B5B6802331B78DBB29BB2B4
:402A000013439AB26B4B1A80FFF774FD0346FB75C3E1674BDB78DBB2032B45D10023FB73654B3B6109E03B691B78BB71BB793A6913443B61FB7B0133FB735D4B9B78DBB2B7
:402A4000FA7B9A4204D23B691B78DBB2002BEAD1574B9B78DBB2EE2B01D1584B3B61544B9B78DBB2002B0BD0514B9B78DAB2544B1B7C9A4204D1534800F0ACF9514B3B614A
:402A80003B691B78DBB2002B00F087813B691B78DBB29AB2474B1A80464A3B695360FFF729FD0346FB7578E101F00EFF0346FB7573E1FB7903F00303002B20D0022B00D04E
:402AC00030E03C4B02221A80394B1B79DBB203F07F023D4913465B0013449B000B4402331B78DAB2394B1A70384B00225A70314B364A5A60FFF7FEFC0346FB7512E02D4B53
:402B000002221A80324B1B78DAB2304B1A702F4B00225A70274B2D4A5A60FFF7EBFC0346FB7500BF40E1234B01221A80214B294A5A60FFF7DFFC0346FB7535E11D4B0122C8
:402B40001A801B4B1B79DBB21A46234B1344194A5360FFF7CFFC0346FB7525E1144B5B78DBB2013B0A2B00F21A8101A252F823F07B2C00009F2D0000092D00009F2D000047
:402B80009D2B00009F2D00009F2D00009F2D0000E12B00009F2D0000372C0000044B9B78DAB20E4B1A70FFF7C1FD0346FB75FBE000600040C88FFF1F7863000080640000C1
:402BC000206300005890FF1FE48FFF1FC486FF1FE18FFF1FDF8FFF1F5090FF1FDE8FFF1F744B9B787B717B79002B06D07B79013BDBB2184600F0F6FCB8607B79002B02D0F7
:402C0000BB68002B03D17B79002B40F0CA806A4B1B78DBB27A799A4208D0674A7B791370664B01221A70012000F0DCF9FFF77EFD0346FB75B5E000F055FE0346002B00F08B
:402C4000B2805C4B1B793B715A4B1B79DAB25C4B1A703B795B4AD35CDAB23B795A49CB5CDBB29A4204D0554B01221A7000F08CFBFFF75CFD0346FB7595E0FB7903F00303C8
:402C8000012B20D0012B0CD3022B00D03BE0494B9B78DBB2002B31D100F078FD0346FB752CE0444B9B78DBB2012B29D1474B1B78DBB223F00203DAB2444B1A70FFF736FD5D
:402CC0000346FB751CE03B4B1B79DBB2012B19D8384B9B78DBB2DB43DBB2364A1279D2B2114610463A4A125CD2B21340DAB2384B5A54FFF71BFD0346FB7503E000BF53E02F
:402D000000BF51E000BF4FE0FB7903F00303012B20D0012B0CD3022B00D03BE0254B9B78DBB2002B31D100F0BDFC0346FB752CE0204B9B78DBB2012B29D1244B1B78DBB29E
:402D400043F00203DAB2214B1A70FFF7EFFC0346FB751CE0174B1B79DBB2012B19D8154B9B78DBB2DB43DBB2124A1279D2B211461046174A125CD2B21340DAB2144B5A5461
:402D8000FFF7D4FC0346FB7503E000BF0CE000BF0AE000BF08E000BF06E000BF04E000BF02E000BF00E000BFFB7D18461837BD4680BD00BF00600040DF8FFF1FDC8FFF1F96
:402DC000D48FFF1FC48FFF1F5090FF1FE18FFF1F5490FF1FB0B58AB000AF7860324B07F114041D460FCD0FC42B682370002387F826307B68002B52D07B6822221A707B68AC
:402E0000013303221A7007F10C03184600F076FE022387F827303EE097F827307A68134497F8262007F128010A4412F81C2C1209D2B207F128010A4412F8142C1A7097F8A7
:402E4000273001337A68134400221A7097F8273002337A68134497F8262007F128010A4412F81C2C02F00F0207F128010A4412F8142C1A7097F8273003337A68134400223B
:402E80001A7097F82630013387F8263097F82730043387F8273097F82730212BBCD900BF2837BD46B0BD00BF0C63000090B482B000AF0123FB7180E0464AFB791B01134498
:402EC0000C221A70FA79444913465B0013449B000B4405331B78DBB2002B1CD0FA793E4913465B0013449B000B4404331B78DBB25BB2002B07DA394AFB791B0113440233B8
:402F00000C221A700EE0354AFB791B011344023308221A7006E0314AFB791B011344023380221A702B48F979FA792B4C13465B0013449B00234406331B889BB2DAB20B0156
:402F4000034406331A702348F979FA79224C13465B0013449B00234406331B889BB21B0A9BB2DAB20B01034407331A701948F979FA79194C13465B0013449B00234406334D
:402F80001B889BB2DAB20B01034404331A701148F979FA79104C13465B0013449B00234406331B889BB21B0A9BB2DAB20B01034405331A70FB790133FB71FB79082B7FF66E
:402FC0007BAF074BFF221A7000BF0837BD4690BC704700BF70600040E48FFF1FFC5F00400A60004080B58AB000AF0346FB7100237B84002387F8273050E097F82720B34911
:4030000013465B0013449B000B4400221A7097F82720AE4913465B0013449B000B44023300221A7097F82720A84913465B0013449B000B44033300221A7097F82720A349EC
:4030400013465B0013449B000B44083300221A8097F827209D4913465B0013449B000B440A3300221A7097F82720984913465B0013449B000B44013300221A7097F8272068
:40308000924913465B0013449B000B44053300221A7097F82730013387F8273097F82730082BAAD9FB79002B16D0002387F825300EE097F82530864A0021D15497F8253088
:4030C000844A0021D15497F82530013387F8253097F82530012BECD97F4B1B78DBB2002B00F04A810023FB767B4B1B78DBB2013BDBB2184600F076FA78617B695B683B610E
:403100003B6907331B7803F04003002B08D0734B1B78DBB243F00103DAB2704B1A7007E06E4B1B78DBB223F00103DAB26B4B1A707B6908337B617B691B7887F827300123F0
:4031400087F82530B6E07B695B68FB61002387F82630A3E097F82520FB699B7803F07F039A4240F0938097F82520584913465B0013449B000B4408331B889AB2FB699B886D
:403180009A420CD297F82520FB6998884F4913465B0013449B000B44083302461A80FB691B781A464A4B9B5CDAB2FB695B789A426CD197F82520FB699878444913465B000B
:4031C00013449B000B44043302461A7097F82520FB69D8783D4913465B0013449B000B4402461A70FB69DB7803F00303FB73FB699B785BB2002B1CDA97F82520FB7B012B77
:4032000001D1072000E00D20304913465B0013449B000B44053302461A7097F825202B4913465B0013449B000B44013301221A701BE097F82520FB7B012B01D1052000E0AA
:403240000920224913465B0013449B000B44053302461A7097F825201C4913465B0013449B000B44013300221A70FB699B790A2B03D0FB699B79022B08D1FA7E97F8253053
:403280001946F869FEF774FF0346FB76FB690833FB6197F82630013387F8263097F8262097F827309A42FFF455AF97F82530013387F8253097F82530082B7FF644AF7B6966
:4032C0005B68FB61002387F8253020E0E48FFF1F5090FF1FC48FFF1FDF8FFF1FE18FFF1FFB699B7803F07F02FB691878244913465B0013449B000B440A3302461A70FB69EA
:403300000833FB6197F82530013387F8253097F8252097F827309A42E2D300F09DF90246184B1A6000237B84012387F827301DE097F82720124913465B0013449B000B44D5
:4033400006337A8C1A8097F827200D4913465B0013449B000B4408331B889AB27B8C13447B8497F82730013387F8273097F82730082BDDD9FFF79AFD00BF2837BD4680BD22
:40338000E48FFF1FD88FFF1F90B585B000AF8F4B1B78DBB2002B00F015818C4B1B78DBB2013BDBB2184600F01DF978607B6808337B607B681B78FB707B685B68BB60844BBD
:4033C0001B78BB700023FB73F7E0BB681B78BA789A4240F0EC80BB787E4AD35CDAB2BB685B789A4240F0E380BB689B7803F07F037B70BB68DB7803F003033B707A787649CB
:4034000013465B0013449B000B44033300221A707A78BB689878704913465B0013449B000B44043302461A707A78BB68D8786A4913465B0013449B000B4402461A707A7808
:40344000BB689888644913465B0013449B000B44083302461A80BB689B785BB2002B1ADA7A783B78012B01D1072000E00D205A4913465B0013449B000B44053302461A706F
:403480007A78554913465B0013449B000B44013301221A7019E07A783B78012B01D1052000E009204C4913465B0013449B000B44053302461A707A78474913465B001344BB
:4034C0009B000B44013300221A70444A7B781B011344023301221A70404879787A783E4C13465B0013449B00234408331B889BB21B0A9BB2DAB20B0103441A7037487978B4
:403500007A78354C13465B0013449B00234408331B889BB2DAB20B01034401331A70304879787A782C4C13465B0013449B00234406331B889BB2DAB20B01034406331A7098
:40354000274879787A78244C13465B0013449B00234406331B889BB21B0A9BB2DAB20B01034407331A701E4879787A781A4C13465B0013449B00234406331B889BB2DAB2CD
:403580000B01034404331A70154879787A78124C13465B0013449B00234406331B889BB21B0A9BB2DAB20B01034405331A70BB680833BB60FB7B0133FB73FA7BFB789A42BB
:4035C000FFF403AF00BF1437BD4690BDDF8FFF1FD48FFF1F5090FF1FE48FFF1FFC5F00407060004080B485B000AF0346FB710F4B1B78DBB20E4ADB0013445B68FB60FB6833
:403600001033FB60FB681B78FA799A4202D30023FB6005E0FB79DB00FA6813445B68FB60FB6818461437BD4680BC7047BD8FFF1F7864000080B400AF054B1B78DBB2054A5F
:40364000DB0013445B681846BD4680BC704700BFBD8FFF1F7864000080B584B000AF104B1B78DBB2013BDBB21846FFF7BBFFB860BB68002B0DD0BB685B681B79FB71FB79F5
:403680000233DB00BA681344BB60BB685B68FB6001E00023FB60FB6818461037BD4680BDDF8FFF1F80B582B000AF0023FB71344B1B79DBB203F07F03BB71BB79002B5AD083
:4036C000BB79082B57D8BA79B9792E480B465B000B449B00034402331B78DBB243F00103D8B2284913465B0013449B000B44023302461A70BA79234913465B0013449B00B4
:403700000B44033300221A70BA79B9791D480B465B000B449B00034401331B78DBB243F00203D8B2174913465B0013449B000B44013302461A70BA79124913465B001344A7
:403740009B000B4404331B78DBB25BB2002B07DA0D4ABB791B01134402338D221A7006E0094ABB791B011344023389221A70FEF7DDFF0346FB71FB7918460837BD4680BD62
:4037800000600040E48FFF1FFC5F004080B582B000AF0023FB71504B1B79DBB203F07F03BB71BB79002B00F09280BB79082B00F28E80BA79B97949480B465B000B449B00E7
:4037C000034402331B78DBB223F00103D8B2434913465B0013449B000B44023302461A70BA793E4913465B0013449B000B44033300221A703A49BB793948BA7912010244AF
:403800001278D2B202F07F02D2B21B010B441A70BA79B97931480B465B000B449B00034401331B78DBB223F00203D8B22B4913465B0013449B000B44013302461A70BA793B
:40384000264913465B0013449B000B4404331B78DBB25BB2002B1BDABA79204913465B0013449B000B4401331B78DBB2012B07D11B4ABB791B01134402330C221A7022E07C
:40388000174ABB791B01134402330D221A701AE0BA79124913465B0013449B000B4401331B78DBB2012B07D10D4ABB791B011344023308221A7006E0094ABB791B01134476
:4038C000023309221A70FEF731FF0346FB71FB7918460837BD4680BD00600040E48FFF1FFC5F004080B584B000AF0023FB73154B1B79BB73144B1B78DBB2013BDBB2184676
:40390000FFF770FEB860BB685B681B79FB71BA7BFB799A4202D9BB7B022B0ED8BB7BBA7B0A498A5CD1B20A4AD154BB7B054A9278D1B2064AD1540123FB73FB7B18461037A8
:40394000BD4680BD00600040DF8FFF1F5090FF1FC48FFF1F80B582B000AF0023FB710F4B1B78DBB25BB2002B12DA0C4B5B78DBB2012B00D00CE00A4B0A4A5A60094B1B7840
:403980009AB2074B1A80FEF7B5FD0346FB7100BFFB7918460837BD4680BD00BF00600040C88FFF1F9464000080B400AF054B1B78DBB203F040039B09DBB21846BD4680BC40
:4039C000704700BF8F45004080B483B000AF134B7F221A70124B80221A707F23FB710CE0FB79DB0003F1804303F5F043FA79013AD2B21A70FB79013BFB71FB79002BEFD1B3
:403A0000FB79DB0003F1804303F5F04300221A7000BF0C37BD4680BC704700BF7582FF1F7482FF1F80B483B000AF0346FB7101BE00BF0C37BD4680BC704700BF80B582B021
:403A400000AF0346FB80FB88054A127802FB03F3184600F029FF00BF0837BD4680BD00BF8482FF1F80B584B000AF03463960FB710F4B1B68FB60FB791F2B02D90020FFF7A0
:403A8000D1FFFB7903F01F0310339B00FA6813441B68BB60FB7903F01F0310339B00FA6813443A681A60BB6818461037BD4680BD08ED00E080B582B000AF03460A46FB7144
:403AC0001346BB71BB79072B02D90020FFF7AAFFFB791F2B02D90020FFF7A4FFFB7903F01F0303F1604303F56443BA795201D2B21A7000BF0837BD4680BD00BF80B483B038
:403B000000AF7860264B1B78DBB21A467B681A60244B1B78DBB21B027A6812681A437B681A60214B1B78DBB21B047A6812681A437B681A601D4B1B78DBB21B067A68126828
:403B40001A437B681A607B680433194A1278D2B21A60184B1B78DBB21A027B6804337968043109680A431A60134B1B78DBB21A047B6804337968043109680A431A600F4B21
:403B80001B78DBB21A067B6804337968043109680A431A6000BF0C37BD4680BC704700BF0301004904010049EC460040020100490101004900010049050100490601004919
:403BC00080B500AF064B1B78002B04D100F00AF8034B01221A7000F063F800BF80BD00BFC686FF1F80B582B000AF284A274B1B78DBB243F00203DBB21370254B1B78DBB2AE
:403C000023F07003FB71224AFB7943F01003DBB21370204A1F4B1B78DBB223F03003DBB213701C4A1B4B1B78DBB243F03003DBB21370184A174B1B78DBB223F00F03DBB21A
:403C40001370144A134B1B78DBB243F00F03DBB21370FF2000F048F8322000F055F8002000F062F80C4A0C4B1B78DBB243F00103DBB21370094A094B1B78DBB243F0010336
:403C8000DBB2137000BF0837BD4680BD004F0040024F00400B4F0040A3430040014F004080B400AF0D4A0D4B1B78DBB243F00103DBB213700A4A0A4B1B78DBB243F001034D
:403CC000DBB21370074A074B1B78DBB243F00103DBB2137000BFBD4680BC7047A3430040B3430040004F004080B483B000AF0346FB71044BFA7992B21A8000BF0C37BD469A
:403D000080BC7047044F004080B483B000AF0346FB71044BFA7992B21A8000BF0C37BD4680BC7047064F004080B483B000AF0346FB71044AFB79137000BF0C37BD4680BCB4
:403D4000704700BF034F004080B400AF034B1B889BB2DBB21846BD4680BC7047064F004080B400AF034B1B889BB2DBB21846BD4680BC7047044F004080B500AF064B1B7847
:403D8000002B04D100F00AF8034B01221A7000F063F800BF80BD00BFC786FF1F80B582B000AF284A274B1B78DBB243F00203DBB21370254B1B78DBB223F07003FB71224A55
:403DC000FB7943F01003DBB21370204A1F4B1B78DBB223F03003DBB213701C4A1B4B1B78DBB243F03003DBB21370184A174B1B78DBB223F00F03DBB21370144A134B1B78E5
:403E0000DBB243F00F03DBB21370FF2000F048F8322000F055F8002000F062F80C4A0C4B1B78DBB243F00203DBB21370094A094B1B78DBB243F00103DBB2137000BF083737
:403E4000BD4680BD0C4F00400E4F0040174F0040A34300400D4F004080B400AF0D4A0D4B1B78DBB243F00203DBB213700A4A0A4B1B78DBB243F00203DBB21370074A074BB4
:403E80001B78DBB243F00103DBB2137000BFBD4680BC7047A3430040B34300400C4F004080B483B000AF0346FB71044BFA7992B21A8000BF0C37BD4680BC7047104F0040ED
:403EC00080B483B000AF0346FB71044BFA7992B21A8000BF0C37BD4680BC7047124F004080B483B000AF0346FB71044AFB79137000BF0C37BD4680BC704700BF0F4F004059
:403F000080B400AF034B1B889BB2DBB21846BD4680BC7047124F004080B500AF064B02221A6006490120FFF79DFD07210120FFF7C1FD00BF80BD00BF80E100E0854000004D
:403F400080B582B000AF0F2000F088F800F078F800F0B2FC0346FB71094A094B1B78DBB243F01003DBB21370FB79184600F0A8FC044B02221A6000BF0837BD4680BD00BF6C
:403F80009564004000E100E080B500AF00F0E0F94FF4004000F00AFA074B00221A60074B1B78002B04D1FFF7B7FF044B01221A70FFF7C6FF00BF80BDCC86FF1FC886FF1FD5
:403FC00080B582B000AF0D4B02221A6000F0FEF90346FB80FB88A3F500439BB2BB80B7F90420074B1B6813443B60064B02221A603B6818460837BD4680BD00BF80E100E01A
:40400000CC86FF1F00E100E080B582B000AF7860084B02221A604FF4004000F0C7F9064A7B681360054B02221A6000BF0837BD4680BD00BF80E100E0CC86FF1F00E100E03A
:4040400080B400AF044B1B78DBB203F00F03DBB21846BD4680BC70476564004080B483B000AF0346FB71FB7943F00703FB71044AFB79137000BF0C37BD4680BC704700BF1B
:404080008564004080B483B000AF144B1B78FB71FB7903F00103002B07D0114B1B6803F5FF437F330E4A13600AE0FB7903F00203002B05D00A4B1B68A3F50043084A136092
:4040C000FB7903F00403002B02D0054B00221A6000BF0C37BD4680BC704700BF65640040CC86FF1F80B500AF064B04221A6006490220FFF7B7FC07210220FFF7DBFC00BF74
:4041000080BD00BF80E100E05142000080B582B000AF0F2000F088F800F078F800F0CCFB0346FB71094A094B1B78DBB243F01003DBB21370FB79184600F0C2FB044B04221D
:404140001A6000BF0837BD4680BD00BF9465004000E100E080B500AF00F0D2F94FF4004000F0FCF9074B00221A60074B1B78002B04D1FFF7B7FF044B01221A70FFF7C6FF91
:4041800000BF80BDD486FF1FD086FF1F80B582B000AF0D4B04221A6000F0F0F90346FB80FB88A3F500439BB2BB80B7F90420074B1B6813443B60064B04221A603B681846F9
:4041C0000837BD4680BD00BF80E100E0D486FF1F00E100E080B582B000AF7860084B04221A604FF4004000F0B9F9064A7B681360054B04221A6000BF0837BD4680BD00BF6E
:4042000080E100E0D486FF1F00E100E080B400AF044B1B78DBB203F00F03DBB21846BD4680BC70476465004080B483B000AF0346FB71FB7943F00703FB71044AFB79137096
:4042400000BF0C37BD4680BC704700BF8465004080B483B000AF144B1B78FB71FB7903F00103002B07D0114B1B6803F5FF437F330E4A13600AE0FB7903F00203002B05D091
:404280000A4B1B68A3F50043084A1360FB7903F00403002B02D0054B00221A6000BF0C37BD4680BC704700BF64650040D486FF1F80B582B000AF1C4B1B78DBB223F007033D
:4042C000FB71194AFB791370174B1B78DBB223F00303FB71144AFB79137000F0B3F84FF4004000F08FF84FF4004000F05FF8002000F040F800F04EF84FF4004000F092F8C2
:4043000000F0DAFA0346BB71084A084B1B78DBB243F01003DBB21370BB79184600F0D0FA00BF0837BD4680BD776400409164004080B400AF054A054B1B78DBB263F07F03D8
:40434000DBB2137000BFBD4680BC70477764004080B500AF064B1B78002B04D1FFF7A8FF034B01221A70FFF7E3FF00BF80BD00BFD886FF1F80B483B000AF0346FB71044AD5
:40438000FB79137000BF0C37BD4680BC704700BF8164004080B400AF034B1B78DBB21846BD4680BC704700BF6164004080B483B000AF0346FB80044AFB88138000BF0C3781
:4043C000BD4680BC704700BF0068004080B400AF044B1B78044B1B889BB21846BD4680BC704700BF006400408068004080B400AF034B1B889BB21846BD4680BC704700BF49
:404400008068004080B483B000AF0346FB80044AFB88138000BF0C37BD4680BC704700BF4068004080B483B000AF0346FB80044AFB88138000BF0C37BD4680BC704700BF82
:404440006068004080B500AF01E0FFF7CFFFFFF7A1FF034603F04003002BF6D100BF80BD80B582B000AF1C4B1B78DBB223F00703FB71194AFB791370174B1B78DBB223F093
:404480000303FB71144AFB79137000F0B3F84FF4004000F08FF84FF4004000F05FF8002000F040F800F04EF84FF4004000F092F800F002FA0346BB71084A084B1B78DBB235
:4044C00043F01003DBB21370BB79184600F0F8F900BF0837BD4680BD756400409764004080B400AF054A054B1B78DBB263F07F03DBB2137000BFBD4680BC7047756400400C
:4045000080B500AF064B1B78002B04D1FFF7A8FF034B01221A70FFF7E3FF00BF80BD00BFD986FF1F80B483B000AF0346FB71044AFB79137000BF0C37BD4680BC704700BF44
:404540008764004080B400AF034B1B78DBB21846BD4680BC704700BF6764004080B483B000AF0346FB80044AFB88138000BF0C37BD4680BC704700BF0468004080B400AF1D
:40458000044B1B78044B1B889BB21846BD4680BC704700BF026400408468004080B400AF034B1B889BB21846BD4680BC704700BF8468004080B483B000AF0346FB80044A6D
:4045C000FB88138000BF0C37BD4680BC704700BF4468004080B483B000AF0346FB80044AFB88138000BF0C37BD4680BC704700BF6468004080B500AF01E0FFF7CFFFFFF782
:40460000A1FF034603F04003002BF6D100BF80BD80B500AF214A214B1B78DBB203F00103DBB213701E4A1E4B1B78DBB223F00303DBB213701B4A1B4B1B78DBB223F0300340
:40464000DBB21370174A174B1B78DBB243F03003DBB21370134A134B1B78DBB223F00F03DBB213700F4A0F4B1B78DBB243F00F03DBB213700C4A0C4B1B78DBB243F0010395
:40468000DBB21370312000F063F8312000F072F8082000F041F800BF80BD00BF184F00401A4F0040234F0040194F004080B400AF0D4A0D4B1B78DBB243F00403DBB21370F1
:4046C0000A4A0A4B1B78DBB243F00403DBB21370074A074B1B78DBB243F00103DBB2137000BFBD4680BC7047A3430040B3430040184F004080B500AF064B1B78002B04D11D
:40470000FFF786FF034B01221A70FFF7CFFF00BF80BD00BFDA86FF1F80B483B000AF0346FB71044AFB79137000BF0C37BD4680BC704700BF1B4F004080B400AF034B1B78D1
:40474000DBB21846BD4680BC704700BF1B4F004080B485B000AF0346FB71FB79FB81044AFB89138000BF1437BD4680BC704700BF1C4F004080B483B000AF0346FB71044B49
:40478000FA7992B21A8000BF0C37BD4680BC70471E4F004080B582B000AF786000F03CF8786800F009F8072000F018F800F028F800BF0837BD4680BD80B485B000AF7860BB
:4047C000054B1B68FB60FB688C337A681A6000BF1437BD4680BC704708ED00E080B483B000AF0346FB71054AFB795B01DBB2137000BF0C37BD4680BC704700BF13E400E0B0
:4048000080B400AF034B4FF400221A6000BFBD4680BC704700E100E080B400AF034B4FF400221A6000BFBD4680BC704780E100E080B485B000AF0346FB710B4B1B78DBB2A9
:4048400023F00803FB730849FB79DB00DBB203F00803DAB2FB7B1343DBB20B7000BF1437BD4680BC704700BF1051004080B400AF044B1B78DBB203F00103DBB21846BD468A
:4048800080BC70473151004080B400AF054B1B78DBB203F08003DB09DBB21846BD4680BC704700BF115100400230800803D000BF01380046FCD17047EFF3108072B67047B4
:4048C00080F31088704700BF80B582B000AF0023BB711B4B1B78DBB203F00303012B02D0022B04D012E0164B1B79FB7111E0144B1B79DBB203F07F02124913465B001344B6
:404900009B000B440A331B78FB7102E00023FB7100BFFB79022B0ED80B4B1A68FB7913441B78022B04D1FDF739FB0346BB7102E00023BB7100BFBB7918460837BD4680BDC4
:4049400000600040E48FFF1FD88FFF1F81F0004102E000BF83F0004330B54FEA41044FEA430594EA050F08BF90EA020F1FBF54EA000C55EA020C7FEA645C7FEA655C00F0F8
:40498000E2804FEA5454D4EB5555B8BF6D420CDD2C4480EA020281EA030382EA000083EA010180EA020281EA0303362D88BF30BD11F0004F4FEA01314FF4801C4CEA11318A
:4049C00002D0404261EB410113F0004F4FEA03334CEA133302D0524263EB430394EA050F00F0A780A4F10104D5F1200E0DDB02FA0EFC22FA05F2801841F1000103FA0EF29E
:404A0000801843FA05F359410EE0A5F120050EF1200E012A03FA0EFC28BF4CF0020C43FA05F3C01851EBE37101F0004507D54FF0000EDCF1000C7EEB00006EEB0101B1F597
:404A4000801F1BD3B1F5001F0CD349085FEA30004FEA3C0C04F101044FEA445212F5800F80F09A80BCF1004F08BF5FEA500C50F1000041EB045141EA050130BD5FEA4C0CE8
:404A8000404141EB010111F4801FA4F10104E9D191F0000F04BF01460020B1FA81F308BF2033A3F10B03B3F120020CDA0C3208DD02F1140CC2F10C0201FA0CF021FA02F112
:404AC0000CE002F11402D8BFC2F1200C01FA02F120FA0CFCDCBF41EA0C019040E41AA2BF01EB0451294330BD6FEA04041F3C1CDA0C340EDC04F11404C4F1200220FA04F0D1
:404B000001FA02F340EA030021FA04F345EA030130BDC4F10C04C4F1200220FA02F001FA04F340EA0300294630BD21FA04F0294630BD94F0000F83F4801306BF81F4801130
:404B40000134013D4EE77FEA645C18BF7FEA655C29D094EA050F08BF90EA020F05D054EA000C04BF1946104630BD91EA030F1EBF0021002030BD5FEA545C05D140004941D1
:404B800028BF41F0004130BD14F580043CBF01F5801130BD01F0004545F0FE4141F470014FF0000030BD7FEA645C1ABF194610467FEA655C1CBF0B46024650EA013406BFAE
:404BC00052EA033591EA030F41F4002130BD00BF90F0000F04BF0021704730B54FF4806404F132044FF000054FF0000150E700BF90F0000F04BF0021704730B54FF48064A1
:404C000004F1320410F0004548BF40424FF000013EE700BF42004FEAE2014FEA31014FEA02701FBF12F07F4393F07F4F81F06051704792F0000F14BF93F07F4F704730B5C6
:404C40004FF4607401F0004521F0004120E700BF50EA010208BF704730B54FF000050AE050EA010208BF704730B511F0004502D5404261EB41014FF4806404F132045FEA99
:404C8000915C3FF4DCAE4FF003025FEADC0C18BF03325FEADC0C18BF033202EBDC02C2F1200300FA03FC20FA02F001FA03FE40EA0E0021FA02F11444C1E600BF70B54FF082
:404CC000FF0C4CF4E06C1CEA11541DBF1CEA135594EA0C0F95EA0C0F00F0DEF82C4481EA030621EA4C5123EA4C5350EA013518BF52EA033541F4801143F4801338D0A0FB49
:404D000002CE4FF00005E1FB02E506F00042E0FB03E54FF00006E1FB03569CF0000F18BF4EF0010EA4F1FF04B6F5007F64F5407404D25FEA4E0E6D4146EB060642EAC62120
:404D400041EA55514FEAC52040EA5E504FEACE2EB4F1FD0C88BFBCF5E06F1ED8BEF1004F08BF5FEA500E50F1000041EB045170BD06F0004646EA010140EA020081EA0301E8
:404D8000B4EB5C04C2BFD4EB0C0541EA045170BD41F480114FF0000E013C00F3AB8014F1360FDEBF002001F0004170BDC4F10004203C35DA0C341BDC04F11404C4F12005E0
:404DC00000FA05F320FA04F001FA05F240EA020001F0004221F0004110EBD37021FA04F642EB06015EEA430E08BF20EAD37070BDC4F10C04C4F1200500FA04F320FA05F010
:404E000001FA04F240EA020001F0004110EBD37041F100015EEA430E08BF20EAD37070BDC4F1200500FA05F24EEA020E20FA04F301FA05F243EA020321FA04F001F000414F
:404E400021FA04F220EA020000EBD3705EEA430E08BF20EAD37070BD94F0000F0FD101F00046400041EB010111F4801F08BF013CF7D041EA060195F0000F18BF704703F03F
:404E80000046520043EB030313F4801F08BF013DF7D043EA0603704794EA0C0F0CEA135518BF95EA0C0F0CD050EA410618BF52EA4306D1D181EA030101F000414FF0000024
:404EC00070BD50EA410606BF1046194652EA430619D094EA0C0F02D150EA013613D195EA0C0F05D152EA03361CBF104619460AD181EA030101F0004141F0FE4141F4700154
:404F00004FF0000070BD41F0FE4141F4780170BD70B54FF0FF0C4CF4E06C1CEA11541DBF1CEA135594EA0C0F95EA0C0F00F0A7F8A4EB050481EA030E52EA03354FEA013155
:404F400000F088804FEA03334FF0805545EA131343EA12634FEA022245EA111545EA10654FEA00260EF000419D4208BF964244F1FD0404F5407402D25B084FEA3202B61AF6
:404F800065EB03055B084FEA32024FF480104FF4002CB6EB020E75EB030E22BFB61A754640EA0C005B084FEA3202B6EB020E75EB030E22BFB61A754640EA5C005B084FEA43
:404FC0003202B6EB020E75EB030E22BFB61A754640EA9C005B084FEA3202B6EB020E75EB030E22BFB61A754640EADC0055EA060E18D04FEA051545EA16754FEA06164FEAEF
:40500000C30343EA52734FEAC2025FEA1C1CC0D111F4801F0BD141EA00014FF000004FF0004CB6E711F4801F04BF01430020B4F1FD0C88BFBCF5E06F3FF6AFAEB5EB030C95
:4050400004BFB6EB020C5FEA500C50F1000041EB045170BD0EF0004E4EEA113114EB5C04C2BFD4EB0C0541EA045170BD41F480114FF0000E013C90E645EA060E8DE60CEA95
:40508000135594EA0C0F08BF95EA0C0F3FF43BAF94EA0C0F0AD150EA01347FF434AF95EA0C0F7FF425AF104619462CE795EA0C0F06D152EA03353FF4FDAE1046194622E70E
:4050C00050EA410618BF52EA43067FF4C5AE50EA41047FF40DAF52EA43057FF4EBAE12E74A0011D212F5001211D20DD56FF47873B3EB62520ED44FEAC12343F0004343EA69
:40510000505323FA02F070474FF00000704750EA013002D14FF0FF3070474FF0000070474FEA4102B2F1E04324BFB3F5001CDCF1FE5C0DD901F0004C4FEAC0024CEA507093
:40514000B2F1004F40EB830008BF20F00100704711F0804F21D113F13872BCBF01F00040704741F480114FEA5252C2F11802C2F1200C10FA0CF320FA02F018BF40F00100C1
:405180004FEAC1234FEAD32303FA0CFC40EA0C0023FA02F34FEA4303CCE77FEA625307D150EA01331EBF4FF0FE4040F44000704701F0004040F0FE4040F40000704700BFF2
:4051C00080F0004002E000BF81F0004142001FBF5FEA410392EA030F7FEA226C7FEA236C6AD04FEA1262D2EB1363C1BFD218414048404140B8BF5B42192B88BF704710F01E
:40520000004F40F4000020F07F4018BF404211F0004F41F4000121F07F4118BF494292EA030F3FD0A2F1010241FA03FC10EB0C00C3F1200301FA03F100F0004302D549423B
:4052400060EB4000B0F5000F13D3B0F1807F06D340084FEA310102F10102FE2A51D2B1F1004F40EBC25008BF20F0010040EA03007047490040EB000010F4000FA2F1010295
:40528000EDD1B0FA80FCACF1080CB2EB0C0200FA0CF0AABF00EBC25052421843BCBFD0401843704792F0000F81F4000106BF80F400000132013BB5E74FEA41037FEA226C07
:4052C00018BF7FEA236C21D092EA030F04D092F0000F08BF0846704790EA010F1CBF0020704712F07F4F04D1400028BF40F00040704712F100723CBF00F50000704700F0F4
:40530000004343F0FE4040F4000070477FEA226216BF08467FEA23630146420206BF5FEA412390EA010F40F4800070474FF0000304E000BF10F0004348BF40425FEA000CD7
:4053400008BF704743F0964301464FF000001CE050EA010208BF70474FF000030AE000BF50EA010208BF704711F0004302D5404261EB41015FEA010C02BF8446014600204D
:4053800043F0B64308BFA3F18053A3F50003BCFA8CF2083AA3EBC25310DB01FA02FC634400FA02FCC2F12002BCF1004F20FA02F243EB020008BF20F00100704702F12002A9
:4053C00001FA02FCC2F1200250EA4C0021FA02F243EB020008BF20EADC7070474FF0FF0C1CEAD0521EBF1CEAD15392EA0C0F93EA0C0F6FD01A4480EA010C400218BF5FEA28
:4054000041211ED04FF0006343EA501043EA5111A0FB01310CF00040B1F5000F3EBF490041EAD3715B0040EA010062F17F02FD2A1DD8B3F1004F40EBC25008BF20F001006D
:40544000704790F0000F0CF0004C08BF49024CEA502040EA51207F3AC2BFD2F1FF0340EAC250704740F400004FF00003013A5DDC12F1190FDCBF00F000407047C2F100020D
:40548000410021FA02F1C2F1200200FA02FC5FEA310040F1000053EA4C0308BF20EADC70704792F0000F00F0004C02BF400010F4000F013AF9D040EA0C0093F0000F01F027
:4054C000004C02BF490011F4000F013BF9D041EA0C018FE70CEAD15392EA0C0F18BF93EA0C0F0AD030F0004C18BF31F0004CD8D180EA010000F00040704790F0000F17BF85
:4055000090F0004F084691F0000F91F0004F14D092EA0C0F01D142020FD193EA0C0F03D14B0218BF084608D180EA010000F0004040F0FE4040F40000704740F0FE4040F430
:40554000400070474FF0FF0C1CEAD0521EBF1CEAD15392EA0C0F93EA0C0F69D0A2EB030280EA010C49024FEA402037D04FF0805343EA111143EA10130CF000408B4238BFAE
:405580005B0042F17D024FF4000C8B4224BF5B1A40EA0C00B3EB510F24BFA3EB510340EA5C00B3EB910F24BFA3EB910340EA9C00B3EBD10F24BFA3EBD10340EADC001B01FD
:4055C00018BF5FEA1C1CE0D1FD2A3FF650AF8B4240EBC25008BF20F0010070470CF0004C4CEA50207F32C2BFD2F1FF0340EAC250704740F400004FF00003013A37E792F085
:40560000000F00F0004C02BF400010F4000F013AF9D040EA0C0093F0000F01F0004C02BF490011F4000F013BF9D041EA0C0195E70CEAD15392EA0C0F08D142027FF47DAFBE
:4056400093EA0C0F7FF470AF084676E793EA0C0F04D14B023FF44CAF08466EE730F0004C18BF31F0004CCAD130F000427FF45CAF31F000437FF43CAF5FE700BF4FF0FF3C5E
:4056800006E000BF4FF0010C02E000BF4FF0010C4DF804CD4FEA40024FEA41037FEA226C18BF7FEA236C11D001B052EA530C18BF90EA010F58BFB2EB030088BFC81738BFD6
:4056C0006FEAE17018BF40F0010070477FEA226C02D15FEA402C05D17FEA236CE4D15FEA412CE1D05DF8040B704700BF844608466146FFE70FB5FFF7C9FF002848BF10F1A7
:40570000000F0FBD4DF808EDFFF7F4FF0CBF012000205DF808FB00BF4DF808EDFFF7EAFF34BF012000205DF808FB00BF4DF808EDFFF7E0FF94BF012000205DF808FB00BF2A
:405740004DF808EDFFF7D2FF94BF012000205DF808FB00BF4DF808EDFFF7C8FF34BF012000205DF808FB00BF4FEA4002B2F1FE4F0FD34FF09E03B3EB12620DD94FEA0023BA
:4057800043F0004310F0004F23FA02F018BF404270474FF00000704712F1610F01D1420205D110F0004008BF6FF0004070474FF00000704742000ED2B2F1FE4F0BD34FF02E
:4057C0009E03B3EB126209D44FEA002343F0004323FA02F070474FF00000704712F1610F01D1420202D14FF0FF3070474FF00000704700BF014B1868704700BFEC82FF1F87
:405800000E4B70B51E460E4C0025E41AA410A54204D056F8253098470135F8E700F096FE084B094C1E46E41AA4100025A54204D056F8253098470135F8E770BD5865000060
:40584000586500005865000060650000931E222B10B50C4602D90020087010BD0A2A06D1002804DA2D230B704042012100E00021214400F081F8204610BDFFF7E7BF10B5B1
:40588000431E0A44914204D011F8014B03F8014FF8E710BD03460244934202D003F8011BFAE7704770B50E46054618B183690BB900F050FAAB69AC6813B9284600F04AFA54
:4058C000224B9C4201D16C6808E0214B9C4201D1AC6803E01F4B9C4208BFEC68A3891B0701D523693BB92146284600F0D5F810B14FF0FF3070BD013EA36816F8011F013B13
:40590000A36091B1002B04DAA269934206DB0A2904D023685A1C22601970EDE72246284600F066F80130E7D1E2E7002B08DA22460A21284600F05CF80130D9D00A2070BD18
:4059400023680A205A1C2260187070BDEC6400000C6500002C650000024B01461868FFF7A1BF00BFEC82FF1F034613F8012B002AFBD1181A01387047F0B58BB003460F46A8
:405980006D461A4C04F1200E2E4620686168083403C674453546F7D1217920683171911E222930604FF0000001D938701CE07D1EB3FBF2F402FB14330AAE334413F8283CC9
:4059C000411C05F8013F23460CB10846F0E77C543A18C11A8B4206DAF95C1478FC5402F801190133F5E738460BB0F0BDC4640000F8B50F461446064618B183690BB900F0A4
:405A0000A9F9224B9C4201D1746808E0204B9C4201D1B46803E01F4B9C4208BFF468A369A360A3891A0709D523693BB123682069FDB2181A636998420FDB08E02146304662
:405A400000F02AF80028F1D04FF0FF30F8BD2146304600F015F90028F6D1A368013BA36023685A1C22601F706269431C934204D0A389DB0707D50A2D05D12146304600F04B
:405A8000FFF80028E0D12846F8BD00BFEC6400000C6500002C650000324B70B51D6806460C4625B1AB6913B9284600F053F92E4B9C4201D16C6808E02C4B9C4201D1AC689D
:405AC00003E02B4B9C4208BFEC68B4F90C309AB215071DD4D00602D4092232603AE0510712D5616B41B104F14403994202D0304600F01AFA00236363A38923F02403A381BC
:405B00000023636023692360A38943F00803A38123694BB9A38903F42073B3F5007F03D02146304600F0C4F9A28912F0010305D00023A36063695B42A36103E0920758BFEC
:405B40006369A36023695BB9B4F90C3003F0800080B230B143F04003A3814FF0FF3070BD002070BDEC82FF1FEC6400000C6500002C6500008A892DE9F041054610070C46D9
:405B800059D44B68002B02DC0B6C002B17DDE66AAEB102F48052002392B22F682B600AB1606D15E0216A01232846B047411C0FD12B686BB11D2B01D0162B03D12F6000200C
:405BC000BDE8F081A38943F04003A381BDE8F081A3895A0705D56368C01A636B0BB1236CC01A00230246E66A216A2846B047431CA38906D129681D2939D8204ACA40D6076E
:405C000035D5002262602269D904226004D5421C01D12B6803B96065616B2F600029CED004F14403994202D0284600F07DF900206063BDE8F0810F69002FC0D093070E6850
:405C40000CBF4B690023C7EB06080F608B6002E00744C0EB0808B8F1000FB0DD43463A46216A2846A66AB0470028F1DCA38943F04003A3814FF0FF30BDE8F0810100402092
:405C800038B50B6905460C46DBB118B183690BB900F060F80C4B9C4201D16C6808E00B4B9C4201D1AC6803E0094B9C4208BFEC68B4F90C302BB121462846BDE83840FFF7DF
:405CC00059BF002038BD00BFEC6400000C6500002C650000014900F0A9B800BF815C000010B50446002303604360836081814366C281036143618361194608225C30FFF72F
:405D0000C9FD054B24626362044BA362044BE362044B236310BD00BF9D600000BF600000F76000001B61000070B568234D1E5D430E4605F1740100F043F9044640B10021C8
:405D400080E842000C30A06005F16802FFF7A2FD204670BD836910B5044633BB8364C3640365124B124A1B688262984204BF0123836100F01FF86060204600F01BF8A06061
:405D8000204600F017F80022E06004216068FFF7A7FF01220921A068FFF7A2FF02221221E068FFF79DFF0123A36110BDC0640000D55C0000F8B51C4B07461E68B36913B95D
:405DC0003046FFF7C7FF4836B4687368013B04D4B4F90C507DB16834F8E733680BB13668F2E704213846FFF79FFF30600028F6D10C233B60F8BD4FF6FF73E3810123A381D0
:405E000065662560A560656025616561A5610822294604F15C00FFF73DFD6563A563A564E5642046F8BD00BFC06400002DE9F8438046894600F14804002694B1A568676852
:405E4000013F0CD4AB89012B07D9B5F90E30013303D029464046C84706436835F0E72468EBE73046BDE8F88370B50E46B1F90E1090B0002914461D4606DA00232B60B389E9
:405E80001A060ED540230EE001AA00F06DF90028F3DB029A02F47042A2F500535A425A412A604FF480630020236010B070BD00008B8973B59E0705460C4610D401AB6A4634
:405EC000FFF7D2FF00990646284600F079F868B9B4F90C309A0522D443F00203A38104F14703236023610123636118E00D4BAB62A389206043F08003A381009B206163613B
:405F0000019B4BB1B4F90E10284600F03FF918B1A38943F00103A381A0893043A08102B070BD00BFD55C000038B50546002944D051F8043C0C1F002BB8BFE41800F048F994
:405F40001E4A1368114613B96360146030E0A3420DD92268A018834201BF18685B681218226063600C6023E0A24203D813465A68002AF9D118681918A1420BD12168014415
:405F800058188242196013D110685268014419605A600DE002D90C232B6009E021686018824201BF106852680918216062605C602846BDE8384000F00CB938BDE086FF1FAB
:405FC00070B5CD1C25F0030508350C2D38BF0C25002D064601DBA94202D90C23336046E000F0F6F8234B1C681A462146A1B10B685B1B0ED40B2B03D90B60CC18CD501EE0A5
:406000008C420BBF63684B681360636018BF0C4615E00C464968E9E7174C23681BB9304600F02CF820602946304600F027F8431C18D0C41C24F00304A0420DD12560304666
:4060400000F0C7F804F10B00231D20F00700C31A0ED05A42E25070BD211A304600F00EF80130EBD10C233360304600F0B2F8002070BD00BFE086FF1FDC86FF1F38B5064CAF
:406080000023054608462360FBF77AFB431C02D1236803B12B6038BD7C90FF1F10B50C46B1F90E1000F096F80028ABBF636DA3891B1823F48053ACBF6365A38110BD2DE9DD
:4060C000F0411F468B890546DB050C46164605D502230022B1F90E1000F068F8A389324623F48053A381B4F90E103B462846BDE8F04100F017B810B50C46B1F90E1000F014
:4061000055F8431CA38915BF606523F4805343F48053A38118BFA38110BDB1F90E1000F013B8000038B5074C054608461146002222601A4600F088F8431C02D1236803B176
:406140002B6038BD7C90FF1F38B5064C002305460846236000F050F8431C02D1236803B12B6038BD7C90FF1F38B5074C0023054608461146236000F047F8431C02D12368E2
:4061800003B12B6038BD00BF7C90FF1F38B5064C002305460846236000F03EF8431C02D1236803B12B6038BD7C90FF1F38B5074C054608461146002222601A4600F034F8B3
:4061C000431C02D1236803B12B6038BD7C90FF1F7047704738B5074C054608461146002222601A4600F028F8431C02D1236803B12B6038BD7C90FF1F024B58221A604FF037
:40620000FF3070477C90FF1F024B58221A604FF0FF3070477C90FF1F024B58221A600020704700BF7C90FF1F024B58221A604FF0FF3070477C90FF1F024B58221A604FF0AD
:40624000FF3070477C90FF1F024B58221A604FF0FF3070477C90FF1F00000000506F696E7420257A753A2078203D2025642C2079203D2025642C20646972656374696F6E90
:40628000203D2025642C206E6F64653D2025642066696E616C5475726E203D2025642C666F6F643D25642C7374657073203D2025640A0000506174684C656E6774683A20D9
:4062C0000000000001010000000000006865726500000000004F0040300040510040300000000140001000140140000800400140000A004C014000021050014010000000BF
:40630000005001402C1000481000000030313233343536373839414243444546000000001201000202000008B40432F2010001028001000009024300020101C032090400C5
:40634000000102020103052400100104240202052406000105240100010705810308000A09040100020A000004070582024000000705030240000000040309042C034300EC
:406380007900700072006500730073002000530065006D00690063006F006E0064007500630074006F0072001003550053004200550041005200540038034300440043007A
:4063C000200043006F006D006D0075006E00690063006100740069006F006E00200049006E007400650072006600610063006500260343004400430020004400610074004A
:406400006100200049006E00740065007200660061006300650000000203000000008103080002000100820240000A000100030240000A00020A00000100000034630000F4
:40644000030000001C64000000000000000000000000000000000000000000003464000001000000206300000000000000000000010000003864000001000000606400001B
:4064800012034D0053004600540031003000300001000000280000000001040001000000000000000001435955534200000030303030310000000000000000004300000012
:4064C0008C82FF1F303132333435363738396162636465666768696A6B6C6D6E6F707172737475767778797A00000000000000000000000000000000000000000000000044
:40650000000000000000000000000000000000000000000000000000000000000000000000000000000000000000000000000000000000000000000000000000000000005B
:40654000000000000000000000000000F8B500BFF8BC08BC9E4670474D00000069180000F8B500BFF8BC08BC9E4670472900000080650000C880FF1F28020000900D000014
:4065800000000000010101010101010101010101010101010101010100010000000000000000000000000000000101000100010101010100010101000101010001010000B6
:4065C000000100000001000000000000000100010101010001000100010101000100010101000101000000010001000000010001000000000001010001010100010001007E
:40660000010001000101010001010001000100000001000100010001000000010100010001000101010001000100010001010101000000010001000000010000000100003B
:4066400000010101010001000101010101010101010101000101000000000000000000000000000000000001010001010101010101010101010001010101010100000000F5
:406680000000000100000000000000000001010101010101010101010101010101010101010000000109000000000005050000000000070100000000000D05000000000097
:4066C000090900000000000A435333303120323031360A00000000000000000000000000000000000000000000000000000000000000000000000000000000000000000061
:406700000000000000000000000099428090FF1F00C2010000000800C201000000080000A12000000000020000000000807F0000030000000087930360EA00003C00000052
:406740000000307500000000EC6400000C6500002C65000000000000000000000000000000000000BC64000000000000000000000000000000000000000000000000000002
:406780000000000000000000000000000000000000000000000000000000000000000000000000008C82FF1F000000000000000000000000000000000000000000000000AD
:4067C0000000000000000000000000000000000000000000000000000000000000000000000000000000000000000000000000000000000000000000000000000000000099
:406800000000000000000000000000000000000000000000000000000000000000000000000000000000000000000000000000000000000000000000000000000000000058
:406840000000000000000000000000000000000000000000000000000000000000000000000000000000000000000000000000000000000000000000000000000000000018
:4068800000000000000000000000000000000000000000000000000000000000000000000000000000000000000000000000000000000000000000000000000000000000D8
:020000040003F7
:0200000480007A
:4000000001450040084F00400A520040015B00400464004003650040510001403B01014056020140520301403F04014056050140440601404F070140440801404D09014077
:40004000420A0140530B0140420C01405A0D0140490E0140390F0140371401405A150140441601404F17014034180140511901402D1A0140501B01400C4001401C410140E7
:400080001A42014010430140024401400D450140114601400E470140174801401A490140144C01400E4D014005500140045101407E0201200A360D2016361940223625509A
:4000C0002E360120081009041008182060046105780579097C402784816F850F876F8B72840F870F893801C10322060F070709770CCF0E3010FD12021494158116601712D4
:4001000018301AC91C9E1DB71E601F402708287329042BF02DC02F1431F032FF330F3E044035410649FF4AFF4BFF4DA04F015018580459045A045F01604062806440654093
:40014000668068406A806C406D206E80C035C106C52CC603C74EC837C9FFCAFFCBFFCDAFCE07CF01D018D40FD804D904DA04DB04DC11DF05E040E280E440E540E680E8406F
:40018000EA80EC40ED20EE8000080302070909080A8A0F60131014041742190421052209280829042B022C0431083240352036403749390A3B303C103D043F204210430418
:4001C0004704480C4A0A4D034E0A4F04568857015C405D105E0A660867047F108404851687408B01C0C5C23FC4D2CA2ECCFACE67D042D23CD6F0D860DE40E208E602270147
:4002000035014034410149FF4AFF4BFF4DA04F015018580459045A045C115F016040628064406540668068406A806C406D206E80800181C5833A86038701897F8CC48E2069
:4002400092019404950E96F097F098809A149DFE9E089F01A0B4A240A870A996AB68ACC4ADA3AE10AF5CB0F0B201B40CB602B7FFBE04BF40C036C101C53EC6C2C704C81F9C
:40028000C9FFCAFFCBFFCDAFCE07CF01D018D804D904DA04DF01E040E280E440E540E680E840EA80EC40ED20EE80000403820709098A0A080C040F4010401201131014A022
:4002C000151018041A101B8221802510270828092B022C243040310832403420352036403709380439023A013B103C103D1440024304440245404640470449064A88504059
:400300005120520458085A088308848086408902910792029340945096989710980499209A809C089F09A008A301A508A647A702A920AB02C0CDC23FC47BCA6CCCFACE67DE
:40034000D0DAD204E004E208E606EA01EE01013003C905FD07020A010B0F0C01140118011C01219E236024012573280129942B602DCF2F3033FF36013F04580459045B0455
:400380005C015F0180048101860187208A048C038D018F0291189401950299149E0AA120A204A50CAB20AD18B002B11CB201B302B404B501B608B720B922BE15BF44D28051
:4003C000D40FD604D804D904DB04DF010010030104040540074808A40C080F02112416401A011C401D401E241F802020240425012644280829012B122C082E082F82350127
:400400003608371038083A103B013C043D013E805A045B045C025D085EA06508675069106B0276407C027E4081088550861087408A018D018E088F10908091059202945094
:400440009688971098A599049A849F05A008A130A280A301A420A54AA607AE48B440C0F3C2A7C416CAFFCCE0CED7D6F0D880E221E408E681EA08EE0800C50104023A0320FD
:4004800004FE052706010B080F0711211302147F171019071C961E6820A3225C2340252126012702280E2AF02D202F043110356036FF370F3E40580459045F01800187800B
:4004C00089378A0C916A93059503970C99059B0A9C049D5F9E08A001A40EAA02AD6CAF03B008B201B370B404B580B602B70FB808B908BE51D280D40FD804D904DB04DF054F
:4005000000100280040C0501071009400C080E200F211244130414881708181019601A401F80224023142540274828012FA23118324135013610370838803A443B503C2480
:400540003D803F0140804302581059405A015B04612471027B1088188B60908091019202940896889711980199049A849C089D019F59A010A128A280A310A420A542A60BE0
:40058000A702AF02B410C03AC2A1C47ECAD8CCEFCEF6D60FD806DE02E004E440E60201010204030204AC0642071008700A860E521101130A14701501168A1706180119028C
:4005C0001B01228C24012C013001310432C63308340E35033630371038803A283B203E405608580459045B045C035D905F018204840188088C08940895029C08A104A204B9
:40060000A602AA01AB03B004B104B208B301B403B502BE05BF01D203D302D804D90CDB04DC19DD10DF010088028003080596060509080A010E040F20101413021541170423
:4006400019201A101B011D941E401F1420082206250126142701280429202B803204361437013D023F045CA05F0864106706680869807980820887408A108F0891409225E7
:400680009480958196D2971A982099039A039B069E04A051A10CA280A332A404A580A601A708B094B220B648C0FFC265C4BECA05CCE2CEC0D670D870DE08E280E440EA1090
:4006C0000208061008210C070E6012211406166118671C611E062004240228062C082E10302032403418360738083A805401580459045B0C5C135D105F0189028B018D01C7
:400700008F06910193029501970AAF10B104B310B503B708BB20C001C540C9FFCA07CBFFCC40CD20CEF0CF05D008D602D711D804D904DA04DB04DC01DD33DF01E040E1A805
:40074000E240E32000900250058009080A490C400E020F1410AA15021628180A19011A212550260628402A202F0132453308360639023B343DA04101430245804D824E0122
:40078000560158805E106D546E046F0474A8752077107980808081108D0490109304948A95179643972898209A529B029D269E0D9F10A053A10CA280A332A480A601A7089B
:4007C000AB20AC80AF40B001B108B550C08FC2EFC47FCA15CCC9CE37D010D628DE08E010E220E408EA01EC10EE0A00100420080C0A111440160318141C20200922102410A0
:40080000260C281C2A022C20321F3440362038803E50580459045C135F0181CF833084038604870C89088D048E63913C922193C195FF99309A1C9D20A3C3A504A642A708DD
:40084000A803A910AA08AC21AD7CAE42AF82B1B0B270B33FB40FB670B770BA20BB0ABE44D608D804D904DB04DC33DD90DF01004001040506060408420A060D400E600F884D
:40088000100211101210140415091602181019801A041D101E201F402080210822022302280129282B402C402F123080320233183601380A3A503C203D803E084A014B40E1
:4008C00058805B20600262506301640467086802694079087B108302860188048A028B028D4890409304948095579643976998209D809E1DA011A144A280A334A404A60103
:40090000A70AAA01B420B501B710C075C2EAC4F7CADFCC8FCE7FD60CD80CE080E208E604EA010005020A040F080F0C030E0C103012C01430164018A01A401C041E01228035
