:4000000000800020110000008D0600008D06000080B500AF024A034B1B68136000F040FBBC760040FA46004010B5054C237833B9044B13B10448AFF300800123237010BDB6
:400040004881FF1F00000000101B0000084B10B51BB108490848AFF300800848036803B910BD074B002BFBD0BDE81040184700BF000000004C81FF1F101B0000C880FF1FAC
:400080000000000080B500AF0D4B1B78002B09D100F0F6FD0346DAB20A4B1A70084B01221A700BE000F0ECFD0346DAB2054B5A70034B00221A70044B01221A7000BF80BD30
:4000C0007681FF1F5C82FF1F7781FF1FB0B584B000AF0346FB7100F003FD0346184601F02BFC0346184601F0EBF804460D46FB79184601F0D3F84FF000020F4B01F05EFAA3
:4001000002460B462046294601F02EF903460C461846214601F03AFB0346FB73FB7B184600F0BEFCFB7B184600F08AFDFB7B18461037BD46B0BD00BF000059400000000050
:4001400090B593B000AF00F007FC00F0D5FC642387F8473097F847301846FFF7B7FF1E4800F066FE00F020FE62B61C4B1B78012BFBD11B4B1B789AB2194B5B789BB2D31A7F
:40018000A7F84430B7F84430184601F0D5FB0346184601F095F80EA3D3E9002301F00EFA03460C461846214601F0F0FA0346A7F84430B7F84430391D0A22184601F057FC5E
:4001C0003B1D184600F018FB044B00221A70CCE7F6285C8FC2F5F43F850000007781FF1F5C82FF1F80B582B000AF786039603A680021786801F048FC00BF0837BD4680BD71
:4002000080B584B000AFF860B9607A607A68B968F86801F02EFC00BF1037BD4680BD00BF80B483B000AF0346FB71FEE780B487B000AF7860396000233B6100237B6127E0D8
:400240007B699B007A6813441B68BB60BB68FB73BB6823F0FF03BB6014E03B695B003A6813441B781A46BB68134419463B695B003A6813445B780B703B6901333B61FB7B5C
:40028000013BFB73FB7B002BE7D17B6901337B617B692B2BD4D900BF1C37BD4680BC704780B582B000AF404B04221A803F4B18221A703F4B14221A803E4B18221A703E4B79
:4002C0003B221A803D4B18221A703D4B77221A803C4B1C221A703C4B81221A803B4B18221A703B4B4FF6FF721A803A4B1B221A70394B06221A70394B52221A70384B394AC3
:400300001278D2B21A70384B40F619121A80374B41F251221A800023FB7019237B6014E0FB785B00DAB2324B1B78DBB203F00103DBB21343DBB203F00303FB704FF4F070E7
:4003400000F0C6FD7B68013B7B607B68002B02D0FB78032BE4D17B68002B02D10320FFF75FFF244B4FF480721A80224B07221A70214B00221A70214B48221A701D4B0022E2
:400380001A701F4B00221A701E4B02221A701E4A1D4B1B78DBB243F03F03DBB2137000BF0837BD4680BD00BF80400040824000408440004086400040884000408A400040F6
:4003C0008C4000408E400040904000409240004094400040964000400043004000420040A14600400F01004922420040204200402542004004400040064000400840004093
:400400000940004001400040A243004080B582B000AF214B1B78FB71204B1B78BB71204B1B787B711F4AFB7903F00703DBB213701D4AFB791B09DBB21370184ABB7943F036
:400440000303DBB21370164A7B7943F00303DBB21370164B20221A70154B80221A70154B80221A70144B01221A70144B20221A70134B20221A700A2000F05AFA084A7B796F
:400480001370064ABB7913700E4B44221A7000BF0837BD4680BD00BFCF010049F8460040F94600406E5800406F5800400D5100401C510040015900409B5A0040205B004074
:4004C000235B00407658004080B586B000AF72B6544B61221A70FFF7E3FE524B01221A70514A514B1B78DBB243F00403DBB213700023FB7513E0FA7D13465B0013445B001D
:400500004A4A13443B613B691A683B699B889BB219461046FFF766FEFB7D0133FB75FB7D072BE8D90023FB751CE0FA7D13469B0013445B003E4A1344FB60FB681B68BB607D
:40054000FB685B687B60FB681A7A5B7A1B0213437B807B881A467968B868FFF751FEFB7D0133FB75FB7D002BDFD032494FF09040FFF75CFE04213048FFF734FE04222F49EC
:400580002F48FFF73DFE2F4B2F4A1A602F4A2F4B1B78DBB243F00203DBB213702C4A2C4B1B78DBB243F00203DBB21370294A294B1B78DBB243F04003DBB21370264A264B08
:4005C0001B78DBB243F01003DBB21370082223492348FFF715FE0A2222492348FFF710FE082222492248FFF70BFE0A2221492248FFF706FE082221492148FFF701FE214A20
:40060000204B1B78DBB243F00803DBB21370FFF7FDFE0E220F491C48FFF7F2FD00BF1837BD4680BD00480040E8460040141B0000441B0000B000004800760040FC0F00484C
:4006400008760040D8080140040404440350014013500140A0430040C2430040CC0F004802510040D40F0048F0510040E00F004812510040E80F004820510040F40F004834
:400680003251004022430040B043004080B500AF01F0AAF903461B680C2B00D1FEE7FEE780B586B000AF224B7B61224B3B61204B7B6135E03B691B68FB603B695B68BB60BD
:4006C0003B699B683B6000237B600CE0FB681A68BB681A60BB680433BB60FB680433FB607B6804337B607A683B689A42EED13B69DB683B6000237B6008E0BB6800221A60A6
:40070000BB680433BB607B6804337B607A683B689A42F2D13B6910333B617B69013B7B617B69002BC6D101F065F9FFF709FDFEE7010000009C1B000080B582B000AF194BA4
:40074000194A1A60194A194B1B6843F40073136000237B600FE07B68032B04D8144A7B6852F8233000E0134B13497A6841F822307B6801337B607B682F2BECD90F4B1B7895
:40078000DAB20F4B1A700F4B0B4A1A60FFF79CFE00F0A0F80C4B00221A6000BF0837BD4680BD00BF0CED00E00004FA0514ED00E0000000008D0600000080FF1FBC76004038
:4007C000C480FF1F08ED00E0C080FF1F80B485B000AF78600023FB8102E0FB890133FB81FB897A6813441B78002BF6D1FB8918461437BD4680BC704780B584B000AF78606A
:400800000023BB81304B1B781A46304B9B5CFB727868FFF7DBFF0346FB81FA7A2C4913465B0013449B000B4408331B889BB2FA899A420AD9FA7A264913465B0013449B00C3
:400840000B4408331B889BB200E0FB893B81BB897A68D1183A89FB7A184600F049FBFA893B89D31AFB81FB89002B0CD1FA7A184913465B0013449B000B4408331B889BB2D4
:400880003A899A4219D1BA893B891344BB8100BFFA7A0F4913465B0013449B000B4401331B78DBB2002BF3D0FB89002B05D1FB7A00220021184600F01BFBFB89002BACD186
:4008C00000BF1037BD4680BD7881FF1F6482FF1FA082FF1F80B483B000AF134B7F221A70124B80221A707F23FB710CE0FB79DB0003F1804303F5F043FA79013AD2B21A7048
:40090000FB79013BFB71FB79002BEFD1FB79DB0003F1804303F5F04300221A7000BF0C37BD4680BC704700BFCD80FF1FCC80FF1F80B582B000AF0346FB80FB88054A12789D
:4009400002FB03F3184600F0C3FA00BF0837BD4680BD00BFDC80FF1F80B500AF064B1B78002B04D100F00AF8034B01221A7000F063F800BF80BD00BF7981FF1F80B582B0C8
:4009800000AF284A274B1B78DBB243F00203DBB21370254B1B78DBB223F07003FB71224AFB7943F01003DBB21370204A1F4B1B78DBB223F03003DBB213701C4A1B4B1B78DB
:4009C000DBB243F03003DBB21370184A174B1B78DBB223F00F03DBB21370144A134B1B78DBB243F00F03DBB21370FF2000F048F8322000F055F8002000F062F80C4A0C4BB5
:400A00001B78DBB243F00103DBB21370094A094B1B78DBB243F00103DBB2137000BF0837BD4680BD004F0040024F00400B4F0040A3430040014F004080B400AF0D4A0D4B01
:400A40001B78DBB243F00103DBB213700A4A0A4B1B78DBB243F00103DBB21370074A074B1B78DBB243F00103DBB2137000BFBD4680BC7047A3430040B3430040004F004055
:400A800080B483B000AF0346FB71044BFA7992B21A8000BF0C37BD4680BC7047044F004080B483B000AF0346FB71044BFA7992B21A8000BF0C37BD4680BC7047064F004048
:400AC00080B483B000AF0346FB71044AFB79137000BF0C37BD4680BC704700BF034F004080B400AF034B1B889BB2DBB21846BD4680BC7047044F004080B500AF064B1B7840
:400B0000002B04D100F00AF8034B01221A7000F063F800BF80BD00BF7A81FF1F80B582B000AF284A274B1B78DBB243F00203DBB21370254B1B78DBB223F07003FB71224A59
:400B4000FB7943F01003DBB21370204A1F4B1B78DBB223F03003DBB213701C4A1B4B1B78DBB243F03003DBB21370184A174B1B78DBB223F00F03DBB21370144A134B1B7897
:400B8000DBB243F00F03DBB21370FF2000F048F8322000F055F8002000F062F80C4A0C4B1B78DBB243F00203DBB21370094A094B1B78DBB243F00103DBB2137000BF0837EA
:400BC000BD4680BD0C4F00400E4F0040174F0040A34300400D4F004080B400AF0D4A0D4B1B78DBB243F00203DBB213700A4A0A4B1B78DBB243F00203DBB21370074A074B67
:400C00001B78DBB243F00103DBB2137000BFBD4680BC7047A3430040B34300400C4F004080B483B000AF0346FB71044BFA7992B21A8000BF0C37BD4680BC7047104F00409F
:400C400080B483B000AF0346FB71044BFA7992B21A8000BF0C37BD4680BC7047124F004080B483B000AF0346FB71044AFB79137000BF0C37BD4680BC704700BF0F4F00400B
:400C800080B582B000AF00F00DF80346FB80FB88A3F500439BB2BB80B7F9043018460837BD4680BD80B400AF044B1B78044B1B889BB21846BD4680BC704700BF08650040FA
:400CC000906A004080B500AF214A214B1B78DBB203F00103DBB213701E4A1E4B1B78DBB223F00303DBB213701B4A1B4B1B78DBB223F03003DBB21370174A174B1B78DBB29A
:400D000043F03003DBB21370134A134B1B78DBB223F00F03DBB213700F4A0F4B1B78DBB243F00F03DBB213700C4A0C4B1B78DBB243F00103DBB21370012000F057F8012070
:400D400000F066F8082000F041F800BF80BD00BF184F00401A4F0040234F0040194F004080B400AF0D4A0D4B1B78DBB243F00403DBB213700A4A0A4B1B78DBB243F0040370
:400D8000DBB21370074A074B1B78DBB243F00103DBB2137000BFBD4680BC7047A3430040B3430040184F004080B500AF064B1B78002B04D1FFF786FF034B01221A70FFF72D
:400DC000CFFF00BF80BD00BF7B81FF1F80B483B000AF0346FB71044AFB79137000BF0C37BD4680BC704700BF1B4F004080B485B000AF0346FB71FB79FB81044AFB891380BD
:400E000000BF1437BD4680BC704700BF1C4F004080B483B000AF0346FB71044BFA7992B21A8000BF0C37BD4680BC70471E4F004080B582B000AF786000F03CF8786800F056
:400E400009F8072000F018F800F028F800BF0837BD4680BD80B485B000AF7860054B1B68FB60FB688C337A681A6000BF1437BD4680BC704708ED00E080B483B000AF03462C
:400E8000FB71054AFB795B01DBB2137000BF0C37BD4680BC704700BF13E400E080B400AF034B4FF400221A6000BFBD4680BC704700E100E080B400AF034B4FF400221A6073
:400EC00000BFBD4680BC704780E100E0000000000230800803D000BF01380046FCD17047EFF3108072B6704780F31088704700BFB0B485B000AF03463960FB711346BB80B1
:400F0000FB79002B6DD0FB79082B6AD8B988FA79364813465B0013449B00034406331B889BB2C3F5007399420CD9FA792F4913465B0013449B000B4406331B889BB2C3F5F8
:400F40000073BB802A4CF979BB881B0A9BB2D8B2FA79264D13465B0013449B002B4403331B78DBB20343DAB20B0123441A70204AFB79B988C9B21B01134401330A461A7061
:400F80003B68002B13D00023FB810CE01948FB79FA8939680A4412781B01034408331A70FB890133FB81FA89BB889A42EED3FA790E4913465B0013449B000B440133002250
:400FC0001A700B48F979FA79084C13465B0013449B00234405331B78DAB20B01034402331A7000BF1437BD46B0BC7047A082FF1FFC5F00407060004081F0004102E000BFF7
:4010000083F0004330B54FEA41044FEA430594EA050F08BF90EA020F1FBF54EA000C55EA020C7FEA645C7FEA655C00F0E2804FEA5454D4EB5555B8BF6D420CDD2C4480EAE5
:40104000020281EA030382EA000083EA010180EA020281EA0303362D88BF30BD11F0004F4FEA01314FF4801C4CEA113102D0404261EB410113F0004F4FEA03334CEA133379
:4010800002D0524263EB430394EA050F00F0A780A4F10104D5F1200E0DDB02FA0EFC22FA05F2801841F1000103FA0EF2801843FA05F359410EE0A5F120050EF1200E012ACE
:4010C00003FA0EFC28BF4CF0020C43FA05F3C01851EBE37101F0004507D54FF0000EDCF1000C7EEB00006EEB0101B1F5801F1BD3B1F5001F0CD349085FEA30004FEA3C0CFD
:4011000004F101044FEA445212F5800F80F09A80BCF1004F08BF5FEA500C50F1000041EB045141EA050130BD5FEA4C0C404141EB010111F4801FA4F10104E9D191F0000FA6
:4011400004BF01460020B1FA81F308BF2033A3F10B03B3F120020CDA0C3208DD02F1140CC2F10C0201FA0CF021FA02F10CE002F11402D8BFC2F1200C01FA02F120FA0CFC47
:40118000DCBF41EA0C019040E41AA2BF01EB0451294330BD6FEA04041F3C1CDA0C340EDC04F11404C4F1200220FA04F001FA02F340EA030021FA04F345EA030130BDC4F1C1
:4011C0000C04C4F1200220FA02F001FA04F340EA0300294630BD21FA04F0294630BD94F0000F83F4801306BF81F480110134013D4EE77FEA645C18BF7FEA655C29D094EA65
:40120000050F08BF90EA020F05D054EA000C04BF1946104630BD91EA030F1EBF0021002030BD5FEA545C05D14000494128BF41F0004130BD14F580043CBF01F5801130BD51
:4012400001F0004545F0FE4141F470014FF0000030BD7FEA645C1ABF194610467FEA655C1CBF0B46024650EA013406BF52EA033591EA030F41F4002130BD00BF90F0000FD7
:4012800004BF0021704730B54FF4806404F132044FF000054FF0000150E700BF90F0000F04BF0021704730B54FF4806404F1320410F0004548BF40424FF000013EE700BF8F
:4012C00042004FEAE2014FEA31014FEA02701FBF12F07F4393F07F4F81F06051704792F0000F14BF93F07F4F704730B54FF4607401F0004521F0004120E700BF50EA0102BB
:4013000008BF704730B54FF000050AE050EA010208BF704730B511F0004502D5404261EB41014FF4806404F132045FEA915C3FF4DCAE4FF003025FEADC0C18BF03325FEA40
:40134000DC0C18BF033202EBDC02C2F1200300FA03FC20FA02F001FA03FE40EA0E0021FA02F11444C1E600BF70B54FF0FF0C4CF4E06C1CEA11541DBF1CEA135594EA0C0F8A
:4013800095EA0C0F00F0DEF82C4481EA030621EA4C5123EA4C5350EA013518BF52EA033541F4801143F4801338D0A0FB02CE4FF00005E1FB02E506F00042E0FB03E54FF096
:4013C0000006E1FB03569CF0000F18BF4EF0010EA4F1FF04B6F5007F64F5407404D25FEA4E0E6D4146EB060642EAC62141EA55514FEAC52040EA5E504FEACE2EB4F1FD0C01
:4014000088BFBCF5E06F1ED8BEF1004F08BF5FEA500E50F1000041EB045170BD06F0004646EA010140EA020081EA0301B4EB5C04C2BFD4EB0C0541EA045170BD41F4801148
:401440004FF0000E013C00F3AB8014F1360FDEBF002001F0004170BDC4F10004203C35DA0C341BDC04F11404C4F1200500FA05F320FA04F001FA05F240EA020001F00042CB
:4014800021F0004110EBD37021FA04F642EB06015EEA430E08BF20EAD37070BDC4F10C04C4F1200500FA04F320FA05F001FA04F240EA020001F0004110EBD37041F100011A
:4014C0005EEA430E08BF20EAD37070BDC4F1200500FA05F24EEA020E20FA04F301FA05F243EA020321FA04F001F0004121FA04F220EA020000EBD3705EEA430E08BF20EAD4
:40150000D37070BD94F0000F0FD101F00046400041EB010111F4801F08BF013CF7D041EA060195F0000F18BF704703F00046520043EB030313F4801F08BF013DF7D043EA02
:401540000603704794EA0C0F0CEA135518BF95EA0C0F0CD050EA410618BF52EA4306D1D181EA030101F000414FF0000070BD50EA410606BF1046194652EA430619D094EAF4
:401580000C0F02D150EA013613D195EA0C0F05D152EA03361CBF104619460AD181EA030101F0004141F0FE4141F470014FF0000070BD41F0FE4141F4780170BD70B54FF0C6
:4015C000FF0C4CF4E06C1CEA11541DBF1CEA135594EA0C0F95EA0C0F00F0A7F8A4EB050481EA030E52EA03354FEA013100F088804FEA03334FF0805545EA131343EA126378
:401600004FEA022245EA111545EA10654FEA00260EF000419D4208BF964244F1FD0404F5407402D25B084FEA3202B61A65EB03055B084FEA32024FF480104FF4002CB6EBD6
:40164000020E75EB030E22BFB61A754640EA0C005B084FEA3202B6EB020E75EB030E22BFB61A754640EA5C005B084FEA3202B6EB020E75EB030E22BFB61A754640EA9C003F
:401680005B084FEA3202B6EB020E75EB030E22BFB61A754640EADC0055EA060E18D04FEA051545EA16754FEA06164FEAC30343EA52734FEAC2025FEA1C1CC0D111F4801F85
:4016C0000BD141EA00014FF000004FF0004CB6E711F4801F04BF01430020B4F1FD0C88BFBCF5E06F3FF6AFAEB5EB030C04BFB6EB020C5FEA500C50F1000041EB045170BD74
:401700000EF0004E4EEA113114EB5C04C2BFD4EB0C0541EA045170BD41F480114FF0000E013C90E645EA060E8DE60CEA135594EA0C0F08BF95EA0C0F3FF43BAF94EA0C0FFC
:401740000AD150EA01347FF434AF95EA0C0F7FF425AF104619462CE795EA0C0F06D152EA03353FF4FDAE1046194622E750EA410618BF52EA43067FF4C5AE50EA41047FF4EA
:401780000DAF52EA43057FF4EBAE12E74A0011D212F5001211D20DD56FF47873B3EB62520ED44FEAC12343F0004343EA505323FA02F070474FF00000704750EA013002D1FA
:4017C0004FF0FF3070474FF00000704780F0004002E000BF81F0004142001FBF5FEA410392EA030F7FEA226C7FEA236C6AD04FEA1262D2EB1363C1BFD21841404840414093
:40180000B8BF5B42192B88BF704710F0004F40F4000020F07F4018BF404211F0004F41F4000121F07F4118BF494292EA030F3FD0A2F1010241FA03FC10EB0C00C3F12003A3
:4018400001FA03F100F0004302D5494260EB4000B0F5000F13D3B0F1807F06D340084FEA310102F10102FE2A51D2B1F1004F40EBC25008BF20F0010040EA0300704749001F
:4018800040EB000010F4000FA2F10102EDD1B0FA80FCACF1080CB2EB0C0200FA0CF0AABF00EBC25052421843BCBFD0401843704792F0000F81F4000106BF80F400000132B9
:4018C000013BB5E74FEA41037FEA226C18BF7FEA236C21D092EA030F04D092F0000F08BF0846704790EA010F1CBF0020704712F07F4F04D1400028BF40F00040704712F1EB
:4019000000723CBF00F50000704700F0004343F0FE4040F4000070477FEA226216BF08467FEA23630146420206BF5FEA412390EA010F40F4800070474FF0000304E000BF29
:4019400010F0004348BF40425FEA000C08BF704743F0964301464FF000001CE050EA010208BF70474FF000030AE000BF50EA010208BF704711F0004302D5404261EB4101AE
:401980005FEA010C02BF84460146002043F0B64308BFA3F18053A3F50003BCFA8CF2083AA3EBC25310DB01FA02FC634400FA02FCC2F12002BCF1004F20FA02F243EB02003F
:4019C00008BF20F00100704702F1200201FA02FCC2F1200250EA4C0021FA02F243EB020008BF20EADC707047014B1868704700BF4481FF1F0E4B70B51E460E4C0025E41A58
:401A0000A410A54204D056F8253098470135F8E700F0B2F8084B094C1E46E41AA4100025A54204D056F8253098470135F8E770BD841B0000841B0000841B00008C1B000020
:401A4000931E222B10B50C4602D90020087010BD0A2A06D1002804DA2D230B704042012100E00021214400F017F8204610BDFFF7E7BF10B5431E0A44914204D011F8014BED
:401A800003F8014FF8E710BD03460244934202D003F8011BFAE77047F0B58BB003460F466D461A4C04F1200E2E4620686168083403C674453546F7D1217920683171911E57
:401AC000222930604FF0000001D938701CE07D1EB3FBF2F402FB14330AAE334413F8283C411C05F8013F23460CB10846F0E77C543A18C11A8B4206DAF95C1478FC5402F883
:401B000001190133F5E738460BB0F0BD501B000000000000004F00403000405100403000C0510040100000000140001000140140000800400140000A004C014000021050E1
:401B40000140100000500140BC0F004810004300303132333435363738396162636465666768696A6B6C6D6E6F707172737475767778797A00000000F8B500BFF8BC08BC0D
:401B80009E4670474D00000039070000F8B500BFF8BC08BC9E46704729000000B01B0000C880FF1F80000000D00100000000000000000000807F00000300000000879303B4
:401BC00060EA00003C0000000000307500000000000000000000000000000000000000000000000000000000000000004E1B00000000000000000000000000000000000051
:401C00000000000000000000000000000000000000000000000000000000000000000000000000000000000000000000E480FF1F0000000000000000000000000000000022
:401C40000000000000000000000000000000000000000000000000000000000000000000000000000000000000000000000000000000000000000000000000000000000064
:401C80000000000000000000000000000000000000000000000000000000000000000000000000000000000000000000000000000000000000000000000000000000000024
:401CC00000000000000000000000000000000000000000000000000000000000000000000000000000000000000000000000000000000000000000000000000000000000E4
:401D000000000000000000000000000000000000000000000000000000000000000000000000000000000000000000000000000000000000000000000000000000000000A3
:020000040003F7
:0200000480007A
:4000000001450040084F004007520040015B00400364004004650040370001403901014043020140510301403C0401404E050140470601405A070140530801404E09014097
:40004000570A0140500B0140530C01404B0D0140340E0140390F01403A1401405D15014035160140501701405618014055190140281A0140581B0140104001401E410140C1
:400080001A4201400C430140034401400A4501400C4601400F4701400D480140084901400B4C0140024D014003500140035101407E0201200A4B0D20164B1950224B2530A9
:4000C0002E4B0120083009241108182819087C4027848038896F8F72840F850F890F8B6F030809040B020C080D020F051201140217101A041D021E101F042102220123040F
:4001000026022E10300831083206330634013510361037013B083E5154185604580459045B045C095D405F0180048A018C0894019A06AB01B002B208B404B601B701BE0494
:40014000D608D80CD904DB04DC11DD90DF01020104800521082209400B200C100D080F081090120219501A801B041D011E021F14204021402220231027012A022D042E40C4
:400180002F08300432803610370138403B123C203E05414042025B025D9061506340640467027F0287408A048B048F02C0D1C26FC40DCA71CCAACEEDD631D83DDE10E2012A
:4001C0000101050109010A020D011101120119012F01310132013402580459045C115F0181408380840A850E860589408B808C108D808E208F409025921A94039518960C92
:400200009704981099169A609B089C109D109EA09F02A140A381A407A518A702A80CAA03AB1EAC0FAF20B030B101B20FB31EB440B520B680B7C0BA02BB80D608D804D90405
:40024000DB04DD90DF01018806200708080809200A800B020C020E2511401208130414011504170119821AA01B201C201E042121220823022440280A29092C012E4032584F
:400280003610370139223A403B043C203E253F40464047025B4060028020820189048A088B408C808E028F619180931094809514964598809B019C209D209E01A221A490FA
:4002C000A508A692A70AA980AA40AC80AF10B002B140C065C2FFC4B7CA1FCCAECEFFD608D808E010E402E62409050B0A0F101103130C150F1907210A2305290C2B032F20DA
:40030000330F352037105608580459045B045C015D905F01821083028628870189408A018B808E028F049004911093209408950198019B089C029D04A102A508A920AB1087
:40034000AD80AE04AF40B01FB220B7FFB802BE01BF40D401D804D904DB0CDC01DD10DF0100A0031004020504060207080B080C500E250F6010501202162017511E601F0424
:40038000211022842320240229042A402B642C022E022F28302132043612374939803B103CA03E253F405B805C8062407F02810285018A108B0191809224931094809520D5
:4003C00096419744988099029B039C089D299F08A010A229A402A508A690A70AA840AD10B540B610C0F7C2F2C4FDCAFDCCF7CEFCD618D808DE10E208E404E6480001042F64
:4004000005A3075C09960B680C070DC50E080F3A100A110E120513F01420170119FE1B011E0220042201257F2A10300C31FF32103420360338203E103F0156025739580CD7
:4004400059045B0C5C015D105F01803082C9849E85CF86608730889489308A608BC994FD9602970F98739E0FA19EA360A573A8CFA9FDAA30AB02AD94AF60B1FFB2FFBE0475
:40048000BF01D804D904DB04DF01012A04080540064009800A200B040C080D020E0210041208150116081A101D4A1F1020402602281129102B402C302D062EC02F403204A4
:4004C00034013510372638043B103C0C3D803F985E2064086520672069906C026F68764277087F02814082108408854089108A208B40910192649310948096019704990218
:400500009A289B239C099D099E029F48A229A310A462A508A76EA920AA08AC10AD10B380B640B710C0BEC2B7C452CA4FCCE2CE76D620D840DE10E202E408E80AEC20020457
:400540000304060C0F02140118041D081E032309300131013202330234083504360437083E413F404015410449FF4AFF4BFF4DA04F0150185280580459045A045B045F0134
:400580006040628064406540668068406A806C406D206E808C01A002A402A605A802B004B201B602B880BE44C015C104C523C6C4C70EC81FC9FFCAFFCBFFCDAFCE07CF010A
:4005C000D018D40FD804D904DA04DB04DC10DF05E040E280E440E540E680E840EA80EC40ED20EE800040040407400D400E18108011101304184019041A021D801E582504E9
:400600002610278128502A082C8031203202378038083A023B303D803E0140804180448045804640488249024B044C024E015148521059145A405B0161086210774079105D
:400640009220930894089710984899409A2AA140A202A304AC80AD40AE44AF02B048B404B501C031C2E0C40ECA83CC15CE97D099D218D60FD806DE04E080E202E408EC080B
:4006800004A105700616070C08A10A0E0B200D090E1C0F101180130315141680181C195C1AA31B021D101E0824402683296C2B113060311F321A3380340F356036803802E5
:4006C00039203A283E403F144002460449FF4A074BFF4C404D204EF04F0550085608580459045A045B045C445D945F01604061A862406320C041C105C206C402C5C0C70EDA
:40070000C812C9FFCAFFCBFFCC62CDA0CEF0CF41D00CD804D904DA04DC11DD04DF01E640E702E910EA30EB10ED10EE10EF12004403080408064009800A240B200F14121019
:400740001441160A184019501A041B082110220529202B082E082F02319432013441386439083D023F1441104520468047404C484D805010518052105320540458806002EF
:4007800068028304848088408A028B048D019108932894C89714980999859AA89B409C429D30A040A120A486A720AC80B408C037C267C4D4CA54CC9FCEEED0B4D230D60816
:4007C000D808E080E208E420E64AE840EE02050109010D061504170219041B021D062D0131013304350239203B803F045608580459045B045C415D905F01820C8503870CA3
:4008000089038B048F08904091209211934097609830990A9AC39B049F40A080A222A310A4F3A604A705A8F3A903AA08AB04AC51AEA2AF20B30FB4F0B570B60FB802BA8046
:40084000BB08BE01BF10C032C106C50BC6C0C70EC819C9FFCAFFCBFFCEF0CF44D00CD608D804D904DA04DB04DC44DD94DF01E6C0EA40EB020380040808020A080C800D0193
:400880000F14100211281301144119011A081B802124222026402768280229202BA02D4030023150320435803654384039083B203DA83E80410443204924531458805F4091
:4008C0006140630167028301874089018A288C408F08914094089502971598019C429F60A040A154A214A486A660B044C028C2FAC49FCA1FCC7FCE7ED006D204D618D818BA
:40090000E020E480E670EA20EE20580459045C115F0180CF8230831084308502881089068D218EC38F06900492089308943C950696C19721987C99219A829C089F21A02084
:40094000A104A527A60CA8FFA907AB20AC04AD08AF10B070B2B0B320B43FB518B707BA28BB80D602D711D804D904DB04DC44DD40DF010004020104010540062808400C02D4
:400980000E280F011091131414021501160417081C801E281F0424112540270828402C022D012E022F1430913402354036243740380C39023A013B103D803E283F015F209B
:4009C000660467206D68762A8640871088018C10C0F5C2F1C4FFCAF1CCFDCEF7D620E080E211E420073009080B010C0C0D101507160C1801190B1B041C081D0C1E041F019C
:400A000021402202250C270228012B402F0F30023120320133103408350F3604374038083E503F44540F580459045B045F0185D187048B1D8DD18F089302957C99AD9B109A
:400A4000AD01AF04B303B5E0B71DB920D40FD804D904DB04DC01DF0103020680070109800A100B080E060F2010841520162019511A101B0220082268234024202540269035
:400A80002704284D2A082C013010328033043410360237243B583C083D803E083F104D404E0159505A025B085C405D145F0179047A10801082408321869089108A088C4053
:400AC0008D418E0191E0920493189420950498499AA09B299C10A080A180A203A310A404A540A6A0A988AA84AB88AC40AD10AE20AF04B080B580B708C091C2E7C46ACA1FB2
:400B0000CCEECE7ED6FFE006E409E610E80CEC20EE0C02012E023001360252035302580459045B045C115D105F0180018150820284048507860889048C1C8F089010910109
:400B4000930296209707981C9B049C019D019E829F02A160A21CA406A507A609A960AA10AC01AD30AE42B080B23CB30FB403B570B640B920BA20D804D904DF01014A0201F0
:400B8000042007550A120B840E050F201004125013401626180419221A021B081C801E0320202204230C281429802B802EA0300132A43701384039043A013B103C803E0504
:400BC0003F204110431061806240652066106C046E206F028004840888108C40904091C0921493D0948895049609970498459AA29B619D289F04A202A310A444A5C0A610A1
:400C0000A702A901AC40C0BDC2EFC4EFCA3FCC8FCEFFE004E410E648EA04EE08020104A3065C071E080E09180AF00B020D2E107F15161708189619101A681B021D181F0428
:400C400020C52120223A28FE29012A012D2030FF33203501371E39083E013F144023410649FF4AFF4BFF4DA04F015018580459045A045F0160406280644065406680684050
:400C80006A806C406D206E80C063C102C53EC6C2C740C82FC9FFCAFFCBFFCDAFCE07CF01D018D401D604D804D904DA04DB04DC11DD40DF01E040E280E440E540E680E840E8
:400CC000EA80EC40ED20EE8000010104042005100620074009200B200E400F0810501202140817011C8025082680270928502D202E012F45312032023408351036803809D2
:400D00003A023B203E603F084148420A4518490A4A084B024F2050025101521053C059405A205B0A61017D207E08801081808610878088048A408D019230930C940C9510D6
:400D400096019720985899409A229E40A080A202A304A520A904AE10B512C07CC256C45DCAB3CC75CE77D066D224D60FD801E490E640580459045C115F0182028308870246
:400D800089018E048F04900191029404950298089B019C089F08A201A301A508A804A902AD02B001B106B204B402B508B608B701B880BE05BF50D280D40FD804D904DB04D2
:400DC000DF050001012002020540074009280A080B200C800E100F8410501404150217201D401E401F6424022510274028412D802E202F60301032063408376138083984B0
:400E00003C823E103F085C025E605F086508661074017F028006840185188B0C8C058D208F409001918292109304940C95149720985C99889A309B019F40A0C0A120A212AB
:400E4000A306A510AAC0AB02AD22B002B120B302B608B710C09BC2F6C45CCAF9CCF7CEFAD6F0D860DE10E010E2C0E4C0E810EC20EE80110416803008322035083720390852
:400E80003B203E8083208710C430CCF0CE70E280E64003800408312033083740520863088240850488088C049104950898029D08A308A408A702A802AB02AE20AF08C0306A
:400EC000CC70D420D840E020E440E820EEC01208174059015C0460046501850C8C048D019508964098029D089F40A520A608A702AB04AF80C4C0D6C0D8C0E210E610EC100B
:400F0000EE201A401B011E10964098029F20A520A702AB40B320C630EC8082108B04E001030808025940890893089610C002C208D401E6041B0227208604870A93089610B5
:400F40009D40A308A508AC02C608C8010A180D0840204401842087208840930896189B20A508AD40C20ED006E0010302072020808D208E10921098029F20A301A520A702BF
:400F8000C060C8405C025F2063028F209802A301B040D6E058405F0167088F01930898409C01D401D601D801E408B001EC0410131A031C1300AB01FF100A000013010000D3
:400FC000000000001301030113011201030404000420F0004000060000000000E0000000003F3F003400C0000800140A0A00080041000000007B7B00380000000001000053
:4010000000000000000000000000000000000000000000000000000000000000000000000000000000000000000000000000000000000000000000000000000000000000B0
:401040000000000000000000000000000000000000000000000000000000000000000000000000000000000000000000000000000000000000000000000000000000000070
:401080000000000000000000000000000000000000000000000000000000000000000000000000000000000000000000000000000000000000000000000000000000000030
:4010C00000000000000000000000000000000000000000000000000000000000000000000000000000000000000000000000000000000000000000000000000000000000F0
:0200000490006A
:0400000000004005B7
:0200000490105A
:04000000BC90ACAF55
:0200000490303A
:02000000ACC78B
:0200000490402A
:4000000000000000000000000000000000000000000000000000000000000000000000000000000000000000000000000000000000000000000000000000000000000000C0
:400040000000000000000000000000000000000000000000000000000000000000000000000000000000000000000000000000000000000000000000000000000000000080
:400080000000000000000000000000000000000000000000000000000000000000000000000000000000000000000000000000000000000000000000000000000000000040
:4000C0000000000000000000000000000000000000000000000000000000000000000000000000000000000000000000000000000000000000000000000000000000000000
:0200000490501A
:0C00000000012E16106900012E25BD30F5
:00000001FF