:400000000080002011000000150700001507000080B500AF054A054B1B6843F020031360034A044B1B68136000F07EFBE8460040BC760040FA46004010B5054C237833B910
:40004000044B13B10448AFF300800123237010BD6881FF1F000000004C3B0000084B10B51BB108490848AFF300800848036803B910BD074B002BFBD0BDE81040184700BFA7
:40008000000000006C81FF1F4C3B0000C880FF1F0000000080B500AF02F03AFF03469AB20A4B1A8002F0D6FF03469AB2084B1A8002F012FF02F0B2FF002002F03BFF00205A
:4000C00002F0DAFF03F0A4FA00BF80BD9881FF1F9A81FF1F80B500AF064B01221A80002002F028FF002002F0C7FF00F095FC00BF80BD00BF9681FF1F80B590B000AFFF2081
:4001000002F09CFD02F006FDAA2002F0A7FD02F0CBFE02F06BFFFF2002F054FE02F0BEFDAA2002F05FFE012002F07CFE62B60121002000F09FFC012003F0B6F9002003F057
:40014000A3F9254800F086FB00F044FC02F0E2FC02F0A4FD214803F089FA03F037FA204B1B88012BFBD11F4800F048F81E4B1B88184603F0D1FB0346184603F025FC3B466D
:400180000A22194603F089FC3B46184600F036F8164800F033F8164800F030F8154B1B88184603F0B9FB0346184603F00DFC3B460A22194603F071FC3B46184600F01EF854
:4001C0000D4800F01BF802F06FFE02F00FFF044B00221A80C3E700BFD5000000950000009681FF1F503B00009881FF1F583B00005C3B00009A81FF1F643B000080B582B00A
:4002000000AF786000BF00F04BFF0346002BFAD07B683F3300221A707B683E3321221A70786803F04FFC03469BB21946786800F001FF00BF0837BD4680BD00BF80B582B097
:4002400000AF786039603A680021786803F032FC00BF0837BD4680BD80B584B000AFF860B9607A607A68B968F86803F018FC00BF1037BD4680BD00BF80B483B000AF03462B
:40028000FB71FEE780B487B000AF7860396000233B6100237B6127E07B699B007A6813441B68BB60BB68FB73BB6823F0FF03BB6014E03B695B003A6813441B781A46BB6861
:4002C000134419463B695B003A6813445B780B703B6901333B61FB7B013BFB73FB7B002BE7D17B6901337B617B692B2BD4D900BF1C37BD4680BC704780B582B000AF404B91
:4003000004221A803F4B18221A703F4B3A221A803E4B18221A703E4B3B221A803D4B18221A703D4B81221A803C4B18221A703C4B09221A803B4B1B221A703B4B4EF65F2222
:400340001A803A4B1C221A70394B06221A70394B52221A70384B394A1278D2B21A70384B40F619121A80374B41F251221A800023FB7019237B6014E0FB785B00DAB2324B90
:400380001B78DBB203F00103DBB21343DBB203F00303FB704FF4F07003F0B6F97B68013B7B607B68002B02D0FB78032BE4D17B68002B02D10320FFF75FFF244B4FF48072E1
:4003C0001A80224B07221A70214B00221A70214B48221A701D4B00221A701F4B00221A701E4B02221A701E4A1D4B1B78DBB243F03F03DBB2137000BF0837BD4680BD00BF18
:4004000080400040824000408440004086400040884000408A4000408C4000408E400040904000409240004094400040964000400043004000420040A14600400F010049B3
:400440002242004020420040254200400440004006400040084000400940004001400040A243004080B582B000AF244B1B78FB71234B1B78BB71234B1B787B71224AFB7950
:4004800003F00703DBB21370204AFB791B09DBB213701B4ABB7943F00303DBB21370194A7B7943F00303DBB21370194BBB221A70184B01221A70184B01221A70174B4022EC
:4004C0001A70174B40221A70164BB0221A70164B20221A70154B10221A700A2002F058FA084A7B791370064ABB791370104B44221A7000BF0837BD4680BD00BFCF0100497F
:40050000F8460040F94600406E5800406F5800400D5100403D510040FD5100400159004003590040205B0040235B0040585B00407658004080B586B000AF72B6584B61229F
:400540001A70FFF7D9FE564B01221A70554A554B1B78DBB243F02003DBB213700023FB7513E0FA7D13465B0013445B004E4A13443B613B691A683B699B889BB21946104634
:40058000FFF75CFEFB7D0133FB75FB7D072BE8D90023FB751CE0FA7D13469B0013445B00424A1344FB60FB681B68BB60FB685B687B60FB681A7A5B7A1B0213437B807B883B
:4005C0001A467968B868FFF747FEFB7D0133FB75FB7D012BDFD936494FF09040FFF752FE04213448FFF72AFE042233493348FFF733FE334B334A1A60334B324A1A60334AAA
:40060000324B1B78DBB243F00203DBB21370304A2F4B1B78DBB243F00203DBB213702D4A2C4B1B78DBB243F04003DBB213702A4A294B1B78DBB243F01003DBB2137008225D
:4006400026492748FFF708FE082226492648FFF703FE0A2225492648FFF7FEFD082225492548FFF7F9FD0A2224492548FFF7F4FD082224492448FFF7EFFD244A234B1B7877
:40068000DBB243F00803DBB21370FFF7EBFE0E2210491F48FFF7E0FD00BF1837BD4680BD00480040E8460040A83B0000D83B0000B00000480076004024100048087600409B
:4006C0005802014004040084581A01400350014013500140A0430040C2430040EC0F004802510040F40F0048C2510040FC0F0048F0510040081000481251004010100048CD
:40070000205100401C1000483251004022430040B043004080B500AF03F07CF903461B680C2B00D1FEE7FEE780B586B000AF224B7B61224B3B61204B7B6135E03B691B6820
:40074000FB603B695B68BB603B699B683B6000237B600CE0FB681A68BB681A60BB680433BB60FB680433FB607B6804337B607A683B689A42EED13B69DB683B6000237B60EF
:4007800008E0BB6800221A60BB680433BB607B6804337B607A683B689A42F2D13B6910333B617B69013B7B617B69002BC6D103F037F9FFF7A1FCFEE701000000E83D00001E
:4007C00080B582B000AF194B194A1A60194A194B1B6843F40073136000237B600FE07B68032B04D8144A7B6852F8233000E0134B13497A6841F822307B6801337B607B68A7
:400800002F2BECD90F4B1B78DAB20F4B1A700F4B0B4A1A60FFF78EFE02F080F80C4B00221A6000BF0837BD4680BD00BF0CED00E00004FA0514ED00E000000000150700005E
:400840000080FF1FBC760040C480FF1F08ED00E0C080FF1F80B582B000AF786000F03CF8786800F009F8072000F018F800F028F800BF0837BD4680BD80B485B000AF78608B
:40088000054B1B68FB60FB6858337A681A6000BF1437BD4680BC704708ED00E080B483B000AF0346FB71054AFB795B01DBB2137000BF0C37BD4680BC704700BF06E400E070
:4008C00080B400AF034B40221A6000BFBD4680BC704700BF00E100E080B400AF034B40221A6000BFBD4680BC704700BF80E100E080B500AF214A214B1B78DBB203F0010322
:40090000DBB213701E4A1E4B1B78DBB223F00303DBB213701B4A1B4B1B78DBB223F03003DBB21370174A174B1B78DBB243F03003DBB21370134A134B1B78DBB223F00F03F3
:40094000DBB213700F4A0F4B1B78DBB243F00F03DBB213700C4A0C4B1B78DBB243F00103DBB21370C72000F063F8C72000F072F8002000F041F800BF80BD00BF244F004001
:40098000264F00402F4F0040254F004080B400AF0D4A0D4B1B78DBB243F00803DBB213700A4A0A4B1B78DBB243F00803DBB21370074A074B1B78DBB243F00103DBB21370EF
:4009C00000BFBD4680BC7047A3430040B3430040244F004080B500AF064B1B78002B04D1FFF786FF034B01221A70FFF7CFFF00BF80BD00BFA081FF1F80B483B000AF0346D8
:400A0000FB71044AFB79137000BF0C37BD4680BC704700BF274F004080B400AF034B1B78DBB21846BD4680BC704700BF274F004080B485B000AF0346FB71FB79FB81044A73
:400A4000FB89138000BF1437BD4680BC704700BF284F004080B483B000AF0346FB71044BFA7992B21A8000BF0C37BD4680BC70472A4F004080B582B000AF03460A46FB71B2
:400A80001346BB71094B1B78002B04D100F010F8064B01221A70BA79FB791146184600F0D9F800BF0837BD4680BD00BFA181FF1F80B582B000AF02F02FFE0346FB71544AF2
:400AC000534B1B78DBB243F00103DBB21370514A504B1B78DBB243F00103DBB213704E4B01221A704D4B02221A704D4A4C4B1B78DBB203F07F03DBB21370002001F048FF9D
:400B0000484A484B1B78DBB223F00603DBB21370454A454B1B78DBB223F02003DBB21370404A404B1B78DBB243F00103DBB21370012001F02DFF282001F02AFF3B4A3B4B98
:400B40001B78DBB203F07F03DBB21370374A374B1B78DBB223F04003DBB21370314A314B1B78DBB243F00203DBB21370022001F00FFF2C4A2B4B1B78DBB243F00403DBB2F4
:400B800013702B4B00221A702A4B00221A70FB79184602F0C5FD0721172001F035FF2649172001F009FF0721182001F02DFF2349182001F001FF0721152001F025FF2049D9
:400BC000152001F0F9FE0721012001F01DFF1D49012001F0F1FE0721022001F015FF1A49022001F0E9FE0721032001F00DFF1749032001F0E1FE07210C2001F005FF14492E
:400C00000C2001F0D9FE00BF0837BD4680BD00BFA5430040B54300409D60004009600040106000409443004012600040F851004084600040856000406D1800005511000047
:400C40006118000079170000C11700000D1800007918000080B582B000AF03460A46FB711346BB712E4AFB7913702E4B00221A702D4B00221A702D4B00221A702C4B0022C8
:400C80001A702C4B00221A702B4B00221A702B4B00221A702A4B4FF400021A60284B4FF080721A60264B4FF400121A60244B02221A60234B04221A60214B08221A60BB7952
:400CC000002B02D0012B09D011E01E4A1D4B1B78DBB223F00103DBB2137011E0194A194B1B78DBB243F00103DBB2137008E0154A144B1B78DBB243F00103DBB2137000BFFF
:400D0000114B03221A70114B80221A70012002F0FBFC0F4B04221A7000BF0837BD4680BDC981FF1FCC81FF1FE881FF1FEB81FF1FE081FF1FEA81FF1FED81FF1FC881FF1FEF
:400D400000E100E00960004028600040086000401260004080B400AF0F4B00221A700F4B00221A700E4B00221A700E4B00221A700D4B00221A700D4B00221A700C4B00226D
:400D80001A700C4B03221A700B4B80221A7000BFBD4680BC704700BFCC81FF1FE881FF1FEB81FF1FE081FF1FEA81FF1FED81FF1FC881FF1F286000400860004080B483B05F
:400DC00000AF0346FB71FA79064913465B0013449B000B4401331B78DBB218460C37BD4680BC7047F081FF1FB0B485B000AF03463960FB711346BB80FB79002B6DD0FB79E4
:400E0000082B6AD8B988FA79364813465B0013449B00034406331B889BB2C3F5007399420CD9FA792F4913465B0013449B000B4406331B889BB2C3F50073BB802A4CF979B3
:400E4000BB881B0A9BB2D8B2FA79264D13465B0013449B002B4403331B78DBB20343DAB20B0123441A70204AFB79B988C9B21B01134401330A461A703B68002B13D0002324
:400E8000FB810CE01948FB79FA8939680A4412781B01034408331A70FB890133FB81FA89BB889A42EED3FA790E4913465B0013449B000B44013300221A700B48F979FA7963
:400EC000084C13465B0013449B00234405331B78DAB20B01034402331A7000BF1437BD46B0BC7047F081FF1FFC5F00407060004080B582B000AF0023FB71314B1B79DBB27C
:400F0000184600F067F80346BB712D4B1B78DBB25BB2002B15DA2A4B5B78DBB2212B00D048E0284B07221A80BA791346DB009B1A254A1344234A536000F086FA0346FB715A
:400F400038E01F4B5B78DBB2202B02D0222B1AD030E01C4B07221A80BA791346DB009B1A194A1344174A5360BB79BA7917498A5CD2B242F00102D1B2144AD15400F0E2FADF
:400F80000346FB7116E0BB790D4A9278D2B291B20F4A22F81310BB79BA790C498A5CD2B242F00202D1B2094AD15400F069FB0346FB7100BFFB7918460837BD4680BD00BF65
:400FC00000600040D481FF1FCC80FF1FB081FF1FC481FF1F80B485B000AF0346FB710023FB73FF23BB7317E0FB7B104AD35C7B737A7B0F4913465B0013449B000B440A33B1
:401000001B78DBB2FA799A4203D1FB7BBB730223FB73FB7B0133FB73FB7B012BE4D9BB7B18461437BD4680BC704700BFB881FF1FF081FF1F80B584B000AF78600B467B8009
:40104000144B1B781A46144B9B5CFB73FA7B134913465B0013449B000B4408331B889BB27A889A420CD9FA7B0C4913465B0013449B000B4408331B887B80002001F07CFC85
:401080007A88FB7B79681846FFF7AEFE00BF1037BD4680BDA281FF1FB481FF1FF081FF1F80B500AF054B1B781A46054B9B5CDBB21846FFF783FE0346184680BDA281FF1F79
:4010C000B481FF1F80B485B000AF78600B46FB701346BB707B68DB7803F00303FB737B689B785BB2002B1ADAFB7B032B0AD0BB7803F001031449FA78CA54BB7843F00103AF
:40110000BB701BE0BB789B08DBB203F001030F49FA78CA54BB7843F00403BB700EE0FB7B032B0BD0BB785B08DBB203F001030849FA78CA54BB7843F00203BB70BB78184620
:401140001437BD4680BC7047B481FF1FB881FF1FBC81FF1F80B582B000AF374B1B78BB71BB7903F01003002B62D00123FB7197F90630002B12DABB7903F00F03012B02D097
:401180000023FB711CE000F061F82C4B1B78DBB25BB2002B14DA0023FB7111E0BB7903F04003002B02D000F095F809E0BB7903F02003002B02D000F0B3F801E00023FB71FF
:4011C000FB79002B34D01C4B1B78BB7197F90630002B2DDB1A4B1B78DAB21A4B1B78DBB21343BB71184ABB791370174B1B78DBB2BA799A421CD1114B1B78FB710E4B1B78C4
:40120000DBB223F07F03BB71BB79002B0AD10A4B0A4A1278D2B21A70074B1B78DBB203F00F03FB71054B1B78DBB2FA799A42E2D100BF0837BD4680BD28600040E981FF1F02
:401240005E82FF1FEC81FF1F2960004080B582B000AF1D4B1B78FB711B4AFB7913701A4B1B78FB7197F90730002B03DA174AFB79137025E0022000F045FA154B1B78DBB2E2
:4012800003F06003202B08D0402B0BD0002B0ED100F0F8FA0346FB710CE002F045FA0346FB7107E001F000FB0346FB7102E00023FB7100BFFB79002B02D1044B03221A70D4
:4012C00000BF0837BD4680BD28600040E981FF1F0060004080B500AF104B1B78DBB2062B19D801A252F823F0171300001713000005130000171300000B1300001713000061
:401300001113000000F0F8F806E000F0A7F903E000F0D2F900E000BF00BF80BDCC81FF1F80B500AF124B1B78DBB2062B1DD801A252F823F06B1300006B13000051130000A8
:401340006B130000571300006B1300005D13000000F0D8F80AE000F027F907E0032000F0D1F9044B03221A7000E000BF00BF80BDCC81FF1FE981FF1F80B483B000AF002354
:40138000FB71294B1B78DBB29AB2284B1B889BB213449AB2254B1A8015E02549FB79254A52681278D2B2CA54224B5B680133214A5360FB790133FB711E4B1B889BB2013B7A
:4013C0009AB21C4B1A801B4B1B889BB2002B02D0FB79072BE1D9144B1B78DBB2082B02D0FB79002B0FD0144B1B78DBB283F07F03DB43DAB2104B1A70104B0F221A70104B77
:4014000002221A7005E00D4B02221A700C4B02221A700C4AFB791370034AFB79137000BF0C37BD4680BC7047C881FF1FCA81FF1F00600040D481FF1F5E82FF1FE981FF1F1C
:40144000CC81FF1FEC81FF1F80B582B000AF164B1B889BB2002B02D100F02EF81EE0134B02221A70124B00221A7000F06BF9114BDB79DBB29BB21B029AB20E4B9B79DBB2A7
:401480009BB21343FB80084B1B889BB2FA889A4202D2054AFB881380FFF76EFF012318460837BD4680BD00BFD481FF1FCC81FF1F5E82FF1F0060004080B400AF094B02223A
:4014C0001A70094B80221A70084B0F221A70084B00221A70074B00221A7001231846BD4680BC7047CC81FF1F5E82FF1FE981FF1FC881FF1FEC81FF1F80B500AFFFF73CFF67
:4015000000BF80BD80B500AF0A4B1B78DBB29AB2094B1B889BB213449AB2074B1A80074B00221A70012000F0EDF8054B03221A7000BF80BDC881FF1FCA81FF1FCC81FF1F0D
:40154000E981FF1F80B582B000AF124B04221A70114B80221A7000F0F5F8104BDB79DBB29BB21B029AB20D4B9B79DBB29BB21343FB800B4B1B889BB2FA889A4202D2084A88
:40158000FB881380074B0B221A70012318460837BD4680BDCC81FF1F5E82FF1F00600040D481FF1FE981FF1F80B483B000AF0023BB71234B1B78DBB203F00F03DBB2023B45
:4015C000FB71FB799AB21F4B1B889BB213449AB21C4B1A8018E01C4B5B681C49BA798A5CD2B21A70184B5B680133174A5360BB790133BB71FB79013BFB71134B1B889BB2A7
:40160000013B9AB2104B1A800F4B1B889BB2002B02D0FB79002BDED10D4AFB7913700D4B1B78DBB283F07F03DB43DAB2094B1A70094B0B221A7000BF0C37BD4680BC704752
:4016400029600040CA81FF1FD481FF1F00600040EC81FF1F5E82FF1FE981FF1F80B500AF054B00221A70012000F04CF8034B03221A7000BF80BD00BFCC81FF1FE981FF1F34
:4016800080B400AF084B06221A70084B06221A70074B80221A70074B00221A7001231846BD4680BC704700BFCC81FF1FE981FF1F5E82FF1FEC81FF1F80B500AF0D4B1B783F
:4016C000DBB2002B0AD00C4A0A4B1B78DBB263F07F03DBB21370074B00221A70074B00221A70012000F00EF8054B03221A7000BF80BD00BFEA81FF1F08600040CC81FF1F3F
:40170000E981FF1F80B483B000AF0346FB710B4B9B68002B0CD0094B9B68FA791A70074B9B68074A128892B25A80044B00229A6000BF0C37BD4680BC704700BFD481FF1FAF
:40174000CA81FF1F80B400AF094B00221A80094B9B68002B07D0074B9B6800221A70054B9B6800225A8000BFBD4680BC704700BFCA81FF1FD481FF1F80B400AF0D4B0122B6
:401780001A700D4B9B7C0D4B1B7BDBB203F00303012B08D0094BDB7BDBB283F07F03DB43DAB2064BDA73054B01225A7300BFBD4680BC70470B600040FC5F0040F081FF1F7A
:4017C00080B400AF0E4B02221A700E4B93F822300D4B1B7EDBB203F00303012B08D00A4BDB7EDBB283F07F03DB43DAB2064BDA76054B01225A7600BFBD4680BC704700BF1C
:401800000B600040FC5F0040F081FF1F80B400AF104B04221A70104B93F832300F4B93F82430DBB203F00303012B0AD00B4B93F82730DBB283F07F03DB43DAB2074B83F8A7
:401840002720064B012283F8252000BFBD4680BC704700BF0B600040FC5F0040F081FF1F80B400AF00BFBD4680BC704780B500AFFFF770FA00BF80BD80B500AF01F03EF8C1
:4018800000BF80BD80B586B000AF0023FB759D4B1B78FB7100233B619B4B00221A8097F90730002B80F20481964B5B78DBB20A2B00F21B8201A252F823F000BF071A000069
:4018C000EB1C0000EB1C0000EB1C0000EB1C0000EB1C0000E9180000EB1C00007B1A0000EB1C0000911A0000864BDB78DBB2012B0ED100F049FEB860BB685B68824A536006
:40190000814B12221A80FFF79FFD0346FB75EEE17C4BDB78DBB2022B25D17A4B9B78DBB2184600F009FEB860BB68002B00F0DF81BB685B68744A5360734B5B6803331B7818
:40194000DBB29BB21B029AB26F4B5B6802331B78DBB29BB213439AB26B4B1A80FFF774FD0346FB75C3E1674BDB78DBB2032B45D10023FB73654B3B6109E03B691B78BB7150
:40198000BB793A6913443B61FB7B0133FB735D4B9B78DBB2FA7B9A4204D23B691B78DBB2002BEAD1574B9B78DBB2EE2B01D1584B3B61544B9B78DBB2002B0BD0514B9B78CC
:4019C000DAB2544B1B7C9A4204D1534800F0ACF9514B3B613B691B78DBB2002B00F087813B691B78DBB29AB2474B1A80464A3B695360FFF729FD0346FB7578E101F094FE51
:401A00000346FB7573E1FB7903F00303002B20D0022B00D030E03C4B02221A80394B1B79DBB203F07F023D4913465B0013449B000B4402331B78DAB2394B1A70384B002224
:401A40005A70314B364A5A60FFF7FEFC0346FB7512E02D4B02221A80324B1B78DAB2304B1A702F4B00225A70274B2D4A5A60FFF7EBFC0346FB7500BF40E1234B01221A80CA
:401A8000214B294A5A60FFF7DFFC0346FB7535E11D4B01221A801B4B1B79DBB21A46234B1344194A5360FFF7CFFC0346FB7525E1144B5B78DBB2013B0A2B00F21A8101A226
:401AC00052F823F0CF1B0000F31C00005D1C0000F31C0000F11A0000F31C0000F31C0000F31C0000351B0000F31C00008B1B0000044B9B78DAB20E4B1A70FFF7C1FD0346FD
:401B0000FB75FBE000600040D481FF1F583C0000603D0000003C00006482FF1FF081FF1FA481FF1FED81FF1FEB81FF1F5C82FF1FEA81FF1F744B9B787B717B79002B06D0B6
:401B40007B79013BDBB2184600F0F6FCB8607B79002B02D0BB68002B03D17B79002B40F0CA806A4B1B78DBB27A799A4208D0674A7B791370664B01221A70012000F0DCF9BC
:401B8000FFF77EFD0346FB75B5E000F055FE0346002B00F0B2805C4B1B793B715A4B1B79DAB25C4B1A703B795B4AD35CDAB23B795A49CB5CDBB29A4204D0554B01221A7094
:401BC00000F08CFBFFF75CFD0346FB7595E0FB7903F00303012B20D0012B0CD3022B00D03BE0494B9B78DBB2002B31D100F078FD0346FB752CE0444B9B78DBB2012B29D165
:401C0000474B1B78DBB223F00203DAB2444B1A70FFF736FD0346FB751CE03B4B1B79DBB2012B19D8384B9B78DBB2DB43DBB2364A1279D2B2114610463A4A125CD2B21340C0
:401C4000DAB2384B5A54FFF71BFD0346FB7503E000BF53E000BF51E000BF4FE0FB7903F00303012B20D0012B0CD3022B00D03BE0254B9B78DBB2002B31D100F0BDFC034652
:401C8000FB752CE0204B9B78DBB2012B29D1244B1B78DBB243F00203DAB2214B1A70FFF7EFFC0346FB751CE0174B1B79DBB2012B19D8154B9B78DBB2DB43DBB2124A127966
:401CC000D2B211461046174A125CD2B21340DAB2144B5A54FFF7D4FC0346FB7503E000BF0CE000BF0AE000BF08E000BF06E000BF04E000BF02E000BF00E000BFFB7D1846FA
:401D00001837BD4680BD00BF00600040EB81FF1FE881FF1FE081FF1FD081FF1F5C82FF1FED81FF1F6082FF1FB0B58AB000AF7860324B07F114041D460FCD0FC42B68237043
:401D4000002387F826307B68002B52D07B6822221A707B68013303221A7007F10C03184600F076FE022387F827303EE097F827307A68134497F8262007F128010A4412F875
:401D80001C2C1209D2B207F128010A4412F8142C1A7097F8273001337A68134400221A7097F8273002337A68134497F8262007F128010A4412F81C2C02F00F0207F12801EC
:401DC0000A4412F8142C1A7097F8273003337A68134400221A7097F82630013387F8263097F82730043387F8273097F82730212BBCD900BF2837BD46B0BD00BFEC3B0000A4
:401E000090B482B000AF0123FB7180E0464AFB791B0113440C221A70FA79444913465B0013449B000B4405331B78DBB2002B1CD0FA793E4913465B0013449B000B440433D4
:401E40001B78DBB25BB2002B07DA394AFB791B01134402330C221A700EE0354AFB791B011344023308221A7006E0314AFB791B011344023380221A702B48F979FA792B4C1D
:401E800013465B0013449B00234406331B889BB2DAB20B01034406331A702348F979FA79224C13465B0013449B00234406331B889BB21B0A9BB2DAB20B01034407331A7041
:401EC0001948F979FA79194C13465B0013449B00234406331B889BB2DAB20B01034404331A701148F979FA79104C13465B0013449B00234406331B889BB21B0A9BB2DAB293
:401F00000B01034405331A70FB790133FB71FB79082B7FF67BAF074BFF221A7000BF0837BD4690BC704700BF70600040F081FF1FFC5F00400A60004080B58AB000AF034627
:401F4000FB7100237B84002387F8273050E097F82720B34913465B0013449B000B4400221A7097F82720AE4913465B0013449B000B44023300221A7097F82720A849134674
:401F80005B0013449B000B44033300221A7097F82720A34913465B0013449B000B44083300221A8097F827209D4913465B0013449B000B440A3300221A7097F827209849A4
:401FC00013465B0013449B000B44013300221A7097F82720924913465B0013449B000B44053300221A7097F82730013387F8273097F82730082BAAD9FB79002B16D000234E
:4020000087F825300EE097F82530864A0021D15497F82530844A0021D15497F82530013387F8253097F82530012BECD97F4B1B78DBB2002B00F04A810023FB767B4B1B786E
:40204000DBB2013BDBB2184600F076FA78617B695B683B613B6907331B7803F04003002B08D0734B1B78DBB243F00103DAB2704B1A7007E06E4B1B78DBB223F00103DAB23D
:402080006B4B1A707B6908337B617B691B7887F82730012387F82530B6E07B695B68FB61002387F82630A3E097F82520FB699B7803F07F039A4240F0938097F82520584938
:4020C00013465B0013449B000B4408331B889AB2FB699B889A420CD297F82520FB6998884F4913465B0013449B000B44083302461A80FB691B781A464A4B9B5CDAB2FB69AB
:402100005B789A426CD197F82520FB699878444913465B0013449B000B44043302461A7097F82520FB69D8783D4913465B0013449B000B4402461A70FB69DB7803F003035B
:40214000FB73FB699B785BB2002B1CDA97F82520FB7B012B01D1072000E00D20304913465B0013449B000B44053302461A7097F825202B4913465B0013449B000B440133E7
:4021800001221A701BE097F82520FB7B012B01D1052000E00920224913465B0013449B000B44053302461A7097F825201C4913465B0013449B000B44013300221A70FB6925
:4021C0009B790A2B03D0FB699B79022B08D1FA7E97F825301946F869FEF774FF0346FB76FB690833FB6197F82630013387F8263097F8262097F827309A42FFF455AF97F801
:402200002530013387F8253097F82530082B7FF644AF7B695B68FB61002387F8253020E0F081FF1F5C82FF1FD081FF1FEB81FF1FED81FF1FFB699B7803F07F02FB691878D9
:40224000244913465B0013449B000B440A3302461A70FB690833FB6197F82530013387F8253097F8252097F827309A42E2D300F09DF90246184B1A6000237B84012387F84B
:4022800027301DE097F82720124913465B0013449B000B4406337A8C1A8097F827200D4913465B0013449B000B4408331B889AB27B8C13447B8497F82730013387F8273033
:4022C00097F82730082BDDD9FFF79AFD00BF2837BD4680BDF081FF1FE481FF1F90B585B000AF8F4B1B78DBB2002B00F015818C4B1B78DBB2013BDBB2184600F01DF9786042
:402300007B6808337B607B681B78FB707B685B68BB60844B1B78BB700023FB73F7E0BB681B78BA789A4240F0EC80BB787E4AD35CDAB2BB685B789A4240F0E380BB689B785C
:4023400003F07F037B70BB68DB7803F003033B707A78764913465B0013449B000B44033300221A707A78BB689878704913465B0013449B000B44043302461A707A78BB686A
:40238000D8786A4913465B0013449B000B4402461A707A78BB689888644913465B0013449B000B44083302461A80BB689B785BB2002B1ADA7A783B78012B01D1072000E053
:4023C0000D205A4913465B0013449B000B44053302461A707A78554913465B0013449B000B44013301221A7019E07A783B78012B01D1052000E009204C4913465B0013443E
:402400009B000B44053302461A707A78474913465B0013449B000B44013300221A70444A7B781B011344023301221A70404879787A783E4C13465B0013449B00234408333E
:402440001B889BB21B0A9BB2DAB20B0103441A70374879787A78354C13465B0013449B00234408331B889BB2DAB20B01034401331A70304879787A782C4C13465B001344FB
:402480009B00234406331B889BB2DAB20B01034406331A70274879787A78244C13465B0013449B00234406331B889BB21B0A9BB2DAB20B01034407331A701E4879787A78F9
:4024C0001A4C13465B0013449B00234406331B889BB2DAB20B01034404331A70154879787A78124C13465B0013449B00234406331B889BB21B0A9BB2DAB20B010344053343
:402500001A70BB680833BB60FB7B0133FB73FA7BFB789A42FFF403AF00BF1437BD4690BDEB81FF1FE081FF1F5C82FF1FF081FF1FFC5F00407060004080B485B000AF03461D
:40254000FB710F4B1B78DBB20E4ADB0013445B68FB60FB681033FB60FB681B78FA799A4202D30023FB6005E0FB79DB00FA6813445B68FB60FB6818461437BD4680BC704727
:40258000C981FF1F583D000080B400AF054B1B78DBB2054ADB0013445B681846BD4680BC704700BFC981FF1F583D000080B584B000AF104B1B78DBB2013BDBB21846FFF7C7
:4025C000BBFFB860BB68002B0DD0BB685B681B79FB71FB790233DB00BA681344BB60BB685B68FB6001E00023FB60FB6818461037BD4680BDEB81FF1F80B582B000AF002335
:40260000FB71344B1B79DBB203F07F03BB71BB79002B5AD0BB79082B57D8BA79B9792E480B465B000B449B00034402331B78DBB243F00103D8B2284913465B0013449B00E9
:402640000B44023302461A70BA79234913465B0013449B000B44033300221A70BA79B9791D480B465B000B449B00034401331B78DBB243F00203D8B2174913465B00134466
:402680009B000B44013302461A70BA79124913465B0013449B000B4404331B78DBB25BB2002B07DA0D4ABB791B01134402338D221A7006E0094ABB791B011344023389220B
:4026C0001A70FEF7DDFF0346FB71FB7918460837BD4680BD00600040F081FF1FFC5F004080B582B000AF0023FB71504B1B79DBB203F07F03BB71BB79002B00F09280BB7918
:40270000082B00F28E80BA79B97949480B465B000B449B00034402331B78DBB223F00103D8B2434913465B0013449B000B44023302461A70BA793E4913465B0013449B00B5
:402740000B44033300221A703A49BB793948BA79120102441278D2B202F07F02D2B21B010B441A70BA79B97931480B465B000B449B00034401331B78DBB223F00203D8B2B9
:402780002B4913465B0013449B000B44013302461A70BA79264913465B0013449B000B4404331B78DBB25BB2002B1BDABA79204913465B0013449B000B4401331B78DBB2AA
:4027C000012B07D11B4ABB791B01134402330C221A7022E0174ABB791B01134402330D221A701AE0BA79124913465B0013449B000B4401331B78DBB2012B07D10D4ABB7984
:402800001B011344023308221A7006E0094ABB791B011344023309221A70FEF731FF0346FB71FB7918460837BD4680BD00600040F081FF1FFC5F004080B584B000AF002342
:40284000FB73154B1B79BB73144B1B78DBB2013BDBB21846FFF770FEB860BB685B681B79FB71BA7BFB799A4202D9BB7B022B0ED8BB7BBA7B0A498A5CD1B20A4AD154BB7B41
:40288000054A9278D1B2064AD1540123FB73FB7B18461037BD4680BD00600040EB81FF1F5C82FF1FD081FF1F80B582B000AF0023FB710F4B1B78DBB25BB2002B12DA0C4BAB
:4028C0005B78DBB2012B00D00CE00A4B0A4A5A60094B1B789AB2074B1A80FEF7B5FD0346FB7100BFFB7918460837BD4680BD00BF00600040D481FF1F743D000080B400AF3C
:40290000054B1B78DBB203F040039B09DBB21846BD4680BC704700BF8F45004080B483B000AF134B7F221A70124B80221A707F23FB710CE0FB79DB0003F1804303F5F04346
:40294000FA79013AD2B21A70FB79013BFB71FB79002BEFD1FB79DB0003F1804303F5F04300221A7000BF0C37BD4680BC704700BFE980FF1FE880FF1F80B483B000AF034620
:40298000FB7101BE00BF0C37BD4680BC704700BF80B582B000AF0346FB80FB88054A127802FB03F3184600F0AFFE00BF0837BD4680BD00BFF880FF1F80B584B000AF03461D
:4029C0003960FB710F4B1B68FB60FB791F2B02D90020FFF7D1FFFB7903F01F0310339B00FA6813441B68BB60FB7903F01F0310339B00FA6813443A681A60BB681846103759
:402A0000BD4680BD08ED00E080B582B000AF03460A46FB711346BB71BB79072B02D90020FFF7AAFFFB791F2B02D90020FFF7A4FFFB7903F01F0303F1604303F56443BA799D
:402A40005201D2B21A7000BF0837BD4680BD00BF80B483B000AF7860264B1B78DBB21A467B681A60244B1B78DBB21B027A6812681A437B681A60214B1B78DBB21B047A686D
:402A800012681A437B681A601D4B1B78DBB21B067A6812681A437B681A607B680433194A1278D2B21A60184B1B78DBB21A027B6804337968043109680A431A60134B1B7826
:402AC000DBB21A047B6804337968043109680A431A600F4B1B78DBB21A067B6804337968043109680A431A6000BF0C37BD4680BC704700BF0301004904010049EC460040FD
:402B0000020100490101004900010049050100490601004980B500AF064B1B78002B04D100F00AF8034B01221A7000F063F800BF80BD00BFA681FF1F80B582B000AF284A8D
:402B4000274B1B78DBB243F00203DBB21370254B1B78DBB223F07003FB71224AFB7943F01003DBB21370204A1F4B1B78DBB223F03003DBB213701C4A1B4B1B78DBB243F05A
:402B80003003DBB21370184A174B1B78DBB223F00F03DBB21370144A134B1B78DBB243F00F03DBB21370FF2000F048F8802000F055F8002000F062F80C4A0C4B1B78DBB225
:402BC00043F00103DBB21370094A094B1B78DBB243F00103DBB2137000BF0837BD4680BD004F0040024F00400B4F0040A3430040014F004080B400AF0D4A0D4B1B78DBB220
:402C000043F00103DBB213700A4A0A4B1B78DBB243F00103DBB21370074A074B1B78DBB243F00103DBB2137000BFBD4680BC7047A3430040B3430040004F004080B483B02C
:402C400000AF0346FB71044BFA7992B21A8000BF0C37BD4680BC7047044F004080B483B000AF0346FB71044BFA7992B21A8000BF0C37BD4680BC7047064F004080B483B066
:402C800000AF0346FB71044AFB79137000BF0C37BD4680BC704700BF034F004080B500AF064B1B78002B04D100F00AF8034B01221A7000F063F800BF80BD00BFA781FF1F21
:402CC00080B582B000AF284A274B1B78DBB243F00203DBB21370254B1B78DBB223F07003FB71224AFB7943F01003DBB21370204A1F4B1B78DBB223F03003DBB213701C4A0A
:402D00001B4B1B78DBB243F03003DBB21370184A174B1B78DBB223F00F03DBB21370144A134B1B78DBB243F00F03DBB21370FF2000F048F8802000F055F8002000F062F8B7
:402D40000C4A0C4B1B78DBB243F00203DBB21370094A094B1B78DBB243F00103DBB2137000BF0837BD4680BD0C4F00400E4F0040174F0040A34300400D4F004080B400AF6F
:402D80000D4A0D4B1B78DBB243F00203DBB213700A4A0A4B1B78DBB243F00203DBB21370074A074B1B78DBB243F00103DBB2137000BFBD4680BC7047A3430040B3430040D0
:402DC0000C4F004080B483B000AF0346FB71044BFA7992B21A8000BF0C37BD4680BC7047104F004080B483B000AF0346FB71044BFA7992B21A8000BF0C37BD4680BC7047D3
:402E0000124F004080B483B000AF0346FB71044AFB79137000BF0C37BD4680BC704700BF0F4F004080B485B000AF0346FB710B4B1B78DBB223F00203FB730849FB795B00A3
:402E4000DBB203F00203DAB2FB7B1343DBB20B7000BF1437BD4680BC704700BF2051004080B400AF00BFBD4680BC704780B582B000AF0F2000F086F800F076F800F04CFC1C
:402E80000346FB71074A074B1B78DBB243F01003DBB21370FB79184600F042FC00BF0837BD4680BD9765004080B500AF00F06CF94FF4004000F0A6F9064B1B78002B04D19B
:402EC000FFF7CEFF034B01221A70FFF7CFFF00BF80BD00BFA881FF1F80B582B000AF00F065F900F019FC0346FB71084A074B1B78DBB223F01003DBB21370FB79184600F074
:402F00000FFC00BF0837BD4680BD00BF9765004080B582B000AF00F085F90346FB80FB88A3F500439BB2BB80B7F9043018460837BD4680BD80B584B000AF0346FB80B7F9D2
:402F40000630002B04DBFB88A3F50043FB8103E0FB88A3F50043FB81FB89184600F052F900BF1037BD4680BD80B400AF044B1B78DBB203F00F03DBB21846BD4680BC7047DF
:402F80006765004080B483B000AF0346FB71044AFB79137000BF0C37BD4680BC704700BF8765004080B400AF00BFBD4680BC704780B582B000AF0F2000F086F800F076F869
:402FC00000F0AAFB0346FB71074A074B1B78DBB243F01003DBB21370FB79184600F0A0FB00BF0837BD4680BD9965004080B500AF00F0B2F94FF4004000F0ECF9064B1B78DA
:40300000002B04D1FFF7CEFF034B01221A70FFF7CFFF00BF80BD00BFA981FF1F80B582B000AF00F0ABF900F077FB0346FB71084A074B1B78DBB223F01003DBB21370FB79DC
:40304000184600F06DFB00BF0837BD4680BD00BF9965004080B582B000AF00F0CBF90346FB80FB88A3F500439BB2BB80B7F9043018460837BD4680BD80B584B000AF0346C9
:40308000FB80B7F90630002B04DBFB88A3F50043FB8103E0FB88A3F50043FB81FB89184600F098F900BF1037BD4680BD80B400AF044B1B78DBB203F00F03DBB21846BD4620
:4030C00080BC70476965004080B483B000AF0346FB71044AFB79137000BF0C37BD4680BC704700BF8965004080B582B000AF1C4B1B78DBB223F00703FB71194AFB7913705A
:40310000174B1B78DBB223F00303FB71144AFB79137000F0C3F84FF4004000F09FF84FF4004000F06FF8002000F050F800F05EF84FF4004000F0A2F800F0EEFA0346BB71AC
:40314000084A084B1B78DBB243F01003DBB21370BB79184600F0E4FA00BF0837BD4680BD746400409264004080B400AF054A054B1B78DBB263F07F03DBB2137000BFBD46FF
:4031800080BC70477464004080B500AF064B1B78002B04D1FFF7A8FF034B01221A70FFF7E3FF00BF80BD00BFAA81FF1F80B400AF054A054B1B78DBB203F07F03DBB21370A1
:4031C00000BFBD4680BC70477464004080B483B000AF0346FB71044AFB79137000BF0C37BD4680BC704700BF8264004080B400AF034B1B78DBB21846BD4680BC704700BFB1
:403200006264004080B483B000AF0346FB80044AFB88138000BF0C37BD4680BC704700BF0868004080B400AF044B1B78044B1B889BB21846BD4680BC704700BF0464004024
:403240008868004080B400AF034B1B889BB21846BD4680BC704700BF8868004080B483B000AF0346FB80044AFB88138000BF0C37BD4680BC704700BF4868004080B483B06E
:4032800000AF0346FB80044AFB88138000BF0C37BD4680BC704700BF6868004080B500AF01E0FFF7CFFFFFF7A1FF034603F04003002BF6D100BF80BD80B582B000AF1C4B67
:4032C0001B78DBB223F00703FB71194AFB791370174B1B78DBB223F00303FB71144AFB79137000F0C3F84FF4004000F09FF84FF4004000F06FF8002000F050F800F05EF842
:403300004FF4004000F0A2F800F006FA0346BB71084A084B1B78DBB243F01003DBB21370BB79184600F0FCF900BF0837BD4680BD796400409A65004080B400AF054A054B6D
:403340001B78DBB263F07F03DBB2137000BFBD4680BC70477964004080B500AF064B1B78002B04D1FFF7A8FF034B01221A70FFF7E3FF00BF80BD00BFAB81FF1F80B400AF56
:40338000054A054B1B78DBB203F07F03DBB2137000BFBD4680BC70477964004080B483B000AF0346FB71044AFB79137000BF0C37BD4680BC704700BF8A65004080B400AF1E
:4033C000034B1B78DBB21846BD4680BC704700BF6A65004080B483B000AF0346FB80044AFB88138000BF0C37BD4680BC704700BF106A004080B400AF044B1B78044B1B88D7
:403400009BB21846BD4680BC704700BF08650040906A004080B400AF034B1B889BB21846BD4680BC704700BF906A004080B483B000AF0346FB80044AFB88138000BF0C3797
:40344000BD4680BC704700BF506A004080B483B000AF0346FB80044AFB88138000BF0C37BD4680BC704700BF706A004080B500AF01E0FFF7CFFFFFF7A1FF034603F04003F0
:40348000002BF6D100BF80BD80B483B000AF0346FB71044AFB79137000BF0C37BD4680BC704700BF7B64004080B485B000AF0346FB710B4B1B78DBB223F00803FB73084918
:4034C000FB79DB00DBB203F00803DAB2FB7B1343DBB20B7000BF1437BD4680BC704700BF1051004080B500AF224A224B1B78DBB203F00103DBB213701F4A1F4B1B78DBB25B
:4035000023F00303DBB213701C4A1C4B1B78DBB223F03003DBB21370184A184B1B78DBB243F03003DBB21370144A144B1B78DBB223F00F03DBB21370104A104B1B78DBB2DD
:4035400043F00F03DBB213700D4A0D4B1B78DBB243F00103DBB2137040F2CF7000F064F840F2CF7000F072F8002000F041F800BF80BD00BF184F00401A4F0040234F004052
:40358000194F004080B400AF0D4A0D4B1B78DBB243F00403DBB213700A4A0A4B1B78DBB243F00403DBB21370074A074B1B78DBB243F00103DBB2137000BFBD4680BC704795
:4035C000A3430040B3430040184F004080B500AF064B1B78002B04D1FFF784FF034B01221A70FFF7CFFF00BF80BD00BFAC81FF1F80B483B000AF0346FB71044AFB791370B2
:4036000000BF0C37BD4680BC704700BF1B4F004080B400AF034B1B78DBB21846BD4680BC704700BF1B4F004080B485B000AF0346FB80FB88FB81044AFB89138000BF1437D1
:40364000BD4680BC704700BF1C4F004080B483B000AF0346FB80044AFB88138000BF0C37BD4680BC704700BF1E4F004080B582B000AF786000F03CF8786800F009F807203E
:4036800000F018F800F028F800BF0837BD4680BD80B485B000AF7860054B1B68FB60FB688C337A681A6000BF1437BD4680BC704708ED00E080B483B000AF0346FB71054A31
:4036C000FB795B01DBB2137000BF0C37BD4680BC704700BF13E400E080B400AF034B4FF400221A6000BFBD4680BC704700E100E080B400AF034B4FF400221A6000BFBD4604
:4037000080BC704780E100E00230800803D000BF01380046FCD17047EFF3108072B6704780F31088704700BF80B582B000AF0023BB711B4B1B78DBB203F00303012B02D052
:40374000022B04D012E0164B1B79FB7111E0144B1B79DBB203F07F02124913465B0013449B000B440A331B78FB7102E00023FB7100BFFB79022B0ED80B4B1A68FB7913442A
:403780001B78022B04D1FDF7B3FB0346BB7102E00023BB7100BFBB7918460837BD4680BD00600040F081FF1FE481FF1F80F0004002E000BF81F0004142001FBF5FEA4103FA
:4037C00092EA030F7FEA226C7FEA236C6AD04FEA1262D2EB1363C1BFD218414048404140B8BF5B42192B88BF704710F0004F40F4000020F07F4018BF404211F0004F41F4B8
:40380000000121F07F4118BF494292EA030F3FD0A2F1010241FA03FC10EB0C00C3F1200301FA03F100F0004302D5494260EB4000B0F5000F13D3B0F1807F06D340084FEA66
:40384000310102F10102FE2A51D2B1F1004F40EBC25008BF20F0010040EA03007047490040EB000010F4000FA2F10102EDD1B0FA80FCACF1080CB2EB0C0200FA0CF0AABF2F
:4038800000EBC25052421843BCBFD0401843704792F0000F81F4000106BF80F400000132013BB5E74FEA41037FEA226C18BF7FEA236C21D092EA030F04D092F0000F08BF46
:4038C0000846704790EA010F1CBF0020704712F07F4F04D1400028BF40F00040704712F100723CBF00F50000704700F0004343F0FE4040F4000070477FEA226216BF0846D9
:403900007FEA23630146420206BF5FEA412390EA010F40F4800070474FF0000304E000BF10F0004348BF40425FEA000C08BF704743F0964301464FF000001CE050EA010257
:4039400008BF70474FF000030AE000BF50EA010208BF704711F0004302D5404261EB41015FEA010C02BF84460146002043F0B64308BFA3F18053A3F50003BCFA8CF2083A45
:40398000A3EBC25310DB01FA02FC634400FA02FCC2F12002BCF1004F20FA02F243EB020008BF20F00100704702F1200201FA02FCC2F1200250EA4C0021FA02F243EB02009B
:4039C00008BF20EADC7070474FEA4002B2F1FE4F0FD34FF09E03B3EB12620DD94FEA002343F0004310F0004F23FA02F018BF404270474FF00000704712F1610F01D142020F
:403A000005D110F0004008BF6FF0004070474FF000007047014B1868704700BF6081FF1F0E4B70B51E460E4C0025E41AA410A54204D056F8253098470135F8E700F0C2F90C
:403A4000084B094C1E46E41AA4100025A54204D056F8253098470135F8E770BDD03D0000D03D0000D03D0000D83D0000931E222B10B50C4602D90020087010BD0A2A06D148
:403A8000002804DA2D230B704042012100E00021214400F01FF8204610BDFFF7E7BF10B5431E0A44914204D011F8014B03F8014FF8E710BD03460244934202D003F8011BA1
:403AC000FAE77047034613F8012B002AFBD1181A01387047F0B58BB003460F466D461A4C04F1200E2E4620686168083403C674453546F7D1217920683171911E22293060C8
:403B00004FF0000001D938701CE07D1EB3FBF2F402FB14330AAE334413F8283C411C05F8013F23460CB10846F0E77C543A18C11A8B4206DAF95C1478FC5402F801190133AF
:403B4000F5E738460BB0F0BD9E3D0000000000000D0A204D313A00000D0A00000D0A204D323A00000D0A20656E64200D0A000000454E44204C4F4F500A0D00004E756D6233
:403B8000657220746F6F206C61726765210A0D00557064617465642064757479206379636C65210A0D000000004F0040300040510040300000000140800C000D0140000366
:403BC00000140140000800400140000A004C01400002105001401000800C01405C0F0048800000500140DC0F00481000303132333435363738394142434445460000000027
:403C00001201000202000008B40432F2010001028001000009024300020101C032090400000102020103052400100104240202052406000105240100010705810308000A47
:403C400009040100020A000004070582024000000705030240000000040309042C0343007900700072006500730073002000530065006D00690063006F006E006400750012
:403C8000630074006F007200100355005300420055004100520054003803430044004300200043006F006D006D0075006E00690063006100740069006F006E00200049002F
:403CC0006E007400650072006600610063006500260343004400430020004400610074006100200049006E00740065007200660061006300650000000203000000008103B5
:403D0000080002000100820240000A000100030240000A00020A000001000000143C000003000000FC3C00000000000000000000000000000000000000000000143D000071
:403D400001000000003C0000000000000000000001000000183D000001000000403D000012034D005300460054003100300030000100000028000000000104000100000023
:403D8000000000000001435955534200000030303030310000000000000000004300303132333435363738396162636465666768696A6B6C6D6E6F7071727374757677780F
:403DC000797A0000F8B500BFF8BC08BC9E4670475D000000C1070000F8B500BFF8BC08BC9E46704739000000F83D0000C880FF1FA0000000200100000000000000C2010055
:403E000000000800C201000000080000A12000000000020000000000807F0000030000000087930360EA00003C0000000000307500000000000000000000000000000000A2
:403E4000000000000000000000000000000000009C3D0000000000000000000000000000000000000000000000000000000000000000000000000000000000000000000069
:403E8000000000000000000000000000000000000081FF1F000000000000000000000000000000000000000000000000000000000000000000000000000000000000000063
:403EC00000000000000000000000000000000000000000000000000000000000000000000000000000000000000000000000000000000000000000000000000000000000C2
:403F00000000000000000000000000000000000000000000000000000000000000000000000000000000000000000000000000000000000000000000000000000000000081
:403F40000000000000000000000000000000000000000000000000000000000000000000000000000000000000000000000000000000000000000000000000000000000041
:403F80000000000000000000000000000000000000000000000000000000000000000000000000000000000000000000000000000000000000000000000000000000000001
:020000040003F7
:0200000480007A
:4000000001450040084F004008520040015B004004640040046500402B000140370101403A02014053030140480401405705014039060140540701404F0801404C090140AF
:40004000520A0140520B01400A0C0140570D0140480E0140430F0140291401404B1501402E16014056170140681801404D190140451A0140481B0140104001401E410140F0
:40008000194201400F430140064401400D4501401146014011470140094801400E4901400A4C0140064D014006500140035101407E0201200A4B0D20164B1940224B255082
:4000C0002E4B00380119082009241828192078017C402784826F8A728C0F8E388507870F890F8A6F00070405060A08030A0C0C200F011210140F184019031C0C1E031F02E6
:40010000200A22052420250429012A402E4030203102320F341035013640370438023E403F515608580459045B045C105D905F01D804D904DB04DC11DF010006020905021C
:40014000070408400A940C0A0E0210A411401505170118801A151B2422102341281429822A022C0A2D80300932403320340136013704388039453A283D043E8242204304B8
:40018000588062806C046E80830484408A408B018C0EC05FC2BFC43FCA3FCCCFCEDFD608D808E001E264E68805070D0713071504170319071F072D062F01310435023701EB
:4001C000540F580459045B045C115F0581018302840486028C028D108E049201930495029608970199019B02A210A310A402A501A604A702AC02AE04AF08B008B108B21063
:40020000B303B406B504B601B710BA20BB08BF40D608D804D904DB04DD90DF010084050208020A100C480D010E2110011220130116881745180619081A181B022080222AAD
:40024000230224882640280129082A032C02320A3310350236103744380239403B013D043E8059805C205E085F426002660467047D08804486408A088E018F529221934003
:4002800094049504968099029A089C049E819F05A008A280A304A4A2A609AA08AB01AC81B010B102C015C23CC4FDCA1BCCF7CE59D6F8D868DE40E284E408E801EA04EC014E
:4002C000EE08010105010901100113011401170118011F0121013101340138203E104062410449FF4AFF4BFF4DA04F0150185280580459045A045B045C115F01604062803E
:4003000064406540668068406A806C406D206E80AB01B501C046C102C54CC630C72EC83BC9FFCAFFCBFFCDAFCE07CF01D018D608D804D904DA04DB04DC11DD90DF01E04099
:40034000E280E440E540E680E840EA80EC40ED20EE8000800201030505020640070409150A010C020D010E031002111512401514170118041A082340270429022C022F08D3
:400380003002334436013704381039143A013C903D05400443024404470248044E444F045420551156065F806701728083808404870288288A028D4092209546968097042F
:4003C000984099029B409C259D809E069F05A140A280A304A422A504A605A740A880AD40AE04B744C053C29FC47FCA31CCCBCEF7D0A5D224D610D810E201E602EA0EEC081E
:400400000304040409020A020E011A04270129022F08300131023202330134043504370839023E103F0152035302580459045B045C015D105F0180018410870488018904F8
:400440008F0491019202940898109C019F03A204A410A802AC01B006B102B201B301B410B504B608B820BE54BF10D804D90CDC19DF010121021305800648071009480A8831
:400480000C200D020E020F1011401288130414881502170419081A841B401C901D031E08202822092408260227112C282F01324138203A843D203F0158015B016D206E207D
:4004C0006F027B02801481408204841085208604880489408B608C10922093019410950698409A809B049C05A028A148A280A304A444A504A605A748AC04AD80AF02B108F1
:40050000B340C0FEC2FFC47FCA70CC09CEAEDE08E082E205E401E606EA2000C001B6022403080477056E0A080B0111D81302140116F2171E188419101A101B021CB71DD899
:400540001E401F0426072CC12E1230F0311E330135E0360F3920580459045F0180548121820A840E8507876089618A808B068C588D088E068F109001910693619446961855
:40058000971099029A219D04A05EA167A506A80AAA54AB61AE01AF08B020B120B2C0B346B401B507B61EB718BB28BE10D280D804D904DB04DC30DF0100A40340041405011E
:4005C000082009180A400C400E29104813401620174018021A511B141C801D011F4021B42221231024042750280129062B0830A43301350136143740380139683C043E1103
:4006000048084A04734081028211831086228A208B418E08901191409424960B9718980599069A029C289D019E689F40A0A6A308A5A0A614AA10B040C07FC2EEC4ABCA0FA2
:40064000CCFFCEEFE090E220E420E680EA01EE200140038006C0078009130B0C0C150E2A0F081004121114081513162217041803190A1A3C1B141F1521032314243F264080
:400680002720283F2A802BC02F403110320F34F0350F37E03A223B203F4156025712580459045B045C335D305F0180CF8230830184739494966098309AC99CFD9E02A60F48
:4006C000AC9EAE60B2FFB701BE04C005C504C9FFCA07CBFFCC40CD20CEF0CF05D008D608D804D904DA04DB04DD93DF01E040E1A8E240E320014003200404050108050A0424
:400700000E29100811041620174019021B261C10200121102340268028012A012B243268380239A03B043E043F0A4C404D884E4058085E90640565106704680869046B01FC
:400740006C016D4070A0710C8B018E80918094A19564960A975899809A039C219D189E489F01A046A268A308A4A8A5A8A702A810AE46AF80B40CB612C035C2EEC4A6CA0F94
:40078000CC0ECE8FD210D632D830E080E241E622E840EA08EC40EE0238083E0454015604580459045B045C115D305F0100100140028003200688070609AA0E410F0110A158
:4007C00013101501164017401AA41B201E20200828282E413002320433803601374238203B083D813E8840114122430A48104940530159405A805C065E105F406203650128
:4008000081118280844088028A108F0290109180924093019480952596AA970A980299809A019B409C409D089F05A040A140A228A418A601AB48AE04B001B240C0DFC29F61
:40084000C49FCA96CC9BCED6D00FD208D6F0D880E010E280E480E801EAA40120030309110A040B460C010F4C120415111602170E194C1B131E02240127082801300432018E
:40088000334A3402350F373039803B283E1154185604580459045B045C335D305F0182038410885C8A028E2098149C80A46CA611A870AA0CAC09AE10B01FB480B660B880BD
:4008C000BE50C024C106C6BEC7C0C82CC9FFCAFFCBFFCEF0CF44D00CD804D904DA04DC13DD03DF01E6C0EA40EB0200200301048005090602070A0AA00B020C400D2010081E
:40090000110415A8171018141B011D411E801F2021442228230829C82C802F0832283601370439A03A023C023D013E803F0447124E0854405520560157805A0260046382A4
:4009400078027B8082808341870489408B048C808E408F24C0F3C2CDC4E6CAA2CCC6CEDDD0A0D220D601D80DE010E240E460E69009010F011101170119011D012D0133016F
:400980005401580459045B0C5C115D105F01810A82018304890E8E02910E950E9B019D089F06A30EA50EB108B304B401B502B602B701D602D73DD804D904DB0CDC11DD108E
:4009C000DF01024003040404074509200B800E0A0F10100112801310140316401C041D201E011F1020202510268A2A402F5030013120328033043402368037143B903E01F7
:400A00003F105A405E2066016D416F59758076087B027F0284108B048E0A9240939095419601972498029A419B049D809E089F10A215A302A510A680A708AB08AD08B6841B
:400A4000C0FAC2EAC49BCAC8CCFFCEACD628D880DE18E650EA04EC28000201400380050106080A010B010D800E020F4012101302140115101720180819081F082104270419
:400A8000280429202B102D022E0431FF361F38803E403F015608580459045B045C015D905F018401B201BE04D40FD804D904DB04DC11DF010280032405810608071008026A
:400AC0000B100D020E0A0F10100211041240130114081642170419081E021F4025022D812E022F183101328033043482350136803714381039043B813C103D403E093F11E4
:400B000048024A01584059025A205B085F4067027C087D047F10810286148A018D10901092609340950496089716984099019A019B049C889D809E58A210A322A601A70876
:400B4000AA48AD01B108B504B704C0FEC2FCC4FDCAF0CCFBCEFFD61FD810E202E61CEA08013003C9057308C10A120C840E100F0F120714C0162418771DFD1F0220B7224018
:400B8000259E2608276029CF2B302C012D942EF22F60300F32F035FF3F104065410449FF4AFF4BFF4DA04F015018580459045A045F016040628064406540668068406A80C5
:400BC0006C406D206E8081FE83018407857F89968B68900491A39202935C950E97F09DC59F3AA606AA09AB01B001B208B3FFB404B602BE51BF04C065C104C53EC6C2C704D0
:400C0000C81FC9FFCAFFCBFFCDAFCE07CF01D018D40FD804D904DA04DB04DF01E040E280E440E540E680E840EA80EC40ED20EE8001080420060A09020E541204130414805B
:400C40001540170919981A801D021E501F04202027082B042C022D402E082F04310933403480368038063B203D013E4641024502484849044A024C084E024F2052145380F1
:400C800059905A045B018001844087808A40900694209608970899019A029B409E40A006A283A314A410A518A614AD04B008B404B680C0C4C278C4B6CA74CC1BCED7D081AE
:400CC000D23CD60FE480E8C0EE40021D06020C7C110214D1160818D11A041D081F0320AD210822102C012E042F0430033101321D330234E035083704382039203F04540F2E
:400D0000580459045B045F0581048210840186028C048E088F049004920893089408960498029A019C019E029F02A004A228AC01AE02AF01B020B108B20CB302B403B50461
:400D4000B610B701BA28BF10D608D804D904DB04DD90DF010008010103010440068007100A100B080EAA10021280174218A01A1C1B101C421D081E281F11210623062640E8
:400D8000275428012B402F0131023380360137403C823E803F8058205A815B045C806104621064017B1088A089048A058B818C408D109101928093089420960C972499042A
:400DC0009A10A046A281A380A518A614A804C0BDC2F6C499CA19CC99CE90D61FD816DE02E620EC281010168030803302364839083A203E8082208A088B088D10C430CCF05F
:400E0000CE70E22033123740502059245D045E1066048020810483108480850487038B0495089910A308A480A640AB02AC10CC70D4A0D6E0D880E2A0E410E6C0EA20EC40BE
:400E40000640174058085C0860086408670886409308961099109D209E049F40A308A480A640A701AD04C020C480D6C0D8C0E640EA101B011E2084808A10961099109E0477
:400E8000A308A480A701AE40B120C630E210E81010108A018E40C408E008E6010308090252049280960198109A04A740AA04AB40C002C208D404022004011B0227208001BD
:400EC00087408B20928096019810A102A742AF0AC00CC608C801E6040A010B400F80440188108B019280960197409810A220A740A902C20ED004E001E204208056208E10B4
:400F0000961099109E04A309C840D440512057086302651085208E2499109E24A309B040D460D640D880E2105A806302670892809C01A220A301D401D602D8018A20A220A7
:400F4000AF04B001E204EC04100311011A031B011C011D0100AB01FF100A0000080000007CA3825C00C5433A04000800FF0E00F0307F0000CF00300000960C6820000000B1
:400F8000100000013CFEC10104000000700080003FFF0000080020000000001023040500010C00E021FFFFFF62A0F0410C0000000000000004040400030300010000000031
:400FC000000040020010301000101012000000000000000000000000000000000B010000000000000301030109010A000044440000BBBB001800000000000000400030007F
:4010000000000001C1000000003C3C00340000000800140A0A00080000000000007878003801010000010000000000000000000000000000000000000000000000000000DF
:401040000000000000000000000000000000000000000000000000000000000000000000000000000000000000000000000000000000000000000000000000000000000070
:401080000000000000000000000000000000000000000000000000000000000000000000000000000000000000000000000000000000000000000000000000000000000030
:4010C00000000000000000000000000000000000000000000000000000000000000000000000000000000000000000000000000000000000000000000000000000000000F0
:4011000000000000000000000000000000000000000000000000000000000000000000000000000000000000000000000000000000000000000000000000000000000000AF
:0200000490006A
:0400000000000007F5
:0200000490105A
:04000000BC90ACAF55
:0200000490303A
:020000003708BF
:0200000490402A
:4000000000000000000000000000000000000000000000000000000000000000000000000000000000000000000000000000000000000000000000000000000000000000C0
:400040000000000000000000000000000000000000000000000000000000000000000000000000000000000000000000000000000000000000000000000000000000000080
:400080000000000000000000000000000000000000000000000000000000000000000000000000000000000000000000000000000000000000000000000000000000000040
:4000C0000000000000000000000000000000000000000000000000000000000000000000000000000000000000000000000000000000000000000000000000000000000000
:0200000490501A
:0C00000000012E16106900002E3247711E
:00000001FF