:4000000000800020110000006D0500006D05000080B500AF054A054B1B6843F020031360034A044B1B68136000F0AAFAE8460040BC760040FA46004010B5054C237833B939
:40004000044B13B10448AFF300800123237010BD6881FF1F000000001C2A0000084B10B51BB108490848AFF300800848036803B910BD074B002BFBD0BDE81040184700BFE8
:40008000000000006C81FF1F1C2A0000C880FF1F0000000080B500AF012002F0FDFB62B60121002000F002FB002002F013FC02F06BFA02F02DFBFEE780B582B000AF7860EE
:4000C00039603A680021786802F09FFC00BF0837BD4680BD80B584B000AFF860B9607A607A68B968F86802F085FC00BF1037BD4680BD00BF80B483B000AF0346FB71FEE70B
:4001000080B487B000AF7860396000233B6100237B6127E07B699B007A6813441B68BB60BB68FB73BB6823F0FF03BB6014E03B695B003A6813441B781A46BB68134419467D
:400140003B695B003A6813445B780B703B6901333B61FB7B013BFB73FB7B002BE7D17B6901337B617B692A2BD4D900BF1C37BD4680BC704780B582B000AF3C4B04221A800D
:400180003B4B18221A703B4B3A221A803A4B18221A703A4B3B221A80394B18221A70394B81221A80384B18221A70384B00221A80374B1B221A70374B06221A70364B5222B3
:4001C0001A70364B364A1278D2B21A70354B40F619121A80344B41F251221A800023FB7019237B6014E0FB785B00DAB22F4B1B78DBB203F00103DBB21343DBB203F00303B5
:40020000FB704FF4F07002F077FB7B68013B7B607B68002B02D0FB78032BE4D17B68002B02D10320FFF766FF214B4FF480721A801F4B07221A701F4B00221A701E4B48227C
:400240001A701B4B00221A701C4B00221A701C4B02221A701B4A1B4B1B78DBB243F01F03DBB2137000BF0837BD4680BD804000408240004084400040864000408840004018
:400280008A4000408C4000408E40004090400040924000400043004000420040A14600400F010049224200402042004025420040044000400640004008400040094000406B
:4002C00001400040A243004080B582B000AF244B1B78FB71234B1B78BB71234B1B787B71224AFB7903F00703DBB21370204AFB791B09DBB213701B4ABB7943F00303DBB25C
:400300001370194A7B7943F00303DBB21370194BBB221A70184B08221A70184B08221A70174B40221A70174B40221A70164BB0221A70164B20221A70154B80221A700A2065
:4003400002F060F8084A7B791370064ABB791370104B44221A7000BF0837BD4680BD00BFCF010049F8460040F94600406E5800406F5800400D5100403D510040FD510040FE
:400380000159004003590040205B0040235B0040585B00407658004080B586B000AF72B6564B61221A70FFF7E5FE544B01221A70534A534B1B78DBB243F02003DBB21370B7
:4003C0000023FB7513E0FA7D13465B0013445B004C4A13443B613B691A683B699B889BB219461046FFF768FEFB7D0133FB75FB7D072BE8D90023FB751CE0FA7D13469B0045
:4004000013445B00404A1344FB60FB681B68BB60FB685B687B60FB681A7A5B7A1B0213437B807B881A467968B868FFF753FEFB7D0133FB75FB7D002BDFD034494FF09040ED
:40044000FFF75EFE04213248FFF736FE042231493148FFF73FFE314B314A1A60314B324A1A60324A314B1B78DBB243F00203DBB213702F4A2E4B1B78DBB243F00203DBB2FB
:4004800013702C4A2B4B1B78DBB243F04003DBB21370294A284B1B78DBB243F01003DBB21370082225492648FFF714FE0A2225492548FFF70FFE0A2224492548FFF70AFEAF
:4004C000082224492448FFF705FE082223492448FFF700FE234A234B1B78DBB243F00803DBB21370FFF7F0FE0E2212491E48FFF7F1FD00BF1837BD4680BD00BF0048004073
:40050000E8460040202A0000502A0000AC00004800760040A40F004808760040D8080140040404C458140140040400440350014013500140A0430040C2430040740F0048D1
:40054000025100407C0F0048F0510040880F004810510040940F0048225100409C0F00483251004022430040B043004080B500AF02F014FA03461B680C2B00D1FEE7FEE766
:4005800080B586B000AF224B7B61224B3B61204B7B6135E03B691B68FB603B695B68BB603B699B683B6000237B600CE0FB681A68BB681A60BB680433BB60FB680433FB6057
:4005C0007B6804337B607A683B689A42EED13B69DB683B6000237B6008E0BB6800221A60BB680433BB607B6804337B607A683B689A42F2D13B6910333B617B69013B7B61B2
:400600007B69002BC6D102F0CFF9FFF743FDFEE701000000342C000080B582B000AF194B194A1A60194A194B1B6843F40073136000237B600FE07B68032B04D8144A7B6805
:4006400052F8233000E0134B13497A6841F822307B6801337B607B682F2BECD90F4B1B78DAB20F4B1A700F4B0B4A1A60FFF794FE01F08EFE0C4B00221A6000BF0837BD4663
:4006800080BD00BF0CED00E00004FA0514ED00E0000000006D0500000080FF1FBC760040C480FF1F08ED00E0C080FF1F80B582B000AF03460A46FB711346BB71094B1B78E3
:4006C000002B04D100F010F8064B01221A70BA79FB791146184600F0D9F800BF0837BD4680BD00BF8481FF1F80B582B000AF02F00BF90346FB71544A534B1B78DBB243F077
:400700000103DBB21370514A504B1B78DBB243F00103DBB213704E4B01221A704D4B02221A704D4A4C4B1B78DBB203F07F03DBB21370002001F066FE484A484B1B78DBB2EF
:4007400023F00603DBB21370454A454B1B78DBB223F02003DBB21370404A404B1B78DBB243F00103DBB21370012001F04BFE282001F048FE3B4A3B4B1B78DBB203F07F03D2
:40078000DBB21370374A374B1B78DBB223F04003DBB21370314A314B1B78DBB243F00203DBB21370022001F02DFE2C4A2B4B1B78DBB243F00403DBB213702B4B00221A708B
:4007C0002A4B00221A70FB79184602F0A1F80721172001F053FE2649172001F027FE0721182001F04BFE2349182001F01FFE0721152001F043FE2049152001F017FE072177
:40080000012001F03BFE1D49012001F00FFE0721022001F033FE1A49022001F007FE0721032001F02BFE1749032001F0FFFD07210C2001F023FE14490C2001F0F7FD00BF99
:400840000837BD4680BD00BFA5430040B54300409D60004009600040106000409443004012600040F85100408460004085600040E1120000C90B0000D5120000ED110000FD
:400880003512000081120000ED12000080B582B000AF03460A46FB711346BB712E4AFB7913702E4B00221A702D4B00221A702D4B00221A702C4B00221A702C4B00221A709D
:4008C0002B4B00221A702B4B00221A702A4B4FF400021A60284B4FF080721A60264B4FF400121A60244B02221A60234B04221A60214B08221A60BB79002B02D0012B09D0C1
:4009000011E01E4A1D4B1B78DBB223F00103DBB2137011E0194A194B1B78DBB243F00103DBB2137008E0154A144B1B78DBB243F00103DBB2137000BF114B03221A70114B5D
:4009400080221A70012001F0D7FF0F4B04221A7000BF0837BD4680BDA581FF1FA881FF1FC481FF1FC781FF1FBC81FF1FC681FF1FC981FF1FA481FF1F00E100E009600040F2
:4009800028600040086000401260004080B400AF0F4B00221A700F4B00221A700E4B00221A700E4B00221A700D4B00221A700D4B00221A700C4B00221A700C4B03221A700B
:4009C0000B4B80221A7000BFBD4680BC704700BFA881FF1FC481FF1FC781FF1FBC81FF1FC681FF1FC981FF1FA481FF1F286000400860004080B582B000AF0023FB71314BF5
:400A00001B79DBB2184600F067F80346BB712D4B1B78DBB25BB2002B15DA2A4B5B78DBB2212B00D048E0284B07221A80BA791346DB009B1A254A1344234A536000F03EFA3B
:400A40000346FB7138E01F4B5B78DBB2202B02D0222B1AD030E01C4B07221A80BA791346DB009B1A194A1344174A5360BB79BA7917498A5CD2B242F00102D1B2144AD154FB
:400A800000F09AFA0346FB7116E0BB790D4A9278D2B291B20F4A22F81310BB79BA790C498A5CD2B242F00202D1B2094AD15400F021FB0346FB7100BFFB7918460837BD462A
:400AC00080BD00BF00600040B081FF1FCC80FF1F8C81FF1FA081FF1F80B485B000AF0346FB710023FB73FF23BB7317E0FB7B104AD35C7B737A7B0F4913465B0013449B00B2
:400B00000B440A331B78DBB2FA799A4203D1FB7BBB730223FB73FB7B0133FB73FB7B012BE4D9BB7B18461437BD4680BC704700BF9481FF1FCC81FF1F80B485B000AF786016
:400B40000B46FB701346BB707B68DB7803F00303FB737B689B785BB2002B1ADAFB7B032B0AD0BB7803F001031449FA78CA54BB7843F00103BB701BE0BB789B08DBB203F0FB
:400B800001030F49FA78CA54BB7843F00403BB700EE0FB7B032B0BD0BB785B08DBB203F001030849FA78CA54BB7843F00203BB70BB7818461437BD4680BC70479081FF1FB2
:400BC0009481FF1F9881FF1F80B582B000AF374B1B78BB71BB7903F01003002B62D00123FB7197F90630002B12DABB7903F00F03012B02D00023FB711CE000F061F82C4BAE
:400C00001B78DBB25BB2002B14DA0023FB7111E0BB7903F04003002B02D000F095F809E0BB7903F02003002B02D000F0B3F801E00023FB71FB79002B34D01C4B1B78BB7106
:400C400097F90630002B2DDB1A4B1B78DAB21A4B1B78DBB21343BB71184ABB791370174B1B78DBB2BA799A421CD1114B1B78FB710E4B1B78DBB223F07F03BB71BB79002B65
:400C80000AD10A4B0A4A1278D2B21A70074B1B78DBB203F00F03FB71054B1B78DBB2FA799A42E2D100BF0837BD4680BD28600040C581FF1F3A82FF1FC881FF1F296000404F
:400CC00080B582B000AF1D4B1B78FB711B4AFB7913701A4B1B78FB7197F90730002B03DA174AFB79137025E0022000F045FA154B1B78DBB203F06003202B08D0402B0BD0FB
:400D0000002B0ED100F0F8FA0346FB710CE001F003FE0346FB7107E001F000FB0346FB7102E00023FB7100BFFB79002B02D1044B03221A7000BF0837BD4680BD2860004051
:400D4000C581FF1F0060004080B500AF104B1B78DBB2062B19D801A252F823F08B0D00008B0D0000790D00008B0D00007F0D00008B0D0000850D000000F0F8F806E000F034
:400D8000A7F903E000F0D2F900E000BF00BF80BDA881FF1F80B500AF124B1B78DBB2062B1DD801A252F823F0DF0D0000DF0D0000C50D0000DF0D0000CB0D0000DF0D000032
:400DC000D10D000000F0D8F80AE000F027F907E0032000F0D1F9044B03221A7000E000BF00BF80BDA881FF1FC581FF1F80B483B000AF0023FB71294B1B78DBB29AB2284B5B
:400E00001B889BB213449AB2254B1A8015E02549FB79254A52681278D2B2CA54224B5B680133214A5360FB790133FB711E4B1B889BB2013B9AB21C4B1A801B4B1B889BB21B
:400E4000002B02D0FB79072BE1D9144B1B78DBB2082B02D0FB79002B0FD0144B1B78DBB283F07F03DB43DAB2104B1A70104B0F221A70104B02221A7005E00D4B02221A7006
:400E80000C4B02221A700C4AFB791370034AFB79137000BF0C37BD4680BC7047A481FF1FA681FF1F00600040B081FF1F3A82FF1FC581FF1FA881FF1FC881FF1F80B582B0DA
:400EC00000AF164B1B889BB2002B02D100F02EF81EE0134B02221A70124B00221A7000F06BF9114BDB79DBB29BB21B029AB20E4B9B79DBB29BB21343FB80084B1B889BB229
:400F0000FA889A4202D2054AFB881380FFF76EFF012318460837BD4680BD00BFB081FF1FA881FF1F3A82FF1F0060004080B400AF094B02221A70094B80221A70084B0F22FE
:400F40001A70084B00221A70074B00221A7001231846BD4680BC7047A881FF1F3A82FF1FC581FF1FA481FF1FC881FF1F80B500AFFFF73CFF00BF80BD80B500AF0A4B1B7866
:400F8000DBB29AB2094B1B889BB213449AB2074B1A80074B00221A70012000F0EDF8054B03221A7000BF80BDA481FF1FA681FF1FA881FF1FC581FF1F80B582B000AF124BF0
:400FC00004221A70114B80221A7000F0F5F8104BDB79DBB29BB21B029AB20D4B9B79DBB29BB21343FB800B4B1B889BB2FA889A4202D2084AFB881380074B0B221A700123C6
:4010000018460837BD4680BDA881FF1F3A82FF1F00600040B081FF1FC581FF1F80B483B000AF0023BB71234B1B78DBB203F00F03DBB2023BFB71FB799AB21F4B1B889BB217
:4010400013449AB21C4B1A8018E01C4B5B681C49BA798A5CD2B21A70184B5B680133174A5360BB790133BB71FB79013BFB71134B1B889BB2013B9AB2104B1A800F4B1B8838
:401080009BB2002B02D0FB79002BDED10D4AFB7913700D4B1B78DBB283F07F03DB43DAB2094B1A70094B0B221A7000BF0C37BD4680BC704729600040A681FF1FB081FF1FF5
:4010C00000600040C881FF1F3A82FF1FC581FF1F80B500AF054B00221A70012000F04CF8034B03221A7000BF80BD00BFA881FF1FC581FF1F80B400AF084B06221A70084BD8
:4011000006221A70074B80221A70074B00221A7001231846BD4680BC704700BFA881FF1FC581FF1F3A82FF1FC881FF1F80B500AF0D4B1B78DBB2002B0AD00C4A0A4B1B78BF
:40114000DBB263F07F03DBB21370074B00221A70074B00221A70012000F00EF8054B03221A7000BF80BD00BFC681FF1F08600040A881FF1FC581FF1F80B483B000AF034619
:40118000FB710B4B9B68002B0CD0094B9B68FA791A70074B9B68074A128892B25A80044B00229A6000BF0C37BD4680BC704700BFB081FF1FA681FF1F80B400AF094B0022A2
:4011C0001A80094B9B68002B07D0074B9B6800221A70054B9B6800225A8000BFBD4680BC704700BFA681FF1FB081FF1F80B400AF0D4B01221A700D4B9B7C0D4B1B7BDBB2D2
:4012000003F00303012B08D0094BDB7BDBB283F07F03DB43DAB2064BDA73054B01225A7300BFBD4680BC70470B600040FC5F0040CC81FF1F80B400AF0E4B02221A700E4B54
:4012400093F822300D4B1B7EDBB203F00303012B08D00A4BDB7EDBB283F07F03DB43DAB2064BDA76054B01225A7600BFBD4680BC704700BF0B600040FC5F0040CC81FF1F33
:4012800080B400AF104B04221A70104B93F832300F4B93F82430DBB203F00303012B0AD00B4B93F82730DBB283F07F03DB43DAB2074B83F82720064B012283F8252000BFC8
:4012C000BD4680BC704700BF0B600040FC5F0040CC81FF1F80B400AF00BFBD4680BC704780B500AFFFF752FB00BF80BD80B500AF01F03EF800BF80BD80B586B000AF002389
:40130000FB759D4B1B78FB7100233B619B4B00221A8097F90730002B80F20481964B5B78DBB20A2B00F21B8201A252F823F000BF7B1400005F1700005F1700005F17000057
:401340005F1700005F1700005D1300005F170000EF1400005F17000005150000864BDB78DBB2012B0ED100F049FEB860BB685B68824A5360814B12221A80FFF79FFD034623
:40138000FB75EEE17C4BDB78DBB2022B25D17A4B9B78DBB2184600F009FEB860BB68002B00F0DF81BB685B68744A5360734B5B6803331B78DBB29BB21B029AB26F4B5B6853
:4013C00002331B78DBB29BB213439AB26B4B1A80FFF774FD0346FB75C3E1674BDB78DBB2032B45D10023FB73654B3B6109E03B691B78BB71BB793A6913443B61FB7B013322
:40140000FB735D4B9B78DBB2FA7B9A4204D23B691B78DBB2002BEAD1574B9B78DBB2EE2B01D1584B3B61544B9B78DBB2002B0BD0514B9B78DAB2544B1B7C9A4204D15348B7
:4014400000F0ACF9514B3B613B691B78DBB2002B00F087813B691B78DBB29AB2474B1A80464A3B695360FFF729FD0346FB7578E101F052FA0346FB7573E1FB7903F00303B0
:40148000002B20D0022B00D030E03C4B02221A80394B1B79DBB203F07F023D4913465B0013449B000B4402331B78DAB2394B1A70384B00225A70314B364A5A60FFF7FEFCB4
:4014C0000346FB7512E02D4B02221A80324B1B78DAB2304B1A702F4B00225A70274B2D4A5A60FFF7EBFC0346FB7500BF40E1234B01221A80214B294A5A60FFF7DFFC03460D
:40150000FB7535E11D4B01221A801B4B1B79DBB21A46234B1344194A5360FFF7CFFC0346FB7525E1144B5B78DBB2013B0A2B00F21A8101A252F823F043160000671700002A
:40154000D11600006717000065150000671700006717000067170000A915000067170000FF150000044B9B78DAB20E4B1A70FFF7C1FD0346FB75FBE000600040B081FF1FBA
:40158000C82A0000D02B0000702A00004082FF1FCC81FF1F8881FF1FC981FF1FC781FF1F3882FF1FC681FF1F744B9B787B717B79002B06D07B79013BDBB2184600F0F6FC77
:4015C000B8607B79002B02D0BB68002B03D17B79002B40F0CA806A4B1B78DBB27A799A4208D0674A7B791370664B01221A70012000F0DCF9FFF77EFD0346FB75B5E000F090
:4016000055FE0346002B00F0B2805C4B1B793B715A4B1B79DAB25C4B1A703B795B4AD35CDAB23B795A49CB5CDBB29A4204D0554B01221A7000F08CFBFFF75CFD0346FB7549
:4016400095E0FB7903F00303012B20D0012B0CD3022B00D03BE0494B9B78DBB2002B31D100F078FD0346FB752CE0444B9B78DBB2012B29D1474B1B78DBB223F00203DAB213
:40168000444B1A70FFF736FD0346FB751CE03B4B1B79DBB2012B19D8384B9B78DBB2DB43DBB2364A1279D2B2114610463A4A125CD2B21340DAB2384B5A54FFF71BFD034688
:4016C000FB7503E000BF53E000BF51E000BF4FE0FB7903F00303012B20D0012B0CD3022B00D03BE0254B9B78DBB2002B31D100F0BDFC0346FB752CE0204B9B78DBB2012B39
:4017000029D1244B1B78DBB243F00203DAB2214B1A70FFF7EFFC0346FB751CE0174B1B79DBB2012B19D8154B9B78DBB2DB43DBB2124A1279D2B211461046174A125CD2B21A
:401740001340DAB2144B5A54FFF7D4FC0346FB7503E000BF0CE000BF0AE000BF08E000BF06E000BF04E000BF02E000BF00E000BFFB7D18461837BD4680BD00BF0060004015
:40178000C781FF1FC481FF1FBC81FF1FAC81FF1F3882FF1FC981FF1F3C82FF1FB0B58AB000AF7860324B07F114041D460FCD0FC42B682370002387F826307B68002B52D08B
:4017C0007B6822221A707B68013303221A7007F10C03184600F076FE022387F827303EE097F827307A68134497F8262007F128010A4412F81C2C1209D2B207F128010A44CD
:4018000012F8142C1A7097F8273001337A68134400221A7097F8273002337A68134497F8262007F128010A4412F81C2C02F00F0207F128010A4412F8142C1A7097F82730BF
:4018400003337A68134400221A7097F82630013387F8263097F82730043387F8273097F82730212BBCD900BF2837BD46B0BD00BF5C2A000090B482B000AF0123FB7180E0BD
:40188000464AFB791B0113440C221A70FA79444913465B0013449B000B4405331B78DBB2002B1CD0FA793E4913465B0013449B000B4404331B78DBB25BB2002B07DA394AB3
:4018C000FB791B01134402330C221A700EE0354AFB791B011344023308221A7006E0314AFB791B011344023380221A702B48F979FA792B4C13465B0013449B002344063319
:401900001B889BB2DAB20B01034406331A702348F979FA79224C13465B0013449B00234406331B889BB21B0A9BB2DAB20B01034407331A701948F979FA79194C13465B00AD
:4019400013449B00234406331B889BB2DAB20B01034404331A701148F979FA79104C13465B0013449B00234406331B889BB21B0A9BB2DAB20B01034405331A70FB790133BA
:40198000FB71FB79082B7FF67BAF074BFF221A7000BF0837BD4690BC704700BF70600040CC81FF1FFC5F00400A60004080B58AB000AF0346FB7100237B84002387F8273007
:4019C00050E097F82720B34913465B0013449B000B4400221A7097F82720AE4913465B0013449B000B44023300221A7097F82720A84913465B0013449B000B44033300228D
:401A00001A7097F82720A34913465B0013449B000B44083300221A8097F827209D4913465B0013449B000B440A3300221A7097F82720984913465B0013449B000B440133F4
:401A400000221A7097F82720924913465B0013449B000B44053300221A7097F82730013387F8273097F82730082BAAD9FB79002B16D0002387F825300EE097F82530864A86
:401A80000021D15497F82530844A0021D15497F82530013387F8253097F82530012BECD97F4B1B78DBB2002B00F04A810023FB767B4B1B78DBB2013BDBB2184600F076FA56
:401AC00078617B695B683B613B6907331B7803F04003002B08D0734B1B78DBB243F00103DAB2704B1A7007E06E4B1B78DBB223F00103DAB26B4B1A707B6908337B617B69B8
:401B00001B7887F82730012387F82530B6E07B695B68FB61002387F82630A3E097F82520FB699B7803F07F039A4240F0938097F82520584913465B0013449B000B440833AC
:401B40001B889AB2FB699B889A420CD297F82520FB6998884F4913465B0013449B000B44083302461A80FB691B781A464A4B9B5CDAB2FB695B789A426CD197F82520FB693C
:401B80009878444913465B0013449B000B44043302461A7097F82520FB69D8783D4913465B0013449B000B4402461A70FB69DB7803F00303FB73FB699B785BB2002B1CDAF2
:401BC00097F82520FB7B012B01D1072000E00D20304913465B0013449B000B44053302461A7097F825202B4913465B0013449B000B44013301221A701BE097F82520FB7B8E
:401C0000012B01D1052000E00920224913465B0013449B000B44053302461A7097F825201C4913465B0013449B000B44013300221A70FB699B790A2B03D0FB699B79022BDB
:401C400008D1FA7E97F825301946F869FEF774FF0346FB76FB690833FB6197F82630013387F8263097F8262097F827309A42FFF455AF97F82530013387F8253097F8253006
:401C8000082B7FF644AF7B695B68FB61002387F8253020E0CC81FF1F3882FF1FAC81FF1FC781FF1FC981FF1FFB699B7803F07F02FB691878244913465B0013449B000B44F2
:401CC0000A3302461A70FB690833FB6197F82530013387F8253097F8252097F827309A42E2D300F09DF90246184B1A6000237B84012387F827301DE097F827201249134655
:401D00005B0013449B000B4406337A8C1A8097F827200D4913465B0013449B000B4408331B889AB27B8C13447B8497F82730013387F8273097F82730082BDDD9FFF79AFD3A
:401D400000BF2837BD4680BDCC81FF1FC081FF1F90B585B000AF8F4B1B78DBB2002B00F015818C4B1B78DBB2013BDBB2184600F01DF978607B6808337B607B681B78FB7091
:401D80007B685B68BB60844B1B78BB700023FB73F7E0BB681B78BA789A4240F0EC80BB787E4AD35CDAB2BB685B789A4240F0E380BB689B7803F07F037B70BB68DB7803F0F3
:401DC00003033B707A78764913465B0013449B000B44033300221A707A78BB689878704913465B0013449B000B44043302461A707A78BB68D8786A4913465B0013449B0010
:401E00000B4402461A707A78BB689888644913465B0013449B000B44083302461A80BB689B785BB2002B1ADA7A783B78012B01D1072000E00D205A4913465B0013449B000B
:401E40000B44053302461A707A78554913465B0013449B000B44013301221A7019E07A783B78012B01D1052000E009204C4913465B0013449B000B44053302461A707A7853
:401E8000474913465B0013449B000B44013300221A70444A7B781B011344023301221A70404879787A783E4C13465B0013449B00234408331B889BB21B0A9BB2DAB20B01B0
:401EC00003441A70374879787A78354C13465B0013449B00234408331B889BB2DAB20B01034401331A70304879787A782C4C13465B0013449B00234406331B889BB2DAB2C4
:401F00000B01034406331A70274879787A78244C13465B0013449B00234406331B889BB21B0A9BB2DAB20B01034407331A701E4879787A781A4C13465B0013449B002344C2
:401F400006331B889BB2DAB20B01034404331A70154879787A78124C13465B0013449B00234406331B889BB21B0A9BB2DAB20B01034405331A70BB680833BB60FB7B01338E
:401F8000FB73FA7BFB789A42FFF403AF00BF1437BD4690BDC781FF1FBC81FF1F3882FF1FCC81FF1FFC5F00407060004080B485B000AF0346FB710F4B1B78DBB20E4ADB00C7
:401FC00013445B68FB60FB681033FB60FB681B78FA799A4202D30023FB6005E0FB79DB00FA6813445B68FB60FB6818461437BD4680BC7047A581FF1FC82B000080B400AFAC
:40200000054B1B78DBB2054ADB0013445B681846BD4680BC704700BFA581FF1FC82B000080B584B000AF104B1B78DBB2013BDBB21846FFF7BBFFB860BB68002B0DD0BB68D2
:402040005B681B79FB71FB790233DB00BA681344BB60BB685B68FB6001E00023FB60FB6818461037BD4680BDC781FF1F80B582B000AF0023FB71344B1B79DBB203F07F037D
:40208000BB71BB79002B5AD0BB79082B57D8BA79B9792E480B465B000B449B00034402331B78DBB243F00103D8B2284913465B0013449B000B44023302461A70BA792349FB
:4020C00013465B0013449B000B44033300221A70BA79B9791D480B465B000B449B00034401331B78DBB243F00203D8B2174913465B0013449B000B44013302461A70BA79BE
:40210000124913465B0013449B000B4404331B78DBB25BB2002B07DA0D4ABB791B01134402338D221A7006E0094ABB791B011344023389221A70FEF7DDFF0346FB71FB792F
:4021400018460837BD4680BD00600040CC81FF1FFC5F004080B582B000AF0023FB71504B1B79DBB203F07F03BB71BB79002B00F09280BB79082B00F28E80BA79B97949481C
:402180000B465B000B449B00034402331B78DBB223F00103D8B2434913465B0013449B000B44023302461A70BA793E4913465B0013449B000B44033300221A703A49BB797C
:4021C0003948BA79120102441278D2B202F07F02D2B21B010B441A70BA79B97931480B465B000B449B00034401331B78DBB223F00203D8B22B4913465B0013449B000B44BE
:40220000013302461A70BA79264913465B0013449B000B4404331B78DBB25BB2002B1BDABA79204913465B0013449B000B4401331B78DBB2012B07D11B4ABB791B01134488
:4022400002330C221A7022E0174ABB791B01134402330D221A701AE0BA79124913465B0013449B000B4401331B78DBB2012B07D10D4ABB791B011344023308221A7006E0D7
:40228000094ABB791B011344023309221A70FEF731FF0346FB71FB7918460837BD4680BD00600040CC81FF1FFC5F004080B584B000AF0023FB73154B1B79BB73144B1B78AC
:4022C000DBB2013BDBB21846FFF770FEB860BB685B681B79FB71BA7BFB799A4202D9BB7B022B0ED8BB7BBA7B0A498A5CD1B20A4AD154BB7B054A9278D1B2064AD1540123D4
:40230000FB73FB7B18461037BD4680BD00600040C781FF1F3882FF1FAC81FF1F80B582B000AF0023FB710F4B1B78DBB25BB2002B12DA0C4B5B78DBB2012B00D00CE00A4B74
:402340000A4A5A60094B1B789AB2074B1A80FEF7B5FD0346FB7100BFFB7918460837BD4680BD00BF00600040B081FF1FE42B000080B400AF054B1B78DBB203F040039B09DA
:40238000DBB21846BD4680BC704700BF8F45004080B483B000AF134B7F221A70124B80221A707F23FB710CE0FB79DB0003F1804303F5F043FA79013AD2B21A70FB79013BAA
:4023C000FB71FB79002BEFD1FB79DB0003F1804303F5F04300221A7000BF0C37BD4680BC704700BFE980FF1FE880FF1F80B483B000AF0346FB7101BE00BF0C37BD4680BCA6
:40240000704700BF80B582B000AF0346FB80FB88054A127802FB03F3184600F06DFA00BF0837BD4680BD00BFF880FF1F80B584B000AF03463960FB710F4B1B68FB60FB79A3
:402440001F2B02D90020FFF7D1FFFB7903F01F0310339B00FA6813441B68BB60FB7903F01F0310339B00FA6813443A681A60BB6818461037BD4680BD08ED00E080B582B013
:4024800000AF03460A46FB711346BB71BB79072B02D90020FFF7AAFFFB791F2B02D90020FFF7A4FFFB7903F01F0303F1604303F56443BA795201D2B21A7000BF0837BD463D
:4024C00080BD00BF80B483B000AF7860264B1B78DBB21A467B681A60244B1B78DBB21B027A6812681A437B681A60214B1B78DBB21B047A6812681A437B681A601D4B1B7826
:40250000DBB21B067A6812681A437B681A607B680433194A1278D2B21A60184B1B78DBB21A027B6804337968043109680A431A60134B1B78DBB21A047B68043379680431FF
:4025400009680A431A600F4B1B78DBB21A067B6804337968043109680A431A6000BF0C37BD4680BC704700BF0301004904010049EC4600400201004901010049000100497C
:40258000050100490601004980B500AF064B1B78002B04D100F00AF8034B01221A7000F063F800BF80BD00BF8A81FF1F80B582B000AF284A274B1B78DBB243F00203DBB2B9
:4025C0001370254B1B78DBB223F07003FB71224AFB7943F01003DBB21370204A1F4B1B78DBB223F03003DBB213701C4A1B4B1B78DBB243F03003DBB21370184A174B1B789D
:40260000DBB223F00F03DBB21370144A134B1B78DBB243F00F03DBB21370FF2000F048F8802000F055F8002000F062F80C4A0C4B1B78DBB243F00103DBB21370094A094B56
:402640001B78DBB243F00103DBB2137000BF0837BD4680BD004F0040024F00400B4F0040A3430040014F004080B400AF0D4A0D4B1B78DBB243F00103DBB213700A4A0A4BA3
:402680001B78DBB243F00103DBB21370074A074B1B78DBB243F00103DBB2137000BFBD4680BC7047A3430040B3430040004F004080B483B000AF0346FB71044BFA7992B238
:4026C0001A8000BF0C37BD4680BC7047044F004080B483B000AF0346FB71044BFA7992B21A8000BF0C37BD4680BC7047064F004080B483B000AF0346FB71044AFB791370AD
:4027000000BF0C37BD4680BC704700BF034F004080B500AF064B1B78002B04D100F00AF8034B01221A7000F063F800BF80BD00BF8B81FF1F80B582B000AF284A274B1B78DE
:40274000DBB243F00203DBB21370254B1B78DBB223F07003FB71224AFB7943F01003DBB21370204A1F4B1B78DBB223F03003DBB213701C4A1B4B1B78DBB243F03003DBB2A3
:402780001370184A174B1B78DBB223F00F03DBB21370144A134B1B78DBB243F00F03DBB21370FF2000F048F8802000F055F8002000F062F80C4A0C4B1B78DBB243F00203B1
:4027C000DBB21370094A094B1B78DBB243F00103DBB2137000BF0837BD4680BD0C4F00400E4F0040174F0040A34300400D4F004080B400AF0D4A0D4B1B78DBB243F00203F3
:40280000DBB213700A4A0A4B1B78DBB243F00203DBB21370074A074B1B78DBB243F00103DBB2137000BFBD4680BC7047A3430040B34300400C4F004080B483B000AF034662
:40284000FB71044BFA7992B21A8000BF0C37BD4680BC7047104F004080B483B000AF0346FB71044BFA7992B21A8000BF0C37BD4680BC7047124F004080B483B000AF034652
:40288000FB71044AFB79137000BF0C37BD4680BC704700BF0F4F004080B485B000AF0346FB710B4B1B78DBB223F00203FB730849FB795B00DBB203F00203DAB2FB7B13434C
:4028C000DBB20B7000BF1437BD4680BC704700BF2051004080B483B000AF0346FB71044AFB79137000BF0C37BD4680BC704700BF7F640040000000000230800803D000BF2A
:4029000001380046FCD17047EFF3108072B6704780F31088704700BF80B582B000AF0023BB711B4B1B78DBB203F00303012B02D0022B04D012E0164B1B79FB7111E0144B3C
:402940001B79DBB203F07F02124913465B0013449B000B440A331B78FB7102E00023FB7100BFFB79022B0ED80B4B1A68FB7913441B78022B04D1FEF73DF80346BB7102E0C6
:402980000023BB7100BFBB7918460837BD4680BD00600040CC81FF1FC081FF1F014B1868704700BF6081FF1F0E4B70B51E460E4C0025E41AA410A54204D056F825309847FD
:4029C0000135F8E700F024F9084B094C1E46E41AA4100025A54204D056F8253098470135F8E770BD1C2C00001C2C00001C2C0000242C000010B5431E0A44914204D011F807
:402A0000014B03F8014FF8E710BD03460244934202D003F8011BFAE77047000000000000004F00402400405100403000C0510040100000000140001000140140000800406B
:402A40000140000A004C0140000210500140100000500140640F00481000000030313233343536373839414243444546000000001201000202000008B40432F201000102CE
:402A80008001000009024300020101C032090400000102020103052400100104240202052406000105240100010705810308000A09040100020A00000407058202400000EA
:402AC0000705030240000000040309042C0343007900700072006500730073002000530065006D00690063006F006E0064007500630074006F0072001003550053004200DD
:402B000055004100520054003803430044004300200043006F006D006D0075006E00690063006100740069006F006E00200049006E0074006500720066006100630065002D
:402B4000260343004400430020004400610074006100200049006E00740065007200660061006300650000000203000000008103080002000100820240000A0001000302AF
:402B800040000A00020A000001000000842A0000030000006C2B00000000000000000000000000000000000000000000842B000001000000702A000000000000000000002C
:402BC00001000000882B000001000000B02B000012034D0053004600540031003000300001000000280000000001040001000000000000000001435955534200000030304F
:402C000030303100000000000000000043000000F8B500BFF8BC08BC9E4670475D00000019060000F8B500BFF8BC08BC9E46704739000000482C0000C880FF1FA000000093
:402C400000010000000000000000000000C2010000000800C201000000080000A12000000000020000000000807F0000030000000087930360EA00003C00000000003075B0
:402C800000000000000000000000000000000000000000000000000000000000000000000C2C000000000000000000000000000000000000000000000000000000000000DC
:402CC00000000000000000000000000000000000000000000000000000000000000000000081FF1F0000000000000000000000000000000000000000000000000000000035
:402D00000000000000000000000000000000000000000000000000000000000000000000000000000000000000000000000000000000000000000000000000000000000093
:402D40000000000000000000000000000000000000000000000000000000000000000000000000000000000000000000000000000000000000000000000000000000000053
:402D80000000000000000000000000000000000000000000000000000000000000000000000000000000000000000000000000000000000000000000000000000000000013
:402DC00000000000000000000000000000000000000000000000000000000000000000000000000000000000000000000000000000000000000000000000000000000000D3
:020000040003F7
:0200000480007A
:4000000001450040064F004008520040015B0040066400400265004044000140350101402A020140550301402E0401404C0501403706014042070140660801404F090140C7
:400040004F0A0140470B0140450C01404C0D01405C0E0140350F01403C1401404D1501403B160140471701404C18014044190140461A01404D1B01400F40014020410140D3
:4000800019420140104301400D45014013460140104701400C48014008490140154C0140044D014006500140035101407E0201200A4B0D20164B1940224B00C30166082028
:4000C00009201040110478087C402784800F8207870F896F8B388C72846F8B0F0380041409030B040C100EAC11131203136C140916D0180C19CA1A711B34222024DC2513F5
:40010000262227E42BC82C102E402F35301F310F34E035F03A203B2A40544102450B46C0470E481949FF4AFF4BFF4EF04F44500C54015604580459045A045B045C335D33B5
:400140005F0166C06A406B0284038A038E03900192029A039C03A803B002B201D804D904DC11DF0100800108040406020704080809020A840E490F01126116081A841B1038
:400180001E101F0120802108222228082B122E493222360439023A113C043D203E02420443024410461049084A0250045214589059045B02604080408210C0E5C2DEC44D99
:4001C000CADECC45CEE5D005D208D60FD80106011301300135015602573D580459045B0F5C115D105F0181018501930197019B01A101A501B501C005C740C9FFCA07CBFF5E
:40020000CC40CD20CEF0CF05D008D401D804D904DA04DB0FDC11DD13DF01E040E1A8E240E32000040714080409100A400C400E480F011209130114041504160B1E40230434
:400240002530270428402A082C412E4830013120320836043701380439043A023C043D203E0249404A0C510152405B805D1065016E206F517480770879017D017E4086044F
:4002800088088A408B428E20920494049502964097019A149C889D049E4A9F04A040A102A220A510A604A702A804AB02B108B701C064C2DEC4EBCAD3CCC7CEE3D208D628F5
:4002C000D880DE81E022E208EAC0EE04002005040604081009010C030F0411081208140418031B0322012402270428202B042D043020310432103301340C350236033708BE
:4003000038823E453F41520353025804590C5B045C195D105F01AF01B501D608D804D904DB04DC11DD90DF010080018102040320040406020704080109080A040B040E490A
:400340000F01101011101260160819551B20200221192520281029802A102D402E093112360439203A403B043C043E6240804101452046085F40640169906A807980860405
:400380009244934094049510968097019A549B5D9C809D459E0AA0C0A102A230A508A604A908AB80AF04B040C0EFC2DEC44ECADECC45CEFED610D810DE08E204E484EA0898
:4003C0000202030105030601080109010C100D100E200F01110912081420161017011A041B201C021D0520802240230424402680270228082B102C042F08333E34FF370113
:4004000039083E103F04580459045C105F018301850189019101970199019D01A302B301B702D40FD804D904DB04DC11DF0100040304048D060B070809080A400C910D2034
:400440000EE01010120113011554162017551D1020012284230124022508260428402CC02D502E083001312832803511368438083A223C043E6259A85A01800185A08D0455
:40048000924094049540960897019B5D9E22A080A120A218A604AC01B101B608C0F6C2FCC4FDCAF1CCFFCEF7D60FE208E602EC08EE01007F05960768080E09C50AF00B3AE7
:4004C0000CFE0D7F0E01130115FE160117011C961DA31E681F5C20C5223A24A3250E265C27F031FF32FF3E043F014025410649FF4AFF4BFF4DA04F015018580459045A0494
:400500005F016040628064406540668068406A806C406D206E808001840885088704970C9B019E049F02A003A403A608A90EB008B108B202B304B404B501B601B702B888A1
:40054000BE41BF45C025C103C532C6C4C70EC81FC9FFCAFFCBFFCDAFCE07CF01D018D40FD804D904DA04DB04DF05E040E280E440E540E680E840EA80EC40ED20EE8000087F
:4005800001030522070109800D400E2010A014601502170219151A021E10200822402350250129102F1030303104328036093740388C39083A803E803F24410442084608E3
:4005C00048A04A024C044E0351885290581059015A88610862107901875088208B808F02918094809610972499209A0A9B019C689D029F40A210A380A608A710AA20B5801D
:40060000C0DCC2A1C43CCA44CCDECE72D026D238D60FD806DE01E010EC08EEC0030F04010530060207C909940A300B600C100D731007140115FD160217021A081DCF1E07EB
:400640001F3022042404259E276028072E10302033FF3410360F3E103F045280580459045B045F01801C810A831486408720880189018A3C8C2D8E108F20910E960299184E
:400680009A409B069C209D1E9E05A031A114A204A30AA431A608A906AB18B040B101B203B320B63CB71EB920BE01BF15D418D604D804D904DB04DD30DF01002003220522C3
:4006C00007210A0A0B600C200D400E100F021082120813041460180219801A061B021C201E201F812204250926A027012B302C402D202E0C3080320833403420350236803C
:4007000038823A023B643D883F12410842205E02662167027002810182118B109180962099209B209C08A020A144A201AA40B051C0F7C2EFC43FCAA2CCBACEFFD680D8B0D7
:40074000E485EA08EC20EE010004010804080510080409300D040E010F0810081104140415CF17301801193C1BC21C021D3C1FC120042120240827432B0C2C012DFF3004A8
:400780003170320333803408353F380839083B223E0156025710580459045B045C335D305F01800C82308C158E2A90109205944098209A0A9F01A43CA83CB03CB101B203DB
:4007C000B440BE10D608D804D904DB04DC03DD90DF0101420408074A080209200A200E610F041008110414011504168019021B281D101E801F1421012504261027402E8231
:400800002F1832803402361037483D413E2849104B1058405E8062806C1C6D046E50762A770187248A018B048F0291C19420950296909710980299209A809B289C189D02C2
:400840009E289F41A020A160A201A610B280C0F9C2FEC4B6CAF0CCF8CEF0D618D808E010E288E488EA80EC20EE0401020314070108020A010C010D020E060F0419021B0C9F
:400880001C011D041E021F0228012A0A30083108330134033510360437063A203B805608580459045B045D905F018263850288038A048B198D1F9104921C940395199608F1
:4008C000970699169B099D079F18A109A221A642A906AC21AE42B00FB108B316B507B670BA02BB20BE40C036C104C202C401C50CC60EC805C9FFCAFFCBFFCC62CDA0CEF0CA
:40090000CF41D00CD804D904DA04DB04DC33DD03DF01E640E702E910EA30EB10ED10EE10EF1200400120042005020A010E90120815401650184019201A011D801E801F80DD
:40094000214022982340260127282E202F8032903610374939023A043B403E883F104580468047284C204F10554058185A806002612062546D408921C053C231C4B2CAA07B
:40098000CCFCCE7BD0F0D220D60ED80E000104020A010C0112011401200126022801320136023E40540F580459045B045C115F0580018101840187028D019001970199015A
:4009C0009A019C01A001A101A401A701AD01B101B502B601C015C106C9FFCAFFCBFFCDA0CF01D018D804D904DA04DB04DC11DF01E040E280E440E540E680E840EA80EC4013
:400A0000ED20EE80000801820304040805030B600C020E880F411030112013011504168018201A011F4024082512261029812A822D042E822F103002330436143704380813
:400A40003B213E083F4144034E084F8058145A4163286F0A78208020840488268F0A9104924093019428978099019A889C21A020A24CA354A502A908AC40AD20B502C03F23
:400A8000C2DCC43ECAD9CC63CED7D010D230D60FD806DE04E210E646E802EC22EE041B01310140154106450246E3474C483D49FF4AFF4BFF4DAF4E074F0150185804590481
:400AC0005A045C115F016040628064406540668068406A806C406D206E808002841C88308A088C019240963C98019C2C9E10A202A401A830AA04AC20AE04B002B23CB440D4
:400B0000B601B880BE41D608D804D904DB04DC10DD90DF010080010A030804880501082209400A010B100C020E880F01102011121340150419241A401B48248029012C12DE
:400B40002D042E02301634043501361438883A803B013C043F0144014C204E084F805440550157145B40600283408550875089028B408C108D019004910493019488960159
:400B800099019A0A9D0CA25CA921C0BFC2DFC42FCAD1CCE7CECBD010D230D608D808E20AE6EB00040208032004020505071A0808091A0A040B050C100D071404151F1609E1
:400BC000180219131B0C1D1C1E101F0320102404260827402B80300131303210330F340C35403602378038803A203E04580459045F018037819E83608607870F88018A024F
:400C00008D308E088FC991FD9280930298609A049C619DCF9E029F30A004A173A994AB60AC57B070B1FFB280B40FB802BF01D608D804D904DB04DD90DF01008401220511A4
:400C4000061208220B020D100E211002124015041702182419021D111E111F102080240225022619270229222D042F0830023381351036083740380439823A403B823D020B
:400C80003E803F245A806002852087C18F089182948496089724982099209A829B019D029F40A080A101A380A609A710B008C0FFC2EBC439CA65CC79CEFBD608D808E010D1
:400CC000E60100370102030409020B140D020F0C106C120114081601186C19041A021B021F0121012280260F285B2A04307031083301340F35063680371038023B203F04B2
:400D0000580459045F018001860289188B028E018F01910E920894089516970899109A049B029D189E019F04A101A208A71EAF20B001B11EB204B320B408B501B602BE1168
:400D4000BF10D280D40FD804D904DB04DF0101020402061209010A040B200C020D1A0E01108012281680188019021A041B501C481F48214122242304250927482B402C02E3
:400D80002F5030803220350236283740382039823D803F205C405D015E18768081028204850186088708880489108B0890229211932094809520960897049A129F40A080F8
:400DC000A142A208A710A902AD44AE10B401B640C0B8C2FEC41ECAD1CCFCCE3DD6F0E220E420E680EA40EC2013021680334235083680382039083E8081028380C430CCF01A
:400E0000CE70E280E62030083380378051205480550259205E086020614066206C406F4087028B029420950898209B029F40A102A380A702AA80B108B420CC70D4E0D6E086
:400E4000D8C0E210EE20138059045C0262208010810885408B02912094209D609E209F80A480A520A604A848AD14C440D6C0D840E220E420E610EAD019081F02820491203B
:400E80009D289E20A480A520A604A702A802A904AA20C630E620EE80000853015E018504860296209C40AA10B040C008D401D601EA011B022608818083018A0195089621D2
:400EC00097029A029C60A601A702AA01AF02B024C608C801E401EA0508400A200D0444019308950896209A029C60A180A601AF04B208C20ED004EE012080561089208A1077
:400F00008C8091209D209E20A480A520C840D44051108D208E2091209D209E20B040D4200388074008200E02530461806602834093089A029C21A180A601A780B380C00E57
:400F4000C203D404D602D801EA01B001B708EA08EC04100311011A031B011C011D0100AB01FF100A0B010000000000000A000301090009010044440044BBBB0040000000D9
:400F800000000008C80000000800C7383800380000000000017E7E004400000000000000000808000001000000000000000000000000000000000000000000000000000098
:400FC00000000000000000000000000000000000000000000000000000000000000000000000000000000000000000000000000000000000000000000000000000000000F1
:4010000000000000000000000000000000000000000000000000000000000000000000000000000000000000000000000000000000000000000000000000000000000000B0
:401040000000000000000000000000000000000000000000000000000000000000000000000000000000000000000000000000000000000000000000000000000000000070
:401080000000000000000000000000000000000000000000000000000000000000000000000000000000000000000000000000000000000000000000000000000000000030
:0200000490006A
:0400000000000007F5
:0200000490105A
:04000000BC90ACAF55
:0200000490303A
:02000000B3BB90
:0200000490402A
:4000000000000000000000000000000000000000000000000000000000000000000000000000000000000000000000000000000000000000000000000000000000000000C0
:400040000000000000000000000000000000000000000000000000000000000000000000000000000000000000000000000000000000000000000000000000000000000080
:400080000000000000000000000000000000000000000000000000000000000000000000000000000000000000000000000000000000000000000000000000000000000040
:4000C0000000000000000000000000000000000000000000000000000000000000000000000000000000000000000000000000000000000000000000000000000000000000
:0200000490501A
:0C00000000012E16106900002E2AC424F6
:00000001FF