:400000000080002011000000690A0000690A000080B500AF024A034B1B68136000F02EFDBC760040FA46004010B5054C237833B9044B13B10448AFF300800123237010BD06
:400040001085FF1F00000000281E0000084B10B51BB108490848AFF300800848036803B910BD074B002BFBD0BDE81040184700BF000000001485FF1F281E0000C880FF1FDE
:400080000000000080B500AF074B00221A6001F0DDF8002001F016F8002001F02FF8012000F086FF00BF80BD4085FF1F80B584B000AF62B6012000F099FF00F0D9FD00F04D
:4000C000A7FE3221322000F023FAB84B04221A700023FB730023BB73BB7B5A1CBA731946B34A0B46DB005B1A1A443B46106818609188927999809A71AE4801F0FDF8002328
:40010000BB604FF47A7000F07DFDA84B1B78033B072BFAD801A252F823F000BFF50100003D0100005B040000BF0200000B0100000B0100000B010000EF040000012000F00A
:40014000C1FF002000F0DAFF002000F031FF4221412000F0DDF900F085FF0346002B04D000F090FF0346002B1AD1934B1B68002B16D18E4B06221A70904B01221A70BB7BB6
:400180005A1CBA7319468A4A0B46DB005B1A1A443B46106818609188927999809A71ABE100F042FF0346002B0AD000F04BFF0346002B05D000F076FF0346002B40F09C81FD
:4001C00000F032FF0346002B04D000F03BFF0346002B0BD100F036FF0346002B00F08C8100F060FF0346002B00F086816F4B03221A7081E1002000F065FF012000F07EFFFF
:40020000002000F0D5FE4221402000F081F900F00BFF0346002B0CD000F014FF0346002B07D000F03FFF0346002B02D05F4B04221A7000F037FF0346002B03D13721422020
:4002400000F066F900F0F0FE0346002B03D14221372000F05DF900F0E7FE0346002B07D100F020FF0346002B02D1504B04221A7000F0F8FE0346002B05D000F003FF0346DD
:40028000002B40F03B814C4B1B68002B40F03681464B06221A70494B01221A70BB7B5A1CBA731946424A0B46DB005B1A1A443B46106818609188927999809A711EE10020DC
:4002C00000F000FF002000F019FF012000F070FE7B79002B40F0B780BB78032B04D0042B6ED0012B45D00BE14221232000F010F9324B1B78012B17D100F0A4FE0346002B4A
:4003000012D000F091FE0346002B0DD000F0CAFE0346002B08D00123FB733221322000F0F7F8224B05221A70244B00221A7000F0B9FE0346002B01D10123BB6000F082FE1C
:400340000346002B00F0878000F0ACFE0346002B00F08180BB68012B7DD10123FB730023BB603221322000F0D3F8104B05221A7071E04221422000F0CBF84FF4C87000F006
:4003800041FC00F06FFE0346002B0BD000F07AFE0346002B06D04221422000F0B9F8034B04221A70054B00221A7055E09084FF1F1081FF1F850000004085FF1F3E85FF1FE3
:4003C0002321422000F0A4F84E4B1B78012B17D100F038FE0346002B12D000F025FE0346002B0DD000F05EFE0346002B08D00123FB733221322000F08BF8434B05221A702A
:40040000404B00221A7000F00FFE0346002B01D10123BB6000F016FE0346002B70D000F003FE0346002B6BD0BB68012B68D10123FB730023BB603221322000F069F8324BE0
:4004400005221A705CE03221322000F061F82E4B0A221A7054E000BF52E0BB78032B02D0042B20D04DE04221232000F051F800F0E9FD0346002B0ED1FB7B002B0BD13221F6
:40048000322000F045F8214B01221A6000F0CCFE1D4B04221A7000F0D5FD0346002B22D00023FB731FE02321422000F031F800F0C9FD0346002B0ED1FB7B002B0BD1322192
:4004C000322000F025F8114B01221A6000F0ACFE0D4B04221A7000F0B5FD0346002B04D00023FB7301E000BF0BE000BF09E03221322000F00DF804E000BF06E600BF04E682
:4005000000BF02E63E85FF1F9084FF1F4085FF1FB0B584B000AF03460A46FB711346BB7100F06AFC0346184601F0E6FB0346184601F0A6F804460D46FB79184601F08EF861
:400540004FF000021F4B01F019FA02460B462046294601F0E9F803460C461846214601F0F5FA0346FB7300F017FD0346184601F0C3FB0346184601F083F804460D46BB7957
:40058000184601F06BF84FF000020E4B01F0F6F902460B462046294601F0C6F803460C461846214601F0D2FA0346BB73FB7B184600F002FCBB7B184600F0CEFC00BF103748
:4005C000BD46B0BD0000594080B582B000AF786039603A680021786801F01DFC00BF0837BD4680BD80B584B000AFF860B9607A607A68B968F86801F003FC00BF1037BD46C1
:4006000080BD00BF80B483B000AF0346FB71FEE780B487B000AF7860396000233B6100237B6127E07B699B007A6813441B68BB60BB68FB73BB6823F0FF03BB6014E03B69EC
:400640005B003A6813441B781A46BB68134419463B695B003A6813445B780B703B6901333B61FB7B013BFB73FB7B002BE7D17B6901337B617B692B2BD4D900BF1C37BD4637
:4006800080BC704780B582B000AF404B04221A803F4B18221A703F4B14221A803E4B18221A703E4B3B221A803D4B18221A703D4B77221A803C4B1C221A703C4B81221A8057
:4006C0003B4B18221A703B4B4EF65F221A803A4B18221A70394B06221A70394B52221A70384B394A1278D2B21A70384B40F619121A80374B41F251221A800023FB70192322
:400700007B6014E0FB785B00DAB2324B1B78DBB203F00103DBB21343DBB203F00303FB704FF4F07000F038FE7B68013B7B607B68002B02D0FB78032BE4D17B68002B02D14E
:400740000320FFF75FFF244B4FF480721A80224B07221A70214B00221A70214B48221A701D4B00221A701F4B00221A701E4B02221A701E4A1D4B1B78DBB243F03F03DBB2F9
:40078000137000BF0837BD4680BD00BF80400040824000408440004086400040884000408A4000408C4000408E4000409040004092400040944000409640004000430040B2
:4007C00000420040A14600400F0100492242004020420040254200400440004006400040084000400940004001400040A243004080B582B000AF1E4B1B78FB711D4B1B78D0
:40080000BB711D4B1B787B711C4AFB7903F00703DBB213701A4AFB791B09DBB21370154ABB7943F00303DBB21370134A7B7943F00303DBB21370134B01221A70124B802232
:400840001A70124B10221A70114B20221A700A2000F0FAF9084A7B791370064ABB7913700C4B44221A7000BF0837BD4680BD00BFCF010049F8460040F94600406E58004070
:400880006F5800400D51004001590040905A0040235B00407658004080B586B000AF72B6544B61221A70FFF7EDFE524B01221A700023FB7513E0FA7D13465B0013445B0087
:4008C0004D4A13443B613B691A683B699B889BB219461046FFF778FEFB7D0133FB75FB7D062BE8D90023FB751CE0FA7D13469B0013445B00414A1344FB60FB681B68BB60A3
:40090000FB685B687B60FB681A7A5B7A1B0213437B807B881A467968B868FFF763FEFB7D0133FB75FB7D002BDFD035494FF09040FFF76EFE04213348FFF746FE04223249E9
:400940003248FFF74FFE324B324A1A60324B334A1A60334A324B1B78DBB243F00203DBB21370304A2F4B1B78DBB243F00203DBB213702D4A2C4B1B78DBB243F04003DBB204
:4009800013702A4A294B1B78DBB243F01003DBB213700A2226492748FFF724FE082226492648FFF71FFE0A2225492648FFF71AFE082225492548FFF715FE0A2224492548F0
:4009C000FFF710FE082224492448FFF70BFE244A234B1B78DBB243F00803DBB21370FFF707FF0E2210491F48FFF7FCFD00BF1837BD4680BD004800402C1E0000581E000036
:400A0000B000004800760040740F0048087600405800014004040044580A0140040400C40350014013500140A0430040C2430040380F004800510040440F0048C25100407D
:400A40004C0F0048F0510040580F004812510040600F0048205100406C0F00483251004022430040B043004080B500AF01F09CF903461B680C2B00D1FEE7FEE780B586B0C7
:400A800000AF224B7B61224B3B61204B7B6135E03B691B68FB603B695B68BB603B699B683B6000237B600CE0FB681A68BB681A60BB680433BB60FB680433FB607B680433A3
:400AC0007B607A683B689A42EED13B69DB683B6000237B6008E0BB6800221A60BB680433BB607B6804337B607A683B689A42F2D13B6910333B617B69013B7B617B69002BB8
:400B0000C6D101F057F9FFF7D1FAFEE701000000881E000080B582B000AF194B194A1A60194A194B1B6843F40073136000237B600FE07B68032B04D8144A7B6852F823301A
:400B400000E0134B13497A6841F822307B6801337B607B682F2BECD90F4B1B78DAB20F4B1A700F4B0B4A1A60FFF796FE00F01CF80C4B00221A6000BF0837BD4680BD00BF76
:400B80000CED00E00004FA0514ED00E000000000690A00000080FF1FBC760040C480FF1F08ED00E0C080FF1F80B483B000AF134B7F221A70124B80221A707F23FB710CE03E
:400BC000FB79DB0003F1804303F5F043FA79013AD2B21A70FB79013BFB71FB79002BEFD1FB79DB0003F1804303F5F04300221A7000BF0C37BD4680BC704700BF9584FF1FC2
:400C00009484FF1F80B582B000AF786008E00C4B1B68184600F0C0FB7B68A3F500437B607B68B3F5004FF2D8064B1B687A6802FB03F3184600F0B0FB00BF0837BD4680BDA8
:400C4000A884FF1FA084FF1F80B582B000AF0346FB80FB88054A127802FB03F3184600F09BFB00BF0837BD4680BD00BFA484FF1F80B500AF064B1B78002B04D100F00AF8DE
:400C8000034B01221A7000F063F800BF80BD00BF4485FF1F80B582B000AF284A274B1B78DBB243F00203DBB21370254B1B78DBB223F07003FB71224AFB7943F01003DBB2B5
:400CC0001370204A1F4B1B78DBB223F03003DBB213701C4A1B4B1B78DBB243F03003DBB21370184A174B1B78DBB223F00F03DBB21370144A134B1B78DBB243F00F03DBB2FE
:400D00001370FF2000F048F8322000F055F8002000F062F80C4A0C4B1B78DBB243F00103DBB21370094A094B1B78DBB243F00103DBB2137000BF0837BD4680BD004F0040F9
:400D4000024F00400B4F0040A3430040014F004080B400AF0D4A0D4B1B78DBB243F00103DBB213700A4A0A4B1B78DBB243F00103DBB21370074A074B1B78DBB243F001038F
:400D8000DBB2137000BFBD4680BC7047A3430040B3430040004F004080B483B000AF0346FB71044BFA7992B21A8000BF0C37BD4680BC7047044F004080B483B000AF03462E
:400DC000FB71044BFA7992B21A8000BF0C37BD4680BC7047064F004080B483B000AF0346FB71044AFB79137000BF0C37BD4680BC704700BF034F004080B400AF034B1B882D
:400E00009BB2DBB21846BD4680BC7047044F004080B500AF064B1B78002B04D100F00AF8034B01221A7000F063F800BF80BD00BF4585FF1F80B582B000AF284A274B1B78C1
:400E4000DBB243F00203DBB21370254B1B78DBB223F07003FB71224AFB7943F01003DBB21370204A1F4B1B78DBB223F03003DBB213701C4A1B4B1B78DBB243F03003DBB2BC
:400E80001370184A174B1B78DBB223F00F03DBB21370144A134B1B78DBB243F00F03DBB21370FF2000F048F8322000F055F8002000F062F80C4A0C4B1B78DBB243F0020318
:400EC000DBB21370094A094B1B78DBB243F00103DBB2137000BF0837BD4680BD0C4F00400E4F0040174F0040A34300400D4F004080B400AF0D4A0D4B1B78DBB243F002030C
:400F0000DBB213700A4A0A4B1B78DBB243F00203DBB21370074A074B1B78DBB243F00103DBB2137000BFBD4680BC7047A3430040B34300400C4F004080B483B000AF03467B
:400F4000FB71044BFA7992B21A8000BF0C37BD4680BC7047104F004080B483B000AF0346FB71044BFA7992B21A8000BF0C37BD4680BC7047124F004080B483B000AF03466B
:400F8000FB71044AFB79137000BF0C37BD4680BC704700BF0F4F004080B400AF034B1B889BB2DBB21846BD4680BC7047104F004080B485B000AF0346FB710B4B1B78DBB247
:400FC00023F00203FB730849FB795B00DBB203F00203DAB2FB7B1343DBB20B7000BF1437BD4680BC704700BF2051004080B485B000AF0346FB710B4B1B78DBB223F0080395
:40100000FB730849FB79DB00DBB203F00803DAB2FB7B1343DBB20B7000BF1437BD4680BC704700BF1051004080B400AF044B1B78DBB203F00103DBB21846BD4680BC70472D
:401040003151004080B400AF054B1B78DBB203F002035B08DBB21846BD4680BC704700BF3151004080B400AF054B1B78DBB203F00803DB08DBB21846BD4680BC704700BFCA
:401080000151004080B400AF054B1B78DBB203F040039B09DBB21846BD4680BC704700BF1151004080B400AF054B1B78DBB203F08003DB09DBB21846BD4680BC704700BFE2
:4010C0001151004080B485B000AF0346FB710A4B1B78DBB223F00103FB730749FB7903F00103DAB2FB7B1343DBB20B7000BF1437BD4680BC704700BF2051004080B485B093
:4011000000AF0346FB71094B1B78DBB203F07F03FB730649FB79DB01DAB2FB7B1343DBB20B7000BF1437BD4680BC7047C051004080B500AF264A264B1B78DBB203F00103C8
:40114000DBB21370234A234B1B78DBB223F00303DBB213701E4A1E4B1B78DBB243F00403DBB213701C4A1C4B1B78DBB223F03003DBB21370184A184B1B78DBB243F0300372
:40118000DBB21370144A144B1B78DBB223F00F03DBB21370104A104B1B78DBB243F00F03DBB213700D4A0D4B1B78DBB243F00103DBB2137040F28F1000F07CF840F28F10C7
:4011C00000F08AF8002000F065F800BF80BD00BF184F00401A4F0040234F0040194F004080B400AF0D4A0D4B1B78DBB243F00403DBB213700A4A0A4B1B78DBB243F00403AC
:40120000DBB21370074A074B1B78DBB243F00103DBB2137000BFBD4680BC7047A3430040B3430040184F004080B500AF064B1B78002B04D1FFF77CFF034B01221A70FFF7B2
:40124000CFFF00BF80BD00BF4685FF1F80B400AF0D4A0D4B1B78DBB223F00103DBB213700A4A0A4B1B78DBB223F00403DBB21370074A074B1B78DBB223F00403DBB2137043
:4012800000BFBD4680BC7047184F0040A3430040B343004080B483B000AF0346FB71044AFB79137000BF0C37BD4680BC704700BF1B4F004080B485B000AF0346FB80FB88A6
:4012C000FB81044AFB89138000BF1437BD4680BC704700BF1C4F004080B483B000AF0346FB80044AFB88138000BF0C37BD4680BC704700BF1E4F004080B582B000AF786013
:4013000000F03CF8786800F009F8072000F018F800F028F800BF0837BD4680BD80B485B000AF7860054B1B68FB60FB6840337A681A6000BF1437BD4680BC704708ED00E01E
:4013400080B483B000AF0346FB71054AFB795B01DBB2137000BF0C37BD4680BC704700BF00E400E080B400AF034B01221A6000BFBD4680BC704700BF00E100E080B400AF12
:40138000034B01221A6000BFBD4680BC704700BF80E100E0000000000230800803D000BF01380046FCD17047EFF3108072B6704780F31088704700BF81F0004102E000BF19
:4013C00083F0004330B54FEA41044FEA430594EA050F08BF90EA020F1FBF54EA000C55EA020C7FEA645C7FEA655C00F0E2804FEA5454D4EB5555B8BF6D420CDD2C4480EA22
:40140000020281EA030382EA000083EA010180EA020281EA0303362D88BF30BD11F0004F4FEA01314FF4801C4CEA113102D0404261EB410113F0004F4FEA03334CEA1333B5
:4014400002D0524263EB430394EA050F00F0A780A4F10104D5F1200E0DDB02FA0EFC22FA05F2801841F1000103FA0EF2801843FA05F359410EE0A5F120050EF1200E012A0A
:4014800003FA0EFC28BF4CF0020C43FA05F3C01851EBE37101F0004507D54FF0000EDCF1000C7EEB00006EEB0101B1F5801F1BD3B1F5001F0CD349085FEA30004FEA3C0C39
:4014C00004F101044FEA445212F5800F80F09A80BCF1004F08BF5FEA500C50F1000041EB045141EA050130BD5FEA4C0C404141EB010111F4801FA4F10104E9D191F0000FE3
:4015000004BF01460020B1FA81F308BF2033A3F10B03B3F120020CDA0C3208DD02F1140CC2F10C0201FA0CF021FA02F10CE002F11402D8BFC2F1200C01FA02F120FA0CFC83
:40154000DCBF41EA0C019040E41AA2BF01EB0451294330BD6FEA04041F3C1CDA0C340EDC04F11404C4F1200220FA04F001FA02F340EA030021FA04F345EA030130BDC4F1FD
:401580000C04C4F1200220FA02F001FA04F340EA0300294630BD21FA04F0294630BD94F0000F83F4801306BF81F480110134013D4EE77FEA645C18BF7FEA655C29D094EAA1
:4015C000050F08BF90EA020F05D054EA000C04BF1946104630BD91EA030F1EBF0021002030BD5FEA545C05D14000494128BF41F0004130BD14F580043CBF01F5801130BD8E
:4016000001F0004545F0FE4141F470014FF0000030BD7FEA645C1ABF194610467FEA655C1CBF0B46024650EA013406BF52EA033591EA030F41F4002130BD00BF90F0000F13
:4016400004BF0021704730B54FF4806404F132044FF000054FF0000150E700BF90F0000F04BF0021704730B54FF4806404F1320410F0004548BF40424FF000013EE700BFCB
:4016800042004FEAE2014FEA31014FEA02701FBF12F07F4393F07F4F81F06051704792F0000F14BF93F07F4F704730B54FF4607401F0004521F0004120E700BF50EA0102F7
:4016C00008BF704730B54FF000050AE050EA010208BF704730B511F0004502D5404261EB41014FF4806404F132045FEA915C3FF4DCAE4FF003025FEADC0C18BF03325FEA7D
:40170000DC0C18BF033202EBDC02C2F1200300FA03FC20FA02F001FA03FE40EA0E0021FA02F11444C1E600BF70B54FF0FF0C4CF4E06C1CEA11541DBF1CEA135594EA0C0FC6
:4017400095EA0C0F00F0DEF82C4481EA030621EA4C5123EA4C5350EA013518BF52EA033541F4801143F4801338D0A0FB02CE4FF00005E1FB02E506F00042E0FB03E54FF0D2
:401780000006E1FB03569CF0000F18BF4EF0010EA4F1FF04B6F5007F64F5407404D25FEA4E0E6D4146EB060642EAC62141EA55514FEAC52040EA5E504FEACE2EB4F1FD0C3D
:4017C00088BFBCF5E06F1ED8BEF1004F08BF5FEA500E50F1000041EB045170BD06F0004646EA010140EA020081EA0301B4EB5C04C2BFD4EB0C0541EA045170BD41F4801185
:401800004FF0000E013C00F3AB8014F1360FDEBF002001F0004170BDC4F10004203C35DA0C341BDC04F11404C4F1200500FA05F320FA04F001FA05F240EA020001F0004207
:4018400021F0004110EBD37021FA04F642EB06015EEA430E08BF20EAD37070BDC4F10C04C4F1200500FA04F320FA05F001FA04F240EA020001F0004110EBD37041F1000156
:401880005EEA430E08BF20EAD37070BDC4F1200500FA05F24EEA020E20FA04F301FA05F243EA020321FA04F001F0004121FA04F220EA020000EBD3705EEA430E08BF20EA10
:4018C000D37070BD94F0000F0FD101F00046400041EB010111F4801F08BF013CF7D041EA060195F0000F18BF704703F00046520043EB030313F4801F08BF013DF7D043EA3F
:401900000603704794EA0C0F0CEA135518BF95EA0C0F0CD050EA410618BF52EA4306D1D181EA030101F000414FF0000070BD50EA410606BF1046194652EA430619D094EA30
:401940000C0F02D150EA013613D195EA0C0F05D152EA03361CBF104619460AD181EA030101F0004141F0FE4141F470014FF0000070BD41F0FE4141F4780170BD70B54FF002
:40198000FF0C4CF4E06C1CEA11541DBF1CEA135594EA0C0F95EA0C0F00F0A7F8A4EB050481EA030E52EA03354FEA013100F088804FEA03334FF0805545EA131343EA1263B4
:4019C0004FEA022245EA111545EA10654FEA00260EF000419D4208BF964244F1FD0404F5407402D25B084FEA3202B61A65EB03055B084FEA32024FF480104FF4002CB6EB13
:401A0000020E75EB030E22BFB61A754640EA0C005B084FEA3202B6EB020E75EB030E22BFB61A754640EA5C005B084FEA3202B6EB020E75EB030E22BFB61A754640EA9C007B
:401A40005B084FEA3202B6EB020E75EB030E22BFB61A754640EADC0055EA060E18D04FEA051545EA16754FEA06164FEAC30343EA52734FEAC2025FEA1C1CC0D111F4801FC1
:401A80000BD141EA00014FF000004FF0004CB6E711F4801F04BF01430020B4F1FD0C88BFBCF5E06F3FF6AFAEB5EB030C04BFB6EB020C5FEA500C50F1000041EB045170BDB0
:401AC0000EF0004E4EEA113114EB5C04C2BFD4EB0C0541EA045170BD41F480114FF0000E013C90E645EA060E8DE60CEA135594EA0C0F08BF95EA0C0F3FF43BAF94EA0C0F39
:401B00000AD150EA01347FF434AF95EA0C0F7FF425AF104619462CE795EA0C0F06D152EA03353FF4FDAE1046194622E750EA410618BF52EA43067FF4C5AE50EA41047FF426
:401B40000DAF52EA43057FF4EBAE12E74A0011D212F5001211D20DD56FF47873B3EB62520ED44FEAC12343F0004343EA505323FA02F070474FF00000704750EA013002D136
:401B80004FF0FF3070474FF00000704780F0004002E000BF81F0004142001FBF5FEA410392EA030F7FEA226C7FEA236C6AD04FEA1262D2EB1363C1BFD218414048404140CF
:401BC000B8BF5B42192B88BF704710F0004F40F4000020F07F4018BF404211F0004F41F4000121F07F4118BF494292EA030F3FD0A2F1010241FA03FC10EB0C00C3F12003E0
:401C000001FA03F100F0004302D5494260EB4000B0F5000F13D3B0F1807F06D340084FEA310102F10102FE2A51D2B1F1004F40EBC25008BF20F0010040EA0300704749005B
:401C400040EB000010F4000FA2F10102EDD1B0FA80FCACF1080CB2EB0C0200FA0CF0AABF00EBC25052421843BCBFD0401843704792F0000F81F4000106BF80F400000132F5
:401C8000013BB5E74FEA41037FEA226C18BF7FEA236C21D092EA030F04D092F0000F08BF0846704790EA010F1CBF0020704712F07F4F04D1400028BF40F00040704712F127
:401CC00000723CBF00F50000704700F0004343F0FE4040F4000070477FEA226216BF08467FEA23630146420206BF5FEA412390EA010F40F4800070474FF0000304E000BF66
:401D000010F0004348BF40425FEA000C08BF704743F0964301464FF000001CE050EA010208BF70474FF000030AE000BF50EA010208BF704711F0004302D5404261EB4101EA
:401D40005FEA010C02BF84460146002043F0B64308BFA3F18053A3F50003BCFA8CF2083AA3EBC25310DB01FA02FC634400FA02FCC2F12002BCF1004F20FA02F243EB02007B
:401D800008BF20F00100704702F1200201FA02FCC2F1200250EA4C0021FA02F243EB020008BF20EADC707047014B1868704700BF0C85FF1F0E4B70B51E460E4C0025E41AC8
:401DC000A410A54204D056F8253098470135F8E700F048F8084B094C1E46E41AA4100025A54204D056F8253098470135F8E770BD701E0000701E0000701E0000781E00000B
:401E000010B5431E0A44914204D011F8014B03F8014FF8E710BD03460244934202D003F8011BFAE77047000000000000004F00403000405100403000000001400010001431
:401E40000140000800400140000A004C01400002105001401000000000500140280F004810004300F8B500BFF8BC08BC9E4670474D000000150B0000F8B500BFF8BC08BC1B
:401E80009E46704729000000981E0000C880FF1F4804000038000000000000000A000000435333303120323031360A00000000000000000000000000000000000000000097
:401EC00000000000000000000000000000000000000000000000000000000000000000000101010100000001010101000000010303010000000103030100000001030401C1
:401F0000000000010303010000000103030100000001030401010000010303010001000000000000000000000000000000000000000000000000000000000000000000007E
:401F40000000000000000000000000000000000000000000000000000000000000000000000000000000000000000000000000000000000000000000000000000000000061
:401F80000000000000000000000000000000000000000000000000000000000000000000000000000000000000000000000000000000000000000000000000000000000021
:401FC00000000000000000000000000000000000000000000000000000000000000000000000000000000000000000000000000000000000000000000000000000000000E1
:4020000000000000000000000000000000000000000000000000000000000000000000000000000000000000000000000000000000000000000000000000000000000000A0
:402040000000000000000000000000000000000000000000000000000000000000000000000000000000000000000000000000000000000000000000000000000000000060
:402080000000000000000000000000000000000000000000000000000000000000000000000000000000000000000000000000000000000000000000000000000000000020
:4020C00000000000000000000000000000000000000000000000000000000000000000000000000000000000000000000000000000000000000000000000000000000000E0
:40210000000000000000000000000000000000000000000000000000000000000000000000000000000000000000000000000000000000000000000000000000000000009F
:40214000000000000000000000000000000000000000000000000000000000000000000000000000000000000000000000000000000000000000000000000000000000005F
:40218000000000000000000000000000000000000000000000000000000000000000000000000000000000000000000000000000000000000000000000000000000000001F
:4021C00000000000000000000000000000000000000000000000000000000000000000000000000000000000000000000000000000000000000000000000000000000000DF
:40220000000000000000000000000000000000000000000000000000000000000000000000000000000000000000000000000000000000000000000000000000000000009E
:40224000000000000000000000000000000000000000000000000000000000000000000004000000807F0000030000000087930360EA00003C000000000030750000000010
:4022800000000000000000000000000000000000000000000000000000000000621E000000000000000000000000000000000000000000000000000000000000000000009E
:4022C00000000000000000000000000000000000000000000000000000000000AC84FF1F000000000000000000000000000000000000000000000000000000000000000090
:40230000000000000000000000000000000000000000000000000000000000000000000000000000000000000000000000000000000000000000000000000000000000009D
:40234000000000000000000000000000000000000000000000000000000000000000000000000000000000000000000000000000000000000000000000000000000000005D
:40238000000000000000000000000000000000000000000000000000000000000000000000000000000000000000000000000000000000000000000000000000000000001D
:4023C00000000000000000000000000000000000000000000000000000000000000000000000000000000000000000000000000000000000000000000000000000000000DD
:020000040003F7
:0200000480007A
:4000000001450040084F00400B520040015B004005640040026500404500014035010140500201404C030140530401404D05014022060140470701403D0801403C090140CB
:40004000300A0140490B01405A0C01404C0D0140470E0140360F014042140140511501403C1601404D170140351801404C190140391A01404F1B01400F4001401541014003
:400080001C4201400C430140034401400E4501400F4601400D4701401048014016490140104C01400D4D014006500140045101407E0201200A4B0D20164B1950224B25307D
:4000C0002E4B08140930100811081820192060046105780979037C402784806F88728A6F8C0F8E0F870F88380202041D070608300A040C200E04103011021208163C1C2C35
:400100001E101F012001224028402B082C01303C310432023301340135083640370238203E503F40540F580459045B045F058096816182688318847F8CFE8E018F04917982
:40014000940E96F099199A019B609CA39D049E5CA0C5A23AA302A538A951AB28AD28AF51B303B504B6FFB778BE40BF10D804D904DF010002016804020508068007020804FE
:4001800009400A400C040E280F02108012011350150219101A411B091F80226223102540260C27062B082C102D682E802F8030803202369037023A043F425A815B146104C4
:4001C0006210781080808310C0BFC2EDC41BCAF4CCB9CE92D60FD806DE04E208010807040A010D010F021104190421013108320133013504370239083F1152805804590473
:400200005B045C015F01800282048420861088028A048B018C048D048E029101920894109620970C98109A219B019C109E20A302A402A604AF04B008B101B201B304B43019
:40024000B502B606B708BAA0BF05C036C102C9FFCAFFCBFFCDA0CF01D018D608D804D904DA04DB04DD90DF01E040E280E440E540E680E840EA80EC40ED20EE800006018063
:400280000308062808820A100B040D080E0A1220142416801720180619A11A101D082144220123042428250426802740288029012A402C80320A331036023710382039809F
:4002C0003D083E023F40410443104910584060027640800C84208720890893409402950299109B029D0C9E15A001A22AA309A480A690AC01AD21C06FC2EFC474CA89CCA783
:40030000CEDCD006D204D608D808E227E401E608EA08EE08031E051007020D160F08111813041920250E29182B022F01311E332037013F0440364102450E46C24734483DF1
:4003400049FF4AFF4BFF4DAF4E074F015018580459045A045C015F016040628064406540668068406A806C406D206E808030811082C983A08473870789218B128CFD8D10BA
:400380008E028F6094949660970499079CCF9D109E309F20A09EA104A260A507AA0FAB08AD01AF02B140B2FFB30FB530B780B820BB20BE14D804D904DF0100080482050A29
:4003C0000702082009080A410E200F0210041202150217101C041E102103220423012408255426102750280A29082C022D0A2E1030223102340835203740388A3DA83F0143
:400400004104431049144A03508052158408870189018A218D288F02900291089502982499109B029C409D0C9EBF9F10A008A108A301A480A615AB40AE01B520C0B4C2AF37
:40044000C453CAFECC75CEFBD006D204E408E604EC02EE080A042A022E013001340236045602573E580459045B0F5C115D105F01C064C101C50CC6EBC80DC9FFCAFFCBFF41
:40048000CEF0CF44D00CD804D904DA04DC11DD04DF01E6C0EA40EB0203020502070409280B800D080E090F80105012031420168017501C081D201E491F4228602B402F020C
:4004C000312833023430351236053A013B803E013FA0408041404A204B1050605F0865016F557401760877027E408040860288218E44920896419B209C029E8AA008A108FD
:40050000A202A424A605AF20B040B404C051C2FEC4FDCA13CCE7CEB9D009D204D640D880DE80E001EE400308050209060C010D080F101167156117061B101D21236124017B
:4005400025062761280129072B602D04300131183346350737203B284064410542034402460E47C0482449FF4AFF4BFF4C624DA04EF04F41500C56025713580459045A0415
:400580005B045C445D445F016640670269106A306B106D106E106F12D804D904DC11DF0101400380070108A409801020110B17141D02245D28242B802C402D802F1831807C
:4005C000362A374038A039413E683F024050410143084440452A4C054E0A54425E026F157580762D772082108C308D049420950898149CA29D01A404A501A780B542B7208E
:40060000C089C207C46CCAF7CCF8CEFDD0E0D230D680E040E440EA80540F580459045B045C115F05800882018420861F89068D038E40900B91289204940C9518960298106E
:4006400099309AA09C109E20A007A340A410A530A620A80CA906AA01AD05B030B20FB338B440B540B680B707B988BA02D608D804D904DB04DD90DF01001002010380058030
:40068000076008A109010D210E611240151017091D221E211F4625402684270928A029022D082E402F4430413380362538303A413D905A865B105D406104621065807A80F4
:4006C000850C88048A608B108E059112928694209710981099049A119B509C639D03A404A542A695A702AE40B284B740C0BBC2FBC478CAF3CCE9CE3DD61FD816DE01E038DC
:40070000E240E480E604E810EE0801FD0302099E0B600D7319CF1B301D301FC92B0F2D942F6035FF3F104052410349FF4AFF4BFF4DA04F015018540F580459045A045B0422
:400740005C015F016040628064406540668068406A806C406D206E8081028202850C860487038C028D0C94059D08A201A604B001B102B308B402B504B604B701B928BE5104
:40078000BF05C052C103C54EC6C3C702C81FC9FFCAFFCBFFCDAFCE07CF01D018D401D804D904DA04DB0FDD10DF01E040E280E440E540E680E840EA80EC40ED20EE80004022
:4007C000026004280502060107110A100C400F1010801108142119401A8420012221232027042E202F02318032803610374038893C023DB0400841084408450C4620472093
:40080000488049844D805044525058805C105E8A780280108101845188848B019040910292109480960899809D409F44A001A118A480A5C2A630AF01B480C0DDC2A4C4AC59
:40084000CA30CC38CEBBD066D218D6F8DE01E221E420E602EA08013D0529071408080B400F80110D1202133014081A041D141F29211C220126082702280429312B0C2E0404
:400880003002318032013340340835033604373C3E505280540F580459045B045F01809681818268831284C5863A89C18B228D77900E91B792F0934094A3965C97089B0713
:4008C0009C7FA0FEA201A601A9C0AB14AD04AFF0B2FFB30FB5F0BE04D608D804D904DB04DD90DF010308040806800740080109080B040C0C0D820E201080122813401502CA
:40090000170A19901A101B091D04204221102208230E240825182720280429042B402C082E80310233403726388839223DA23F80450359505A085B025C8064017340C032E8
:40094000C2BEC43FCA37CCE9CEBFD61FD810E20800E1020E0410084C0A830E0C14E116061A081EA32010268030103260340F3680380A3A203E454003464049FF4A074BFF8A
:400980004C404D204EF04F05500852035302580459045A045B045C145D145F01604061A8624063208101850A87058B028D078E018F089110950F9B30A904AB01B120B30C48
:4009C000B401B510B703D608D804D90FDB04DC11DD90DF01008801200280051006800701088009200B120C100D080E02108012201420150219611A101D1025D426022810F4
:400A00002A822B082C0831183602372839023B013C023DA842104B02501051205E40640268046A806B087E4080218242852089808E40900293119420968098109A809B21CF
:400A40009C829D719F08A0C9A108A2A1A308AC10AE01B310B480B512C0DFC2E7C43CCA2FCCE6CEF1D002D610D810DE80E240E447EA80EC20EE04020204080710084009019C
:400A80000A800C800D020E401204150816011A081B081C101E201F042002232224202610270128012C042D04311F34FF372039023E103F01580459045C105F018388891345
:400AC0008B4C99039B049D139FC4A380A98AAB54AD20AF45B130B30FB7C8B902BB88D401D604D804D904DB04DC41DD40DF0100200102040205100711081009080A400C1055
:400B00000D080E490F2111821440160817461E04208021412280231024022541260129202A412C402EC82F0832B035023604375039023B103D803E053FA0448046405801DC
:400B400059405A286340810882818308874088408C108E01924995809680971098019A089B779C829D119E809F08A009A108A224A601A750C0FAC2FEC4F9CAFDCCFCCEF51C
:400B8000D60FD801E051E405010C03110780083009140AC30D400F8011091310160C170318801A221B201C401E111F40211024F3260827C028F3291C2A042B022C512D1073
:400BC0002EA22F0C31E0320F331F34F035E03A083B803F1154185604580459045B045C445D405F01D608D804D904DB04DC11DD90DF01010B051008A40B800E200F0A1020C6
:400C0000154017141D101E24242225202648274028242B802C802D802E042F08302034013698388839013B803E523F08581059405C0162A0630A65016620670268016920B9
:400C40006D406E4080C48202855088018CC08D04901591029210948295099640972098749A059B349C829D019F40A062A404A528A621A781C04CC2EFC4E4CAF7CCF4CEFBD1
:400C8000D68CD8BCE052E460E608090111041706250831023301350437083F445804590F5C115F0180FF830484308501881089018C208F10920C9310943C96C19702980830
:400CC00099029C049D01A243A47CA501A682A8CFAA30AB08AC04AE08AF08B080B101B270B306B43FB510B708B802BA20BF51D608D804D904DB04DC94DD90DF01010804020D
:400D00000605072008A80B800D010F2A10241450154016081D091F1420092106222025402609270429042C122F14310232083501366838203C943E083F21462047045C4040
:400D4000670178027D807F01800B810287089076914293809508972298E4990C9A059B209C029D029E20A062A240A305A404A508A601A708B001B180B508B780C0F4C2FF3D
:400D8000C4F6CA72CCF3CEF4D610D810DE01E021E240E840EA80ECA0EE4412801680332234803708380139403E806D806F208708C430CCF0CE70E21006020F08300133103E
:400DC000364037028001831088808B02940195409C80A280A540AF02C080C280CCF0E2A0EA100620118014011780530457045B085F08620166018140930895409A0A9C0188
:400E0000A280A304A540A640AA08AF04C020C4C0D460D6C0D8C0E620EE901B011F0887019A2AA280A640AF80B601B708C630E410E84012208404C40801100B200C405702BA
:400E40008040871097809C04AF40B620C002C209D604EA080280050218802608830187029110948097809C04A702AC40C00CC608C8010B820C0443084401911097829C04FF
:400E8000A208B102B680C20ED006EA0320805004560257205B4086408E808F089A2AA280A309A640C840D4E0D620E6400340040853046302660879408D408E20930894080F
:400EC0009A289F40A301AB20B040B304C030D420D640D880DC80EE200B020F08561061026608851086108E0891109C01A208A708C203D402D803E00881028B088F01930233
:400F0000A502A708AB04B001B608E004E202EC04EE02101211011A121B011C121D0100AE01FE0203100A0000130100000000000003011300130103010800800E0600000022
:400F40001100000018878700070000004000300F0F000F00C0000000C03C3C00340000000800940B0B0008000000000003F8F8003800000000010000000000000000000084
:400F80000000000000000000000000000000000000000000000000000000000000000000000000000000000000000000000000000000000000000000000000000000000031
:400FC00000000000000000000000000000000000000000000000000000000000000000000000000000000000000000000000000000000000000000000000000000000000F1
:4010000000000000000000000000000000000000000000000000000000000000000000000000000000000000000000000000000000000000000000000000000000000000B0
:401040000000000000000000000000000000000000000000000000000000000000000000000000000000000000000000000000000000000000000000000000000000000070
:0200000490006A
:0400000000004007B5
:0200000490105A
:04000000BC90ACAF55
:0200000490303A
:020000008F6609
:0200000490402A
:4000000000000000000000000000000000000000000000000000000000000000000000000000000000000000000000000000000000000000000000000000000000000000C0
:400040000000000000000000000000000000000000000000000000000000000000000000000000000000000000000000000000000000000000000000000000000000000080
:400080000000000000000000000000000000000000000000000000000000000000000000000000000000000000000000000000000000000000000000000000000000000040
:4000C0000000000000000000000000000000000000000000000000000000000000000000000000000000000000000000000000000000000000000000000000000000000000
:0200000490501A
:0C00000000012E16106900012E269FCF73
:00000001FF