:400000000080002011000000C1060000C106000080B500AF024A034B1B68136000F05AFBBC760040FA46004010B5054C237833B9044B13B10448AFF300800123237010BD34
:400040009081FF1F0000000058170000084B10B51BB108490848AFF300800848036803B910BD074B002BFBD0BDE81040184700BF000000009481FF1F58170000C880FF1F94
:400080000000000080B500AF62B6012000F09AFD00F0F8FB00F0C6FC3221322000F070F8364B04221A70354B1B78032B32D0042B62D1012000F0D2FD002000F0EBFD4121FA
:4000C000402000F05DF800F09BFD0346002B09D000F0A4FD0346002B04D000F0AFFD0346002B46D100F08CFD0346002B04D000F095FD0346002B09D100F090FD0346002B04
:4001000037D000F09BFD0346002B32D01B4B03221A702EE0002000F0A1FD012000F0BAFD4121402000F02CF800F06AFD0346002B0CD000F073FD0346002B07D000F07EFD8E
:400140000346002B02D00D4B04221A7000F076FD0346002B03D13721412000F011F800F04FFD0346002B06D14121372000F008F801E000BF97E700BF95E700BF1081FF1FDD
:40018000B0B584B000AF03460A46FB711346BB7100F03CFC0346184601F046FA0346184600F006FF04460D46FB79184600F0EEFE4FF000021F4B01F079F802460B4620467A
:4001C000294600F049FF03460C461846214601F055F90346FB7300F0E9FC0346184601F023FA0346184600F0E3FE04460D46BB79184600F0CBFE4FF000020E4B01F056F83F
:4002000002460B462046294600F026FF03460C461846214601F032F90346BB73FB7B184600F0D4FBBB7B184600F0A0FC00BF1037BD46B0BD0000594080B582B000AF786098
:4002400039603A680021786801F07DFA00BF0837BD4680BD80B584B000AFF860B9607A607A68B968F86801F063FA00BF1037BD4680BD00BF80B483B000AF0346FB71FEE7D3
:4002800080B487B000AF7860396000233B6100237B6127E07B699B007A6813441B68BB60BB68FB73BB6823F0FF03BB6014E03B695B003A6813441B781A46BB6813441946FC
:4002C0003B695B003A6813445B780B703B6901333B61FB7B013BFB73FB7B002BE7D17B6901337B617B692B2BD4D900BF1C37BD4680BC704780B582B000AF3C4B04221A808B
:400300003B4B18221A703B4B14221A803A4B18221A703A4B3B221A80394B18221A70394B77221A80384B1C221A70384B81221A80374B18221A70374B06221A70364B5222DF
:400340001A70364B364A1278D2B21A70354B40F619121A80344B41F251221A800023FB7019237B6014E0FB785B00DAB22F4B1B78DBB203F00103DBB21343DBB203F0030333
:40038000FB704FF4F07000F09FFC7B68013B7B607B68002B02D0FB78032BE4D17B68002B02D10320FFF766FF214B4FF480721A801F4B07221A701F4B00221A701E4B4822D4
:4003C0001A701B4B00221A701C4B00221A701C4B02221A701B4A1B4B1B78DBB243F01F03DBB2137000BF0837BD4680BD804000408240004084400040864000408840004097
:400400008A4000408C4000408E40004090400040924000400043004000420040A14600400F01004922420040204200402542004004400040064000400840004009400040E9
:4004400001400040A243004080B582B000AF1E4B1B78FB711D4B1B78BB711D4B1B787B711C4AFB7903F00703DBB213701A4AFB791B09DBB21370154ABB7943F00303DBB2FE
:400480001370134A7B7943F00303DBB21370134B01221A70124B80221A70124B10221A70114B20221A700A2000F0D8F9084A7B791370064ABB7913700C4B44221A7000BF89
:4004C0000837BD4680BD00BFCF010049F8460040F94600406E5800406F5800400D51004001590040905A0040235B00407658004080B586B000AF72B6544B61221A70FFF789
:40050000F9FE524B01221A700023FB7513E0FA7D13465B0013445B004D4A13443B613B691A683B699B889BB219461046FFF784FEFB7D0133FB75FB7D062BE8D90023FB750D
:400540001CE0FA7D13469B0013445B00414A1344FB60FB681B68BB60FB685B687B60FB681A7A5B7A1B0213437B807B881A467968B868FFF76FFEFB7D0133FB75FB7D002B63
:40058000DFD035494FF09040FFF77AFE04213348FFF752FE042232493248FFF75BFE324B324A1A60324B334A1A60334A324B1B78DBB243F00203DBB21370304A2F4B1B7871
:4005C000DBB243F00203DBB213702D4A2C4B1B78DBB243F04003DBB213702A4A294B1B78DBB243F01003DBB213700A2226492748FFF730FE082226492648FFF72BFE0A22B4
:4006000025492648FFF726FE082225492548FFF721FE0A2224492548FFF71CFE082224492448FFF717FE244A234B1B78DBB243F00803DBB21370FFF707FF0E2210491F4850
:40064000FFF708FE00BF1837BD4680BD004800405C17000088170000B000004800760040C00F004808760040D800014004040444D8180140040400440350014013500140F5
:40068000A0430040C2430040840F004800510040900F0048C2510040980F0048F0510040A40F004812510040AC0F004820510040B80F00483251004022430040B0430040C0
:4006C00080B500AF01F008F803461B680C2B00D1FEE7FEE780B586B000AF224B7B61224B3B61204B7B6135E03B691B68FB603B695B68BB603B699B683B6000237B600CE08F
:40070000FB681A68BB681A60BB680433BB60FB680433FB607B6804337B607A683B689A42EED13B69DB683B6000237B6008E0BB6800221A60BB680433BB607B6804337B6027
:400740007A683B689A42F2D13B6910333B617B69013B7B617B69002BC6D100F0C3FFFFF791FCFEE701000000B817000080B582B000AF194B194A1A60194A194B1B6843F46E
:400780000073136000237B600FE07B68032B04D8144A7B6852F8233000E0134B13497A6841F822307B6801337B607B682F2BECD90F4B1B78DAB20F4B1A700F4B0B4A1A601A
:4007C000FFF796FE00F01CF80C4B00221A6000BF0837BD4680BD00BF0CED00E00004FA0514ED00E000000000C10600000080FF1FBC760040C480FF1F08ED00E0C080FF1F52
:4008000080B483B000AF134B7F221A70124B80221A707F23FB710CE0FB79DB0003F1804303F5F043FA79013AD2B21A70FB79013BFB71FB79002BEFD1FB79DB0003F1804328
:4008400003F5F04300221A7000BF0C37BD4680BC704700BF1581FF1F1481FF1F80B582B000AF0346FB80FB88054A127802FB03F3184600F029FA00BF0837BD4680BD00BFEC
:400880002481FF1F80B500AF064B1B78002B04D100F00AF8034B01221A7000F063F800BF80BD00BFAC81FF1F80B582B000AF284A274B1B78DBB243F00203DBB21370254B9D
:4008C0001B78DBB223F07003FB71224AFB7943F01003DBB21370204A1F4B1B78DBB223F03003DBB213701C4A1B4B1B78DBB243F03003DBB21370184A174B1B78DBB223F00D
:400900000F03DBB21370144A134B1B78DBB243F00F03DBB21370FF2000F048F8322000F055F8002000F062F80C4A0C4B1B78DBB243F00103DBB21370094A094B1B78DBB241
:4009400043F00103DBB2137000BF0837BD4680BD004F0040024F00400B4F0040A3430040014F004080B400AF0D4A0D4B1B78DBB243F00103DBB213700A4A0A4B1B78DBB2C0
:4009800043F00103DBB21370074A074B1B78DBB243F00103DBB2137000BFBD4680BC7047A3430040B3430040004F004080B483B000AF0346FB71044BFA7992B21A8000BF1C
:4009C0000C37BD4680BC7047044F004080B483B000AF0346FB71044BFA7992B21A8000BF0C37BD4680BC7047064F004080B483B000AF0346FB71044AFB79137000BF0C3721
:400A0000BD4680BC704700BF034F004080B400AF034B1B889BB2DBB21846BD4680BC7047044F004080B500AF064B1B78002B04D100F00AF8034B01221A7000F063F800BF1B
:400A400080BD00BFAD81FF1F80B582B000AF284A274B1B78DBB243F00203DBB21370254B1B78DBB223F07003FB71224AFB7943F01003DBB21370204A1F4B1B78DBB223F00D
:400A80003003DBB213701C4A1B4B1B78DBB243F03003DBB21370184A174B1B78DBB223F00F03DBB21370144A134B1B78DBB243F00F03DBB21370FF2000F048F8322000F0B6
:400AC00055F8002000F062F80C4A0C4B1B78DBB243F00203DBB21370094A094B1B78DBB243F00103DBB2137000BF0837BD4680BD0C4F00400E4F0040174F0040A3430040DA
:400B00000D4F004080B400AF0D4A0D4B1B78DBB243F00203DBB213700A4A0A4B1B78DBB243F00203DBB21370074A074B1B78DBB243F00103DBB2137000BFBD4680BC70474F
:400B4000A3430040B34300400C4F004080B483B000AF0346FB71044BFA7992B21A8000BF0C37BD4680BC7047104F004080B483B000AF0346FB71044BFA7992B21A8000BF52
:400B80000C37BD4680BC7047124F004080B483B000AF0346FB71044AFB79137000BF0C37BD4680BC704700BF0F4F004080B400AF034B1B889BB2DBB21846BD4680BC7047F4
:400BC000104F004080B485B000AF0346FB710B4B1B78DBB223F00803FB730849FB79DB00DBB203F00803DAB2FB7B1343DBB20B7000BF1437BD4680BC704700BF105100409C
:400C000080B400AF044B1B78DBB203F00103DBB21846BD4680BC70473151004080B400AF054B1B78DBB203F002035B08DBB21846BD4680BC704700BF3151004080B400AFD5
:400C4000054B1B78DBB203F08003DB09DBB21846BD4680BC704700BF1151004080B485B000AF0346FB710A4B1B78DBB223F00103FB730749FB7903F00103DAB2FB7B13438E
:400C8000DBB20B7000BF1437BD4680BC704700BF2051004080B485B000AF0346FB71094B1B78DBB203F07F03FB730649FB79DB01DAB2FB7B1343DBB20B7000BF1437BD468C
:400CC00080BC7047C05100400230800803D000BF01380046FCD17047EFF3108072B6704780F31088704700BF81F0004102E000BF83F0004330B54FEA41044FEA430594EA24
:400D0000050F08BF90EA020F1FBF54EA000C55EA020C7FEA645C7FEA655C00F0E2804FEA5454D4EB5555B8BF6D420CDD2C4480EA020281EA030382EA000083EA010180EA46
:400D4000020281EA0303362D88BF30BD11F0004F4FEA01314FF4801C4CEA113102D0404261EB410113F0004F4FEA03334CEA133302D0524263EB430394EA050F00F0A78093
:400D8000A4F10104D5F1200E0DDB02FA0EFC22FA05F2801841F1000103FA0EF2801843FA05F359410EE0A5F120050EF1200E012A03FA0EFC28BF4CF0020C43FA05F3C0182F
:400DC00051EBE37101F0004507D54FF0000EDCF1000C7EEB00006EEB0101B1F5801F1BD3B1F5001F0CD349085FEA30004FEA3C0C04F101044FEA445212F5800F80F09A805C
:400E0000BCF1004F08BF5FEA500C50F1000041EB045141EA050130BD5FEA4C0C404141EB010111F4801FA4F10104E9D191F0000F04BF01460020B1FA81F308BF2033A3F19B
:400E40000B03B3F120020CDA0C3208DD02F1140CC2F10C0201FA0CF021FA02F10CE002F11402D8BFC2F1200C01FA02F120FA0CFCDCBF41EA0C019040E41AA2BF01EB0451FE
:400E8000294330BD6FEA04041F3C1CDA0C340EDC04F11404C4F1200220FA04F001FA02F340EA030021FA04F345EA030130BDC4F10C04C4F1200220FA02F001FA04F340EAF8
:400EC0000300294630BD21FA04F0294630BD94F0000F83F4801306BF81F480110134013D4EE77FEA645C18BF7FEA655C29D094EA050F08BF90EA020F05D054EA000C04BF2F
:400F00001946104630BD91EA030F1EBF0021002030BD5FEA545C05D14000494128BF41F0004130BD14F580043CBF01F5801130BD01F0004545F0FE4141F470014FF000000D
:400F400030BD7FEA645C1ABF194610467FEA655C1CBF0B46024650EA013406BF52EA033591EA030F41F4002130BD00BF90F0000F04BF0021704730B54FF4806404F1320497
:400F80004FF000054FF0000150E700BF90F0000F04BF0021704730B54FF4806404F1320410F0004548BF40424FF000013EE700BF42004FEAE2014FEA31014FEA02701FBF12
:400FC00012F07F4393F07F4F81F06051704792F0000F14BF93F07F4F704730B54FF4607401F0004521F0004120E700BF50EA010208BF704730B54FF000050AE050EA010242
:4010000008BF704730B511F0004502D5404261EB41014FF4806404F132045FEA915C3FF4DCAE4FF003025FEADC0C18BF03325FEADC0C18BF033202EBDC02C2F1200300FA82
:4010400003FC20FA02F001FA03FE40EA0E0021FA02F11444C1E600BF70B54FF0FF0C4CF4E06C1CEA11541DBF1CEA135594EA0C0F95EA0C0F00F0DEF82C4481EA030621EACD
:401080004C5123EA4C5350EA013518BF52EA033541F4801143F4801338D0A0FB02CE4FF00005E1FB02E506F00042E0FB03E54FF00006E1FB03569CF0000F18BF4EF0010EEE
:4010C000A4F1FF04B6F5007F64F5407404D25FEA4E0E6D4146EB060642EAC62141EA55514FEAC52040EA5E504FEACE2EB4F1FD0C88BFBCF5E06F1ED8BEF1004F08BF5FEAB3
:40110000500E50F1000041EB045170BD06F0004646EA010140EA020081EA0301B4EB5C04C2BFD4EB0C0541EA045170BD41F480114FF0000E013C00F3AB8014F1360FDEBF07
:40114000002001F0004170BDC4F10004203C35DA0C341BDC04F11404C4F1200500FA05F320FA04F001FA05F240EA020001F0004221F0004110EBD37021FA04F642EB060184
:401180005EEA430E08BF20EAD37070BDC4F10C04C4F1200500FA04F320FA05F001FA04F240EA020001F0004110EBD37041F100015EEA430E08BF20EAD37070BDC4F1200542
:4011C00000FA05F24EEA020E20FA04F301FA05F243EA020321FA04F001F0004121FA04F220EA020000EBD3705EEA430E08BF20EAD37070BD94F0000F0FD101F00046400031
:4012000041EB010111F4801F08BF013CF7D041EA060195F0000F18BF704703F00046520043EB030313F4801F08BF013DF7D043EA0603704794EA0C0F0CEA135518BF95EA52
:401240000C0F0CD050EA410618BF52EA4306D1D181EA030101F000414FF0000070BD50EA410606BF1046194652EA430619D094EA0C0F02D150EA013613D195EA0C0F05D151
:4012800052EA03361CBF104619460AD181EA030101F0004141F0FE4141F470014FF0000070BD41F0FE4141F4780170BD70B54FF0FF0C4CF4E06C1CEA11541DBF1CEA135530
:4012C00094EA0C0F95EA0C0F00F0A7F8A4EB050481EA030E52EA03354FEA013100F088804FEA03334FF0805545EA131343EA12634FEA022245EA111545EA10654FEA002612
:401300000EF000419D4208BF964244F1FD0404F5407402D25B084FEA3202B61A65EB03055B084FEA32024FF480104FF4002CB6EB020E75EB030E22BFB61A754640EA0C006B
:401340005B084FEA3202B6EB020E75EB030E22BFB61A754640EA5C005B084FEA3202B6EB020E75EB030E22BFB61A754640EA9C005B084FEA3202B6EB020E75EB030E22BF92
:40138000B61A754640EADC0055EA060E18D04FEA051545EA16754FEA06164FEAC30343EA52734FEAC2025FEA1C1CC0D111F4801F0BD141EA00014FF000004FF0004CB6E7EC
:4013C00011F4801F04BF01430020B4F1FD0C88BFBCF5E06F3FF6AFAEB5EB030C04BFB6EB020C5FEA500C50F1000041EB045170BD0EF0004E4EEA113114EB5C04C2BFD4EB81
:401400000C0541EA045170BD41F480114FF0000E013C90E645EA060E8DE60CEA135594EA0C0F08BF95EA0C0F3FF43BAF94EA0C0F0AD150EA01347FF434AF95EA0C0F7FF4B7
:4014400025AF104619462CE795EA0C0F06D152EA03353FF4FDAE1046194622E750EA410618BF52EA43067FF4C5AE50EA41047FF40DAF52EA43057FF4EBAE12E74A0011D228
:4014800012F5001211D20DD56FF47873B3EB62520ED44FEAC12343F0004343EA505323FA02F070474FF00000704750EA013002D14FF0FF3070474FF00000704780F00040A4
:4014C00002E000BF81F0004142001FBF5FEA410392EA030F7FEA226C7FEA236C6AD04FEA1262D2EB1363C1BFD218414048404140B8BF5B42192B88BF704710F0004F40F488
:40150000000020F07F4018BF404211F0004F41F4000121F07F4118BF494292EA030F3FD0A2F1010241FA03FC10EB0C00C3F1200301FA03F100F0004302D5494260EB400070
:40154000B0F5000F13D3B0F1807F06D340084FEA310102F10102FE2A51D2B1F1004F40EBC25008BF20F0010040EA03007047490040EB000010F4000FA2F10102EDD1B0FAF5
:4015800080FCACF1080CB2EB0C0200FA0CF0AABF00EBC25052421843BCBFD0401843704792F0000F81F4000106BF80F400000132013BB5E74FEA41037FEA226C18BF7FEA6C
:4015C000236C21D092EA030F04D092F0000F08BF0846704790EA010F1CBF0020704712F07F4F04D1400028BF40F00040704712F100723CBF00F50000704700F0004343F0FB
:40160000FE4040F4000070477FEA226216BF08467FEA23630146420206BF5FEA412390EA010F40F4800070474FF0000304E000BF10F0004348BF40425FEA000C08BF70470C
:4016400043F0964301464FF000001CE050EA010208BF70474FF000030AE000BF50EA010208BF704711F0004302D5404261EB41015FEA010C02BF84460146002043F0B643DC
:4016800008BFA3F18053A3F50003BCFA8CF2083AA3EBC25310DB01FA02FC634400FA02FCC2F12002BCF1004F20FA02F243EB020008BF20F00100704702F1200201FA02FC19
:4016C000C2F1200250EA4C0021FA02F243EB020008BF20EADC707047014B1868704700BF8C81FF1F0E4B70B51E460E4C0025E41AA410A54204D056F8253098470135F8E7AA
:4017000000F048F8084B094C1E46E41AA4100025A54204D056F8253098470135F8E770BDA0170000A0170000A0170000A817000010B5431E0A44914204D011F8014B03F8C8
:40174000014FF8E710BD03460244934202D003F8011BFAE77047000000000000004F0040240040510040300000000140001000140140000800400140000A004C014000020C
:40178000105001401000000000500140740F004810004300F8B500BFF8BC08BC9E4670474D0000006D070000F8B500BFF8BC08BC9E46704729000000C8170000C880FF1F9C
:4017C000C800000020000000000000000A000000435333303120323031360A00000000000000000000000000000000000000000000000000000000000000000000000000DA
:401800000000000000000000000000000000000004000000807F0000030000000087930360EA00003C0000000000307500000000000000000000000000000000000000005A
:4018400000000000000000000000000092170000000000000000000000000000000000000000000000000000000000000000000000000000000000000000000000000000BF
:401880000000000000000000000000002C81FF1F0000000000000000000000000000000000000000000000000000000000000000000000000000000000000000000000005D
:4018C00000000000000000000000000000000000000000000000000000000000000000000000000000000000000000000000000000000000000000000000000000000000E8
:4019000000000000000000000000000000000000000000000000000000000000000000000000000000000000000000000000000000000000000000000000000000000000A7
:401940000000000000000000000000000000000000000000000000000000000000000000000000000000000000000000000000000000000000000000000000000000000067
:401980000000000000000000000000000000000000000000000000000000000000000000000000000000000000000000000000000000000000000000000000000000000027
:020000040003F7
:0200000480007A
:4000000001450040064F004009520040015B004005640040026500406400014038010140500201404B030140310401404E05014018060140430701404208014052090140C2
:40004000330A01404E0B0140680C0140500D01404B0E0140370F0140301401404E1501404A160140481701403218014050190140381A01405F1B01400E40014012410140E4
:400080001B42014010430140034401400C450140124601401047014011480140194901400D4C0140044D014006500140035101407E0201200A1B0D20164B1930224B081408
:4000C00009341820192860066105780979037C402784816F89388A728E0F8F0F880F896F08A309CF0A5C0B300C0E0EF00F0F10FE1194120113601573160118961A681CC560
:400100001D9E1E3A1F60253027C9287F2DFD2F0234FF37FF39083E103F444024410549FF4AFF4BFF4DA04F015018580459045A045F016040628064406540668068406A8087
:400140006C406D206E8083068B018C028D048E0C8F0290089C02A601A907B004B101B201B302B408B504B602B880BE10BF15C024C105C52CC640C73EC83BC9FFCAFFCBFF93
:40018000CDAFCE07CF01D018D40FD804D904DA04DB04DF05E040E280E440E540E680E840EA80EC40ED20EE8000100202060208620A200E800F021208162018081E891F0802
:4001C000202022802420278428222F083040320A38903B403E213F404204431147114B404F46562A57025D105E085F81660867077E0881088510870188108C108E40C083F5
:40020000C29FC422CA2ACC0BCEBCD0A5D218D6F0D860DE20E201E6820108030111041302150819021A021B041E01220424012502271429022B042D08300131063202331098
:4002400034043501370839803B023E013F405608580459045B045D905F01841885208602871F881889078A048C208D108F2090169208950C96609701981099109A029B201E
:400280009D0C9F02A110A21EA360A50BA601A704A80EAB80AD08AE20AF01B001B140B21EB330B420B580B640B70FBB08BE10D280D804D904DB04DF01001001800320082217
:4002C0000A200E080F02100211021208130416801708181019821A141F152060212422402304250126062759291A2A402F1631283240360A3710386039083F024640470230
:400300005D40668070028010814089048A028C108E0890089340949096A4970299089C229F03A108A280A323A60AAB02AD08B040B320B608B704C007C2CEC43FCA7FCCEE8D
:40034000CE8ED610D810E204EA08EC01EE080002010202040304040206040780080E09700D040E200F0211021240130415181608180819701C0E1D40221023402502260136
:40038000270429682E0E2F01301E310132203338340135C03640370639083B805608580459045B045D905F01D804D904DC11DF010140020803600580082009020A120B1019
:4003C0000D080E0E0F01110412801340140117051886190421422218230229042A422B082D802E042F0431023208336035083705380A39803B103F054C014D405850611040
:400400006240800283048401860287048B018C208E029008910492129340948096209B409C209D109F02A280A328A608AC02AE01AF08B010C08FC2EFC4BDCA7FCCCFCECFED
:40044000D60CD80CE003E601EA11EE020201120417012E02320134043602370156025735580459045B0F5C115D105F01D203D302D804D904DB04DC11DD10DF01000101087E
:40048000030105880640080109280B400D080E4A1002161217011C011D381E0A1F04270129882C022D882F04311833013510370538013B403C013F40450146405D10670463
:4004C00069106A806D066E406F047502760A7E4082408A12970898039A209D889F01A508A607AE20B050B404B605C0BDC2FEC4B1CA7ACCE7CE99D620D820DE80E220E4015B
:40050000EA02405341024206440145C0470E481249FF4AFF4BFF4C624DA04EF04F41500C580459045A045B045C115D045F016640670269106A306B106D106E106F128004D7
:400540008102843C86C187018A0C8B018CFF8F029010940898049A089C7C9E82A020A643A830ACCFAE30B280B302B470B501B63FB808BA82BF14D418D604D804D904DB04BC
:40058000DC04DD40DF01006002A006E8072009260A010C490D0810801202131814201601186019601A05200422042C482E802F013421370138A23A043C803E084408458025
:4005C00047084D204E024F0156045A02608463026C046F02800288808C049083913892C2931295409620983199159A019B0C9C429D409E209F10A0D0A102A238A5C8A764FF
:40060000AC10AD40B102B204B420B5A0C05FC2BFC4AFCAB0CCA0CE5FD070D230D601D80DE220E850EAA0EC40EE0201040507076009060D080F101102176119671D2123084C
:40064000256127062B102D062F6131203318354637073BA056025711580459045B045C415D405F018104830889088B0497019D049F08A302AD04AF18B110B30CB501B7020B
:40068000BB08D401D804D904DB0FDC01DD10DF0101200301052006010701082109080B030C010D080F01104014602027222124122501261429482B442D802E0131823204F9
:4006C000332036403704380439403A023B103C103D025A285B085C8069987080720673107C827D80830184418508870188018E049080912092C1959899159B0C9E209F100B
:40070000A248A604AC40AD01AF10B004B302B640C0C3C2BFC438CA9FCC5FCEAFD614DE80E240E420E601E802EA11EC8003100521070208CC0A130B080C830D270E1C112052
:40074000130414CA15871625180519041AFA1B201F0720BF2180224025802B402C772D212F02310F32F03380340F3560371039083F044023410149FF4AFF4BFF4DA04F0175
:4007800050185608580459045A045B045D905F016040628064406540668068406A806C406D206E808501880289018D01A004A804A902AA03B002B102B201B404B501B82018
:4007C000BE01BF01C023C101C50EC6C3C742C83DC9FFCAFFCBFFCDAFCE07CF01D018D804D904DA04DC40DF01E040E280E440E540E680E840EA80EC40ED20EE8000100520D5
:4008000007010E281080120415031601181019011A041E201F102080230825082640274429082A242C802D082E112F023629374039983C483D203F014108435045084750B7
:400840004808491450C9511052045C80670182088A408B018D208E019040929094029501960498809C049F44A004A110A229A610A810AA20AF01B004B101B210B480B72805
:40088000C0C2C260C49ACAF4CCF0CEFED07ED610D810E010E220E460EA88EC5003010414062808410B1E0C3C0DB60F0810281214140C156E163019011A411C011E402202B7
:4008C00025D82702281C29102B022C302DD82E0C2F04303C311E320233E034013640370139083E503F40540F580459045B045F0184A3865C889689308A688BC98DFD8F020B
:4009000091CF9330947F95739CFE9E019F0FA0C5A23AA601A80EA994AAF0AB60AD9EAF60B2FFB5FFBE04BF10D40FD804D904DB04DF010040022003080410050408440A0483
:400940000B400F121001120813011404150216801704184019511A201B091E102101224C23502510280429042A802C042E80321834413609374038523B013C5059515A08B2
:400980005D015E405F2882808D048E41C067C2AFC47BCA3ECCD6CE3DD6FFE010E440E6024046410346EB47C0482C49FF4AFF4BFF4EF04F44500C5608580459045A045B04A3
:4009C0005C115D945F0166C06A406B0280018630870292029407960898109C0A9E05A104A701A80FAC04AE01B010B101B203B420B502B60CB704BF40D80FD904DC11DF015C
:400A00000004014003010502062008210E6510901202140215101E65248526022740282129402B422E082F863090320234203605374038043B083D443F80410A4A08500149
:400A400052815310588062407E4080018790882089088A448C018F40911492809484960898B299429A289B019E01A080A102A20DA420A690AE10B120B201B681C035C2FAE8
:400A8000C4CDCAFBCCFDCE52D003D204D608D808DE80E406E610E802EA81EC0C00040608070808200A100B100E010F0210801102124015081604184019041A801D011E02EE
:400AC000201022202408270128012C022F04311F32FF39023E043F01580459045C105F01871589409133930C952A970499339B049F08A103A304A540B10FB330B540B92806
:400B0000BB02BF14C003C604C9FFCA07CBFFCC40CD20CEF0CF05D008D280D804D904DA04DB04DC41DD04DF01E040E1A8E240E320000401810484058806C0070409280B08AE
:400B40000C900D280E4A108012021545160A17011C202010210222012304260229042A012E882F4430603205342035883601380839103C203D4540104420450849404A0248
:400B80004B8050045140520870018144844088208C05911492C09704988299029A6A9B059D88A108A205A602B080C0FDC2F6C4F9CAF3CCFFCEF6D002E001E60DE820EE4066
:400BC00001090310078009100F2013C015141B031F40210C23112510270C291C2B022D402F80331F37E03F4054015604580459045B045C415D405F01830C85F3870489F3E2
:400C00008B088D518FA29D409F11A980AB22AD30AFC3B10FB7F0BB02D40FD804D904DB04DC41DF05002002400301066807010840090A0B800C400D080F2011021201158093
:400C40001601210123422580272028012B042F5632803401350836803722395A3C023D283F484004411059115A885CA05E025F086004610466027A08811082048401854065
:400C800088408F419041913892CD930195409620981299159A419B059C409E089F30A238A5ECA680A745B449B602B722C0FBC2A5C489CAFCCCF8CEFFD6FFD886DE04E0D0CA
:400CC000E605EE40000106020C01120414081A101C01221024012C0230103201340636083E455608580459045B045C195D905F01804081048283841C86A388A18A168E1C9B
:400D000090A1920E970199019A80A706A908AA08AF01B01AB102B20FB301B480B508B660B704B880BA0ABE10BF14D804D90FDB04DC14DF01004103200564074008080A05DF
:400D40000B800D020E0811801220130116041A221B211C081D461F042541271828402A402F293240330136103704380839803A203D0258105A40628063086D406F02782023
:400D80007A847B407C028120820483028708888489028B448E408F109049918092459303954096229708985A99209A649B459CA09D409F18A230A562A680A75FA808AA01B2
:400DC000AB08AE01B010B120B222B310B404B509B608C0FDC25FC44DCA79CC69CE8ED60CD80CDE80E010E280E480E620E872EA81EC8E1010168030203308364838083B20F9
:400E00003E8086408920C430CCF0CE70E64006020F083140320237808102940897209810A120A420A708AE08C080C280CC70E420EA1005021390520457045C08600861202A
:400E400080049408972098109A069D429F80A120A304A420A602AA04B708C020C440D460D680D840E680EA801B011C4061208B10972098109A029D40A120AC20AE02AF1056
:400E8000C630D840E810EA4012208740C40801800B200D40521096019740AE01B620C002C209D404EA08010405021B0826018308932096019740A710A940AE10B580B7103C
:400EC000C00CC608C801EA08EE020A010B400F20402047208C1096019740A201A710AF10B106C20ED006E008EA0522025004560257045B40830490409A029B109D40A30125
:400F0000B010B710C840D4E0D620E620034004085B1063026604778087018E0494089B909F40A301A840AB80AE02B140C030D480D640D880DE20E410E840EA80EC200B018C
:400F40000E085C1060806602820590109C209F20A201C203D604D803AA02AB01ACA0AF20101311011A131B011C131D0100AB01FF100A0000130100000000000001010301CB
:400F8000130011010800800E060000001100000018878700070000004000300F0F000F00C0000000C03C3C00340000000800940B0B0008000000000003F8F8003800000084
:400FC00000010000000000000000000000000000000000000000000000000000000000000000000000000000000000000000000000000000000000000000000000000000F0
:4010000000000000000000000000000000000000000000000000000000000000000000000000000000000000000000000000000000000000000000000000000000000000B0
:401040000000000000000000000000000000000000000000000000000000000000000000000000000000000000000000000000000000000000000000000000000000000070
:401080000000000000000000000000000000000000000000000000000000000000000000000000000000000000000000000000000000000000000000000000000000000030
:4010C00000000000000000000000000000000000000000000000000000000000000000000000000000000000000000000000000000000000000000000000000000000000F0
:0200000490006A
:0400000000004007B5
:0200000490105A
:04000000BC90ACAF55
:0200000490303A
:020000000507F2
:0200000490402A
:4000000000000000000000000000000000000000000000000000000000000000000000000000000000000000000000000000000000000000000000000000000000000000C0
:400040000000000000000000000000000000000000000000000000000000000000000000000000000000000000000000000000000000000000000000000000000000000080
:400080000000000000000000000000000000000000000000000000000000000000000000000000000000000000000000000000000000000000000000000000000000000040
:4000C0000000000000000000000000000000000000000000000000000000000000000000000000000000000000000000000000000000000000000000000000000000000000
:0200000490501A
:0C00000000012E16106900012E2415705E
:00000001FF