:400000000080002011000000C1060000C106000080B500AF024A034B1B68136000F05AFBBC760040FA46004010B5054C237833B9044B13B10448AFF300800123237010BD34
:400040006881FF1F0000000054370000084B10B51BB108490848AFF300800848036803B910BD074B002BFBD0BDE81040184700BF000000006C81FF1F54370000C880FF1FAC
:400080000000000090B583B000AF164B1B78DBB2012B23D0002000F08BFC0346FB80124B1B889BB25A1C91B20F4A11801C46B7F90630184600F098FC03469AB20B4B23F8FE
:4000C0001420094B1B889BB2B3F5806F07D1054B01221A70044B00221A8000E000BF0C37BD4690BD9681FF1F9881FF1F9082FF1F80B584B000AF62B60121002000F040FDA4
:400100002A4800F063F800F0F7FC294803F036F900F036FC03F0AEF90123FB81254B1B78DBB2012B29D1244800F050F80023BB8116E0BB89214A32F813309BB218463B1D62
:400140000A22194603F0ADFA00237B723B1D184600F03CF81A4800F039F8BB890133BB81BB89B3F5806FE4D3164800F02FF8114B00221A700123FB81D0E7134B1B889BB285
:40018000FA899A42CAD0104B1B889BB2013B0B4A32F813309BB21B099BB2DBB2184603F0BDF9094B1B88FB81B8E700BF58370000850000009681FF1F743700009082FF1FB6
:4001C000B8370000BC3700009881FF1F80B582B000AF786000BF00F0E9FF0346002BFAD07B683F3300221A707B683E3321221A70786803F06BFA03469BB21946786800F004
:400200009FFF00BF0837BD4680BD00BF80B582B000AF786039603A680021786803F04EFA00BF0837BD4680BD80B584B000AFF860B9607A607A68B968F86803F034FA00BFDA
:400240001037BD4680BD00BF80B483B000AF0346FB71FEE780B487B000AF7860396000233B6100237B6127E07B699B007A6813441B68BB60BB68FB73BB6823F0FF03BB60FE
:4002800014E03B695B003A6813441B781A46BB68134419463B695B003A6813445B780B703B6901333B61FB7B013BFB73FB7B002BE7D17B6901337B617B692B2BD4D900BFB9
:4002C0001C37BD4680BC704780B582B000AF3C4B04221A803B4B18221A703B4B14221A803A4B18221A703A4B3B221A80394B18221A70394B77221A80384B1C221A70384B26
:4003000081221A80374B18221A70374B06221A70364B52221A70364B364A1278D2B21A70354B40F619121A80344B41F251221A800023FB7019237B6014E0FB785B00DAB2C1
:400340002F4B1B78DBB203F00103DBB21343DBB203F00303FB704FF4F07003F00DF97B68013B7B607B68002B02D0FB78032BE4D17B68002B02D10320FFF766FF214B4FF43E
:4003800080721A801F4B07221A701F4B00221A701E4B48221A701B4B00221A701C4B00221A701C4B02221A701B4A1B4B1B78DBB243F01F03DBB2137000BF0837BD4680BD59
:4003C00080400040824000408440004086400040884000408A4000408C4000408E40004090400040924000400043004000420040A14600400F0100492242004020420040D8
:40040000254200400440004006400040084000400940004001400040A243004080B582B000AF224B1B78FB71214B1B78BB71214B1B787B71204AFB7903F00703DBB21370D1
:400440001E4AFB791B09DBB21370194ABB7943F00303DBB21370174A7B7943F00303DBB21370174B20221A70164B80221A70164B80221A70154B01221A70154B20221A706D
:40048000144B20221A70144B20221A700A2002F0B3FE084A7B791370054ABB7913700F4B44221A7000BF0837BD4680BDCF010049F8460040F94600406E5800406F5800409F
:4004C0000D5100401C510040095900409B5A0040285B00402B5B0040585B00407658004080B586B000AF72B6584B61221A70FFF7EBFE564B01221A70554A554B1B78DBB2D2
:4005000043F00403DBB213700023FB7513E0FA7D13465B0013445B004E4A13443B613B691A683B699B889BB219461046FFF76EFEFB7D0133FB75FB7D062BE8D90023FB7519
:400540001CE0FA7D13469B0013445B00424A1344FB60FB681B68BB60FB685B687B60FB681A7A5B7A1B0213437B807B881A467968B868FFF759FEFB7D0133FB75FB7D002B78
:40058000DFD036494FF09040FFF764FE04213448FFF73CFE042233493348FFF745FE334B334A1A60334B324A1A60334A324B1B78DBB243F00203DBB21370304A2F4B1B78AD
:4005C000DBB243F00203DBB213702D4A2C4B1B78DBB243F04003DBB213702A4A294B1B78DBB243F01003DBB21370082226492748FFF71AFE082226492648FFF715FE0A22E2
:4006000025492648FFF710FE082225492548FFF70BFE0A2224492548FFF706FE082224492448FFF701FE244A234B1B78DBB243F00803DBB21370FFF7F1FE0E2210491F48BF
:40064000FFF7F2FD00BF1837BD4680BD00480040E8460040C0370000EC370000B000004800760040CC0F004808760040D8020140040400445814014003500140135001405C
:40068000A0430040C2430040940F0048025100409C0F0048C2510040A40F0048F0510040B00F004812510040B80F004820510040C40F00483251004022430040B043004072
:4006C00080B500AF02F0AAFF03461B680C2B00D1FEE7FEE780B586B000AF224B7B61224B3B61204B7B6135E03B691B68FB603B695B68BB603B699B683B6000237B600CE0E5
:40070000FB681A68BB681A60BB680433BB60FB680433FB607B6804337B607A683B689A42EED13B69DB683B6000237B6008E0BB6800221A60BB680433BB607B6804337B6027
:400740007A683B689A42F2D13B6910333B617B69013B7B617B69002BC6D102F065FFFFF7C7FCFEE701000000F439000080B582B000AF194B194A1A60194A194B1B6843F436
:400780000073136000237B600FE07B68032B04D8144A7B6852F8233000E0134B13497A6841F822307B6801337B607B682F2BECD90F4B1B78DAB20F4B1A700F4B0B4A1A601A
:4007C000FFF78EFE02F0F0FA0C4B00221A6000BF0837BD4680BD00BF0CED00E00004FA0514ED00E000000000C10600000080FF1FBC760040C480FF1F08ED00E0C080FF1F82
:4008000080B500AF41F6FF734FF480420121022002F032FA03461A460A4B1A7041F6FF7341F6FF720121022002F058FA03461A46054B1A70054802F083FA002002F092FA86
:4008400000BF80BDA081FF1FA181FF1F090A000080B582B000AF414B1B78184602F018FB3F4B1B78184602F013FB3E4B1B78FF2B05D102F019FC03461A463A4B1A70394B78
:400880001878384B1A780623022102F03BFC354B1B78354A92B245F6A231184602F072FC2E4B1A782F4B1B781946104602F08EFB2E4B1B78FF2B05D102F0F6FB03461A469C
:4008C0002A4B1A70294B1878284B1A780723022102F018FC254B1B78234A91B2244A92B2184602F04FFC1E4B1A78204B1B781946104602F06BFB194B1B780121184602F02E
:4009000081FA174B1B780121184602F07BFA02F03BFE0346FB71174A164B1B78DBB243F02003DBB21370FB79184602F031FE124A114B1B78DBB243F00103DBB213700E4ACE
:400940000D4B1B78DBB243F00203DBB213700B4B01221A6000BF0837BD4680BDA081FF1FA181FF1FCC80FF1FA481FF1FCD80FF1F908AFF1F986500407C64004080E200E018
:4009800080B500AF084B1B68002B04D1FFF738FF054B01221A6002F037F8FFF759FF034B1B7800BF80BD00BF9C81FF1F6064004080B483B000AF0346FB80FB885B42084ACD
:4009C00032F913309AB2074B1B881BB29BB2D31A9BB21BB218460C37BD4680BC704700BF908AFF1F4A8BFF1F80B582B000AF0346FB80B7F90630184602F0F8F803461846FF
:400A00000837BD4680BD00BF80B400AF00BFBD4680BC704780B500AF214A214B1B78DBB203F00103DBB213701E4A1E4B1B78DBB223F00303DBB213701B4A1B4B1B78DBB2F9
:400A400023F03003DBB21370174A174B1B78DBB243F03003DBB21370134A134B1B78DBB223F00F03DBB213700F4A0F4B1B78DBB243F00F03DBB213700C4A0C4B1B78DBB2C2
:400A800043F00103DBB21370312000F057F8312000F066F8002000F041F800BF80BD00BF184F00401A4F0040234F0040194F004080B400AF0D4A0D4B1B78DBB243F0040326
:400AC000DBB213700A4A0A4B1B78DBB243F00403DBB21370074A074B1B78DBB243F00103DBB2137000BFBD4680BC7047A3430040B3430040184F004080B500AF064B1B7849
:400B0000002B04D1FFF786FF034B01221A70FFF7CFFF00BF80BD00BFA681FF1F80B483B000AF0346FB71044AFB79137000BF0C37BD4680BC704700BF1B4F004080B485B0A1
:400B400000AF0346FB71FB79FB81044AFB89138000BF1437BD4680BC704700BF1C4F004080B483B000AF0346FB71044BFA7992B21A8000BF0C37BD4680BC70471E4F004042
:400B800080B582B000AF03460A46FB711346BB71094B1B78002B04D100F010F8064B01221A70BA79FB791146184600F0D9F800BF0837BD4680BD00BFA781FF1F80B582B0F1
:400BC00000AF02F0E1FC0346FB71544A534B1B78DBB243F00103DBB21370514A504B1B78DBB243F00103DBB213704E4B01221A704D4B02221A704D4A4C4B1B78DBB203F0B5
:400C00007F03DBB21370002002F0F6FA484A484B1B78DBB223F00603DBB21370454A454B1B78DBB223F02003DBB21370404A404B1B78DBB243F00103DBB21370012002F09B
:400C4000DBFA282002F0D8FA3B4A3B4B1B78DBB203F07F03DBB21370374A374B1B78DBB223F04003DBB21370314A314B1B78DBB243F00203DBB21370022002F0BDFA2C4ABA
:400C80002B4B1B78DBB243F00403DBB213702B4B00221A702A4B00221A70FB79184602F077FC0721172002F0E3FA2649172002F0B7FA0721182002F0DBFA2349182002F0A6
:400CC000AFFA0721152002F0D3FA2049152002F0A7FA0721012002F0CBFA1D49012002F09FFA0721022002F0C3FA1A49022002F097FA0721032002F0BBFA1749032002F084
:400D00008FFA07210C2002F0B3FA14490C2002F087FA00BF0837BD4680BD00BFA5430040B54300409D60004009600040106000409443004012600040F851004084600040D2
:400D40008560004079190000611200006D19000085180000CD180000191900008519000080B582B000AF03460A46FB711346BB712E4AFB7913702E4B00221A702D4B0022A3
:400D80001A702D4B00221A702C4B00221A702C4B00221A702B4B00221A702B4B00221A702A4B4FF400021A60284B4FF080721A60264B4FF400121A60244B02221A60234BEE
:400DC00004221A60214B08221A60BB79002B02D0012B09D011E01E4A1D4B1B78DBB223F00103DBB2137011E0194A194B1B78DBB243F00103DBB2137008E0154A144B1B78AD
:400E0000DBB243F00103DBB2137000BF114B03221A70114B80221A70012002F0ADFB0F4B04221A7000BF0837BD4680BDAD8AFF1FB08AFF1FCC8AFF1FCF8AFF1FC48AFF1F85
:400E4000CE8AFF1FD18AFF1FAC8AFF1F00E100E00960004028600040086000401260004080B400AF0F4B00221A700F4B00221A700E4B00221A700E4B00221A700D4B002230
:400E80001A700D4B00221A700C4B00221A700C4B03221A700B4B80221A7000BFBD4680BC704700BFB08AFF1FCC8AFF1FCF8AFF1FC48AFF1FCE8AFF1FD18AFF1FAC8AFF1FB3
:400EC000286000400860004080B483B000AF0346FB71FA79064913465B0013449B000B4401331B78DBB218460C37BD4680BC7047D48AFF1FB0B485B000AF03463960FB7103
:400F00001346BB80FB79002B6DD0FB79082B6AD8B988FA79364813465B0013449B00034406331B889BB2C3F5007399420CD9FA792F4913465B0013449B000B4406331B8869
:400F40009BB2C3F50073BB802A4CF979BB881B0A9BB2D8B2FA79264D13465B0013449B002B4403331B78DBB20343DAB20B0123441A70204AFB79B988C9B21B011344013336
:400F80000A461A703B68002B13D00023FB810CE01948FB79FA8939680A4412781B01034408331A70FB890133FB81FA89BB889A42EED3FA790E4913465B0013449B000B44CC
:400FC000013300221A700B48F979FA79084C13465B0013449B00234405331B78DAB20B01034402331A7000BF1437BD46B0BC7047D48AFF1FFC5F00407060004080B582B051
:4010000000AF0023FB71314B1B79DBB2184600F067F80346BB712D4B1B78DBB25BB2002B15DA2A4B5B78DBB2212B00D048E0284B07221A80BA791346DB009B1A254A1344C3
:40104000234A536000F086FA0346FB7138E01F4B5B78DBB2202B02D0222B1AD030E01C4B07221A80BA791346DB009B1A194A1344174A5360BB79BA7917498A5CD2B242F06E
:401080000102D1B2144AD15400F0E2FA0346FB7116E0BB790D4A9278D2B291B20F4A22F81310BB79BA790C498A5CD2B242F00202D1B2094AD15400F069FB0346FB7100BF9F
:4010C000FB7918460837BD4680BD00BF00600040B88AFF1FD080FF1F948AFF1FA88AFF1F80B485B000AF0346FB710023FB73FF23BB7317E0FB7B104AD35C7B737A7B0F4907
:4011000013465B0013449B000B440A331B78DBB2FA799A4203D1FB7BBB730223FB73FB7B0133FB73FB7B012BE4D9BB7B18461437BD4680BC704700BF9C8AFF1FD48AFF1F38
:4011400080B584B000AF78600B467B80144B1B781A46144B9B5CFB73FA7B134913465B0013449B000B4408331B889BB27A889A420CD9FA7B0C4913465B0013449B000B44AA
:4011800008331B887B80002002F02AF87A88FB7B79681846FFF7AEFE00BF1037BD4680BDA881FF1F988AFF1FD48AFF1F80B500AF054B1B781A46054B9B5CDBB21846FFF731
:4011C00083FE0346184680BDA881FF1F988AFF1F80B485B000AF78600B46FB701346BB707B68DB7803F00303FB737B689B785BB2002B1ADAFB7B032B0AD0BB7803F001036C
:401200001449FA78CA54BB7843F00103BB701BE0BB789B08DBB203F001030F49FA78CA54BB7843F00403BB700EE0FB7B032B0BD0BB785B08DBB203F001030849FA78CA54EF
:40124000BB7843F00203BB70BB7818461437BD4680BC7047988AFF1F9C8AFF1FA08AFF1F80B582B000AF374B1B78BB71BB7903F01003002B62D00123FB7197F90630002BCB
:4012800012DABB7903F00F03012B02D00023FB711CE000F061F82C4B1B78DBB25BB2002B14DA0023FB7111E0BB7903F04003002B02D000F095F809E0BB7903F02003002BB8
:4012C00002D000F0B3F801E00023FB71FB79002B34D01C4B1B78BB7197F90630002B2DDB1A4B1B78DAB21A4B1B78DBB21343BB71184ABB791370174B1B78DBB2BA799A421A
:401300001CD1114B1B78FB710E4B1B78DBB223F07F03BB71BB79002B0AD10A4B0A4A1278D2B21A70074B1B78DBB203F00F03FB71054B1B78DBB2FA799A42E2D100BF08375D
:40134000BD4680BD28600040CD8AFF1F428BFF1FD08AFF1F2960004080B582B000AF1D4B1B78FB711B4AFB7913701A4B1B78FB7197F90730002B03DA174AFB79137025E05B
:40138000022000F045FA154B1B78DBB203F06003202B08D0402B0BD0002B0ED100F0F8FA0346FB710CE002F0F7F80346FB7107E001F000FB0346FB7102E00023FB7100BFC2
:4013C000FB79002B02D1044B03221A7000BF0837BD4680BD28600040CD8AFF1F0060004080B500AF104B1B78DBB2062B19D801A252F823F02314000023140000111400004E
:401400002314000017140000231400001D14000000F0F8F806E000F0A7F903E000F0D2F900E000BF00BF80BDB08AFF1F80B500AF124B1B78DBB2062B1DD801A252F823F074
:4014400077140000771400005D1400007714000063140000771400006914000000F0D8F80AE000F027F907E0032000F0D1F9044B03221A7000E000BF00BF80BDB08AFF1F6C
:40148000CD8AFF1F80B483B000AF0023FB71294B1B78DBB29AB2284B1B889BB213449AB2254B1A8015E02549FB79254A52681278D2B2CA54224B5B680133214A5360FB7900
:4014C0000133FB711E4B1B889BB2013B9AB21C4B1A801B4B1B889BB2002B02D0FB79072BE1D9144B1B78DBB2082B02D0FB79002B0FD0144B1B78DBB283F07F03DB43DAB297
:40150000104B1A70104B0F221A70104B02221A7005E00D4B02221A700C4B02221A700C4AFB791370034AFB79137000BF0C37BD4680BC7047AC8AFF1FAE8AFF1F00600040E4
:40154000B88AFF1F428BFF1FCD8AFF1FB08AFF1FD08AFF1F80B582B000AF164B1B889BB2002B02D100F02EF81EE0134B02221A70124B00221A7000F06BF9114BDB79DBB2BC
:401580009BB21B029AB20E4B9B79DBB29BB21343FB80084B1B889BB2FA889A4202D2054AFB881380FFF76EFF012318460837BD4680BD00BFB88AFF1FB08AFF1F428BFF1FBD
:4015C0000060004080B400AF094B02221A70094B80221A70084B0F221A70084B00221A70074B00221A7001231846BD4680BC7047B08AFF1F428BFF1FCD8AFF1FAC8AFF1F57
:40160000D08AFF1F80B500AFFFF73CFF00BF80BD80B500AF0A4B1B78DBB29AB2094B1B889BB213449AB2074B1A80074B00221A70012000F0EDF8054B03221A7000BF80BDBA
:40164000AC8AFF1FAE8AFF1FB08AFF1FCD8AFF1F80B582B000AF124B04221A70114B80221A7000F0F5F8104BDB79DBB29BB21B029AB20D4B9B79DBB29BB21343FB800B4B0C
:401680001B889BB2FA889A4202D2084AFB881380074B0B221A70012318460837BD4680BDB08AFF1F428BFF1F00600040B88AFF1FCD8AFF1F80B483B000AF0023BB71234B0B
:4016C0001B78DBB203F00F03DBB2023BFB71FB799AB21F4B1B889BB213449AB21C4B1A8018E01C4B5B681C49BA798A5CD2B21A70184B5B680133174A5360BB790133BB7121
:40170000FB79013BFB71134B1B889BB2013B9AB2104B1A800F4B1B889BB2002B02D0FB79002BDED10D4AFB7913700D4B1B78DBB283F07F03DB43DAB2094B1A70094B0B2269
:401740001A7000BF0C37BD4680BC704729600040AE8AFF1FB88AFF1F00600040D08AFF1F428BFF1FCD8AFF1F80B500AF054B00221A70012000F04CF8034B03221A7000BFFF
:4017800080BD00BFB08AFF1FCD8AFF1F80B400AF084B06221A70084B06221A70074B80221A70074B00221A7001231846BD4680BC704700BFB08AFF1FCD8AFF1F428BFF1F08
:4017C000D08AFF1F80B500AF0D4B1B78DBB2002B0AD00C4A0A4B1B78DBB263F07F03DBB21370074B00221A70074B00221A70012000F00EF8054B03221A7000BF80BD00BF93
:40180000CE8AFF1F08600040B08AFF1FCD8AFF1F80B483B000AF0346FB710B4B9B68002B0CD0094B9B68FA791A70074B9B68074A128892B25A80044B00229A6000BF0C3773
:40184000BD4680BC704700BFB88AFF1FAE8AFF1F80B400AF094B00221A80094B9B68002B07D0074B9B6800221A70054B9B6800225A8000BFBD4680BC704700BFAE8AFF1F97
:40188000B88AFF1F80B400AF0D4B01221A700D4B9B7C0D4B1B7BDBB203F00303012B08D0094BDB7BDBB283F07F03DB43DAB2064BDA73054B01225A7300BFBD4680BC704790
:4018C0000B600040FC5F0040D48AFF1F80B400AF0E4B02221A700E4B93F822300D4B1B7EDBB203F00303012B08D00A4BDB7EDBB283F07F03DB43DAB2064BDA76054B01229D
:401900005A7600BFBD4680BC704700BF0B600040FC5F0040D48AFF1F80B400AF104B04221A70104B93F832300F4B93F82430DBB203F00303012B0AD00B4B93F82730DBB2E1
:4019400083F07F03DB43DAB2074B83F82720064B012283F8252000BFBD4680BC704700BF0B600040FC5F0040D48AFF1F80B400AF00BFBD4680BC704780B500AFFFF770FA6E
:4019800000BF80BD80B500AF01F0FEF900BF80BD80B586B000AF0023FB759D4B1B78FB7100233B619B4B00221A8097F90730002B80F20481964B5B78DBB20A2B00F21B8280
:4019C00001A252F823F000BF131B0000F71D0000F71D0000F71D0000F71D0000F71D0000F5190000F71D0000871B0000F71D00009D1B0000864BDB78DBB2012B0ED100F05A
:401A000049FEB860BB685B68824A5360814B12221A80FFF79FFD0346FB75EEE17C4BDB78DBB2022B25D17A4B9B78DBB2184600F009FEB860BB68002B00F0DF81BB685B680E
:401A4000744A5360734B5B6803331B78DBB29BB21B029AB26F4B5B6802331B78DBB29BB213439AB26B4B1A80FFF774FD0346FB75C3E1674BDB78DBB2032B45D10023FB732C
:401A8000654B3B6109E03B691B78BB71BB793A6913443B61FB7B0133FB735D4B9B78DBB2FA7B9A4204D23B691B78DBB2002BEAD1574B9B78DBB2EE2B01D1584B3B61544B88
:401AC0009B78DBB2002B0BD0514B9B78DAB2544B1B7C9A4204D1534800F0ACF9514B3B613B691B78DBB2002B00F087813B691B78DBB29AB2474B1A80464A3B695360FFF7B6
:401B000029FD0346FB7578E101F046FD0346FB7573E1FB7903F00303002B20D0022B00D030E03C4B02221A80394B1B79DBB203F07F023D4913465B0013449B000B44023389
:401B40001B78DAB2394B1A70384B00225A70314B364A5A60FFF7FEFC0346FB7512E02D4B02221A80324B1B78DAB2304B1A702F4B00225A70274B2D4A5A60FFF7EBFC034672
:401B8000FB7500BF40E1234B01221A80214B294A5A60FFF7DFFC0346FB7535E11D4B01221A801B4B1B79DBB21A46234B1344194A5360FFF7CFFC0346FB7525E1144B5B78D8
:401BC000DBB2013B0A2B00F21A8101A252F823F0DB1C0000FF1D0000691D0000FF1D0000FD1B0000FF1D0000FF1D0000FF1D0000411C0000FF1D0000971C0000044B9B78AB
:401C0000DAB20E4B1A70FFF7C1FD0346FB75FBE000600040B88AFF1F643800006C3900000C380000548BFF1FD48AFF1FAC81FF1FD18AFF1FCF8AFF1F408BFF1FCE8AFF1F55
:401C4000744B9B787B717B79002B06D07B79013BDBB2184600F0F6FCB8607B79002B02D0BB68002B03D17B79002B40F0CA806A4B1B78DBB27A799A4208D0674A7B7913704C
:401C8000664B01221A70012000F0DCF9FFF77EFD0346FB75B5E000F055FE0346002B00F0B2805C4B1B793B715A4B1B79DAB25C4B1A703B795B4AD35CDAB23B795A49CB5CD9
:401CC000DBB29A4204D0554B01221A7000F08CFBFFF75CFD0346FB7595E0FB7903F00303012B20D0012B0CD3022B00D03BE0494B9B78DBB2002B31D100F078FD0346FB753B
:401D00002CE0444B9B78DBB2012B29D1474B1B78DBB223F00203DAB2444B1A70FFF736FD0346FB751CE03B4B1B79DBB2012B19D8384B9B78DBB2DB43DBB2364A1279D2B2D4
:401D4000114610463A4A125CD2B21340DAB2384B5A54FFF71BFD0346FB7503E000BF53E000BF51E000BF4FE0FB7903F00303012B20D0012B0CD3022B00D03BE0254B9B7887
:401D8000DBB2002B31D100F0BDFC0346FB752CE0204B9B78DBB2012B29D1244B1B78DBB243F00203DAB2214B1A70FFF7EFFC0346FB751CE0174B1B79DBB2012B19D8154BEB
:401DC0009B78DBB2DB43DBB2124A1279D2B211461046174A125CD2B21340DAB2144B5A54FFF7D4FC0346FB7503E000BF0CE000BF0AE000BF08E000BF06E000BF04E000BFDD
:401E000002E000BF00E000BFFB7D18461837BD4680BD00BF00600040CF8AFF1FCC8AFF1FC48AFF1FB48AFF1F408BFF1FD18AFF1F448BFF1FB0B58AB000AF7860324B07F101
:401E400014041D460FCD0FC42B682370002387F826307B68002B52D07B6822221A707B68013303221A7007F10C03184601F024FA022387F827303EE097F827307A681344C7
:401E800097F8262007F128010A4412F81C2C1209D2B207F128010A4412F8142C1A7097F8273001337A68134400221A7097F8273002337A68134497F8262007F128010A4413
:401EC00012F81C2C02F00F0207F128010A4412F8142C1A7097F8273003337A68134400221A7097F82630013387F8263097F82730043387F8273097F82730212BBCD900BFE2
:401F00002837BD46B0BD00BFF837000090B482B000AF0123FB7180E0464AFB791B0113440C221A70FA79444913465B0013449B000B4405331B78DBB2002B1CD0FA793E4942
:401F400013465B0013449B000B4404331B78DBB25BB2002B07DA394AFB791B01134402330C221A700EE0354AFB791B011344023308221A7006E0314AFB791B0113440233EB
:401F800080221A702B48F979FA792B4C13465B0013449B00234406331B889BB2DAB20B01034406331A702348F979FA79224C13465B0013449B00234406331B889BB21B0A35
:401FC0009BB2DAB20B01034407331A701948F979FA79194C13465B0013449B00234406331B889BB2DAB20B01034404331A701148F979FA79104C13465B0013449B002344C9
:4020000006331B889BB21B0A9BB2DAB20B01034405331A70FB790133FB71FB79082B7FF67BAF074BFF221A7000BF0837BD4690BC704700BF70600040D48AFF1FFC5F004023
:402040000A60004080B58AB000AF0346FB7100237B84002387F8273050E097F82720B34913465B0013449B000B4400221A7097F82720AE4913465B0013449B000B4402332E
:4020800000221A7097F82720A84913465B0013449B000B44033300221A7097F82720A34913465B0013449B000B44083300221A8097F827209D4913465B0013449B000B4477
:4020C0000A3300221A7097F82720984913465B0013449B000B44013300221A7097F82720924913465B0013449B000B44053300221A7097F82730013387F8273097F827300B
:40210000082BAAD9FB79002B16D0002387F825300EE097F82530864A0021D15497F82530844A0021D15497F82530013387F8253097F82530012BECD97F4B1B78DBB2002BB7
:4021400000F04A810023FB767B4B1B78DBB2013BDBB2184600F076FA78617B695B683B613B6907331B7803F04003002B08D0734B1B78DBB243F00103DAB2704B1A7007E010
:402180006E4B1B78DBB223F00103DAB26B4B1A707B6908337B617B691B7887F82730012387F82530B6E07B695B68FB61002387F82630A3E097F82520FB699B7803F07F034F
:4021C0009A4240F0938097F82520584913465B0013449B000B4408331B889AB2FB699B889A420CD297F82520FB6998884F4913465B0013449B000B44083302461A80FB6985
:402200001B781A464A4B9B5CDAB2FB695B789A426CD197F82520FB699878444913465B0013449B000B44043302461A7097F82520FB69D8783D4913465B0013449B000B446D
:4022400002461A70FB69DB7803F00303FB73FB699B785BB2002B1CDA97F82520FB7B012B01D1072000E00D20304913465B0013449B000B44053302461A7097F825202B498D
:4022800013465B0013449B000B44013301221A701BE097F82520FB7B012B01D1052000E00920224913465B0013449B000B44053302461A7097F825201C4913465B00134429
:4022C0009B000B44013300221A70FB699B790A2B03D0FB699B79022B08D1FA7E97F825301946F869FEF774FF0346FB76FB690833FB6197F82630013387F8263097F826201A
:4023000097F827309A42FFF455AF97F82530013387F8253097F82530082B7FF644AF7B695B68FB61002387F8253020E0D48AFF1F408BFF1FB48AFF1FCF8AFF1FD18AFF1FCE
:40234000FB699B7803F07F02FB691878244913465B0013449B000B440A3302461A70FB690833FB6197F82530013387F8253097F8252097F827309A42E2D300F09DF902460D
:40238000184B1A6000237B84012387F827301DE097F82720124913465B0013449B000B4406337A8C1A8097F827200D4913465B0013449B000B4408331B889AB27B8C13447F
:4023C0007B8497F82730013387F8273097F82730082BDDD9FFF79AFD00BF2837BD4680BDD48AFF1FC88AFF1F90B585B000AF8F4B1B78DBB2002B00F015818C4B1B78DBB27D
:40240000013BDBB2184600F01DF978607B6808337B607B681B78FB707B685B68BB60844B1B78BB700023FB73F7E0BB681B78BA789A4240F0EC80BB787E4AD35CDAB2BB68CE
:402440005B789A4240F0E380BB689B7803F07F037B70BB68DB7803F003033B707A78764913465B0013449B000B44033300221A707A78BB689878704913465B0013449B005E
:402480000B44043302461A707A78BB68D8786A4913465B0013449B000B4402461A707A78BB689888644913465B0013449B000B44083302461A80BB689B785BB2002B1ADA8F
:4024C0007A783B78012B01D1072000E00D205A4913465B0013449B000B44053302461A707A78554913465B0013449B000B44013301221A7019E07A783B78012B01D105203C
:4025000000E009204C4913465B0013449B000B44053302461A707A78474913465B0013449B000B44013300221A70444A7B781B011344023301221A70404879787A783E4CDC
:4025400013465B0013449B00234408331B889BB21B0A9BB2DAB20B0103441A70374879787A78354C13465B0013449B00234408331B889BB2DAB20B01034401331A70304818
:4025800079787A782C4C13465B0013449B00234406331B889BB2DAB20B01034406331A70274879787A78244C13465B0013449B00234406331B889BB21B0A9BB2DAB20B01E6
:4025C000034407331A701E4879787A781A4C13465B0013449B00234406331B889BB2DAB20B01034404331A70154879787A78124C13465B0013449B00234406331B889BB277
:402600001B0A9BB2DAB20B01034405331A70BB680833BB60FB7B0133FB73FA7BFB789A42FFF403AF00BF1437BD4690BDCF8AFF1FC48AFF1F408BFF1FD48AFF1FFC5F004050
:402640007060004080B485B000AF0346FB710F4B1B78DBB20E4ADB0013445B68FB60FB681033FB60FB681B78FA799A4202D30023FB6005E0FB79DB00FA6813445B68FB60B7
:40268000FB6818461437BD4680BC7047AD8AFF1F6439000080B400AF054B1B78DBB2054ADB0013445B681846BD4680BC704700BFAD8AFF1F6439000080B584B000AF104B17
:4026C0001B78DBB2013BDBB21846FFF7BBFFB860BB68002B0DD0BB685B681B79FB71FB790233DB00BA681344BB60BB685B68FB6001E00023FB60FB6818461037BD4680BDBA
:40270000CF8AFF1F80B582B000AF0023FB71344B1B79DBB203F07F03BB71BB79002B5AD0BB79082B57D8BA79B9792E480B465B000B449B00034402331B78DBB243F00103D9
:40274000D8B2284913465B0013449B000B44023302461A70BA79234913465B0013449B000B44033300221A70BA79B9791D480B465B000B449B00034401331B78DBB243F0BE
:402780000203D8B2174913465B0013449B000B44013302461A70BA79124913465B0013449B000B4404331B78DBB25BB2002B07DA0D4ABB791B01134402338D221A7006E0EA
:4027C000094ABB791B011344023389221A70FEF7DDFF0346FB71FB7918460837BD4680BD00600040D48AFF1FFC5F004080B582B000AF0023FB71504B1B79DBB203F07F0311
:40280000BB71BB79002B00F09280BB79082B00F28E80BA79B97949480B465B000B449B00034402331B78DBB223F00103D8B2434913465B0013449B000B44023302461A7053
:40284000BA793E4913465B0013449B000B44033300221A703A49BB793948BA79120102441278D2B202F07F02D2B21B010B441A70BA79B97931480B465B000B449B0003444E
:4028800001331B78DBB223F00203D8B22B4913465B0013449B000B44013302461A70BA79264913465B0013449B000B4404331B78DBB25BB2002B1BDABA79204913465B0048
:4028C00013449B000B4401331B78DBB2012B07D11B4ABB791B01134402330C221A7022E0174ABB791B01134402330D221A701AE0BA79124913465B0013449B000B4401339D
:402900001B78DBB2012B07D10D4ABB791B011344023308221A7006E0094ABB791B011344023309221A70FEF731FF0346FB71FB7918460837BD4680BD00600040D48AFF1F7B
:40294000FC5F004080B584B000AF0023FB73154B1B79BB73144B1B78DBB2013BDBB21846FFF770FEB860BB685B681B79FB71BA7BFB799A4202D9BB7B022B0ED8BB7BBA7BD5
:402980000A498A5CD1B20A4AD154BB7B054A9278D1B2064AD1540123FB73FB7B18461037BD4680BD00600040CF8AFF1F408BFF1FB48AFF1F80B582B000AF0023FB710F4B13
:4029C0001B78DBB25BB2002B12DA0C4B5B78DBB2012B00D00CE00A4B0A4A5A60094B1B789AB2074B1A80FEF7B5FD0346FB7100BFFB7918460837BD4680BD00BF00600040A7
:402A0000B88AFF1F8039000080B500AF064B1B78002B04D100F00AF8034B01221A7000F01BF800BF80BD00BFAE81FF1F80B500AF074A074B1B78DBB243F00603DBB21370CA
:402A4000082000F06BF8034B00221A8000BF80BD09590040508BFF1F80B582B000AF00F093FD0346FB71254A244B1B78DBB243F00203DBB21370224A214B1B78DBB243F07E
:402A80000203DBB213701F4B1B78BB71BB7943F00203BB71BB7943F00103BB71194ABB791370194B04221A70184A184B1B78DBB243F04003DBB21370144A144B1B78DBB233
:402AC00023F00303DBB21370114B4E221A70114B02221A70104A104B1B78DBB243F00803DBB213700A2000F087FBFB79184600F04FFD00BF0837BD4680BD00BFAB43004055
:402B0000BB4300400B5900400E5900400D59004008590040164600402F5B004080B584B000AF0346FB71FB790A2B07D00C2B02D0082B06D008E0C423FB730BE08423FB73C3
:402B400008E04423FB7305E0C423FB73002000F047FB00BF054AFB7B1370FB79184600F007F800BF1037BD4680BD00BF0A59004080B584B000AF0346FB71FB790A2B08D04E
:402B80000C2B02D0082B08D00BE04FF48053FB600DE04FF48063FB6009E04FF48073FB6005E00023FB60002000F01AFB00BF0C4B00221A80FB6842F2107202FB03F303F55F
:402BC0008063002B01DA03F2FF73DB121A46054B1A60054B00221A8000BF1037BD4680BD488BFF1F4C8BFF1F4A8BFF1F80B485B000AF0346FB801D4B1B881BB2002B09D08B
:402C00001A4B1B881BB21A4613469B0013445B00FB6002E0164B1B68FB60164B1B881BB2FA889BB2D31A9BB2FB80B7F9063042F2107202FB03F2B7F90630002B04DDFB6805
:402C4000D90F0B445B1004E0FB68D90F0B445B105B421A44FB6892FBF3F37B81B7F90A3018461437BD4680BC704700BF488BFF1F4C8BFF1F508BFF1F90B585B002AF044660
:402C8000084611461A462346FB710346BB710B46BB8013467B80104B01221A700E4B1878BA79F9790023019300230093012300F0ABF9094B1B787A88B988184600F04AF96F
:402CC000054B1B780221184600F012F9024B1B7818460C37BD4690BDEA80FF1F90B585B002AF0446084611461A462346FB710346BB710B46BB8013467B80104B00221A7071
:402D00000E4B1878BA79F9790023019300230093002300F079F9094B1B787A88B988184600F018F9054B1B780221184600F0E0F8024B1B7818460C37BD4690BDEB80FF1F04
:402D400080B485B000AF7860054B1B68FB60FB6840337A681A6000BF1437BD4680BC704708ED00E080B483B000AF0346FB71054AFB795B01DBB2137000BF0C37BD4680BCF3
:402D8000704700BF00E400E080B400AF054B1B78DBB203F040039B09DBB21846BD4680BC704700BF8F45004080B483B000AF134B7F221A70124B80221A707F23FB710CE0D6
:402DC000FB79DB0003F1804303F5F043FA79013AD2B21A70FB79013BFB71FB79002BEFD1FB79DB0003F1804303F5F04300221A7000BF0C37BD4680BC704700BFED80FF1F4C
:402E0000EC80FF1F80B485B000AF03460A46FB711346BB710123FB60FB79172B2FD8BB79002B0ED0FB791A01184B1344FA791101164A0A441278D2B242F02002D2B21A7001
:402E40000DE0FB791A01114B1344FA7911010F4A0A441278D2B222F02002D2B21A70FB791A010A4B1344FA791101084A0A441278D2B242F00102D2B21A700023FB60FB6815
:402E800018461437BD4680BC704700BF1070004080B485B000AF0346FB710123FB60FB79172B1DD8FB791A01104B1344FA7911010E4A0A441279D2B242F00402D2B21A713B
:402EC000FB791A01094B1344FA791101074A0A441278D2B242F00102D2B21A700023FB60FB6818461437BD4680BC70471070004080B485B000AF03460A46FB711346BB7141
:402F00000123FB60FB79172B1BD8FB791A01104B13441B78DBB223F00E03FB72FB791A010B4B1344BA795200D2B252B202F00E0251B297F90B200A4352B2D2B21A700023EC
:402F4000FB60FB6818461437BD4680BC704700BF1070004080B485B000AF0346FB710B46BB8013467B800123FB60BB8841F6FF72934202D14FF40053BB807B8841F6FF723A
:402F8000934202D14FF400537B80FB79172B17D8FB79DB0003F1804303F5EC430433BB60BB68BA881A80FB79DB0003F1804303F5EC430633BB60BB687A881A800023FB60F7
:402FC000FB6818461437BD4680BC704780B485B000AF03460A46FB711346BB710123FB60FB79172B07D8FB791A01064B1344BA795A720023FB60FB6818461437BD4680BC1A
:40300000704700BF1070004090B484B000AF0446084611461A462346FB710346BB710B467B7113463B710123FB60FB79172B34D8FB79DB0003F1804303F5EC43BA7902F0C5
:403040007F02D1B27A79D201D2B20A43D2B21A70FB79DB0003F1804303F5EC433A7E1201D1B23A7902F00F02D2B20A43D2B25A70FB79DB0003F1804303F5EC433A7F02F07F
:403080000F02D2B29A70FB79DB0003F1804303F5EC430022DA700023FB60FB6818461037BD4690BC704700BF80B582B000AFFF23FB7100F069FA0346BB71104B1B78182BF0
:4030C00012D90F4B1B78FB710C4B1B78013BDAB20A4B1A70FB79DB0003F1804303F5F0431B78DAB2064B1A70BB79184600F050FAFB7918460837BD4680BD00BFEC80FF1F6A
:40310000ED80FF1F90B484B000AF0446084611461A462346FB710346BB800B46BB711346FB700123FB6097F90730002B23DBBB8823F47F6323F00F039BB2002B1BD1FB794C
:40314000DB0003F1804303F5F043BB60BB68BA881A80FB79DB0003F1804303F5F043BA799A70FB79DB0003F1804303F5F043FA78DA700023FB60FB6818461037BD4690BC48
:40318000704700BF80B485B000AF0346FB710B46BB8013467B800123FB6097F90730002B17DBFB79DB0003F1804303F5F0430433BB60BB68BA881A80FB79DB0003F1804301
:4031C00003F5F0430633BB60BB687A881A800023FB60FB6818461437BD4680BC704700BF80B483B000AF0346FB7101BE00BF0C37BD4680BC704700BF80B582B000AF0346B2
:40320000FB80FB88054A127802FB03F3184600F0B3F900BF0837BD4680BD00BFFC80FF1F80B584B000AF03463960FB710F4B1B68FB60FB791F2B02D90020FFF7D1FFFB79A2
:4032400003F01F0310339B00FA6813441B68BB60FB7903F01F0310339B00FA6813443A681A60BB6818461037BD4680BD08ED00E080B582B000AF03460A46FB711346BB714B
:40328000BB79072B02D90020FFF7AAFFFB791F2B02D90020FFF7A4FFFB7903F01F0303F1604303F56443BA795201D2B21A7000BF0837BD4680BD00BF80B483B000AF78607E
:4032C000264B1B78DBB21A467B681A60244B1B78DBB21B027A6812681A437B681A60214B1B78DBB21B047A6812681A437B681A601D4B1B78DBB21B067A6812681A437B68B8
:403300001A607B680433194A1278D2B21A60184B1B78DBB21A027B6804337968043109680A431A60134B1B78DBB21A047B6804337968043109680A431A600F4B1B78DBB289
:403340001A067B6804337968043109680A431A6000BF0C37BD4680BC704700BF0301004904010049EC460040020100490101004900010049050100490601004980B582B01A
:4033800000AF786000F03CF8786800F009F8072000F018F800F028F800BF0837BD4680BD80B485B000AF7860054B1B68FB60FB685C337A681A6000BF1437BD4680BC7047B0
:4033C00008ED00E080B483B000AF0346FB71054AFB795B01DBB2137000BF0C37BD4680BC704700BF07E400E080B400AF034B80221A6000BFBD4680BC704700BF00E100E0FA
:4034000080B400AF034B80221A6000BFBD4680BC704700BF80E100E080B500AF064B00221A70064B00221A70042000F057F8002000F034F800BF80BD2C5800402D58004088
:4034400080B400AF094A094B1B78DBB243F00803DBB21370064A064B1B78DBB243F00803DBB2137000BFBD4680BC7047A8430040B843004080B500AF074B1B78002B04D161
:40348000FFF7CAFF044B01221A70FFF7D9FF7D2000F044F800BF80BDAF81FF1F80B483B000AF0346FB710C4A0B4B1B78DBB223F00203DBB213700849074B1B78DAB2FB797B
:4034C00003F00203DBB21343DBB20B7000BF0C37BD4680BC704700BF2C58004080B582B000AF0346FB710C4A0B4B1B78DBB223F00C03DBB213700849074B1B78DAB2FB796F
:4035000003F00C03DBB21343DBB20B7000F016F800BF0837BD4680BD2C58004080B483B000AF0346FB71044AFB79137000BF0C37BD4680BC704700BF835B004080B483B052
:4035400000AF0B4B1B78DBB203F00C039B08DBB20633FB71074AFB7903F1924303F59C731B78DBB2137000BF0C37BD4680BC70472C5800400B4600400230800803D000BF7E
:4035800001380046FCD17047EFF3108072B6704780F31088704700BF80B582B000AF0023BB711B4B1B78DBB203F00303012B02D0022B04D012E0164B1B79FB7111E0144BB0
:4035C0001B79DBB203F07F02124913465B0013449B000B440A331B78FB7102E00023FB7100BFFB79022B0ED80B4B1A68FB7913441B78022B04D1FDF701FD0346BB7102E072
:403600000023BB7100BFBB7918460837BD4680BD00600040D48AFF1FC88AFF1F014B1868704700BF6481FF1F0E4B70B51E460E4C0025E41AA410A54204D056F8253098474A
:403640000135F8E700F0C4F9084B094C1E46E41AA4100025A54204D056F8253098470135F8E770BDDC390000DC390000DC390000E4390000931E222B10B50C4602D90020BA
:40368000087010BD0A2A06D1002804DA2D230B704042012100E00021214400F01FF8204610BDFFF7E7BF10B5431E0A44914204D011F8014B03F8014FF8E710BD0346024413
:4036C000934202D003F8011BFAE77047034613F8012B002AFBD1181A01387047F0B58BB003460F466D461A4C04F1200E2E4620686168083403C674453546F7D1217920683A
:403700003171911E222930604FF0000001D938701CE07D1EB3FBF2F402FB14330AAE334413F8283C411C05F8013F23460CB10846F0E77C543A18C11A8B4206DAF95C14781F
:40374000FC5402F801190133F5E738460BB0F0BDAA390000000000002A2D2D2D20524F4245525420495320474159202D2D2D2D2A000000002D2D2D2D2D2D2D2D2D2D2D2D96
:403780002D2D2D2D2D2D2D2D2D53616D706C652053746172742D2D2D2D2D2D2D2D2D2D2D2D2D2D2D2D2D2D2D2D2D2D2D2D2D2D2D2D2D2D2D000000000A0D00000D0A000043
:4037C000004F0040240040510040300000000140001000140140000800400140000A004C01400002105001401000000000500140840F004810000000303132333435363784
:403800003839414243444546000000001201000202000008B40432F2010001028001000009024300020101C032090400000102020103052400100104240202052406000112
:4038400005240100010705810308000A09040100020A000004070582024000000705030240000000040309042C0343007900700072006500730073002000530065006D00CB
:40388000690063006F006E0064007500630074006F007200100355005300420055004100520054003803430044004300200043006F006D006D0075006E00690063006100D4
:4038C000740069006F006E00200049006E007400650072006600610063006500260343004400430020004400610074006100200049006E0074006500720066006100630084
:40390000650000000203000000008103080002000100820240000A000100030240000A00020A000001000000203800000300000008390000000000000000000000000000C7
:40394000000000000000000020390000010000000C38000000000000000000000100000024390000010000004C39000012034D0053004600540031003000300001000000E4
:40398000280000000001040001000000000000000001435955534200000030303030310000000000000000004300303132333435363738396162636465666768696A6B6C43
:4039C0006D6E6F707172737475767778797A0000F8B500BFF8BC08BC9E4670474D0000006D070000F8B500BFF8BC08BC9E46704729000000083A0000C880FF1FA000000046
:403A0000100A00000000000000000000FFFF000000C2010000000800C201000000080000A1200000000002000000FFFF807F0000030000000087930360EA00003C00000072
:403A4000000030750000000000000000000000000000000000000000000000000000000000000000A8390000000000000000000000000000000000000000000000000000C0
:403A80000000000000000000000000000000000000000000000000000000000000000000000000000481FF1F00000000000000000000000000000000000000000000000063
:403AC00000000000000000000000000000000000000000000000000000000000000000000000000000000000000000000000000000000000000000000000000000000000C6
:403B00000000000000000000000000000000000000000000000000000000000000000000000000000000000000000000000000000000000000000000000000000000000085
:403B40000000000000000000000000000000000000000000000000000000000000000000000000000000000000000000000000000000000000000000000000000000000045
:403B80000000000000000000000000000000000000000000000000000000000000000000000000000000000000000000000000000000000000000000000000000000000005
:020000040003F7
:0200000480007A
:4000000001450040064F004007520040015B0040056400400265004040000140300101404A02014051030140410401404E0501404E060140550701404E0801405909014085
:400040003E0A01404E0B0140510C0140490D0140300E01402C0F0140361401405915014054160140511701402E180140571901403B1A0140551B01401340014010410140FA
:400080001642014010430140044401400B450140084601400A4701400A480140124901400E4C0140084D014005500140035101407E0201200A4B0D20164B1930224B0120F2
:4000C000110818101918601861147C402F84810F8238836F8A0F8E72846F8B0F19021F03350137023F405401580459045B0F5C015D105F01803081018208830E843085225B
:4001000086048704882289228A058B048D088E808F20902C921093409401952096029708981C9B109C019D2E9E02A101A23CA480A50EA801AA42AB80AE80AF01B080B11ED8
:40014000B23CB380B403B560B640B701BA20BE01BF40D40FD804D904DB04DF01000401400401059006100B060E951012124016A017501C681D181E011F0421202302240A28
:40018000250127502D802E142F4030803120350136E037083C283D023E803F405B805C605E045F0178018384C0F5C2F3C4FDCAF0CCFCCEF0D6F8DE01E208E622030F05736B
:4001C0000601080E099E0AF00B600D300FC91096126814C515CF163A1730187F1CFE1DFD1E011F0224A32594265C276030FF35FF3E013F1054185604580459045B045D404D
:400200005F018001820C830189188B068D4A8F349120934094089514970A99069B189D209E029F40A001A11EA520A740A901AD0EB002B160B204B408B501B601B71EB880E7
:40024000BB02BE10BF10D40FD804D904DB04DF0500020408051006080A220D080E040F6110801610170819801AA81D012008228023412620284029082AA02E0831183241BA
:4002800034403680370838023A103B403D023E043F6858805A085B125C026124656066027B04800282028484868488028C049008930894049540961497C7980899109A209B
:4002C0009B029C119D819E509F0CA109A482A6A0A821AE20AF40B304B409B508C068C2F5C428CA4FCC5FCEFDD68FD8B6DE04E204E608010803010740090B0B04150C1702FC
:400300001907230F27202B102D0C2F013120330F35103740580459045C015F01802C82528402850E860488788C188D108E608F029301945095189628970498389B409C0211
:400340009D169E049F08A002A204A601A71EA918AB02AC60AE18AF20B006B140B201B301B478B51EB720BA02D608D804D904DB04DD90DF010110020203800511060207207E
:40038000081009400A080B020C200D040E021040124013041402162017011D111E101F30218C2211251026012729280229092B082E882F04302031083680372938083A0289
:4003C0003B203E043F405D6066A0830186048D409008934894029616978698099A089C109D4C9E409F0CA101A280A481A520A880AB10AC01B120B540C0FBC2E3C4BCCA7FE3
:40040000CCF6CE57D630D830E040E60DEA02EE014036410449FF4AFF4BFF4DA04F015018580459045A045C115F016040628064406540668068406A806C406D206E808001CF
:400440008608870888028E028F08910496089701980199019D089E04A001AF06B006B102B304B401B508B608B701B820BE50BF50C023C104C53EC6C2C740C82FC9FFCAFF54
:40048000CBFFCDAFCE07CF01D018D280D804D90FDA04DB04DC19DF01E040E280E440E540E680E840EA80EC40ED20EE80002A01020306070208080A150C400F851080155113
:4004C000174019401B1220202110224123082B022D512E202F8031803211330834403602370238083A803C103D803FA44010411043014501470949064F2050815120728011
:400500007801820183A08404850886018E1090089108922093089402951096049784980999019A029C429D4C9F04A1D1A280A320A4A1A520A602A788A920AA02C08FC2D71E
:40054000C4D8CAB8CC9FCE5AD0C7D220DE01E248E440E60EEE0409020B040D021F01260130013102330135043902403141064202440546E0470C481849FF4AFF4BFF4C620B
:400580004DA04EF04F41500C5608580459045A045B045C015D945F016640670269106A306B106D106E106F12821C846186969061928E9AA39C5C9E83A208A460A680B01AE5
:4005C000B4F0B60FBAA2C002C604C9FFCA07CBFFCC40CD20CEF0CF05D008D608D804D904DA04DB04DC14DD94DF01E040E1A8E240E32000040102051507200A810B040C088B
:400600000E200F0810A014011501162018041A811D021E4024082501260829142A8030083101368039053D043F9842044504460548104B044D204F4050C0572858905D8082
:4006400060026210664068026980811086448708882089028A028B208D808E14910192049361948495C096C1980199339A819C229E309F10A020A114A210A305A412A520C5
:40068000A605A720AA80B008B301B648C07CC26BC4BCCA0ECC13CE33D074D230D61CD81CE240E450030304170510070C080809140A110D1010171140138017C018201B200E
:4006C0001C021D1C1E141F0221092310250C261027112B802F40300C31E0322034033610371F38223E543F0140264105450C46B0470E481949FF4AFF4BFF4EF04F44500CEB
:4007000054015604580459045A045B045C445D445F0166C06A406B02D804D904DC11DF01002402080511084009040A810B980E600F0810301401150119461A042102234175
:40074000280229022A182C012E8230423214351138A43B013D013E403F08400448204A084B8050185304581059445B01608062806302808083048612871091019228931037
:4007800095C0964099319A819C229E309F10A110A290A304A402A522A605A720AF01B220B510C056C27BC494CA9FCCAFCEDFD004D20CD60FD801E602EA60EE010002060168
:4007C0000B0110011102130414041502171419021A101B0C1D041E441F022008262227012A883020310832403310341F35013680370638203B803E103F105203530258048E
:4008000059045B045C015D105F0183218480850686228B108D088F109040912192119521960C970698309AC39B089D04A106A321A4F3A502A604A8F3A927AA08AC51AD0784
:40084000AEA2AF20B20FB307B4F0B520B718B802BA08BB08BE01D804D904DC44DF0102100501062008020A280D210E620F80100211141420150117101A281B011C041D11E4
:400880001E21200A2208231026A2272029A22A082D012E012F2030903102320836863720380839803A113C206D206F0181018412870188048F40900891149404954296415F
:4008C000971099A29A899C029D019E10A090A304A403A618B102B280B611B708C034C2FEC477CA4FCCFFCE2FE220E640EA40EC20020C0408050108FF09010C3C0D010EC1DE
:40090000100414CF150616301AC31C7C1E822020210223042410283029062C042D022E082F04303F310232703304350136B039083AA23F0156025713580459045B045C44CF
:400940005D405F01AE01B401D804D904DC11DF01000201A0021004040501084209200B100D020E290F0810821324154219B21A201E082020212022012308284029922E80F7
:4009800032083501361439943C043E415A026994708472087324C03FC2FFC49FCA1DCCE2CEDED601E208E622000A04100530080609040D010E20120113011410180C19181C
:4009C0001F042010230324102528280C2D302E103030310432013301340E35383702382039203F055280540F580459045B045F0582018C968E6894FE9601A00EA2F0A4C537
:400A0000A63AA87FACA3AE5CB0FFBE01D804D904DC10DF0100400120028003200501060107010A500B080F2010401124120114421528181019211A041C40215022292802BF
:400A400029012B102D0230A232203782381039883D803E203F05410442105A8A5B1061046210700279208310840185048703880289048A048D088E20910892C0930D952082
:400A80009604984099069A309B919C029F02A081A150A280A330A420A508A608AB40AC10B244B480B640B710C09FC22EC4FFCA8BCC9DCEFED60FD806DE04E00AE401E60244
:400AC000E81CEA40EC28190135013F104064410349FF4AFF4BFF4DA04F015018580459045A045C115F016040628064406540668068406A806C406D206E8082028404859E30
:400B00008601876089738C0A8E05913093C99410970F98079A08A001A194A360A5FDA702A80FADCFAE30AF30B00CB220B3FFB403B610BF04C064C103C52EC6C3C704C81FD0
:400B4000C9FFCAFFCBFFCDAFCE07CF01D018D80FD904DA04DB04DC01DF01E040E280E440E540E680E840EA80EC40ED20EE80022003820502062007420A180F4510081101AC
:400B8000120117801A181B822020261028422A022B302D023109330137A239283D803E203F4540804108448045084640488049044A084E0852105348680578017B40822240
:400BC000838085038704880C8A108B408E108F01910892A0930896049705980199019A239B209C029F40A150A280A320A420A602A708B340B401B620C0BDC2D6C48BCA8BCC
:400C0000CCB3CEF6D0C3D224DE01E28BE440E60902020410062008200A100C800E401201160418401A801C042208240128082B012C02330134FF3E105602573E58045904BC
:400C40005B0C5C105D105F018404920194029802A008B002B208B401B604B802BE45D608D804D904DB04DC10DD90DF01032005050725080209100B240C180D020E220F4835
:400C8000130115011622171819021A081B881D202504272029042B042D10300931113220355539013A043D013F4858805F04600265026D506E026F157402760277087C014A
:400CC0007D017F028102820484028540861087208B148C098E4090089101932195409628971099119E229F10A113A210A305A520A605A740A880B010B208B501B680C0F48A
:400D0000C2FEC4F8CA26CCF7CED3D648D888DE10E060E4C0E631E840EEC10601100118012001240128012C0132015608580459045B045C115D905F018210833084208508FF
:400D400087018801890B8B048E08920E940195309620980899079C029D0C9E049F02A00FA30FA40EA802A90CAA04AB01AD20AE40AF10B01EB110B220B440B520B601B70F42
:400D8000B880BE44BF11D40FD804D904DB04DF01022004280640070108100A800B400D020E010F16100911091210148616201A201D021E081F462650278128102A102C0439
:400DC0002E012F023009326034083520364039013C103D023E203F04420C5A405E265F806002801082018404862087048A408B048C808D228E089028910192409350962083
:400E0000978098199A40A008A105A220A301A604AB0AAE40AF20B340B490B7C0C0F4C2FAC4FFCAB6CC7FCEE1D6F8D808E010E2A0E610E890EA40EC61EE8011081680300291
:400E40003310378238403A083E806B3080088320840287028B80C430CCF0CE70E290E6400340040830083240378063088040840894409E08A008A104C030CC70D840E63010
:400E800012081380510858085C08600882408C409008968098089B409F80A104A704AA08C440D420D6C0D840E680EE801B011D08810882088D048F0490089440A104A2087B
:400EC000A508A704AB40C630E0A0EC80860187108902E60400100B2023405A8096029710A502C002C208C802D40187409010936096829710A502A601AA0109020A020F1069
:400F00009010932096829710A502A601C20E00400710208089028F1090089440A301C060C8405840630266027502844099029A02A301AF01B040B404B602D480D640D880DB
:400F4000DE20E610EC101E0234013910820188049680A601A810B310C601CC01CE08E004EA047404A004AA40B001B110DE04E801EC04100311011A031C031D0100AB01FF03
:400F8000100A000013010000000000001300030113011300030000000020E400001C1C001C0000004000060000000000C0000000000B0B000000F4000800140A0A00080022
:400FC00000000000007B7B003800000000010000000000000000000000000000000000000000000000000000000000000000000000000000000000000000000000000000C2
:4010000000000000000000000000000000000000000000000000000000000000000000000000000000000000000000000000000000000000000000000000000000000000B0
:401040000000000000000000000000000000000000000000000000000000000000000000000000000000000000000000000000000000000000000000000000000000000070
:401080000000000000000000000000000000000000000000000000000000000000000000000000000000000000000000000000000000000000000000000000000000000030
:4010C00000000000000000000000000000000000000000000000000000000000000000000000000000000000000000000000000000000000000000000000000000000000F0
:0200000490006A
:0400000000004005B7
:0200000490105A
:04000000BC90ACAF55
:0200000490303A
:0200000073FF8C
:0200000490402A
:4000000000000000000000000000000000000000000000000000000000000000000000000000000000000000000000000000000000000000000000000000000000000000C0
:400040000000000000000000000000000000000000000000000000000000000000000000000000000000000000000000000000000000000000000000000000000000000080
:400080000000000000000000000000000000000000000000000000000000000000000000000000000000000000000000000000000000000000000000000000000000000040
:4000C0000000000000000000000000000000000000000000000000000000000000000000000000000000000000000000000000000000000000000000000000000000000000
:0200000490501A
:0C00000000012E16106900012E308468EB
:00000001FF