:400000000080002011000000B1040000B104000080B500AF054A054B1B6843F020031360034A044B1B68136000F04CFAE8460040BC760040FA46004010B5054C237833B911
:40004000044B13B10448AFF300800123237010BD3081FF1F0000000060160000084B10B51BB108490848AFF300800848036803B910BD074B002BFBD0BDE81040184700BFF0
:40008000000000003481FF1F60160000C880FF1F0000000080B500AF62B600F0A7FA00F075FBAA2000F002F8FBE700BF90B583B000AF786000F05EFB0346184601F0ECF88B
:4000C0000446786801F0E8F803461946204601F037F90346184600F09FFD4FF000021A4B00F018FF03460C461846214600F0FAFF0346DBB2184600F01DFB00F00BFC034631
:40010000184601F0C9F80446786801F0C5F803461946204601F014F90346184600F07CFD4FF00002084B00F0F5FE03460C461846214600F0D7FF0346DBB2184600F0CAFB35
:4001400000BF0C37BD4690BD0000594080B582B000AF786039603A680021786801F077FA00BF0837BD4680BD80B584B000AFF860B9607A607A68B968F86801F05DFA00BFFD
:400180001037BD4680BD00BF80B483B000AF0346FB71FEE780B487B000AF7860396000233B6100237B6127E07B699B007A6813441B68BB60BB68FB73BB6823F0FF03BB60BF
:4001C00014E03B695B003A6813441B781A46BB68134419463B695B003A6813445B780B703B6901333B61FB7B013BFB73FB7B002BE7D17B6901337B617B69112BD4D900BF94
:400200001C37BD4680BC704780B582B000AF304B3B221A802F4B18221A702F4B06221A702E4B52221A702E4B2E4A1278D2B21A702D4B40F619121A802C4B41F251221A8059
:400240000023FB7019237B6014E0FB785B00DAB2274B1B78DBB203F00103DBB21343DBB203F00303FB704FF4F07000F061FB7B68013B7B607B68002B02D0FB78032BE4D10F
:400280007B68002B02D10320FFF77EFF194B4FF480721A80174B07221A70174B00221A70164B48221A70134B00221A70144B00221A70144B02221A70134A134B1B78DBB21F
:4002C00043F00103DBB2137000BF0837BD4680BD80400040824000400043004000420040A14600400F01004922420040204200402542004004400040064000400840004073
:400300000940004001400040A243004080B483B000AF0B4B1B78FB710A4AFB7903F00703DBB21370084AFB791B09DBB21370074B44221A7000BF0C37BD4680BC704700BF5B
:40034000CF0100496E5800406F5800407658004080B582B000AF72B63F4B61221A70FFF753FF3D4B01221A703C4A3C4B1B78DBB243F02003DBB213700023FB7113E0FA796F
:4003800013465B0013445B00354A13443B603B681A683B689B889BB219461046FFF7D6FEFB790133FB71FB79062BE8D92D494FF09040FFF7EFFE2C4A2B4B1B78DBB243F08E
:4003C0000203DBB21370294A284B1B78DBB243F00203DBB21370264A254B1B78DBB243F04003DBB21370234A224B1B78DBB243F01003DBB213700A221F492048FFF7B4FE20
:4004000008221F491F48FFF7AFFE08221E491F48FFF7AAFE0A221E491E48FFF7A5FE0A221D491E48FFF7A0FE0A221D491D48FFF79BFE1D4A1C4B1B78DBB243F00803DBB22D
:400440001370FFF763FF0E2209491848FFF78CFE00BF0837BD4680BD00480040E846004064160000480000480350014013500140A0430040C2430040300100480051004057
:400480003C010048C251004044010048F25100404C010048105100405801004820510040640100483051004022430040B043004080B500AF01F094F803461B680C2B00D151
:4004C000FEE7FEE780B586B000AF224B7B61224B3B61204B7B6135E03B691B68FB603B695B68BB603B699B683B6000237B600CE0FB681A68BB681A60BB680433BB60FB68E0
:400500000433FB607B6804337B607A683B689A42EED13B69DB683B6000237B6008E0BB6800221A60BB680433BB607B6804337B607A683B689A42F2D13B6910333B617B69F8
:40054000013B7B617B69002BC6D101F04FF8FFF7A1FDFEE701000000B416000080B582B000AF184B184A1A60184A184B1B6843F40073136000237B600FE07B68032B04D8AD
:40058000134A7B6852F8233000E0124B12497A6841F822307B6801337B607B682F2BECD90E4B1B78DAB20E4B1A700E4B0A4A1A60FFF7CEFE0C4B00221A6000BF0837BD462D
:4005C00080BD00BF0CED00E00004FA0514ED00E000000000B10400000080FF1FBC760040C480FF1F08ED00E0C080FF1F80B500AF064B1B78002B04D100F00AF8034B0122BD
:400600001A7000F063F800BF80BD00BF4C81FF1F80B582B000AF284A274B1B78DBB243F00203DBB21370254B1B78DBB223F07003FB71224AFB7943F01003DBB21370204ABB
:400640001F4B1B78DBB223F03003DBB213701C4A1B4B1B78DBB243F03003DBB21370184A174B1B78DBB223F00F03DBB21370144A134B1B78DBB243F00F03DBB21370FF20CF
:4006800000F048F8802000F055F8002000F062F80C4A0C4B1B78DBB243F00103DBB21370094A094B1B78DBB243F00103DBB2137000BF0837BD4680BD004F0040024F004043
:4006C0000B4F0040A3430040014F004080B400AF0D4A0D4B1B78DBB243F00103DBB213700A4A0A4B1B78DBB243F00103DBB21370074A074B1B78DBB243F00103DBB2137097
:4007000000BFBD4680BC7047A3430040B3430040004F004080B483B000AF0346FB71044BFA7992B21A8000BF0C37BD4680BC7047044F004080B483B000AF0346FB71044B09
:40074000FA7992B21A8000BF0C37BD4680BC7047064F004080B483B000AF0346FB71044AFB79137000BF0C37BD4680BC704700BF034F004080B400AF034B1B889BB2DBB294
:400780001846BD4680BC7047044F004080B500AF064B1B78002B04D100F00AF8034B01221A7000F063F800BF80BD00BF4D81FF1F80B582B000AF284A274B1B78DBB243F05E
:4007C0000203DBB21370254B1B78DBB223F07003FB71224AFB7943F01003DBB21370204A1F4B1B78DBB223F03003DBB213701C4A1B4B1B78DBB243F03003DBB21370184A1E
:40080000174B1B78DBB223F00F03DBB21370144A134B1B78DBB243F00F03DBB21370FF2000F048F8802000F055F8002000F062F80C4A0C4B1B78DBB243F00203DBB2137025
:40084000094A094B1B78DBB243F00103DBB2137000BF0837BD4680BD0C4F00400E4F0040174F0040A34300400D4F004080B400AF0D4A0D4B1B78DBB243F00203DBB2137092
:400880000A4A0A4B1B78DBB243F00203DBB21370074A074B1B78DBB243F00103DBB2137000BFBD4680BC7047A3430040B34300400C4F004080B483B000AF0346FB71044B57
:4008C000FA7992B21A8000BF0C37BD4680BC7047104F004080B483B000AF0346FB71044BFA7992B21A8000BF0C37BD4680BC7047124F004080B483B000AF0346FB71044AF3
:40090000FB79137000BF0C37BD4680BC704700BF0F4F004080B400AF034B1B889BB2DBB21846BD4680BC7047104F0040000000000230800803D000BF01380046FCD170477B
:40094000EFF3108072B6704780F31088704700BF81F0004102E000BF83F0004330B54FEA41044FEA430594EA050F08BF90EA020F1FBF54EA000C55EA020C7FEA645C7FEACD
:40098000655C00F0E2804FEA5454D4EB5555B8BF6D420CDD2C4480EA020281EA030382EA000083EA010180EA020281EA0303362D88BF30BD11F0004F4FEA01314FF4801C91
:4009C0004CEA113102D0404261EB410113F0004F4FEA03334CEA133302D0524263EB430394EA050F00F0A780A4F10104D5F1200E0DDB02FA0EFC22FA05F2801841F1000163
:400A000003FA0EF2801843FA05F359410EE0A5F120050EF1200E012A03FA0EFC28BF4CF0020C43FA05F3C01851EBE37101F0004507D54FF0000EDCF1000C7EEB00006EEB82
:400A40000101B1F5801F1BD3B1F5001F0CD349085FEA30004FEA3C0C04F101044FEA445212F5800F80F09A80BCF1004F08BF5FEA500C50F1000041EB045141EA050130BD21
:400A80005FEA4C0C404141EB010111F4801FA4F10104E9D191F0000F04BF01460020B1FA81F308BF2033A3F10B03B3F120020CDA0C3208DD02F1140CC2F10C0201FA0CF0BF
:400AC00021FA02F10CE002F11402D8BFC2F1200C01FA02F120FA0CFCDCBF41EA0C019040E41AA2BF01EB0451294330BD6FEA04041F3C1CDA0C340EDC04F11404C4F1200211
:400B000020FA04F001FA02F340EA030021FA04F345EA030130BDC4F10C04C4F1200220FA02F001FA04F340EA0300294630BD21FA04F0294630BD94F0000F83F4801306BF68
:400B400081F480110134013D4EE77FEA645C18BF7FEA655C29D094EA050F08BF90EA020F05D054EA000C04BF1946104630BD91EA030F1EBF0021002030BD5FEA545C05D1D5
:400B80004000494128BF41F0004130BD14F580043CBF01F5801130BD01F0004545F0FE4141F470014FF0000030BD7FEA645C1ABF194610467FEA655C1CBF0B46024650EA1E
:400BC000013406BF52EA033591EA030F41F4002130BD00BF90F0000F04BF0021704730B54FF4806404F132044FF000054FF0000150E700BF90F0000F04BF0021704730B50E
:400C00004FF4806404F1320410F0004548BF40424FF000013EE700BF42004FEAE2014FEA31014FEA02701FBF12F07F4393F07F4F81F06051704792F0000F14BF93F07F4F7B
:400C4000704730B54FF4607401F0004521F0004120E700BF50EA010208BF704730B54FF000050AE050EA010208BF704730B511F0004502D5404261EB41014FF4806404F1BC
:400C800032045FEA915C3FF4DCAE4FF003025FEADC0C18BF03325FEADC0C18BF033202EBDC02C2F1200300FA03FC20FA02F001FA03FE40EA0E0021FA02F11444C1E600BFA7
:400CC00070B54FF0FF0C4CF4E06C1CEA11541DBF1CEA135594EA0C0F95EA0C0F00F0DEF82C4481EA030621EA4C5123EA4C5350EA013518BF52EA033541F4801143F48013C8
:400D000038D0A0FB02CE4FF00005E1FB02E506F00042E0FB03E54FF00006E1FB03569CF0000F18BF4EF0010EA4F1FF04B6F5007F64F5407404D25FEA4E0E6D4146EB0606D0
:400D400042EAC62141EA55514FEAC52040EA5E504FEACE2EB4F1FD0C88BFBCF5E06F1ED8BEF1004F08BF5FEA500E50F1000041EB045170BD06F0004646EA010140EA020084
:400D800081EA0301B4EB5C04C2BFD4EB0C0541EA045170BD41F480114FF0000E013C00F3AB8014F1360FDEBF002001F0004170BDC4F10004203C35DA0C341BDC04F114048B
:400DC000C4F1200500FA05F320FA04F001FA05F240EA020001F0004221F0004110EBD37021FA04F642EB06015EEA430E08BF20EAD37070BDC4F10C04C4F1200500FA04F385
:400E000020FA05F001FA04F240EA020001F0004110EBD37041F100015EEA430E08BF20EAD37070BDC4F1200500FA05F24EEA020E20FA04F301FA05F243EA020321FA04F0B2
:400E400001F0004121FA04F220EA020000EBD3705EEA430E08BF20EAD37070BD94F0000F0FD101F00046400041EB010111F4801F08BF013CF7D041EA060195F0000F18BFF7
:400E8000704703F00046520043EB030313F4801F08BF013DF7D043EA0603704794EA0C0F0CEA135518BF95EA0C0F0CD050EA410618BF52EA4306D1D181EA030101F00041F9
:400EC0004FF0000070BD50EA410606BF1046194652EA430619D094EA0C0F02D150EA013613D195EA0C0F05D152EA03361CBF104619460AD181EA030101F0004141F0FE41FB
:400F000041F470014FF0000070BD41F0FE4141F4780170BD70B54FF0FF0C4CF4E06C1CEA11541DBF1CEA135594EA0C0F95EA0C0F00F0A7F8A4EB050481EA030E52EA03355A
:400F40004FEA013100F088804FEA03334FF0805545EA131343EA12634FEA022245EA111545EA10654FEA00260EF000419D4208BF964244F1FD0404F5407402D25B084FEACF
:400F80003202B61A65EB03055B084FEA32024FF480104FF4002CB6EB020E75EB030E22BFB61A754640EA0C005B084FEA3202B6EB020E75EB030E22BFB61A754640EA5C001B
:400FC0005B084FEA3202B6EB020E75EB030E22BFB61A754640EA9C005B084FEA3202B6EB020E75EB030E22BFB61A754640EADC0055EA060E18D04FEA051545EA16754FEAE8
:4010000006164FEAC30343EA52734FEAC2025FEA1C1CC0D111F4801F0BD141EA00014FF000004FF0004CB6E711F4801F04BF01430020B4F1FD0C88BFBCF5E06F3FF6AFAE2F
:40104000B5EB030C04BFB6EB020C5FEA500C50F1000041EB045170BD0EF0004E4EEA113114EB5C04C2BFD4EB0C0541EA045170BD41F480114FF0000E013C90E645EA060E8F
:401080008DE60CEA135594EA0C0F08BF95EA0C0F3FF43BAF94EA0C0F0AD150EA01347FF434AF95EA0C0F7FF425AF104619462CE795EA0C0F06D152EA03353FF4FDAE10464D
:4010C000194622E750EA410618BF52EA43067FF4C5AE50EA41047FF40DAF52EA43057FF4EBAE12E74A0011D212F5001211D20DD56FF47873B3EB62520ED44FEAC12343F0B1
:40110000004343EA505323FA02F070474FF00000704750EA013002D14FF0FF3070474FF00000704780F0004002E000BF81F0004142001FBF5FEA410392EA030F7FEA226C52
:401140007FEA236C6AD04FEA1262D2EB1363C1BFD218414048404140B8BF5B42192B88BF704710F0004F40F4000020F07F4018BF404211F0004F41F4000121F07F4118BF3A
:40118000494292EA030F3FD0A2F1010241FA03FC10EB0C00C3F1200301FA03F100F0004302D5494260EB4000B0F5000F13D3B0F1807F06D340084FEA310102F10102FE2A66
:4011C00051D2B1F1004F40EBC25008BF20F0010040EA03007047490040EB000010F4000FA2F10102EDD1B0FA80FCACF1080CB2EB0C0200FA0CF0AABF00EBC250524218433A
:40120000BCBFD0401843704792F0000F81F4000106BF80F400000132013BB5E74FEA41037FEA226C18BF7FEA236C21D092EA030F04D092F0000F08BF0846704790EA010F49
:401240001CBF0020704712F07F4F04D1400028BF40F00040704712F100723CBF00F50000704700F0004343F0FE4040F4000070477FEA226216BF08467FEA23630146420294
:4012800006BF5FEA412390EA010F40F4800070474FF0000304E000BF10F0004348BF40425FEA000C08BF704743F0964301464FF000001CE050EA010208BF70474FF00003B8
:4012C0000AE000BF50EA010208BF704711F0004302D5404261EB41015FEA010C02BF84460146002043F0B64308BFA3F18053A3F50003BCFA8CF2083AA3EBC25310DB01FA23
:4013000002FC634400FA02FCC2F12002BCF1004F20FA02F243EB020008BF20F00100704702F1200201FA02FCC2F1200250EA4C0021FA02F243EB020008BF20EADC707047F6
:401340004FF0FF0C1CEAD0521EBF1CEAD15392EA0C0F93EA0C0F6FD01A4480EA010C400218BF5FEA41211ED04FF0006343EA501043EA5111A0FB01310CF00040B1F5000F83
:401380003EBF490041EAD3715B0040EA010062F17F02FD2A1DD8B3F1004F40EBC25008BF20F00100704790F0000F0CF0004C08BF49024CEA502040EA51207F3AC2BFD2F11C
:4013C000FF0340EAC250704740F400004FF00003013A5DDC12F1190FDCBF00F000407047C2F10002410021FA02F1C2F1200200FA02FC5FEA310040F1000053EA4C0308BF92
:4014000020EADC70704792F0000F00F0004C02BF400010F4000F013AF9D040EA0C0093F0000F01F0004C02BF490011F4000F013BF9D041EA0C018FE70CEAD15392EA0C0F33
:4014400018BF93EA0C0F0AD030F0004C18BF31F0004CD8D180EA010000F00040704790F0000F17BF90F0004F084691F0000F91F0004F14D092EA0C0F01D142020FD193EAA8
:401480000C0F03D14B0218BF084608D180EA010000F0004040F0FE4040F40000704740F0FE4040F4400070474FF0FF0C1CEAD0521EBF1CEAD15392EA0C0F93EA0C0F69D084
:4014C000A2EB030280EA010C49024FEA402037D04FF0805343EA111143EA10130CF000408B4238BF5B0042F17D024FF4000C8B4224BF5B1A40EA0C00B3EB510F24BFA3EB21
:40150000510340EA5C00B3EB910F24BFA3EB910340EA9C00B3EBD10F24BFA3EBD10340EADC001B0118BF5FEA1C1CE0D1FD2A3FF650AF8B4240EBC25008BF20F001007047E6
:401540000CF0004C4CEA50207F32C2BFD2F1FF0340EAC250704740F400004FF00003013A37E792F0000F00F0004C02BF400010F4000F013AF9D040EA0C0093F0000F01F026
:40158000004C02BF490011F4000F013BF9D041EA0C0195E70CEAD15392EA0C0F08D142027FF47DAF93EA0C0F7FF470AF084676E793EA0C0F04D14B023FF44CAF08466EE73B
:4015C00030F0004C18BF31F0004CCAD130F000427FF45CAF31F000437FF43CAF5FE700BF014B1868704700BF2C81FF1F0E4B70B51E460E4C0025E41AA410A54204D056F8D0
:40160000253098470135F8E700F042F8084B094C1E46E41AA4100025A54204D056F8253098470135F8E770BD9C1600009C1600009C160000A416000010B5431E0A449142BE
:4016400004D011F8014B03F8014FF8E710BD03460244934202D003F8011BFAE77047000000000000004F00401800405100403000000001400010001401400008004001408E
:40168000000A004C014000020050014020004300F8B500BFF8BC08BC9E4670475D0000005D050000F8B500BFF8BC08BC9E46704739000000C8160000C880FF1F68000000FB
:4016C00020000000000000000000000000000000000000000000000000000000000000000000000000000000000000008E1600000000000000000000000000000000000026
:401700000000000000000000000000000000000000000000000000000000000000000000000000000000000000000000CC80FF1F000000000000000000000000000000003F
:401740000000000000000000000000000000000000000000000000000000000000000000000000000000000000000000000000000000000000000000000000000000000069
:401780000000000000000000000000000000000000000000000000000000000000000000000000000000000000000000000000000000000000000000000000000000000029
:4017C00000000000000000000000000000000000000000000000000000000000000000000000000000000000000000000000000000000000000000000000000000000000E9
:4018000000000000000000000000000000000000000000000000000000000000000000000000000000000000000000000000000000000000000000000000000000000000A8
:020000040003F7
:0200000480007A
:40000000024F00400752004001050140010B0140081401400C1501400617014003190140021B01400441014007420140074301400245014001460140104801401449014048
:400040000D4C0140034D01400A36161B091818A019206006610578037905EE08EE08180228013001340238083E1558045F010B081110192A8528911093089D02AF04C202B2
:40008000C402E408EA0185029110AD10E202E408E810E202E408E810E408EA0106020F08C080C280538057049A02A384AF80D460EE101B011C101F0464089A02C630D880A3
:4000C0000F02C201AF015110560257205B20640885109A029C08A301AF04B410D4E0D620D880E240EC100320072063026410778084189B809C089F20A301A720AB80AF01DB
:40010000C030D640D880DE20E650EA80EC100B010F0459406080630287059880B480C203D401D602D802E80885409D40AB010000880000880000000000000000000707004A
:4001400007000000000F0F000F000000C00000FC3C003C0000000000800000800000000000000000030000BBB800B8000000000000000000000000000000000000000000E9
:40018000000000000000000000000000000000000000000000000000000000000000000000000000000000000000000000000000000000000000000000000000000000003F
:4001C00000000000000000000000000000000000000000000000000000000000000000000000000000000000000000000000000000000000000000000000000000000000FF
:4002000000000000000000000000000000000000000000000000000000000000000000000000000000000000000000000000000000000000000000000000000000000000BE
:40024000000000000000000000000000000000000000000000000000000000000000000000000000000000000000000000000000000000000000000000000000000000007E
:0200000490006A
:0400000000000007F5
:0200000490105A
:04000000BC90ACAF55
:0200000490303A
:020000004EDDD3
:0200000490402A
:4000000000000000000000000000000000000000000000000000000000000000000000000000000000000000000000000000000000000000000000000000000000000000C0
:400040000000000000000000000000000000000000000000000000000000000000000000000000000000000000000000000000000000000000000000000000000000000080
:400080000000000000000000000000000000000000000000000000000000000000000000000000000000000000000000000000000000000000000000000000000000000040
:4000C0000000000000000000000000000000000000000000000000000000000000000000000000000000000000000000000000000000000000000000000000000000000000
:0200000490501A
:0C00000000012E16106900002E1F5F4644
:00000001FF