:4000000000800020110000000D0700000D07000080B500AF024A034B1B68136000F080FBBC760040FA46004010B5054C237833B9044B13B10448AFF300800123237010BD74
:400040004881FF1F00000000B8170000084B10B51BB108490848AFF300800848036803B910BD074B002BFBD0BDE81040184700BF000000004C81FF1FB8170000C880FF1F64
:400080000000000080B500AF62B6012000F0C0FD00F01EFC00F0ECFC3221322000F08EF800F0E2FD0346002B04D100F00DFE0346002B18D000F008FE0346002B04D100F0DB
:4000C000F3FD0346002B0ED000F0FEFD0346002B0ED100F0E9FD0346002B09D100F0C4FD0346002B04D14121412000F067F863E000F0EAFD0346002B1BD100F0F5FD0346AB
:40010000002B16D100F0D0FD0346002B11D108E02321412000F052F800F098FD0346002B05D000F0A1FD0346002BF1D144E000BF42E000F0C9FD0346002B1BD100F0A4FD95
:400140000346002B16D100F0AFFD0346002B11D108E04121232000F031F800F077FD0346002B05D000F080FD0346002BF1D123E000BF21E000F078FD0346002B09D000F0D7
:40018000C3FD0346002B04D13C21412000F016F812E000F069FD0346002B09D000F056FD0346002B04D141213C2000F007F803E03221322000F002F872E700BFB0B584B089
:4001C00000AF03460A46FB711346BB7100F044FC0346184601F058FA0346184600F018FF04460D46FB79184600F000FF4FF000021F4B01F08BF802460B462046294600F023
:400200005BFF03460C461846214601F067F90346FB7300F0F1FC0346184601F035FA0346184600F0F5FE04460D46BB79184600F0DDFE4FF000020E4B01F068F802460B4650
:400240002046294600F038FF03460C461846214601F044F90346BB73FB7B184600F0DCFBBB7B184600F0A8FC00BF1037BD46B0BD0000594080B582B000AF786039603A6882
:400280000021786801F08FFA00BF0837BD4680BD80B584B000AFF860B9607A607A68B968F86801F075FA00BF1037BD4680BD00BF80B483B000AF0346FB71FEE780B487B03F
:4002C00000AF7860396000233B6100237B6127E07B699B007A6813441B68BB60BB68FB73BB6823F0FF03BB6014E03B695B003A6813441B781A46BB68134419463B695B0028
:400300003A6813445B780B703B6901333B61FB7B013BFB73FB7B002BE7D17B6901337B617B692B2BD4D900BF1C37BD4680BC704780B582B000AF404B04221A803F4B182281
:400340001A703F4B14221A803E4B18221A703E4B3B221A803D4B18221A703D4B77221A803C4B1C221A703C4B81221A803B4B18221A703B4B4FF6FF721A803A4B1B221A7046
:40038000394B06221A70394B52221A70384B394A1278D2B21A70384B40F619121A80374B41F251221A800023FB7019237B6014E0FB785B00DAB2324B1B78DBB203F0010320
:4003C000DBB21343DBB203F00303FB704FF4F07000F0AAFC7B68013B7B607B68002B02D0FB78032BE4D17B68002B02D10320FFF75FFF244B4FF480721A80224B07221A700A
:40040000214B00221A70214B48221A701D4B00221A701F4B00221A701E4B02221A701E4A1D4B1B78DBB243F03F03DBB2137000BF0837BD4680BD00BF80400040824000408F
:400440008440004086400040884000408A4000408C4000408E400040904000409240004094400040964000400043004000420040A14600400F01004922420040204200402F
:40048000254200400440004006400040084000400940004001400040A243004080B582B000AF214B1B78FB71204B1B78BB71204B1B787B711F4AFB7903F00703DBB2137055
:4004C0001D4AFB791B09DBB21370184ABB7943F00303DBB21370164A7B7943F00303DBB21370164B20221A70154B10221A70154B80221A70144B01221A70144B20221A7065
:40050000134B20221A700A2000F0CEF9084A7B791370064ABB7913700E4B44221A7000BF0837BD4680BD00BFCF010049F8460040F94600406E5800406F5800400D510040D9
:40054000FD51004001590040805A0040205B0040235B00407658004080B586B000AF72B6514B61221A70FFF7E3FE4F4B01221A700023FB7513E0FA7D13465B0013445B0046
:400580004A4A13443B613B691A683B699B889BB219461046FFF76EFEFB7D0133FB75FB7D062BE8D90023FB751CE0FA7D13469B0013445B003E4A1344FB60FB681B68BB60F6
:4005C000FB685B687B60FB681A7A5B7A1B0213437B807B881A467968B868FFF759FEFB7D0133FB75FB7D002BDFD032494FF09040FFF764FE04213048FFF73CFE04222F4954
:400600002F48FFF745FE2F4A2E4B1B78DBB243F00203DBB213702C4A2B4B1B78DBB243F00203DBB21370294A284B1B78DBB243F04003DBB21370264A254B1B78DBB243F09D
:400640001003DBB213700A2222492348FFF720FE082222492248FFF71BFE0A2221492248FFF716FE082221492148FFF711FE0A2220492148FFF70CFE082220492048FFF738
:4006800007FE204A1F4B1B78DBB243F00803DBB21370FFF703FF0E220C491B48FFF7F8FD00BF1837BD4680BD00480040BC170000E8170000B000004800760040201000485A
:4006C000087600400350014013500140A0430040C2430040E40F004800510040F00F0048C2510040F80F0048F051004004100048125100400C1000482051004018100048E2
:400700003251004022430040B043004080B500AF01F012F803461B680C2B00D1FEE7FEE780B586B000AF224B7B61224B3B61204B7B6135E03B691B68FB603B695B68BB60D5
:400740003B699B683B6000237B600CE0FB681A68BB681A60BB680433BB60FB680433FB607B6804337B607A683B689A42EED13B69DB683B6000237B6008E0BB6800221A6025
:40078000BB680433BB607B6804337B607A683B689A42F2D13B6910333B617B69013B7B617B69002BC6D100F0CDFFFFF76BFCFEE7010000001818000080B582B000AF194BDD
:4007C000194A1A60194A194B1B6843F40073136000237B600FE07B68032B04D8144A7B6852F8233000E0134B13497A6841F822307B6801337B607B682F2BECD90F4B1B7815
:40080000DAB20F4B1A700F4B0B4A1A60FFF7A4FE00F01CF80C4B00221A6000BF0837BD4680BD00BF0CED00E00004FA0514ED00E0000000000D0700000080FF1FBC760040B2
:40084000C480FF1F08ED00E0C080FF1F80B483B000AF134B7F221A70124B80221A707F23FB710CE0FB79DB0003F1804303F5F043FA79013AD2B21A70FB79013BFB71FB7944
:40088000002BEFD1FB79DB0003F1804303F5F04300221A7000BF0C37BD4680BC704700BFCD80FF1FCC80FF1F80B582B000AF0346FB80FB88054A127802FB03F3184600F06D
:4008C00033FA00BF0837BD4680BD00BFDC80FF1F80B500AF064B1B78002B04D100F00AF8034B01221A7000F063F800BF80BD00BF6481FF1F80B582B000AF284A274B1B7809
:40090000DBB243F00203DBB21370254B1B78DBB223F07003FB71224AFB7943F01003DBB21370204A1F4B1B78DBB223F03003DBB213701C4A1B4B1B78DBB243F03003DBB201
:400940001370184A174B1B78DBB223F00F03DBB21370144A134B1B78DBB243F00F03DBB21370FF2000F048F8322000F055F8002000F062F80C4A0C4B1B78DBB243F001035E
:40098000DBB21370094A094B1B78DBB243F00103DBB2137000BF0837BD4680BD004F0040024F00400B4F0040A3430040014F004080B400AF0D4A0D4B1B78DBB243F0010382
:4009C000DBB213700A4A0A4B1B78DBB243F00103DBB21370074A074B1B78DBB243F00103DBB2137000BFBD4680BC7047A3430040B3430040004F004080B483B000AF0346CE
:400A0000FB71044BFA7992B21A8000BF0C37BD4680BC7047044F004080B483B000AF0346FB71044BFA7992B21A8000BF0C37BD4680BC7047064F004080B483B000AF0346C8
:400A4000FB71044AFB79137000BF0C37BD4680BC704700BF034F004080B400AF034B1B889BB2DBB21846BD4680BC7047044F004080B500AF064B1B78002B04D100F00AF82D
:400A8000034B01221A7000F063F800BF80BD00BF6581FF1F80B582B000AF284A274B1B78DBB243F00203DBB21370254B1B78DBB223F07003FB71224AFB7943F01003DBB29A
:400AC0001370204A1F4B1B78DBB223F03003DBB213701C4A1B4B1B78DBB243F03003DBB21370184A174B1B78DBB223F00F03DBB21370144A134B1B78DBB243F00F03DBB200
:400B00001370FF2000F048F8322000F055F8002000F062F80C4A0C4B1B78DBB243F00203DBB21370094A094B1B78DBB243F00103DBB2137000BF0837BD4680BD0C4F0040EE
:400B40000E4F0040174F0040A34300400D4F004080B400AF0D4A0D4B1B78DBB243F00203DBB213700A4A0A4B1B78DBB243F00203DBB21370074A074B1B78DBB243F001036B
:400B8000DBB2137000BFBD4680BC7047A3430040B34300400C4F004080B483B000AF0346FB71044BFA7992B21A8000BF0C37BD4680BC7047104F004080B483B000AF034618
:400BC000FB71044BFA7992B21A8000BF0C37BD4680BC7047124F004080B483B000AF0346FB71044AFB79137000BF0C37BD4680BC704700BF0F4F004080B400AF034B1B8817
:400C00009BB2DBB21846BD4680BC7047104F004080B485B000AF0346FB710B4B1B78DBB223F00803FB730849FB79DB00DBB203F00803DAB2FB7B1343DBB20B7000BF143783
:400C4000BD4680BC704700BF1051004080B400AF044B1B78DBB203F00103DBB21846BD4680BC70473151004080B400AF054B1B78DBB203F002035B08DBB21846BD4680BC5A
:400C8000704700BF3151004080B400AF054B1B78DBB203F00803DB08DBB21846BD4680BC704700BF0151004080B400AF054B1B78DBB203F08003DB09DBB21846BD4680BCBF
:400CC000704700BF0151004080B400AF054B1B78DBB203F08003DB09DBB21846BD4680BC704700BF2151004080B400AF054B1B78DBB203F040039B09DBB21846BD4680BC96
:400D0000704700BF1151004080B400AF054B1B78DBB203F08003DB09DBB21846BD4680BC704700BF115100400230800803D000BF01380046FCD17047EFF3108072B670470C
:400D400080F31088704700BF81F0004102E000BF83F0004330B54FEA41044FEA430594EA050F08BF90EA020F1FBF54EA000C55EA020C7FEA645C7FEA655C00F0E2804FEACE
:400D80005454D4EB5555B8BF6D420CDD2C4480EA020281EA030382EA000083EA010180EA020281EA0303362D88BF30BD11F0004F4FEA01314FF4801C4CEA113102D040420D
:400DC00061EB410113F0004F4FEA03334CEA133302D0524263EB430394EA050F00F0A780A4F10104D5F1200E0DDB02FA0EFC22FA05F2801841F1000103FA0EF2801843FA59
:400E000005F359410EE0A5F120050EF1200E012A03FA0EFC28BF4CF0020C43FA05F3C01851EBE37101F0004507D54FF0000EDCF1000C7EEB00006EEB0101B1F5801F1BD31B
:400E4000B1F5001F0CD349085FEA30004FEA3C0C04F101044FEA445212F5800F80F09A80BCF1004F08BF5FEA500C50F1000041EB045141EA050130BD5FEA4C0C404141EB04
:400E8000010111F4801FA4F10104E9D191F0000F04BF01460020B1FA81F308BF2033A3F10B03B3F120020CDA0C3208DD02F1140CC2F10C0201FA0CF021FA02F10CE002F11C
:400EC0001402D8BFC2F1200C01FA02F120FA0CFCDCBF41EA0C019040E41AA2BF01EB0451294330BD6FEA04041F3C1CDA0C340EDC04F11404C4F1200220FA04F001FA02F3FC
:400F000040EA030021FA04F345EA030130BDC4F10C04C4F1200220FA02F001FA04F340EA0300294630BD21FA04F0294630BD94F0000F83F4801306BF81F480110134013DE9
:400F40004EE77FEA645C18BF7FEA655C29D094EA050F08BF90EA020F05D054EA000C04BF1946104630BD91EA030F1EBF0021002030BD5FEA545C05D14000494128BF41F068
:400F8000004130BD14F580043CBF01F5801130BD01F0004545F0FE4141F470014FF0000030BD7FEA645C1ABF194610467FEA655C1CBF0B46024650EA013406BF52EA03358E
:400FC00091EA030F41F4002130BD00BF90F0000F04BF0021704730B54FF4806404F132044FF000054FF0000150E700BF90F0000F04BF0021704730B54FF4806404F1320426
:4010000010F0004548BF40424FF000013EE700BF42004FEAE2014FEA31014FEA02701FBF12F07F4393F07F4F81F06051704792F0000F14BF93F07F4F704730B54FF4607416
:4010400001F0004521F0004120E700BF50EA010208BF704730B54FF000050AE050EA010208BF704730B511F0004502D5404261EB41014FF4806404F132045FEA915C3FF4CC
:40108000DCAE4FF003025FEADC0C18BF03325FEADC0C18BF033202EBDC02C2F1200300FA03FC20FA02F001FA03FE40EA0E0021FA02F11444C1E600BF70B54FF0FF0C4CF493
:4010C000E06C1CEA11541DBF1CEA135594EA0C0F95EA0C0F00F0DEF82C4481EA030621EA4C5123EA4C5350EA013518BF52EA033541F4801143F4801338D0A0FB02CE4FF0C1
:401100000005E1FB02E506F00042E0FB03E54FF00006E1FB03569CF0000F18BF4EF0010EA4F1FF04B6F5007F64F5407404D25FEA4E0E6D4146EB060642EAC62141EA55519A
:401140004FEAC52040EA5E504FEACE2EB4F1FD0C88BFBCF5E06F1ED8BEF1004F08BF5FEA500E50F1000041EB045170BD06F0004646EA010140EA020081EA0301B4EB5C04F6
:40118000C2BFD4EB0C0541EA045170BD41F480114FF0000E013C00F3AB8014F1360FDEBF002001F0004170BDC4F10004203C35DA0C341BDC04F11404C4F1200500FA05F329
:4011C00020FA04F001FA05F240EA020001F0004221F0004110EBD37021FA04F642EB06015EEA430E08BF20EAD37070BDC4F10C04C4F1200500FA04F320FA05F001FA04F24D
:4012000040EA020001F0004110EBD37041F100015EEA430E08BF20EAD37070BDC4F1200500FA05F24EEA020E20FA04F301FA05F243EA020321FA04F001F0004121FA04F26B
:4012400020EA020000EBD3705EEA430E08BF20EAD37070BD94F0000F0FD101F00046400041EB010111F4801F08BF013CF7D041EA060195F0000F18BF704703F000465200F4
:4012800043EB030313F4801F08BF013DF7D043EA0603704794EA0C0F0CEA135518BF95EA0C0F0CD050EA410618BF52EA4306D1D181EA030101F000414FF0000070BD50EA91
:4012C000410606BF1046194652EA430619D094EA0C0F02D150EA013613D195EA0C0F05D152EA03361CBF104619460AD181EA030101F0004141F0FE4141F470014FF00000B8
:4013000070BD41F0FE4141F4780170BD70B54FF0FF0C4CF4E06C1CEA11541DBF1CEA135594EA0C0F95EA0C0F00F0A7F8A4EB050481EA030E52EA03354FEA013100F08880D8
:401340004FEA03334FF0805545EA131343EA12634FEA022245EA111545EA10654FEA00260EF000419D4208BF964244F1FD0404F5407402D25B084FEA3202B61A65EB0305D2
:401380005B084FEA32024FF480104FF4002CB6EB020E75EB030E22BFB61A754640EA0C005B084FEA3202B6EB020E75EB030E22BFB61A754640EA5C005B084FEA3202B6EB02
:4013C000020E75EB030E22BFB61A754640EA9C005B084FEA3202B6EB020E75EB030E22BFB61A754640EADC0055EA060E18D04FEA051545EA16754FEA06164FEAC30343EA0D
:4014000052734FEAC2025FEA1C1CC0D111F4801F0BD141EA00014FF000004FF0004CB6E711F4801F04BF01430020B4F1FD0C88BFBCF5E06F3FF6AFAEB5EB030C04BFB6EB60
:40144000020C5FEA500C50F1000041EB045170BD0EF0004E4EEA113114EB5C04C2BFD4EB0C0541EA045170BD41F480114FF0000E013C90E645EA060E8DE60CEA135594EA4F
:401480000C0F08BF95EA0C0F3FF43BAF94EA0C0F0AD150EA01347FF434AF95EA0C0F7FF425AF104619462CE795EA0C0F06D152EA03353FF4FDAE1046194622E750EA4106AF
:4014C00018BF52EA43067FF4C5AE50EA41047FF40DAF52EA43057FF4EBAE12E74A0011D212F5001211D20DD56FF47873B3EB62520ED44FEAC12343F0004343EA505323FA66
:4015000002F070474FF00000704750EA013002D14FF0FF3070474FF00000704780F0004002E000BF81F0004142001FBF5FEA410392EA030F7FEA226C7FEA236C6AD04FEA13
:401540001262D2EB1363C1BFD218414048404140B8BF5B42192B88BF704710F0004F40F4000020F07F4018BF404211F0004F41F4000121F07F4118BF494292EA030F3FD079
:40158000A2F1010241FA03FC10EB0C00C3F1200301FA03F100F0004302D5494260EB4000B0F5000F13D3B0F1807F06D340084FEA310102F10102FE2A51D2B1F1004F40EB4B
:4015C000C25008BF20F0010040EA03007047490040EB000010F4000FA2F10102EDD1B0FA80FCACF1080CB2EB0C0200FA0CF0AABF00EBC25052421843BCBFD04018437047D8
:4016000092F0000F81F4000106BF80F400000132013BB5E74FEA41037FEA226C18BF7FEA236C21D092EA030F04D092F0000F08BF0846704790EA010F1CBF0020704712F02E
:401640007F4F04D1400028BF40F00040704712F100723CBF00F50000704700F0004343F0FE4040F4000070477FEA226216BF08467FEA23630146420206BF5FEA412390EA58
:40168000010F40F4800070474FF0000304E000BF10F0004348BF40425FEA000C08BF704743F0964301464FF000001CE050EA010208BF70474FF000030AE000BF50EA0102BA
:4016C00008BF704711F0004302D5404261EB41015FEA010C02BF84460146002043F0B64308BFA3F18053A3F50003BCFA8CF2083AA3EBC25310DB01FA02FC634400FA02FC68
:40170000C2F12002BCF1004F20FA02F243EB020008BF20F00100704702F1200201FA02FCC2F1200250EA4C0021FA02F243EB020008BF20EADC707047014B1868704700BF4D
:401740004481FF1F0E4B70B51E460E4C0025E41AA410A54204D056F8253098470135F8E700F048F8084B094C1E46E41AA4100025A54204D056F8253098470135F8E770BD8F
:401780000018000000180000001800000818000010B5431E0A44914204D011F8014B03F8014FF8E710BD03460244934202D003F8011BFAE77047000000000000004F0040E6
:4017C000300040510040300000000140001000140140000800400140000A004C01400002105001401000000000500140D40F004810004300F8B500BFF8BC08BC9E467047B1
:401800004D000000B9070000F8B500BFF8BC08BC9E4670472900000028180000C880FF1F800000002000000000000000807F0000030000000087930360EA00003C00000008
:40184000000030750000000000000000000000000000000000000000000000000000000000000000F2170000000000000000000000000000000000000000000000000000BA
:40188000000000000000000000000000000000000000000000000000000000000000000000000000E480FF1F000000000000000000000000000000000000000000000000A6
:4018C00000000000000000000000000000000000000000000000000000000000000000000000000000000000000000000000000000000000000000000000000000000000E8
:4019000000000000000000000000000000000000000000000000000000000000000000000000000000000000000000000000000000000000000000000000000000000000A7
:401940000000000000000000000000000000000000000000000000000000000000000000000000000000000000000000000000000000000000000000000000000000000067
:401980000000000000000000000000000000000000000000000000000000000000000000000000000000000000000000000000000000000000000000000000000000000027
:020000040003F7
:0200000480007A
:4000000001450040084F00400B520040015B004005640040026500405000014036010140510201404A030140370401405305014024060140500701403808014050090140BC
:400040003B0A01404D0B01406B0C0140540D0140480E01403B0F01402B14014050150140381601404F1701404F1801404F190140411A0140581B01400E40014018410140BF
:400080001A42014017430140034401400C4501400C460140144701400E48014014490140124C0140094D014005500140035101407E0201200A1B0D20161B1950224B2530DA
:4000C0002E4B00200830092411081828193060046105780979037C402784856F88728A6F8D0F8F0F8438880F04020A020C0412011C021F0128042C04300231013204340120
:4001000038083E054023410649FF4AFF4BFF4DA04F0150185608580459045A045B045C105D905F016040628064406540668068406A806C406D206E808E0C920394049C01B7
:40014000A204B001B208B404B602BE11C023C104C50CC634C72EC83DC9FFCAFFCBFFCDAFCE07CF01D018D280D804D904DA04DB04DC10DF01E040E280E440E540E680E84071
:40018000EA80EC40ED20EE8000280302048008020A010B020E210F80112012011680181819021E652340288129202B202D202F2032883481354036083B413F414010420405
:4001C0004314471648044F04551056095740584060027680830B87018840C087C2B9C413CA6FCCDACE99D0E6D204D608D808E004E404E60101FE030104100C020D0E0E0C4D
:400200000FF011A3135C140415C51602173A180219961A041B681C021E04220123012D7F3010320633FF340836013A083E013F045608580459045B045D905F01810B8304ED
:40024000851086808760890C8B028C1C8F809128920293119414951096689720990C9A019B019C4C9E30A07CA510A720A868AA14AB0FAC70AD07AE0CB0C0B130B202B340FC
:40028000B401B50FB63CB780BB02D608D804D904DB04DD90DF01031204080702081209080A020E2A1004110112021680188619061A011D081EAA1F4020C021102205230A2A
:4002C0002710281029142B022D022F02302032053404351036123708380639203B803C803D013E0158805F806002668086408A0192409344948097019A099C019D60A1101C
:40030000A308A450A688A723A804AC14AF02B040B502C0A5C2EFC41BCA9ECCE7CE9FD618D818E202E808EC01EE06002001160308052009180B020C180F1E100C1118130410
:40034000172018021A201B401D0E201423012418250129102B022C022E012F20301C311E32013320342035013602374038823E103F145280580459045B045F018401880193
:400380008E0190019C01A001A801B401D40FD804D904DB04DC11DF050002020205600720081009100A800F411101120113081408170119041A851B021D202002210822227F
:4003C000284029142A812D202F203010324233083401354036083701384039293F415D105E466608670472807F02810883028440853088108A018C048E108F019040912161
:40040000924093449408970199109A099B089C019D60A110A308A430A68AA723AB80B110B210B481C0E9C29AC45DCA6FCCDFCE9FD6F0D860DE10E015E602E810EA045804C7
:4004400059045C115F018004860887048A028B018C408E809204960198019C02A010A220A408A702A820AA10AC80AE40B2FFB302B504B701BE04D602D73AD804D904DB0CDA
:40048000DC10DD10DF01000401210284030304040520070109080A050B400C100F40100A1104130217221908200421882208232328012A082B022D202F02318832013310B6
:4004C00035403608371239163B403F40400C43105B046310680A6915720D738079408240852188108A019220936097019C099D609E049F20A688A701AA04AD04AF10B0209C
:40050000B202B340B408B621B720C0EFC25FC45FCA3ACCFFCE1FD602D802DE08E201E420E609E805EA8808100A0C1010141C160218201A031C091E10200C221124142F0129
:4005400032203301341F3E044046410242054401450E470C481149FF4AFF4BFF4C624DA04EF04F41500C56025711580459045A045B045C145D445F016640670269106A30A3
:400580006B106D106E106F12D608D804D904DB04DC11DD90DF010124070808200A100D220E010F10110B1380150817021D201F042420250428A029202D012E5834A03780BF
:4005C000382039853D043F80458047114C044D084E02570858105B405E20600E63086D206E046F0274A0762083088440880889208A08910594209580970898309B809E085F
:40060000A408AA40AB80AC10AF10B101B201B301B420B704C046C2F6C43DCAF7CC30CE5FD0B0D230D62CD80CE020E201E420E860EA80EC20EE0204100A100C010D041001D3
:400640001304150118021A041B081C021D011E0420042202230424022604270228082E013006310132103302340135083608370439023A023E543F40540F580459045B0480
:400680005F0585948760897391CF933095FD9702A130A3C9A59EA760AB0FB5FFBF10D608D804D904DB04DC01DD90DF0100C4020804200780080209800B040D400F08100891
:4006C0001222130115071608170419181A011B012243231427082A022B102C602F08308032293604370138403C083E20590A5B505E406104621067027880822487048C8048
:400700008F1590049301968098C299069A129B409D109E049F09A0E4A180A22CA318A701A904B064B108B240B604C057C2CBC47FCAE3CCCFCE68D61FD816DE08E240E41818
:40074000E602E8C0EC2000940154026003A004CF05C0063007340CFD0E020F07120F19A11B521C301D771EC92073213123C22708289E2A602DF731F034FF370F39083E1012
:400780003F044025410149FF4AFF4BFF4DA04F015018580459045A045F016040628064406540668068406A806C406D206E80840885A3875C8D0E8FF0900191FE930199C52B
:4007C0009B3AA001A17FA20CA701A801AA02AD96AF68B008B204B3FFB402B601B880BE41BF04C025C101C52EC6C4C703C81FC9FFCAFFCBFFCDAFCE07CF01D018D40FD804DF
:40080000D904DA04DB04DF01E040E280E440E540E680E840EA80EC40ED20EE800108048806800A400E800F03108012081480164017101804194A1A021F2022042480254605
:40084000264028802B112F6230013102321033123480371038483A803B843D803F064002420844024540460E488049444E015298580559105A805C805E4088049048926013
:40088000960897019B409C409F09A040A180A220A318A508A684A702A802A980AC04AF08B080B102B204B420C0B4C298C45ACADBCC35CEDAD03CD218D60FE020E202E840DD
:4008C000EA80EE0401020CAD0E10107C14D116081A021F03221D28D12A042C012E042F0430E03101321D33023403350438023F045608580459045B045D905F01801081086E
:40090000830186178807890C8B028D108E048F6091079401950C96029701980799109B209C04A110A220A3A0A520A608A71FAA10AC01AD0BAE02AF04B010B130B20FB34060
:40094000B50FB620B780BB02BE01D40FD804D904DB04DF0103020422050407010A680C400D080E0811201202130114051640170819091A601B101D041E801F8820902101C4
:400980002220244825522602271028022E042F8232803509371039023DA03F0158805C205D065E8062407D0C80118104831088018C108D028E048F40C0F1C2EEC4FBCAD8D7
:4009C000CCE8CEB1D6F8D808E420020104030710080409020C020E010F20120C13041503161018031B081E021F20210425032B102C012F013004310C32083303340335103C
:400A00003610372039083F5454185604580C59045B045C915D405F01D804D904DC11DF0100080202038805A2072209820A040B200E020F401380140819011A041B692020BA
:400A4000210222802304281229112DA23004310232503408360137203A603B083F40580160806280630469106B01794084108701880189108A408C028D01914092A09368F6
:400A8000981C99329A209BA29C82A004A180A203A380A761AC80AD10AE20AF04B004B302B504C0FFC29FC441CABFCCEFCE1ED601D80DDE08E008E201E802EA08EC20EE08E1
:400AC000580459045C115F0182048510861088028B029004910893049408950D99049A019B089D049E22A102A501A608A801B10CB301B420B510B61FB702B880B908BE403B
:400B0000BF14C041C103C50EC6CBC80DC9FFCAFFCBFFCEF0CF44D00CD203D302D804D90CDA04DB04DC11DD14DF01E6C0EA40EB02012903010522072108080A050BC00F4083
:400B40001184128013221408170219601A0221902202231029042B402D202F40320233A43409368137213B243D804002430A48104B04525059025A02680469406B047940B4
:400B80007D807E01832084108650870888108D408F02910592A59360954096029710980999189BA29D609F04A380A701A910AB02B402B7A0C0FFC21FC45FCAA3CCFFCE1607
:400BC000D00BDE08E00AE404E603EA04EE0402080308041C0623072008800B150D030F1410211120120E144016031720188019201D131E1C1F0420802421250A261627142A
:400C000028802D132F0C301A31103280340F350F36603720388039803A223B283E043F0154015604580459045B045C445D405F01820C830487128C308EC390409109921102
:400C400093129480962298F39A04A318A8F3AA08AC51AEA2AF09B0F0B103B60FB71CBA80BF40D804D904DB04DC44DF010041041005080648080A0A040E890F201002112037
:400C80001719184319011D201EA11F102181230126882798280229012D882F1030023644371138063C803E093F20450246405D015FA46440680284408504864087228901D3
:400CC0008E208F01900491809204940895089601971098AA99209A209C409F1BA0A0A111A346A582A612A90CAB40B540B650B740C079C2FEC473CA59CCF1CEF3D6F0D8807E
:400D0000E050E484E601EA40EC50580459045C115F018020811184308508881089088CCF8D118E308F069004910792089310951796C398089B119C3C9D069EC19F11A10477
:400D4000A20CA47CA502A682A8FFA906AC04AD08B2B0B310B43FB508B670B707BA28BB80C006C740C9FFCA07CBFFCC40CD20CEF0CF05D008D401D804D904DA04DB0CDC443F
:400D8000DD14DF01E040E1A8E240E3200120020105020628070108E00C020E220F08114212601402150217181C101E081F402408254026102721282029202A412B402CA0E2
:400DC0002D022E282F0230403220369939C03DA03E043F014A024B804F10550257105D805E085F087F018010828587108B608D808F10918292049303941898A299209A2099
:400E00009B109F01A0A2A111A228A346A502A606A710AD20AE80AF14B180B308C0F3C2F3C4FDCAFFCCFCCEF8D220D610DE10E080E211E440E6A0EA10EC20EE80108016802F
:400E400032023380364037043B423E807F888780C430CCF0CE70E610034006820F0832803308371052085E018410860297409F04A080A308A642AB01C0B0C280CC70D42007
:400E8000D680E240E640EE20120814021710530457046201660186418D049601974098109A039F14A080A304A6C8AA81B740C4C0D460D8C0E210E640E880EA2019041B0488
:400EC0001D0262016601830486808902974098109A039D049F04A680A880AC02B304C630D8C0E280E610E820EC4010101440C40C01200B200F02584084089620AA10B0508F
:400F0000C002C209D401EA051A202410844087409320962099209C40A301A408C608C80109100B400C084040440181108B0490109220931097409920A408AF10B311C20EA1
:400F4000D006E404EA01EC0120805004560257105B408310974098109A02A304C840D4E0D620E68003400408561063086410798081408610940898109F40A304AF40B04093
:400F8000C030D440D8C0DC80E2C0EE400B010D8058405F046710804081809010931494409C01B520B610C203D401D601D801EA0A8301884093019C40B001B410E001EA0808
:400FC000EC04101211011A121B011C1200AB01FF100A0000130100000000000003010300130101010800830C0400042070000000300F0F00070000004000000F0F000F0070
:40100000F0000000C03C3C00340003000800942A2A0008000100000003F8F80038000400000100000000000000000000000000000000000000000000000000000000000028
:401040000000000000000000000000000000000000000000000000000000000000000000000000000000000000000000000000000000000000000000000000000000000070
:401080000000000000000000000000000000000000000000000000000000000000000000000000000000000000000000000000000000000000000000000000000000000030
:4010C00000000000000000000000000000000000000000000000000000000000000000000000000000000000000000000000000000000000000000000000000000000000F0
:4011000000000000000000000000000000000000000000000000000000000000000000000000000000000000000000000000000000000000000000000000000000000000AF
:0200000490006A
:0400000000004007B5
:0200000490105A
:04000000BC90ACAF55
:0200000490303A
:02000000513F6E
:0200000490402A
:4000000000000000000000000000000000000000000000000000000000000000000000000000000000000000000000000000000000000000000000000000000000000000C0
:400040000000000000000000000000000000000000000000000000000000000000000000000000000000000000000000000000000000000000000000000000000000000080
:400080000000000000000000000000000000000000000000000000000000000000000000000000000000000000000000000000000000000000000000000000000000000040
:4000C0000000000000000000000000000000000000000000000000000000000000000000000000000000000000000000000000000000000000000000000000000000000000
:0200000490501A
:0C00000000012E16106900012E2461A8DA
:00000001FF